{
  "address": "0xdE0f537af0B7b14AB366b2a0F7B16D1D947EaF1d",
  "abi": [
    {
      "inputs": [
        {
          "internalType": "uint256",
          "name": "_collectionSize",
          "type": "uint256"
        },
        {
          "internalType": "uint256",
          "name": "_maxPublicBatchPerAddress",
          "type": "uint256"
        },
        {
          "internalType": "uint256",
          "name": "_amountForPromotion",
          "type": "uint256"
        },
        {
          "internalType": "uint256",
          "name": "_mintPrice",
          "type": "uint256"
        }
      ],
      "stateMutability": "nonpayable",
      "type": "constructor"
    },
    {
      "inputs": [],
      "name": "AllOwnershipsHaveBeenSet",
      "type": "error"
    },
    {
      "inputs": [],
      "name": "ApprovalCallerNotOwnerNorApproved",
      "type": "error"
    },
    {
      "inputs": [],
      "name": "ApprovalQueryForNonexistentToken",
      "type": "error"
    },
    {
      "inputs": [],
      "name": "ApprovalToCurrentOwner",
      "type": "error"
    },
    {
      "inputs": [],
      "name": "ApproveToCaller",
      "type": "error"
    },
    {
      "inputs": [],
      "name": "BalanceQueryForZeroAddress",
      "type": "error"
    },
    {
      "inputs": [],
      "name": "HashQueryForNonexistentToken",
      "type": "error"
    },
    {
      "inputs": [],
      "name": "MintToZeroAddress",
      "type": "error"
    },
    {
      "inputs": [],
      "name": "MintZeroQuantity",
      "type": "error"
    },
    {
      "inputs": [],
      "name": "MintedQueryForZeroAddress",
      "type": "error"
    },
    {
      "inputs": [],
      "name": "NoTokensMintedYet",
      "type": "error"
    },
    {
      "inputs": [],
      "name": "OwnerIndexOutOfBounds",
      "type": "error"
    },
    {
      "inputs": [],
      "name": "OwnerQueryForNonexistentToken",
      "type": "error"
    },
    {
      "inputs": [],
      "name": "QuantityMustBeNonZero",
      "type": "error"
    },
    {
      "inputs": [],
      "name": "TokenIndexOutOfBounds",
      "type": "error"
    },
    {
      "inputs": [],
      "name": "TransferCallerNotOwnerNorApproved",
      "type": "error"
    },
    {
      "inputs": [],
      "name": "TransferFromIncorrectOwner",
      "type": "error"
    },
    {
      "inputs": [],
      "name": "TransferToNonERC721ReceiverImplementer",
      "type": "error"
    },
    {
      "inputs": [],
      "name": "TransferToZeroAddress",
      "type": "error"
    },
    {
      "inputs": [],
      "name": "URIQueryForNonexistentToken",
      "type": "error"
    },
    {
      "anonymous": false,
      "inputs": [
        {
          "indexed": true,
          "internalType": "address",
          "name": "owner",
          "type": "address"
        },
        {
          "indexed": true,
          "internalType": "address",
          "name": "approved",
          "type": "address"
        },
        {
          "indexed": true,
          "internalType": "uint256",
          "name": "tokenId",
          "type": "uint256"
        }
      ],
      "name": "Approval",
      "type": "event"
    },
    {
      "anonymous": false,
      "inputs": [
        {
          "indexed": true,
          "internalType": "address",
          "name": "owner",
          "type": "address"
        },
        {
          "indexed": true,
          "internalType": "address",
          "name": "operator",
          "type": "address"
        },
        {
          "indexed": false,
          "internalType": "bool",
          "name": "approved",
          "type": "bool"
        }
      ],
      "name": "ApprovalForAll",
      "type": "event"
    },
    {
      "anonymous": false,
      "inputs": [
        {
          "indexed": true,
          "internalType": "address",
          "name": "to",
          "type": "address"
        },
        {
          "indexed": false,
          "internalType": "uint256",
          "name": "currentTotalSupply",
          "type": "uint256"
        },
        {
          "indexed": false,
          "internalType": "uint256",
          "name": "invocations",
          "type": "uint256"
        },
        {
          "indexed": false,
          "internalType": "bytes32[]",
          "name": "identifiers",
          "type": "bytes32[]"
        }
      ],
      "name": "Created",
      "type": "event"
    },
    {
      "anonymous": false,
      "inputs": [
        {
          "indexed": true,
          "internalType": "address",
          "name": "previousOwner",
          "type": "address"
        },
        {
          "indexed": true,
          "internalType": "address",
          "name": "newOwner",
          "type": "address"
        }
      ],
      "name": "OwnershipTransferred",
      "type": "event"
    },
    {
      "anonymous": false,
      "inputs": [
        {
          "indexed": true,
          "internalType": "address",
          "name": "from",
          "type": "address"
        },
        {
          "indexed": true,
          "internalType": "address",
          "name": "to",
          "type": "address"
        },
        {
          "indexed": true,
          "internalType": "uint256",
          "name": "tokenId",
          "type": "uint256"
        }
      ],
      "name": "Transfer",
      "type": "event"
    },
    {
      "inputs": [],
      "name": "VERSION",
      "outputs": [
        {
          "internalType": "string",
          "name": "",
          "type": "string"
        }
      ],
      "stateMutability": "view",
      "type": "function"
    },
    {
      "inputs": [],
      "name": "amountForPromotion",
      "outputs": [
        {
          "internalType": "uint256",
          "name": "",
          "type": "uint256"
        }
      ],
      "stateMutability": "view",
      "type": "function"
    },
    {
      "inputs": [
        {
          "internalType": "address",
          "name": "to",
          "type": "address"
        },
        {
          "internalType": "uint256",
          "name": "tokenId",
          "type": "uint256"
        }
      ],
      "name": "approve",
      "outputs": [],
      "stateMutability": "nonpayable",
      "type": "function"
    },
    {
      "inputs": [
        {
          "internalType": "address",
          "name": "owner",
          "type": "address"
        }
      ],
      "name": "balanceOf",
      "outputs": [
        {
          "internalType": "uint256",
          "name": "",
          "type": "uint256"
        }
      ],
      "stateMutability": "view",
      "type": "function"
    },
    {
      "inputs": [],
      "name": "baseURI",
      "outputs": [
        {
          "internalType": "string",
          "name": "",
          "type": "string"
        }
      ],
      "stateMutability": "view",
      "type": "function"
    },
    {
      "inputs": [],
      "name": "claimMerkleRoot",
      "outputs": [
        {
          "internalType": "bytes32",
          "name": "",
          "type": "bytes32"
        }
      ],
      "stateMutability": "view",
      "type": "function"
    },
    {
      "inputs": [
        {
          "internalType": "uint256",
          "name": "invocations",
          "type": "uint256"
        },
        {
          "internalType": "bytes32[]",
          "name": "proof",
          "type": "bytes32[]"
        }
      ],
      "name": "claimMint",
      "outputs": [],
      "stateMutability": "nonpayable",
      "type": "function"
    },
    {
      "inputs": [],
      "name": "claimTime",
      "outputs": [
        {
          "internalType": "uint256",
          "name": "",
          "type": "uint256"
        }
      ],
      "stateMutability": "view",
      "type": "function"
    },
    {
      "inputs": [
        {
          "internalType": "uint256",
          "name": "tokenId",
          "type": "uint256"
        }
      ],
      "name": "getApproved",
      "outputs": [
        {
          "internalType": "address",
          "name": "",
          "type": "address"
        }
      ],
      "stateMutability": "view",
      "type": "function"
    },
    {
      "inputs": [
        {
          "internalType": "address",
          "name": "owner",
          "type": "address"
        },
        {
          "internalType": "address",
          "name": "operator",
          "type": "address"
        }
      ],
      "name": "isApprovedForAll",
      "outputs": [
        {
          "internalType": "bool",
          "name": "",
          "type": "bool"
        }
      ],
      "stateMutability": "view",
      "type": "function"
    },
    {
      "inputs": [],
      "name": "maxPublicBatchPerAddress",
      "outputs": [
        {
          "internalType": "uint256",
          "name": "",
          "type": "uint256"
        }
      ],
      "stateMutability": "view",
      "type": "function"
    },
    {
      "inputs": [
        {
          "internalType": "address",
          "name": "_owner",
          "type": "address"
        }
      ],
      "name": "mintOf",
      "outputs": [
        {
          "internalType": "uint256",
          "name": "",
          "type": "uint256"
        }
      ],
      "stateMutability": "view",
      "type": "function"
    },
    {
      "inputs": [],
      "name": "mintPrice",
      "outputs": [
        {
          "internalType": "uint256",
          "name": "",
          "type": "uint256"
        }
      ],
      "stateMutability": "view",
      "type": "function"
    },
    {
      "inputs": [],
      "name": "mintRandomizerContract",
      "outputs": [
        {
          "internalType": "contract IRandomizer",
          "name": "",
          "type": "address"
        }
      ],
      "stateMutability": "view",
      "type": "function"
    },
    {
      "inputs": [],
      "name": "name",
      "outputs": [
        {
          "internalType": "string",
          "name": "",
          "type": "string"
        }
      ],
      "stateMutability": "view",
      "type": "function"
    },
    {
      "inputs": [],
      "name": "nextOwnerToExplicitlySet",
      "outputs": [
        {
          "internalType": "uint256",
          "name": "",
          "type": "uint256"
        }
      ],
      "stateMutability": "view",
      "type": "function"
    },
    {
      "inputs": [],
      "name": "owner",
      "outputs": [
        {
          "internalType": "address",
          "name": "",
          "type": "address"
        }
      ],
      "stateMutability": "view",
      "type": "function"
    },
    {
      "inputs": [
        {
          "internalType": "uint256",
          "name": "tokenId",
          "type": "uint256"
        }
      ],
      "name": "ownerOf",
      "outputs": [
        {
          "internalType": "address",
          "name": "",
          "type": "address"
        }
      ],
      "stateMutability": "view",
      "type": "function"
    },
    {
      "inputs": [],
      "name": "presaleMerkleRoot",
      "outputs": [
        {
          "internalType": "bytes32",
          "name": "",
          "type": "bytes32"
        }
      ],
      "stateMutability": "view",
      "type": "function"
    },
    {
      "inputs": [
        {
          "internalType": "uint256",
          "name": "invocations",
          "type": "uint256"
        },
        {
          "internalType": "uint256",
          "name": "maxInvocation",
          "type": "uint256"
        },
        {
          "internalType": "bytes32[]",
          "name": "proof",
          "type": "bytes32[]"
        }
      ],
      "name": "presaleMint",
      "outputs": [],
      "stateMutability": "payable",
      "type": "function"
    },
    {
      "inputs": [],
      "name": "presaleTime",
      "outputs": [
        {
          "internalType": "uint256",
          "name": "",
          "type": "uint256"
        }
      ],
      "stateMutability": "view",
      "type": "function"
    },
    {
      "inputs": [
        {
          "internalType": "uint256",
          "name": "invocations",
          "type": "uint256"
        }
      ],
      "name": "promotionMint",
      "outputs": [],
      "stateMutability": "nonpayable",
      "type": "function"
    },
    {
      "inputs": [
        {
          "internalType": "uint256",
          "name": "invocations",
          "type": "uint256"
        }
      ],
      "name": "publicMint",
      "outputs": [],
      "stateMutability": "payable",
      "type": "function"
    },
    {
      "inputs": [],
      "name": "publicTime",
      "outputs": [
        {
          "internalType": "uint256",
          "name": "",
          "type": "uint256"
        }
      ],
      "stateMutability": "view",
      "type": "function"
    },
    {
      "inputs": [],
      "name": "renounceOwnership",
      "outputs": [],
      "stateMutability": "nonpayable",
      "type": "function"
    },
    {
      "inputs": [
        {
          "internalType": "address",
          "name": "from",
          "type": "address"
        },
        {
          "internalType": "address",
          "name": "to",
          "type": "address"
        },
        {
          "internalType": "uint256",
          "name": "tokenId",
          "type": "uint256"
        }
      ],
      "name": "safeTransferFrom",
      "outputs": [],
      "stateMutability": "nonpayable",
      "type": "function"
    },
    {
      "inputs": [
        {
          "internalType": "address",
          "name": "from",
          "type": "address"
        },
        {
          "internalType": "address",
          "name": "to",
          "type": "address"
        },
        {
          "internalType": "uint256",
          "name": "tokenId",
          "type": "uint256"
        },
        {
          "internalType": "bytes",
          "name": "_data",
          "type": "bytes"
        }
      ],
      "name": "safeTransferFrom",
      "outputs": [],
      "stateMutability": "nonpayable",
      "type": "function"
    },
    {
      "inputs": [
        {
          "internalType": "address",
          "name": "operator",
          "type": "address"
        },
        {
          "internalType": "bool",
          "name": "approved",
          "type": "bool"
        }
      ],
      "name": "setApprovalForAll",
      "outputs": [],
      "stateMutability": "nonpayable",
      "type": "function"
    },
    {
      "inputs": [
        {
          "internalType": "string",
          "name": "newBaseURI",
          "type": "string"
        }
      ],
      "name": "setBaseURI",
      "outputs": [],
      "stateMutability": "nonpayable",
      "type": "function"
    },
    {
      "inputs": [
        {
          "internalType": "bytes32",
          "name": "_claimMerkleRoot",
          "type": "bytes32"
        }
      ],
      "name": "setClaimMerkleRoot",
      "outputs": [],
      "stateMutability": "nonpayable",
      "type": "function"
    },
    {
      "inputs": [
        {
          "internalType": "address",
          "name": "_mintRandomizerContract",
          "type": "address"
        }
      ],
      "name": "setMintRandomizerContract",
      "outputs": [],
      "stateMutability": "nonpayable",
      "type": "function"
    },
    {
      "inputs": [
        {
          "internalType": "uint256",
          "name": "_claimTime",
          "type": "uint256"
        },
        {
          "internalType": "uint256",
          "name": "_presaleTime",
          "type": "uint256"
        },
        {
          "internalType": "uint256",
          "name": "_publicTime",
          "type": "uint256"
        }
      ],
      "name": "setMintTime",
      "outputs": [],
      "stateMutability": "nonpayable",
      "type": "function"
    },
    {
      "inputs": [
        {
          "internalType": "uint256",
          "name": "quantity",
          "type": "uint256"
        }
      ],
      "name": "setOwnersExplicit",
      "outputs": [],
      "stateMutability": "nonpayable",
      "type": "function"
    },
    {
      "inputs": [
        {
          "internalType": "bytes32",
          "name": "_presaleMerkleRoot",
          "type": "bytes32"
        }
      ],
      "name": "setPresaleMerkleRoot",
      "outputs": [],
      "stateMutability": "nonpayable",
      "type": "function"
    },
    {
      "inputs": [
        {
          "internalType": "bytes4",
          "name": "interfaceId",
          "type": "bytes4"
        }
      ],
      "name": "supportsInterface",
      "outputs": [
        {
          "internalType": "bool",
          "name": "",
          "type": "bool"
        }
      ],
      "stateMutability": "view",
      "type": "function"
    },
    {
      "inputs": [],
      "name": "symbol",
      "outputs": [
        {
          "internalType": "string",
          "name": "",
          "type": "string"
        }
      ],
      "stateMutability": "view",
      "type": "function"
    },
    {
      "inputs": [
        {
          "internalType": "uint256",
          "name": "index",
          "type": "uint256"
        }
      ],
      "name": "tokenByIndex",
      "outputs": [
        {
          "internalType": "uint256",
          "name": "",
          "type": "uint256"
        }
      ],
      "stateMutability": "view",
      "type": "function"
    },
    {
      "inputs": [
        {
          "internalType": "uint256",
          "name": "_tokenId",
          "type": "uint256"
        }
      ],
      "name": "tokenHash",
      "outputs": [
        {
          "internalType": "bytes32",
          "name": "",
          "type": "bytes32"
        }
      ],
      "stateMutability": "view",
      "type": "function"
    },
    {
      "inputs": [
        {
          "internalType": "address",
          "name": "owner",
          "type": "address"
        },
        {
          "internalType": "uint256",
          "name": "index",
          "type": "uint256"
        }
      ],
      "name": "tokenOfOwnerByIndex",
      "outputs": [
        {
          "internalType": "uint256",
          "name": "",
          "type": "uint256"
        }
      ],
      "stateMutability": "view",
      "type": "function"
    },
    {
      "inputs": [
        {
          "internalType": "uint256",
          "name": "tokenId",
          "type": "uint256"
        }
      ],
      "name": "tokenURI",
      "outputs": [
        {
          "internalType": "string",
          "name": "",
          "type": "string"
        }
      ],
      "stateMutability": "view",
      "type": "function"
    },
    {
      "inputs": [],
      "name": "totalSupply",
      "outputs": [
        {
          "internalType": "uint256",
          "name": "",
          "type": "uint256"
        }
      ],
      "stateMutability": "view",
      "type": "function"
    },
    {
      "inputs": [
        {
          "internalType": "address",
          "name": "from",
          "type": "address"
        },
        {
          "internalType": "address",
          "name": "to",
          "type": "address"
        },
        {
          "internalType": "uint256",
          "name": "tokenId",
          "type": "uint256"
        }
      ],
      "name": "transferFrom",
      "outputs": [],
      "stateMutability": "nonpayable",
      "type": "function"
    },
    {
      "inputs": [
        {
          "internalType": "address",
          "name": "newOwner",
          "type": "address"
        }
      ],
      "name": "transferOwnership",
      "outputs": [],
      "stateMutability": "nonpayable",
      "type": "function"
    },
    {
      "inputs": [],
      "name": "withdrawMoney",
      "outputs": [],
      "stateMutability": "nonpayable",
      "type": "function"
    }
  ],
  "transactionHash": "0x4f7baa2e5608d4d76a6856d42b1ee4c9ce5f1755372c583841e64f691c6ffc16",
  "args": [
    10000,
    2,
    10000,
    "50000000000000000"
  ],
  "numDeployments": 17,
  "solcInputHash": "620f44a3db9c3c628b8b2081868a4d23",
  "bytecode": "0x6101006040523480156200001257600080fd5b506040516200634a3803806200634a8339818101604052810190620000389190620003aa565b60405180606001604052806023815260200162006327602391396040518060400160405280600381526020017f52435400000000000000000000000000000000000000000000000000000000008152508585858585858160019080519060200190620000a6929190620002ba565b508060029080519060200190620000bf929190620002ba565b505050620000e2620000d6620001ec60201b60201c565b620001f460201b60201c565b60016009819055506000841162000130576040517f08c379a00000000000000000000000000000000000000000000000000000000081526004016200012790620004a3565b60405180910390fd5b8382111562000176576040517f08c379a00000000000000000000000000000000000000000000000000000000081526004016200016d906200053b565b60405180910390fd5b60008111620001bc576040517f08c379a0000000000000000000000000000000000000000000000000000000008152600401620001b390620005d3565b60405180910390fd5b8360e081815250508260a0818152505081608081815250508060c08181525050505050505050505050506200065a565b600033905090565b6000600860009054906101000a900473ffffffffffffffffffffffffffffffffffffffff16905081600860006101000a81548173ffffffffffffffffffffffffffffffffffffffff021916908373ffffffffffffffffffffffffffffffffffffffff1602179055508173ffffffffffffffffffffffffffffffffffffffff168173ffffffffffffffffffffffffffffffffffffffff167f8be0079c531659141344cd1fd0a4f28419497f9722a3daafe3b4186f6b6457e060405160405180910390a35050565b828054620002c89062000624565b90600052602060002090601f016020900481019282620002ec576000855562000338565b82601f106200030757805160ff191683800117855562000338565b8280016001018555821562000338579182015b82811115620003375782518255916020019190600101906200031a565b5b5090506200034791906200034b565b5090565b5b80821115620003665760008160009055506001016200034c565b5090565b600080fd5b6000819050919050565b62000384816200036f565b81146200039057600080fd5b50565b600081519050620003a48162000379565b92915050565b60008060008060808587031215620003c757620003c66200036a565b5b6000620003d78782880162000393565b9450506020620003ea8782880162000393565b9350506040620003fd8782880162000393565b9250506060620004108782880162000393565b91505092959194509250565b600082825260208201905092915050565b7f52686170736f647943726561746f722f696e76616c69642d636f6c6c6563746960008201527f6f6e2d73697a6500000000000000000000000000000000000000000000000000602082015250565b60006200048b6027836200041c565b915062000498826200042d565b604082019050919050565b60006020820190508181036000830152620004be816200047c565b9050919050565b7f52686170736f647943726561746f722f696e76616c69642d70726f6d6f74696f60008201527f6e2d616d6f756e74000000000000000000000000000000000000000000000000602082015250565b6000620005236028836200041c565b91506200053082620004c5565b604082019050919050565b60006020820190508181036000830152620005568162000514565b9050919050565b7f52686170736f647943726561746f722f696e76616c69642d6d696e742d70726960008201527f6365000000000000000000000000000000000000000000000000000000000000602082015250565b6000620005bb6022836200041c565b9150620005c8826200055d565b604082019050919050565b60006020820190508181036000830152620005ee81620005ac565b9050919050565b7f4e487b7100000000000000000000000000000000000000000000000000000000600052602260045260246000fd5b600060028204905060018216806200063d57607f821691505b60208210811415620006545762000653620005f5565b5b50919050565b60805160a05160c05160e051615c5b620006cc60003960008181610f5d015281816114b60152611eaa01526000818161107e015281816115d70152611c3e01526000818161142701528181611e1b015281816123c201526126c60152600081816120e201526126480152615c5b6000f3fe6080604052600436106102675760003560e01c806370a0823111610144578063ac446002116100b6578063c87b56dd1161007a578063c87b56dd14610900578063d7224ba01461093d578063e985e9c514610968578063f2fde38b146109a5578063fd1e2962146109ce578063ffa1ad74146109f757610267565b8063ac4460021461082f578063b1f536fa14610846578063b88d4fde14610883578063ba2f59c8146108ac578063c6e62e0b146108d557610267565b806395d89b411161010857806395d89b411461071d578063993670f2146107485780639c4dab5214610773578063a22cb4651461079e578063a3864397146107c7578063a4babffd1461080457610267565b806370a082311461064a578063715018a61461068757806372830dfd1461069e57806376972db2146106c75780638da5cb5b146106f257610267565b806328d7b276116101dd5780634f6ccce7116101a15780634f6ccce71461052857806355f804b314610565578063617aa43c1461058e5780636352211e146105b75780636817c76c146105f45780636c0360eb1461061f57610267565b806328d7b276146104545780632d20fb601461047d5780632db11544146104a65780632f745c59146104c257806342842e0e146104ff57610267565b806318160ddd1161022f57806318160ddd146103635780631b59169d1461038e5780631bdc608e146103aa57806322212e2b146103d557806323b872dd1461040057806327b3bf111461042957610267565b806301ffc9a71461026c57806306fdde03146102a9578063081812fc146102d4578063095ea7b31461031157806317ccc54b1461033a575b600080fd5b34801561027857600080fd5b50610293600480360381019061028e9190614416565b610a22565b6040516102a0919061445e565b60405180910390f35b3480156102b557600080fd5b506102be610b6c565b6040516102cb9190614512565b60405180910390f35b3480156102e057600080fd5b506102fb60048036038101906102f6919061456a565b610bfe565b60405161030891906145d8565b60405180910390f35b34801561031d57600080fd5b506103386004803603810190610333919061461f565b610c7a565b005b34801561034657600080fd5b50610361600480360381019061035c919061465f565b610d85565b005b34801561036f57600080fd5b50610378610e45565b604051610385919061469b565b60405180910390f35b6103a860048036038101906103a3919061471b565b610e9a565b005b3480156103b657600080fd5b506103bf61124d565b6040516103cc919061469b565b60405180910390f35b3480156103e157600080fd5b506103ea611253565b6040516103f791906147a8565b60405180910390f35b34801561040c57600080fd5b50610427600480360381019061042291906147c3565b611259565b005b34801561043557600080fd5b5061043e611269565b60405161044b919061469b565b60405180910390f35b34801561046057600080fd5b5061047b60048036038101906104769190614842565b61126f565b005b34801561048957600080fd5b506104a4600480360381019061049f919061456a565b6112f5565b005b6104c060048036038101906104bb919061456a565b6113d3565b005b3480156104ce57600080fd5b506104e960048036038101906104e4919061461f565b611699565b6040516104f6919061469b565b60405180910390f35b34801561050b57600080fd5b50610526600480360381019061052191906147c3565b6118a0565b005b34801561053457600080fd5b5061054f600480360381019061054a919061456a565b6118c0565b60405161055c919061469b565b60405180910390f35b34801561057157600080fd5b5061058c600480360381019061058791906148c5565b611a31565b005b34801561059a57600080fd5b506105b560048036038101906105b09190614912565b611ac3565b005b3480156105c357600080fd5b506105de60048036038101906105d9919061456a565b611c26565b6040516105eb91906145d8565b60405180910390f35b34801561060057600080fd5b50610609611c3c565b604051610616919061469b565b60405180910390f35b34801561062b57600080fd5b50610634611c60565b6040516106419190614512565b60405180910390f35b34801561065657600080fd5b50610671600480360381019061066c919061465f565b611c6f565b60405161067e919061469b565b60405180910390f35b34801561069357600080fd5b5061069c611d3f565b005b3480156106aa57600080fd5b506106c560048036038101906106c09190614965565b611dc7565b005b3480156106d357600080fd5b506106dc6120e0565b6040516106e9919061469b565b60405180910390f35b3480156106fe57600080fd5b50610707612104565b60405161071491906145d8565b60405180910390f35b34801561072957600080fd5b5061073261212e565b60405161073f9190614512565b60405180910390f35b34801561075457600080fd5b5061075d6121c0565b60405161076a9190614a24565b60405180910390f35b34801561077f57600080fd5b506107886121e6565b60405161079591906147a8565b60405180910390f35b3480156107aa57600080fd5b506107c560048036038101906107c09190614a6b565b6121ec565b005b3480156107d357600080fd5b506107ee60048036038101906107e9919061456a565b612364565b6040516107fb91906147a8565b60405180910390f35b34801561081057600080fd5b506108196123c0565b604051610826919061469b565b60405180910390f35b34801561083b57600080fd5b506108446123e4565b005b34801561085257600080fd5b5061086d6004803603810190610868919061465f565b612565565b60405161087a919061469b565b60405180910390f35b34801561088f57600080fd5b506108aa60048036038101906108a59190614bdb565b612577565b005b3480156108b857600080fd5b506108d360048036038101906108ce919061456a565b6125ca565b005b3480156108e157600080fd5b506108ea612781565b6040516108f7919061469b565b60405180910390f35b34801561090c57600080fd5b506109276004803603810190610922919061456a565b612787565b6040516109349190614512565b60405180910390f35b34801561094957600080fd5b50610952612826565b60405161095f919061469b565b60405180910390f35b34801561097457600080fd5b5061098f600480360381019061098a9190614c5e565b61282c565b60405161099c919061445e565b60405180910390f35b3480156109b157600080fd5b506109cc60048036038101906109c7919061465f565b6128c0565b005b3480156109da57600080fd5b506109f560048036038101906109f09190614842565b6129b8565b005b348015610a0357600080fd5b50610a0c612a3e565b604051610a199190614512565b60405180910390f35b60007f80ac58cd000000000000000000000000000000000000000000000000000000007bffffffffffffffffffffffffffffffffffffffffffffffffffffffff1916827bffffffffffffffffffffffffffffffffffffffffffffffffffffffff19161480610aed57507f5b5e139f000000000000000000000000000000000000000000000000000000007bffffffffffffffffffffffffffffffffffffffffffffffffffffffff1916827bffffffffffffffffffffffffffffffffffffffffffffffffffffffff1916145b80610b5557507f780e9d63000000000000000000000000000000000000000000000000000000007bffffffffffffffffffffffffffffffffffffffffffffffffffffffff1916827bffffffffffffffffffffffffffffffffffffffffffffffffffffffff1916145b80610b655750610b6482612a77565b5b9050919050565b606060018054610b7b90614ccd565b80601f0160208091040260200160405190810160405280929190818152602001828054610ba790614ccd565b8015610bf45780601f10610bc957610100808354040283529160200191610bf4565b820191906000526020600020905b815481529060010190602001808311610bd757829003601f168201915b5050505050905090565b6000610c0982612ae1565b610c3f576040517fcf4700e400000000000000000000000000000000000000000000000000000000815260040160405180910390fd5b6005600083815260200190815260200160002060009054906101000a900473ffffffffffffffffffffffffffffffffffffffff169050919050565b6000610c8582611c26565b90508073ffffffffffffffffffffffffffffffffffffffff168373ffffffffffffffffffffffffffffffffffffffff161415610ced576040517f943f7b8c00000000000000000000000000000000000000000000000000000000815260040160405180910390fd5b8073ffffffffffffffffffffffffffffffffffffffff16610d0c612b49565b73ffffffffffffffffffffffffffffffffffffffff1614158015610d3e5750610d3c81610d37612b49565b61282c565b155b15610d75576040517fcfb3b94200000000000000000000000000000000000000000000000000000000815260040160405180910390fd5b610d80838383612b51565b505050565b610d8d612b49565b73ffffffffffffffffffffffffffffffffffffffff16610dab612104565b73ffffffffffffffffffffffffffffffffffffffff1614610e01576040517f08c379a0000000000000000000000000000000000000000000000000000000008152600401610df890614d4b565b60405180910390fd5b80601160006101000a81548173ffffffffffffffffffffffffffffffffffffffff021916908373ffffffffffffffffffffffffffffffffffffffff16021790555050565b60008060109054906101000a90046fffffffffffffffffffffffffffffffff1660008054906101000a90046fffffffffffffffffffffffffffffffff16036fffffffffffffffffffffffffffffffff16905090565b600d54600081118015610eac57508042115b610eeb576040517f08c379a0000000000000000000000000000000000000000000000000000000008152600401610ee290614ddd565b60405180910390fd5b84843373ffffffffffffffffffffffffffffffffffffffff163273ffffffffffffffffffffffffffffffffffffffff1614610f5b576040517f08c379a0000000000000000000000000000000000000000000000000000000008152600401610f5290614e6f565b60405180910390fd5b7f0000000000000000000000000000000000000000000000000000000000000000610f9683610f88610e45565b612c0390919063ffffffff16565b1115610fd7576040517f08c379a0000000000000000000000000000000000000000000000000000000008152600401610fce90614f01565b60405180910390fd5b80610ff383610fe533612c19565b612c0390919063ffffffff16565b1115611034576040517f08c379a000000000000000000000000000000000000000000000000000000000815260040161102b90614f93565b60405180910390fd5b60008211611077576040517f08c379a000000000000000000000000000000000000000000000000000000000815260040161106e90615025565b60405180910390fd5b866110ab817f0000000000000000000000000000000000000000000000000000000000000000612c2b90919063ffffffff16565b34146110ec576040517f08c379a00000000000000000000000000000000000000000000000000000000081526004016110e3906150b7565b60405180910390fd5b6000341161112f576040517f08c379a000000000000000000000000000000000000000000000000000000000815260040161112690615025565b60405180910390fd5b86338787600a546111aa838380806020026020016040519081016040528093929190818152602001838360200280828437600081840152601f19601f8201169050808301925050505050505082868860405160200161118f929190615140565b60405160208183030381529060405280519060200120612c41565b6111e9576040517f08c379a00000000000000000000000000000000000000000000000000000000081526004016111e0906151de565b60405180910390fd5b60006111f433612c19565b14611234576040517f08c379a000000000000000000000000000000000000000000000000000000000815260040161122b90615270565b60405180910390fd5b61123e338e612c58565b50505050505050505050505050565b600e5481565b600a5481565b611264838383612da8565b505050565b600c5481565b611277612b49565b73ffffffffffffffffffffffffffffffffffffffff16611295612104565b73ffffffffffffffffffffffffffffffffffffffff16146112eb576040517f08c379a00000000000000000000000000000000000000000000000000000000081526004016112e290614d4b565b60405180910390fd5b80600a8190555050565b6112fd612b49565b73ffffffffffffffffffffffffffffffffffffffff1661131b612104565b73ffffffffffffffffffffffffffffffffffffffff1614611371576040517f08c379a000000000000000000000000000000000000000000000000000000000815260040161136890614d4b565b60405180910390fd5b600260095414156113b7576040517f08c379a00000000000000000000000000000000000000000000000000000000081526004016113ae906152dc565b60405180910390fd5b60026009819055506113c8816132c5565b600160098190555050565b600e546000811180156113e557508042115b611424576040517f08c379a000000000000000000000000000000000000000000000000000000000815260040161141b90614ddd565b60405180910390fd5b817f00000000000000000000000000000000000000000000000000000000000000003373ffffffffffffffffffffffffffffffffffffffff163273ffffffffffffffffffffffffffffffffffffffff16146114b4576040517f08c379a00000000000000000000000000000000000000000000000000000000081526004016114ab90614e6f565b60405180910390fd5b7f00000000000000000000000000000000000000000000000000000000000000006114ef836114e1610e45565b612c0390919063ffffffff16565b1115611530576040517f08c379a000000000000000000000000000000000000000000000000000000000815260040161152790614f01565b60405180910390fd5b8061154c8361153e33612c19565b612c0390919063ffffffff16565b111561158d576040517f08c379a000000000000000000000000000000000000000000000000000000000815260040161158490614f93565b60405180910390fd5b600082116115d0576040517f08c379a00000000000000000000000000000000000000000000000000000000081526004016115c790615025565b60405180910390fd5b83611604817f0000000000000000000000000000000000000000000000000000000000000000612c2b90919063ffffffff16565b3414611645576040517f08c379a000000000000000000000000000000000000000000000000000000000815260040161163c906150b7565b60405180910390fd5b60003411611688576040517f08c379a000000000000000000000000000000000000000000000000000000000815260040161167f90615025565b60405180910390fd5b6116923386612c58565b5050505050565b60006116a483611c6f565b82106116dc576040517f0ddac30e00000000000000000000000000000000000000000000000000000000815260040160405180910390fd5b60008060009054906101000a90046fffffffffffffffffffffffffffffffff166fffffffffffffffffffffffffffffffff16905060008060005b83811015611894576000600360008381526020019081526020016000206040518060600160405290816000820160009054906101000a900473ffffffffffffffffffffffffffffffffffffffff1673ffffffffffffffffffffffffffffffffffffffff1673ffffffffffffffffffffffffffffffffffffffff1681526020016000820160149054906101000a900467ffffffffffffffff1667ffffffffffffffff1667ffffffffffffffff16815260200160008201601c9054906101000a900460ff16151515158152505090508060400151156117f35750611887565b600073ffffffffffffffffffffffffffffffffffffffff16816000015173ffffffffffffffffffffffffffffffffffffffff161461183357806000015192505b8773ffffffffffffffffffffffffffffffffffffffff168373ffffffffffffffffffffffffffffffffffffffff161415611885578684141561187c57819550505050505061189a565b83806001019450505b505b8080600101915050611716565b50600080fd5b92915050565b6118bb83838360405180602001604052806000815250612577565b505050565b60008060008054906101000a90046fffffffffffffffffffffffffffffffff166fffffffffffffffffffffffffffffffff1690506000805b828110156119f9576000600360008381526020019081526020016000206040518060600160405290816000820160009054906101000a900473ffffffffffffffffffffffffffffffffffffffff1673ffffffffffffffffffffffffffffffffffffffff1673ffffffffffffffffffffffffffffffffffffffff1681526020016000820160149054906101000a900467ffffffffffffffff1667ffffffffffffffff1667ffffffffffffffff16815260200160008201601c9054906101000a900460ff161515151581525050905080604001516119eb57858314156119e25781945050505050611a2c565b82806001019350505b5080806001019150506118f8565b506040517fa723001c00000000000000000000000000000000000000000000000000000000815260040160405180910390fd5b919050565b611a39612b49565b73ffffffffffffffffffffffffffffffffffffffff16611a57612104565b73ffffffffffffffffffffffffffffffffffffffff1614611aad576040517f08c379a0000000000000000000000000000000000000000000000000000000008152600401611aa490614d4b565b60405180910390fd5b818160109190611abe9291906142c4565b505050565b611acb612b49565b73ffffffffffffffffffffffffffffffffffffffff16611ae9612104565b73ffffffffffffffffffffffffffffffffffffffff1614611b3f576040517f08c379a0000000000000000000000000000000000000000000000000000000008152600401611b3690614d4b565b60405180910390fd5b611b476135bb565b8311611b88576040517f08c379a0000000000000000000000000000000000000000000000000000000008152600401611b7f9061536e565b60405180910390fd5b828211611bca576040517f08c379a0000000000000000000000000000000000000000000000000000000008152600401611bc190615400565b60405180910390fd5b818111611c0c576040517f08c379a0000000000000000000000000000000000000000000000000000000008152600401611c0390615492565b60405180910390fd5b82600c8190555081600d8190555080600e81905550505050565b6000611c31826135c3565b600001519050919050565b7f000000000000000000000000000000000000000000000000000000000000000081565b6060611c6a61386b565b905090565b60008073ffffffffffffffffffffffffffffffffffffffff168273ffffffffffffffffffffffffffffffffffffffff161415611cd7576040517f8f4eb60400000000000000000000000000000000000000000000000000000000815260040160405180910390fd5b600460008373ffffffffffffffffffffffffffffffffffffffff1673ffffffffffffffffffffffffffffffffffffffff16815260200190815260200160002060000160009054906101000a900467ffffffffffffffff1667ffffffffffffffff169050919050565b611d47612b49565b73ffffffffffffffffffffffffffffffffffffffff16611d65612104565b73ffffffffffffffffffffffffffffffffffffffff1614611dbb576040517f08c379a0000000000000000000000000000000000000000000000000000000008152600401611db290614d4b565b60405180910390fd5b611dc560006138fd565b565b600c54600081118015611dd957508042115b611e18576040517f08c379a0000000000000000000000000000000000000000000000000000000008152600401611e0f90614ddd565b60405180910390fd5b837f00000000000000000000000000000000000000000000000000000000000000003373ffffffffffffffffffffffffffffffffffffffff163273ffffffffffffffffffffffffffffffffffffffff1614611ea8576040517f08c379a0000000000000000000000000000000000000000000000000000000008152600401611e9f90614e6f565b60405180910390fd5b7f0000000000000000000000000000000000000000000000000000000000000000611ee383611ed5610e45565b612c0390919063ffffffff16565b1115611f24576040517f08c379a0000000000000000000000000000000000000000000000000000000008152600401611f1b90614f01565b60405180910390fd5b80611f4083611f3233612c19565b612c0390919063ffffffff16565b1115611f81576040517f08c379a0000000000000000000000000000000000000000000000000000000008152600401611f7890614f93565b60405180910390fd5b60008211611fc4576040517f08c379a0000000000000000000000000000000000000000000000000000000008152600401611fbb90615025565b60405180910390fd5b85338686600b5461203f838380806020026020016040519081016040528093929190818152602001838360200280828437600081840152601f19601f82011690508083019250505050505050828688604051602001612024929190615140565b60405160208183030381529060405280519060200120612c41565b61207e576040517f08c379a0000000000000000000000000000000000000000000000000000000008152600401612075906151de565b60405180910390fd5b600061208933612c19565b146120c9576040517f08c379a00000000000000000000000000000000000000000000000000000000081526004016120c090615270565b60405180910390fd5b6120d3338c612c58565b5050505050505050505050565b7f000000000000000000000000000000000000000000000000000000000000000081565b6000600860009054906101000a900473ffffffffffffffffffffffffffffffffffffffff16905090565b60606002805461213d90614ccd565b80601f016020809104026020016040519081016040528092919081815260200182805461216990614ccd565b80156121b65780601f1061218b576101008083540402835291602001916121b6565b820191906000526020600020905b81548152906001019060200180831161219957829003601f168201915b5050505050905090565b601160009054906101000a900473ffffffffffffffffffffffffffffffffffffffff1681565b600b5481565b6121f4612b49565b73ffffffffffffffffffffffffffffffffffffffff168273ffffffffffffffffffffffffffffffffffffffff161415612259576040517fb06307db00000000000000000000000000000000000000000000000000000000815260040160405180910390fd5b8060066000612266612b49565b73ffffffffffffffffffffffffffffffffffffffff1673ffffffffffffffffffffffffffffffffffffffff16815260200190815260200160002060008473ffffffffffffffffffffffffffffffffffffffff1673ffffffffffffffffffffffffffffffffffffffff16815260200190815260200160002060006101000a81548160ff0219169083151502179055508173ffffffffffffffffffffffffffffffffffffffff16612313612b49565b73ffffffffffffffffffffffffffffffffffffffff167f17307eab39ab6107e8899845ad3d59bd9653f200f220920489ca2b5937696c3183604051612358919061445e565b60405180910390a35050565b600061236f82612ae1565b6123a5576040517f963eb14f00000000000000000000000000000000000000000000000000000000815260040160405180910390fd5b600f6000838152602001908152602001600020549050919050565b7f000000000000000000000000000000000000000000000000000000000000000081565b6123ec612b49565b73ffffffffffffffffffffffffffffffffffffffff1661240a612104565b73ffffffffffffffffffffffffffffffffffffffff1614612460576040517f08c379a000000000000000000000000000000000000000000000000000000000815260040161245790614d4b565b60405180910390fd5b600260095414156124a6576040517f08c379a000000000000000000000000000000000000000000000000000000000815260040161249d906152dc565b60405180910390fd5b600260098190555060003373ffffffffffffffffffffffffffffffffffffffff16476040516124d4906154e3565b60006040518083038185875af1925050503d8060008114612511576040519150601f19603f3d011682016040523d82523d6000602084013e612516565b606091505b505090508061255a576040517f08c379a00000000000000000000000000000000000000000000000000000000081526004016125519061556a565b60405180910390fd5b506001600981905550565b600061257082612c19565b9050919050565b612582848484612da8565b61258e848484846139c3565b6125c4576040517fd1a57ed600000000000000000000000000000000000000000000000000000000815260040160405180910390fd5b50505050565b6125d2612b49565b73ffffffffffffffffffffffffffffffffffffffff166125f0612104565b73ffffffffffffffffffffffffffffffffffffffff1614612646576040517f08c379a000000000000000000000000000000000000000000000000000000000815260040161263d90614d4b565b60405180910390fd5b7f000000000000000000000000000000000000000000000000000000000000000061268182612673610e45565b612c0390919063ffffffff16565b11156126c2576040517f08c379a00000000000000000000000000000000000000000000000000000000081526004016126b9906155fc565b60405180910390fd5b60007f0000000000000000000000000000000000000000000000000000000000000000905060006126fc8284613b5190919063ffffffff16565b1461273c576040517f08c379a00000000000000000000000000000000000000000000000000000000081526004016127339061568e565b60405180910390fd5b60006127518284613b6790919063ffffffff16565b905060005b8181101561277b576127683384612c58565b8080612773906156dd565b915050612756565b50505050565b600d5481565b606061279282612ae1565b6127c8576040517fa14c4b5000000000000000000000000000000000000000000000000000000000815260040160405180910390fd5b60006127d261386b565b90506000815114156127f3576040518060200160405280600081525061281e565b806127fd84613b7d565b60405160200161280e929190615762565b6040516020818303038152906040525b915050919050565b60075481565b6000600660008473ffffffffffffffffffffffffffffffffffffffff1673ffffffffffffffffffffffffffffffffffffffff16815260200190815260200160002060008373ffffffffffffffffffffffffffffffffffffffff1673ffffffffffffffffffffffffffffffffffffffff16815260200190815260200160002060009054906101000a900460ff16905092915050565b6128c8612b49565b73ffffffffffffffffffffffffffffffffffffffff166128e6612104565b73ffffffffffffffffffffffffffffffffffffffff161461293c576040517f08c379a000000000000000000000000000000000000000000000000000000000815260040161293390614d4b565b60405180910390fd5b600073ffffffffffffffffffffffffffffffffffffffff168173ffffffffffffffffffffffffffffffffffffffff1614156129ac576040517f08c379a00000000000000000000000000000000000000000000000000000000081526004016129a3906157f8565b60405180910390fd5b6129b5816138fd565b50565b6129c0612b49565b73ffffffffffffffffffffffffffffffffffffffff166129de612104565b73ffffffffffffffffffffffffffffffffffffffff1614612a34576040517f08c379a0000000000000000000000000000000000000000000000000000000008152600401612a2b90614d4b565b60405180910390fd5b80600b8190555050565b6040518060400160405280600581526020017f302e312e3700000000000000000000000000000000000000000000000000000081525081565b60007f01ffc9a7000000000000000000000000000000000000000000000000000000007bffffffffffffffffffffffffffffffffffffffffffffffffffffffff1916827bffffffffffffffffffffffffffffffffffffffffffffffffffffffff1916149050919050565b60008060009054906101000a90046fffffffffffffffffffffffffffffffff166fffffffffffffffffffffffffffffffff1682108015612b42575060036000838152602001908152602001600020600001601c9054906101000a900460ff16155b9050919050565b600033905090565b826005600084815260200190815260200160002060006101000a81548173ffffffffffffffffffffffffffffffffffffffff021916908373ffffffffffffffffffffffffffffffffffffffff160217905550818373ffffffffffffffffffffffffffffffffffffffff168273ffffffffffffffffffffffffffffffffffffffff167f8c5be1e5ebec7d5bd14f71427d1e84f3dd0314c0f7b2291e5b200ac8c7c3b92560405160405180910390a4505050565b60008183612c119190615818565b905092915050565b6000612c2482613cde565b9050919050565b60008183612c39919061586e565b905092915050565b600082612c4e8584613dae565b1490509392505050565b612c628282613e23565b6000612c6c610e45565b90506000612c838383613e4190919063ffffffff16565b905060008367ffffffffffffffff811115612ca157612ca0614ab0565b5b604051908082528060200260200182016040528015612ccf5781602001602082028036833780820191505090505b50905060005b84811015612d4e576000612cf28285612c0390919063ffffffff16565b90506000612cff82613e57565b905080848481518110612d1557612d146158c8565b5b60200260200101818152505080600f60008481526020019081526020016000208190555050508080612d46906156dd565b915050612cd5565b508473ffffffffffffffffffffffffffffffffffffffff167f5cb27d2833c0b1f5f25192224a4f5c4573f3c2a9394c0a0a9a31c092e8879eb4848684604051612d99939291906159b5565b60405180910390a25050505050565b6000612db3826135c3565b90506000816000015173ffffffffffffffffffffffffffffffffffffffff16612dda612b49565b73ffffffffffffffffffffffffffffffffffffffff161480612e0d5750612e0c8260000151612e07612b49565b61282c565b5b80612e525750612e1b612b49565b73ffffffffffffffffffffffffffffffffffffffff16612e3a84610bfe565b73ffffffffffffffffffffffffffffffffffffffff16145b905080612e8b576040517f59c896be00000000000000000000000000000000000000000000000000000000815260040160405180910390fd5b8473ffffffffffffffffffffffffffffffffffffffff16826000015173ffffffffffffffffffffffffffffffffffffffff1614612ef4576040517fa114810000000000000000000000000000000000000000000000000000000000815260040160405180910390fd5b600073ffffffffffffffffffffffffffffffffffffffff168473ffffffffffffffffffffffffffffffffffffffff161415612f5b576040517fea553b3400000000000000000000000000000000000000000000000000000000815260040160405180910390fd5b612f688585856001613ea8565b612f786000848460000151612b51565b6001600460008773ffffffffffffffffffffffffffffffffffffffff1673ffffffffffffffffffffffffffffffffffffffff16815260200190815260200160002060000160008282829054906101000a900467ffffffffffffffff160392506101000a81548167ffffffffffffffff021916908367ffffffffffffffff1602179055506001600460008673ffffffffffffffffffffffffffffffffffffffff1673ffffffffffffffffffffffffffffffffffffffff16815260200190815260200160002060000160008282829054906101000a900467ffffffffffffffff160192506101000a81548167ffffffffffffffff021916908367ffffffffffffffff160217905550836003600085815260200190815260200160002060000160006101000a81548173ffffffffffffffffffffffffffffffffffffffff021916908373ffffffffffffffffffffffffffffffffffffffff160217905550426003600085815260200190815260200160002060000160146101000a81548167ffffffffffffffff021916908367ffffffffffffffff1602179055506000600184019050600073ffffffffffffffffffffffffffffffffffffffff166003600083815260200190815260200160002060000160009054906101000a900473ffffffffffffffffffffffffffffffffffffffff1673ffffffffffffffffffffffffffffffffffffffff1614156132555760008054906101000a90046fffffffffffffffffffffffffffffffff166fffffffffffffffffffffffffffffffff168110156132545782600001516003600083815260200190815260200160002060000160006101000a81548173ffffffffffffffffffffffffffffffffffffffff021916908373ffffffffffffffffffffffffffffffffffffffff16021790555082602001516003600083815260200190815260200160002060000160146101000a81548167ffffffffffffffff021916908367ffffffffffffffff1602179055505b5b50828473ffffffffffffffffffffffffffffffffffffffff168673ffffffffffffffffffffffffffffffffffffffff167fddf252ad1be2c89b69c2b068fc378daa952ba7f163c4a11628f55a4df523b3ef60405160405180910390a46132be8585856001613eae565b5050505050565b6000811415613300576040517f56be441500000000000000000000000000000000000000000000000000000000815260040160405180910390fd5b60008060009054906101000a90046fffffffffffffffffffffffffffffffff166fffffffffffffffffffffffffffffffff16141561336a576040517fc0367cab00000000000000000000000000000000000000000000000000000000815260040160405180910390fd5b6000600754905060008054906101000a90046fffffffffffffffffffffffffffffffff166fffffffffffffffffffffffffffffffff1681106133d8576040517f70e89b1b00000000000000000000000000000000000000000000000000000000815260040160405180910390fd5b6000600183830103905060008054906101000a90046fffffffffffffffffffffffffffffffff166fffffffffffffffffffffffffffffffff1660018201111561345057600160008054906101000a90046fffffffffffffffffffffffffffffffff16036fffffffffffffffffffffffffffffffff1690505b60008290505b8181116135ab57600073ffffffffffffffffffffffffffffffffffffffff166003600083815260200190815260200160002060000160009054906101000a900473ffffffffffffffffffffffffffffffffffffffff1673ffffffffffffffffffffffffffffffffffffffff161480156134f0575060036000828152602001908152602001600020600001601c9054906101000a900460ff16155b1561359e576000613500826135c3565b905080600001516003600084815260200190815260200160002060000160006101000a81548173ffffffffffffffffffffffffffffffffffffffff021916908373ffffffffffffffffffffffffffffffffffffffff16021790555080602001516003600084815260200190815260200160002060000160146101000a81548167ffffffffffffffff021916908367ffffffffffffffff160217905550505b8080600101915050613456565b5060018101600781905550505050565b600042905090565b6135cb61434a565b600082905060008054906101000a90046fffffffffffffffffffffffffffffffff166fffffffffffffffffffffffffffffffff16811015613834576000600360008381526020019081526020016000206040518060600160405290816000820160009054906101000a900473ffffffffffffffffffffffffffffffffffffffff1673ffffffffffffffffffffffffffffffffffffffff1673ffffffffffffffffffffffffffffffffffffffff1681526020016000820160149054906101000a900467ffffffffffffffff1667ffffffffffffffff1667ffffffffffffffff16815260200160008201601c9054906101000a900460ff1615151515815250509050806040015161383257600073ffffffffffffffffffffffffffffffffffffffff16816000015173ffffffffffffffffffffffffffffffffffffffff1614613716578092505050613866565b5b60011561383157818060019003925050600360008381526020019081526020016000206040518060600160405290816000820160009054906101000a900473ffffffffffffffffffffffffffffffffffffffff1673ffffffffffffffffffffffffffffffffffffffff1673ffffffffffffffffffffffffffffffffffffffff1681526020016000820160149054906101000a900467ffffffffffffffff1667ffffffffffffffff1667ffffffffffffffff16815260200160008201601c9054906101000a900460ff1615151515815250509050600073ffffffffffffffffffffffffffffffffffffffff16816000015173ffffffffffffffffffffffffffffffffffffffff161461382c578092505050613866565b613717565b5b505b6040517fdf2d9b4200000000000000000000000000000000000000000000000000000000815260040160405180910390fd5b919050565b60606010805461387a90614ccd565b80601f01602080910402602001604051908101604052809291908181526020018280546138a690614ccd565b80156138f35780601f106138c8576101008083540402835291602001916138f3565b820191906000526020600020905b8154815290600101906020018083116138d657829003601f168201915b5050505050905090565b6000600860009054906101000a900473ffffffffffffffffffffffffffffffffffffffff16905081600860006101000a81548173ffffffffffffffffffffffffffffffffffffffff021916908373ffffffffffffffffffffffffffffffffffffffff1602179055508173ffffffffffffffffffffffffffffffffffffffff168173ffffffffffffffffffffffffffffffffffffffff167f8be0079c531659141344cd1fd0a4f28419497f9722a3daafe3b4186f6b6457e060405160405180910390a35050565b60006139e48473ffffffffffffffffffffffffffffffffffffffff16613eb4565b15613b44578373ffffffffffffffffffffffffffffffffffffffff1663150b7a02613a0d612b49565b8786866040518563ffffffff1660e01b8152600401613a2f9493929190615a48565b602060405180830381600087803b158015613a4957600080fd5b505af1925050508015613a7a57506040513d601f19601f82011682018060405250810190613a779190615aa9565b60015b613af4573d8060008114613aaa576040519150601f19603f3d011682016040523d82523d6000602084013e613aaf565b606091505b50600081511415613aec576040517fd1a57ed600000000000000000000000000000000000000000000000000000000815260040160405180910390fd5b805181602001fd5b63150b7a0260e01b7bffffffffffffffffffffffffffffffffffffffffffffffffffffffff1916817bffffffffffffffffffffffffffffffffffffffffffffffffffffffff191614915050613b49565b600190505b949350505050565b60008183613b5f9190615b05565b905092915050565b60008183613b759190615b36565b905092915050565b60606000821415613bc5576040518060400160405280600181526020017f30000000000000000000000000000000000000000000000000000000000000008152509050613cd9565b600082905060005b60008214613bf7578080613be0906156dd565b915050600a82613bf09190615b36565b9150613bcd565b60008167ffffffffffffffff811115613c1357613c12614ab0565b5b6040519080825280601f01601f191660200182016040528015613c455781602001600182028036833780820191505090505b5090505b60008514613cd257600182613c5e9190615b67565b9150600a85613c6d9190615b05565b6030613c799190615818565b60f81b818381518110613c8f57613c8e6158c8565b5b60200101907effffffffffffffffffffffffffffffffffffffffffffffffffffffffffffff1916908160001a905350600a85613ccb9190615b36565b9450613c49565b8093505050505b919050565b60008073ffffffffffffffffffffffffffffffffffffffff168273ffffffffffffffffffffffffffffffffffffffff161415613d46576040517f35ebb31900000000000000000000000000000000000000000000000000000000815260040160405180910390fd5b600460008373ffffffffffffffffffffffffffffffffffffffff1673ffffffffffffffffffffffffffffffffffffffff16815260200190815260200160002060000160089054906101000a900467ffffffffffffffff1667ffffffffffffffff169050919050565b60008082905060005b8451811015613e18576000858281518110613dd557613dd46158c8565b5b60200260200101519050808311613df757613df08382613ed7565b9250613e04565b613e018184613ed7565b92505b508080613e10906156dd565b915050613db7565b508091505092915050565b613e3d828260405180602001604052806000815250613eee565b5050565b60008183613e4f9190615b67565b905092915050565b60008143613e6f600143613e4190919063ffffffff16565b40613e78613f00565b604051602001613e8b9493929190615bbc565b604051602081830303815290604052805190602001209050919050565b50505050565b50505050565b6000808273ffffffffffffffffffffffffffffffffffffffff163b119050919050565b600082600052816020526040600020905092915050565b613efb8383836001613f2e565b505050565b600043604051602001613f139190615c0a565b60405160208183030381529060405280519060200120905090565b60008060009054906101000a90046fffffffffffffffffffffffffffffffff166fffffffffffffffffffffffffffffffff169050600073ffffffffffffffffffffffffffffffffffffffff168573ffffffffffffffffffffffffffffffffffffffff161415613fc9576040517f2e07630000000000000000000000000000000000000000000000000000000000815260040160405180910390fd5b6000841415614004576040517fb562e8dd00000000000000000000000000000000000000000000000000000000815260040160405180910390fd5b6140116000868387613ea8565b83600460008773ffffffffffffffffffffffffffffffffffffffff1673ffffffffffffffffffffffffffffffffffffffff16815260200190815260200160002060000160008282829054906101000a900467ffffffffffffffff160192506101000a81548167ffffffffffffffff021916908367ffffffffffffffff16021790555083600460008773ffffffffffffffffffffffffffffffffffffffff1673ffffffffffffffffffffffffffffffffffffffff16815260200190815260200160002060000160088282829054906101000a900467ffffffffffffffff160192506101000a81548167ffffffffffffffff021916908367ffffffffffffffff160217905550846003600083815260200190815260200160002060000160006101000a81548173ffffffffffffffffffffffffffffffffffffffff021916908373ffffffffffffffffffffffffffffffffffffffff160217905550426003600083815260200190815260200160002060000160146101000a81548167ffffffffffffffff021916908367ffffffffffffffff160217905550600081905060005b8581101561427657818773ffffffffffffffffffffffffffffffffffffffff16600073ffffffffffffffffffffffffffffffffffffffff167fddf252ad1be2c89b69c2b068fc378daa952ba7f163c4a11628f55a4df523b3ef60405160405180910390a483801561422a575061422860008884886139c3565b155b15614261576040517fd1a57ed600000000000000000000000000000000000000000000000000000000815260040160405180910390fd5b818060010192505080806001019150506141af565b50806000806101000a8154816fffffffffffffffffffffffffffffffff02191690836fffffffffffffffffffffffffffffffff160217905550506142bd6000868387613eae565b5050505050565b8280546142d090614ccd565b90600052602060002090601f0160209004810192826142f25760008555614339565b82601f1061430b57803560ff1916838001178555614339565b82800160010185558215614339579182015b8281111561433857823582559160200191906001019061431d565b5b509050614346919061438d565b5090565b6040518060600160405280600073ffffffffffffffffffffffffffffffffffffffff168152602001600067ffffffffffffffff1681526020016000151581525090565b5b808211156143a657600081600090555060010161438e565b5090565b6000604051905090565b600080fd5b600080fd5b60007fffffffff0000000000000000000000000000000000000000000000000000000082169050919050565b6143f3816143be565b81146143fe57600080fd5b50565b600081359050614410816143ea565b92915050565b60006020828403121561442c5761442b6143b4565b5b600061443a84828501614401565b91505092915050565b60008115159050919050565b61445881614443565b82525050565b6000602082019050614473600083018461444f565b92915050565b600081519050919050565b600082825260208201905092915050565b60005b838110156144b3578082015181840152602081019050614498565b838111156144c2576000848401525b50505050565b6000601f19601f8301169050919050565b60006144e482614479565b6144ee8185614484565b93506144fe818560208601614495565b614507816144c8565b840191505092915050565b6000602082019050818103600083015261452c81846144d9565b905092915050565b6000819050919050565b61454781614534565b811461455257600080fd5b50565b6000813590506145648161453e565b92915050565b6000602082840312156145805761457f6143b4565b5b600061458e84828501614555565b91505092915050565b600073ffffffffffffffffffffffffffffffffffffffff82169050919050565b60006145c282614597565b9050919050565b6145d2816145b7565b82525050565b60006020820190506145ed60008301846145c9565b92915050565b6145fc816145b7565b811461460757600080fd5b50565b600081359050614619816145f3565b92915050565b60008060408385031215614636576146356143b4565b5b60006146448582860161460a565b925050602061465585828601614555565b9150509250929050565b600060208284031215614675576146746143b4565b5b60006146838482850161460a565b91505092915050565b61469581614534565b82525050565b60006020820190506146b0600083018461468c565b92915050565b600080fd5b600080fd5b600080fd5b60008083601f8401126146db576146da6146b6565b5b8235905067ffffffffffffffff8111156146f8576146f76146bb565b5b602083019150836020820283011115614714576147136146c0565b5b9250929050565b60008060008060608587031215614735576147346143b4565b5b600061474387828801614555565b945050602061475487828801614555565b935050604085013567ffffffffffffffff811115614775576147746143b9565b5b614781878288016146c5565b925092505092959194509250565b6000819050919050565b6147a28161478f565b82525050565b60006020820190506147bd6000830184614799565b92915050565b6000806000606084860312156147dc576147db6143b4565b5b60006147ea8682870161460a565b93505060206147fb8682870161460a565b925050604061480c86828701614555565b9150509250925092565b61481f8161478f565b811461482a57600080fd5b50565b60008135905061483c81614816565b92915050565b600060208284031215614858576148576143b4565b5b60006148668482850161482d565b91505092915050565b60008083601f840112614885576148846146b6565b5b8235905067ffffffffffffffff8111156148a2576148a16146bb565b5b6020830191508360018202830111156148be576148bd6146c0565b5b9250929050565b600080602083850312156148dc576148db6143b4565b5b600083013567ffffffffffffffff8111156148fa576148f96143b9565b5b6149068582860161486f565b92509250509250929050565b60008060006060848603121561492b5761492a6143b4565b5b600061493986828701614555565b935050602061494a86828701614555565b925050604061495b86828701614555565b9150509250925092565b60008060006040848603121561497e5761497d6143b4565b5b600061498c86828701614555565b935050602084013567ffffffffffffffff8111156149ad576149ac6143b9565b5b6149b9868287016146c5565b92509250509250925092565b6000819050919050565b60006149ea6149e56149e084614597565b6149c5565b614597565b9050919050565b60006149fc826149cf565b9050919050565b6000614a0e826149f1565b9050919050565b614a1e81614a03565b82525050565b6000602082019050614a396000830184614a15565b92915050565b614a4881614443565b8114614a5357600080fd5b50565b600081359050614a6581614a3f565b92915050565b60008060408385031215614a8257614a816143b4565b5b6000614a908582860161460a565b9250506020614aa185828601614a56565b9150509250929050565b600080fd5b7f4e487b7100000000000000000000000000000000000000000000000000000000600052604160045260246000fd5b614ae8826144c8565b810181811067ffffffffffffffff82111715614b0757614b06614ab0565b5b80604052505050565b6000614b1a6143aa565b9050614b268282614adf565b919050565b600067ffffffffffffffff821115614b4657614b45614ab0565b5b614b4f826144c8565b9050602081019050919050565b82818337600083830152505050565b6000614b7e614b7984614b2b565b614b10565b905082815260208101848484011115614b9a57614b99614aab565b5b614ba5848285614b5c565b509392505050565b600082601f830112614bc257614bc16146b6565b5b8135614bd2848260208601614b6b565b91505092915050565b60008060008060808587031215614bf557614bf46143b4565b5b6000614c038782880161460a565b9450506020614c148782880161460a565b9350506040614c2587828801614555565b925050606085013567ffffffffffffffff811115614c4657614c456143b9565b5b614c5287828801614bad565b91505092959194509250565b60008060408385031215614c7557614c746143b4565b5b6000614c838582860161460a565b9250506020614c948582860161460a565b9150509250929050565b7f4e487b7100000000000000000000000000000000000000000000000000000000600052602260045260246000fd5b60006002820490506001821680614ce557607f821691505b60208210811415614cf957614cf8614c9e565b5b50919050565b7f4f776e61626c653a2063616c6c6572206973206e6f7420746865206f776e6572600082015250565b6000614d35602083614484565b9150614d4082614cff565b602082019050919050565b60006020820190508181036000830152614d6481614d28565b9050919050565b7f52686170736f647943726561746f722f696e76616c69642d6d696e742d74696d60008201527f6500000000000000000000000000000000000000000000000000000000000000602082015250565b6000614dc7602183614484565b9150614dd282614d6b565b604082019050919050565b60006020820190508181036000830152614df681614dba565b9050919050565b7f52686170736f647943726561746f722f696e76616c69642d6d696e742d63616c60008201527f6c65720000000000000000000000000000000000000000000000000000000000602082015250565b6000614e59602383614484565b9150614e6482614dfd565b604082019050919050565b60006020820190508181036000830152614e8881614e4c565b9050919050565b7f52686170736f647943726561746f722f696e76616c69642d746f74616c2d737560008201527f70706c7900000000000000000000000000000000000000000000000000000000602082015250565b6000614eeb602483614484565b9150614ef682614e8f565b604082019050919050565b60006020820190508181036000830152614f1a81614ede565b9050919050565b7f52686170736f647943726561746f722f696e76616c69642d696e766f6361746960008201527f6f6e2d75707065722d626f756e64617279000000000000000000000000000000602082015250565b6000614f7d603183614484565b9150614f8882614f21565b604082019050919050565b60006020820190508181036000830152614fac81614f70565b9050919050565b7f52686170736f647943726561746f722f696e76616c69642d696e766f6361746960008201527f6f6e2d6c6f7765722d626f756e64617279000000000000000000000000000000602082015250565b600061500f603183614484565b915061501a82614fb3565b604082019050919050565b6000602082019050818103600083015261503e81615002565b9050919050565b7f52686170736f647943726561746f722f696e76616c69642d6d696e742d76616c60008201527f7565000000000000000000000000000000000000000000000000000000000000602082015250565b60006150a1602283614484565b91506150ac82615045565b604082019050919050565b600060208201905081810360008301526150d081615094565b9050919050565b60008160601b9050919050565b60006150ef826150d7565b9050919050565b6000615101826150e4565b9050919050565b615119615114826145b7565b6150f6565b82525050565b6000819050919050565b61513a61513582614534565b61511f565b82525050565b600061514c8285615108565b60148201915061515c8284615129565b6020820191508190509392505050565b7f52686170736f647943726561746f722f696e76616c69642d616464726573732d60008201527f70726f6f66000000000000000000000000000000000000000000000000000000602082015250565b60006151c8602583614484565b91506151d38261516c565b604082019050919050565b600060208201905081810360008301526151f7816151bb565b9050919050565b7f52686170736f647943726561746f722f696e76616c69642d646f75626c652d6d60008201527f696e740000000000000000000000000000000000000000000000000000000000602082015250565b600061525a602383614484565b9150615265826151fe565b604082019050919050565b600060208201905081810360008301526152898161524d565b9050919050565b7f5265656e7472616e637947756172643a207265656e7472616e742063616c6c00600082015250565b60006152c6601f83614484565b91506152d182615290565b602082019050919050565b600060208201905081810360008301526152f5816152b9565b9050919050565b7f52686170736f647943726561746f722f696e76616c69642d636c61696d2d746960008201527f6d65000000000000000000000000000000000000000000000000000000000000602082015250565b6000615358602283614484565b9150615363826152fc565b604082019050919050565b600060208201905081810360008301526153878161534b565b9050919050565b7f52686170736f647943726561746f722f696e76616c69642d70726573616c652d60008201527f74696d6500000000000000000000000000000000000000000000000000000000602082015250565b60006153ea602483614484565b91506153f58261538e565b604082019050919050565b60006020820190508181036000830152615419816153dd565b9050919050565b7f52686170736f647943726561746f722f696e76616c69642d7075626c69632d7460008201527f696d650000000000000000000000000000000000000000000000000000000000602082015250565b600061547c602383614484565b915061548782615420565b604082019050919050565b600060208201905081810360008301526154ab8161546f565b9050919050565b600081905092915050565b50565b60006154cd6000836154b2565b91506154d8826154bd565b600082019050919050565b60006154ee826154c0565b9150819050919050565b7f52686170736f647943726561746f722f696e76616c69642d776974686472617760008201527f2d6d6f6e65790000000000000000000000000000000000000000000000000000602082015250565b6000615554602683614484565b915061555f826154f8565b604082019050919050565b6000602082019050818103600083015261558381615547565b9050919050565b7f52686170736f647943726561746f722f696e76616c69642d70726f6d6f74696f60008201527f6e2d737570706c79000000000000000000000000000000000000000000000000602082015250565b60006155e6602883614484565b91506155f18261558a565b604082019050919050565b60006020820190508181036000830152615615816155d9565b9050919050565b7f52686170736f647943726561746f722f696e76616c69642d62617463682d6d7560008201527f6c7469706c650000000000000000000000000000000000000000000000000000602082015250565b6000615678602683614484565b91506156838261561c565b604082019050919050565b600060208201905081810360008301526156a78161566b565b9050919050565b7f4e487b7100000000000000000000000000000000000000000000000000000000600052601160045260246000fd5b60006156e882614534565b91507fffffffffffffffffffffffffffffffffffffffffffffffffffffffffffffffff82141561571b5761571a6156ae565b5b600182019050919050565b600081905092915050565b600061573c82614479565b6157468185615726565b9350615756818560208601614495565b80840191505092915050565b600061576e8285615731565b915061577a8284615731565b91508190509392505050565b7f4f776e61626c653a206e6577206f776e657220697320746865207a65726f206160008201527f6464726573730000000000000000000000000000000000000000000000000000602082015250565b60006157e2602683614484565b91506157ed82615786565b604082019050919050565b60006020820190508181036000830152615811816157d5565b9050919050565b600061582382614534565b915061582e83614534565b9250827fffffffffffffffffffffffffffffffffffffffffffffffffffffffffffffffff03821115615863576158626156ae565b5b828201905092915050565b600061587982614534565b915061588483614534565b9250817fffffffffffffffffffffffffffffffffffffffffffffffffffffffffffffffff04831182151516156158bd576158bc6156ae565b5b828202905092915050565b7f4e487b7100000000000000000000000000000000000000000000000000000000600052603260045260246000fd5b600081519050919050565b600082825260208201905092915050565b6000819050602082019050919050565b61592c8161478f565b82525050565b600061593e8383615923565b60208301905092915050565b6000602082019050919050565b6000615962826158f7565b61596c8185615902565b935061597783615913565b8060005b838110156159a857815161598f8882615932565b975061599a8361594a565b92505060018101905061597b565b5085935050505092915050565b60006060820190506159ca600083018661468c565b6159d7602083018561468c565b81810360408301526159e98184615957565b9050949350505050565b600081519050919050565b600082825260208201905092915050565b6000615a1a826159f3565b615a2481856159fe565b9350615a34818560208601614495565b615a3d816144c8565b840191505092915050565b6000608082019050615a5d60008301876145c9565b615a6a60208301866145c9565b615a77604083018561468c565b8181036060830152615a898184615a0f565b905095945050505050565b600081519050615aa3816143ea565b92915050565b600060208284031215615abf57615abe6143b4565b5b6000615acd84828501615a94565b91505092915050565b7f4e487b7100000000000000000000000000000000000000000000000000000000600052601260045260246000fd5b6000615b1082614534565b9150615b1b83614534565b925082615b2b57615b2a615ad6565b5b828206905092915050565b6000615b4182614534565b9150615b4c83614534565b925082615b5c57615b5b615ad6565b5b828204905092915050565b6000615b7282614534565b9150615b7d83614534565b925082821015615b9057615b8f6156ae565b5b828203905092915050565b6000819050919050565b615bb6615bb18261478f565b615b9b565b82525050565b6000615bc88287615129565b602082019150615bd88286615129565b602082019150615be88285615ba5565b602082019150615bf88284615ba5565b60208201915081905095945050505050565b6000615c168284615129565b6020820191508190509291505056fea264697066735822122076be47491276c3c1fab6a10d37f4b0d327d44be6697668bff9171e1adf086e7c64736f6c6343000809003352686170736f64792043726561746f722047656e657261746976652052696e6b656279",
  "devdoc": {
    "kind": "dev",
    "methods": {
      "approve(address,uint256)": {
        "details": "See {IERC721-approve}."
      },
      "balanceOf(address)": {
        "details": "See {IERC721-balanceOf}."
      },
      "claimMint(uint256,bytes32[])": {
        "params": {
          "invocations": "number of tokens to mint",
          "proof": "merkle proof to prove address and token mint count are in tree"
        }
      },
      "getApproved(uint256)": {
        "details": "See {IERC721-getApproved}."
      },
      "isApprovedForAll(address,address)": {
        "details": "See {IERC721-isApprovedForAll}."
      },
      "name()": {
        "details": "See {IERC721Metadata-name}."
      },
      "owner()": {
        "details": "Returns the address of the current owner."
      },
      "ownerOf(uint256)": {
        "details": "See {IERC721-ownerOf}."
      },
      "presaleMint(uint256,uint256,bytes32[])": {
        "params": {
          "invocations": "number of tokens to mint",
          "maxInvocation": "max number of invocations of the user",
          "proof": "merkle proof to prove address and token mint count are in tree"
        }
      },
      "promotionMint(uint256)": {
        "params": {
          "invocations": "the number of invocations to batch mint"
        }
      },
      "publicMint(uint256)": {
        "details": "user can only mint less than maxPublicBatchPerAddress of tokens",
        "params": {
          "invocations": "number of tokens to mint"
        }
      },
      "renounceOwnership()": {
        "details": "Leaves the contract without owner. It will not be possible to call `onlyOwner` functions anymore. Can only be called by the current owner. NOTE: Renouncing ownership will leave the contract without an owner, thereby removing any functionality that is only available to the owner."
      },
      "safeTransferFrom(address,address,uint256)": {
        "details": "See {IERC721-safeTransferFrom}."
      },
      "safeTransferFrom(address,address,uint256,bytes)": {
        "details": "See {IERC721-safeTransferFrom}."
      },
      "setApprovalForAll(address,bool)": {
        "details": "See {IERC721-setApprovalForAll}."
      },
      "setClaimMerkleRoot(bytes32)": {
        "params": {
          "_claimMerkleRoot": "root of the merklelized claimlist"
        }
      },
      "setMintTime(uint256,uint256,uint256)": {
        "details": "this function can serve as an \"active\" and \"non-active\" sale statusset the values to uint256(-1) for \"non-active\" sale statusalso, pass contract ownership to address(0) to close sale forever",
        "params": {
          "_presaleTime": "time the presale starts",
          "_publicTime": "time the public sale starts"
        }
      },
      "setOwnersExplicit(uint256)": {
        "details": "eliminate loops in future calls of ownerOf()"
      },
      "setPresaleMerkleRoot(bytes32)": {
        "params": {
          "_presaleMerkleRoot": "root of the merklelized whitelist"
        }
      },
      "supportsInterface(bytes4)": {
        "details": "See {IERC165-supportsInterface}."
      },
      "symbol()": {
        "details": "See {IERC721Metadata-symbol}."
      },
      "tokenByIndex(uint256)": {
        "details": "See {IERC721Enumerable-tokenByIndex}. This read function is O(totalSupply). If calling from a separate contract, be sure to test gas first. It may also degrade with extremely large collection sizes (e.g >> 10000), test for your use case."
      },
      "tokenOfOwnerByIndex(address,uint256)": {
        "details": "See {IERC721Enumerable-tokenOfOwnerByIndex}. This read function is O(totalSupply). If calling from a separate contract, be sure to test gas first. It may also degrade with extremely large collection sizes (e.g >> 10000), test for your use case."
      },
      "tokenURI(uint256)": {
        "details": "See {IERC721Metadata-tokenURI}."
      },
      "totalSupply()": {
        "details": "See {IERC721Enumerable-totalSupply}."
      },
      "transferFrom(address,address,uint256)": {
        "details": "See {IERC721-transferFrom}."
      },
      "transferOwnership(address)": {
        "details": "Transfers ownership of the contract to a new account (`newOwner`). Can only be called by the current owner."
      }
    },
    "version": 1
  },
  "userdoc": {
    "events": {
      "Created(address,uint256,uint256,bytes32[])": {
        "notice": "============ Events ============"
      }
    },
    "kind": "user",
    "methods": {
      "VERSION()": {
        "notice": "Semver Version"
      },
      "amountForPromotion()": {
        "notice": "promotional nfts count"
      },
      "baseURI()": {
        "notice": "core metadata baseURI used for tokens metadata"
      },
      "claimMerkleRoot()": {
        "notice": "ERC721-claim inclusion root"
      },
      "claimMint(uint256,bytes32[])": {
        "notice": "Allows claim of tokens if address is part of merkle tree"
      },
      "claimTime()": {
        "notice": "time the public starts"
      },
      "maxPublicBatchPerAddress()": {
        "notice": "max mintable tokens for each address in public"
      },
      "mintOf(address)": {
        "notice": "returns the number of mints of an address"
      },
      "mintPrice()": {
        "notice": "mint price of each nft; same for pre/public sale."
      },
      "mintRandomizerContract()": {
        "notice": "the randomizer contract"
      },
      "presaleMerkleRoot()": {
        "notice": "ERC721-presale inclusion root"
      },
      "presaleMint(uint256,uint256,bytes32[])": {
        "notice": "Allows presale minting of tokens if address is part of merkle tree"
      },
      "presaleTime()": {
        "notice": "time the presale starts"
      },
      "promotionMint(uint256)": {
        "notice": "used by owner to mint promotional nfts"
      },
      "publicMint(uint256)": {
        "notice": "Allows public minting of tokens"
      },
      "publicTime()": {
        "notice": "time the public starts"
      },
      "setBaseURI(string)": {
        "notice": "set the new baseURI to change the tokens metadata"
      },
      "setClaimMerkleRoot(bytes32)": {
        "notice": "force override the merkle root used in presale mint"
      },
      "setMintRandomizerContract(address)": {
        "notice": "used the set the mint randomizer for on-chain generative projects"
      },
      "setMintTime(uint256,uint256,uint256)": {
        "notice": "Set the time for the mint"
      },
      "setOwnersExplicit(uint256)": {
        "notice": "sets the owners quantity explicity"
      },
      "setPresaleMerkleRoot(bytes32)": {
        "notice": "force override the merkle root used in presale mint"
      },
      "withdrawMoney()": {
        "notice": "withdraws the ether in the contract to owner"
      }
    },
    "version": 1
  },
  "storageLayout": {
    "storage": [
      {
        "astId": 3052,
        "contract": "contracts/test/helpers/RhapsodyCreatorGenerativeRinkeby.sol:RhapsodyCreatorGenerativeRinkeby",
        "label": "_currentIndex",
        "offset": 0,
        "slot": "0",
        "type": "t_uint128"
      },
      {
        "astId": 3054,
        "contract": "contracts/test/helpers/RhapsodyCreatorGenerativeRinkeby.sol:RhapsodyCreatorGenerativeRinkeby",
        "label": "_burnCounter",
        "offset": 16,
        "slot": "0",
        "type": "t_uint128"
      },
      {
        "astId": 3056,
        "contract": "contracts/test/helpers/RhapsodyCreatorGenerativeRinkeby.sol:RhapsodyCreatorGenerativeRinkeby",
        "label": "_name",
        "offset": 0,
        "slot": "1",
        "type": "t_string_storage"
      },
      {
        "astId": 3058,
        "contract": "contracts/test/helpers/RhapsodyCreatorGenerativeRinkeby.sol:RhapsodyCreatorGenerativeRinkeby",
        "label": "_symbol",
        "offset": 0,
        "slot": "2",
        "type": "t_string_storage"
      },
      {
        "astId": 3063,
        "contract": "contracts/test/helpers/RhapsodyCreatorGenerativeRinkeby.sol:RhapsodyCreatorGenerativeRinkeby",
        "label": "_ownerships",
        "offset": 0,
        "slot": "3",
        "type": "t_mapping(t_uint256,t_struct(TokenOwnership)3043_storage)"
      },
      {
        "astId": 3068,
        "contract": "contracts/test/helpers/RhapsodyCreatorGenerativeRinkeby.sol:RhapsodyCreatorGenerativeRinkeby",
        "label": "_addressData",
        "offset": 0,
        "slot": "4",
        "type": "t_mapping(t_address,t_struct(AddressData)3050_storage)"
      },
      {
        "astId": 3072,
        "contract": "contracts/test/helpers/RhapsodyCreatorGenerativeRinkeby.sol:RhapsodyCreatorGenerativeRinkeby",
        "label": "_tokenApprovals",
        "offset": 0,
        "slot": "5",
        "type": "t_mapping(t_uint256,t_address)"
      },
      {
        "astId": 3078,
        "contract": "contracts/test/helpers/RhapsodyCreatorGenerativeRinkeby.sol:RhapsodyCreatorGenerativeRinkeby",
        "label": "_operatorApprovals",
        "offset": 0,
        "slot": "6",
        "type": "t_mapping(t_address,t_mapping(t_address,t_bool))"
      },
      {
        "astId": 4339,
        "contract": "contracts/test/helpers/RhapsodyCreatorGenerativeRinkeby.sol:RhapsodyCreatorGenerativeRinkeby",
        "label": "nextOwnerToExplicitlySet",
        "offset": 0,
        "slot": "7",
        "type": "t_uint256"
      },
      {
        "astId": 7,
        "contract": "contracts/test/helpers/RhapsodyCreatorGenerativeRinkeby.sol:RhapsodyCreatorGenerativeRinkeby",
        "label": "_owner",
        "offset": 0,
        "slot": "8",
        "type": "t_address"
      },
      {
        "astId": 115,
        "contract": "contracts/test/helpers/RhapsodyCreatorGenerativeRinkeby.sol:RhapsodyCreatorGenerativeRinkeby",
        "label": "_status",
        "offset": 0,
        "slot": "9",
        "type": "t_uint256"
      },
      {
        "astId": 2213,
        "contract": "contracts/test/helpers/RhapsodyCreatorGenerativeRinkeby.sol:RhapsodyCreatorGenerativeRinkeby",
        "label": "presaleMerkleRoot",
        "offset": 0,
        "slot": "10",
        "type": "t_bytes32"
      },
      {
        "astId": 2216,
        "contract": "contracts/test/helpers/RhapsodyCreatorGenerativeRinkeby.sol:RhapsodyCreatorGenerativeRinkeby",
        "label": "claimMerkleRoot",
        "offset": 0,
        "slot": "11",
        "type": "t_bytes32"
      },
      {
        "astId": 2219,
        "contract": "contracts/test/helpers/RhapsodyCreatorGenerativeRinkeby.sol:RhapsodyCreatorGenerativeRinkeby",
        "label": "claimTime",
        "offset": 0,
        "slot": "12",
        "type": "t_uint256"
      },
      {
        "astId": 2222,
        "contract": "contracts/test/helpers/RhapsodyCreatorGenerativeRinkeby.sol:RhapsodyCreatorGenerativeRinkeby",
        "label": "presaleTime",
        "offset": 0,
        "slot": "13",
        "type": "t_uint256"
      },
      {
        "astId": 2225,
        "contract": "contracts/test/helpers/RhapsodyCreatorGenerativeRinkeby.sol:RhapsodyCreatorGenerativeRinkeby",
        "label": "publicTime",
        "offset": 0,
        "slot": "14",
        "type": "t_uint256"
      },
      {
        "astId": 2230,
        "contract": "contracts/test/helpers/RhapsodyCreatorGenerativeRinkeby.sol:RhapsodyCreatorGenerativeRinkeby",
        "label": "_tokenHash",
        "offset": 0,
        "slot": "15",
        "type": "t_mapping(t_uint256,t_bytes32)"
      },
      {
        "astId": 2232,
        "contract": "contracts/test/helpers/RhapsodyCreatorGenerativeRinkeby.sol:RhapsodyCreatorGenerativeRinkeby",
        "label": "_baseTokenURI",
        "offset": 0,
        "slot": "16",
        "type": "t_string_storage"
      },
      {
        "astId": 2236,
        "contract": "contracts/test/helpers/RhapsodyCreatorGenerativeRinkeby.sol:RhapsodyCreatorGenerativeRinkeby",
        "label": "mintRandomizerContract",
        "offset": 0,
        "slot": "17",
        "type": "t_contract(IRandomizer)2975"
      }
    ],
    "types": {
      "t_address": {
        "encoding": "inplace",
        "label": "address",
        "numberOfBytes": "20"
      },
      "t_bool": {
        "encoding": "inplace",
        "label": "bool",
        "numberOfBytes": "1"
      },
      "t_bytes32": {
        "encoding": "inplace",
        "label": "bytes32",
        "numberOfBytes": "32"
      },
      "t_contract(IRandomizer)2975": {
        "encoding": "inplace",
        "label": "contract IRandomizer",
        "numberOfBytes": "20"
      },
      "t_mapping(t_address,t_bool)": {
        "encoding": "mapping",
        "key": "t_address",
        "label": "mapping(address => bool)",
        "numberOfBytes": "32",
        "value": "t_bool"
      },
      "t_mapping(t_address,t_mapping(t_address,t_bool))": {
        "encoding": "mapping",
        "key": "t_address",
        "label": "mapping(address => mapping(address => bool))",
        "numberOfBytes": "32",
        "value": "t_mapping(t_address,t_bool)"
      },
      "t_mapping(t_address,t_struct(AddressData)3050_storage)": {
        "encoding": "mapping",
        "key": "t_address",
        "label": "mapping(address => struct ERC721A.AddressData)",
        "numberOfBytes": "32",
        "value": "t_struct(AddressData)3050_storage"
      },
      "t_mapping(t_uint256,t_address)": {
        "encoding": "mapping",
        "key": "t_uint256",
        "label": "mapping(uint256 => address)",
        "numberOfBytes": "32",
        "value": "t_address"
      },
      "t_mapping(t_uint256,t_bytes32)": {
        "encoding": "mapping",
        "key": "t_uint256",
        "label": "mapping(uint256 => bytes32)",
        "numberOfBytes": "32",
        "value": "t_bytes32"
      },
      "t_mapping(t_uint256,t_struct(TokenOwnership)3043_storage)": {
        "encoding": "mapping",
        "key": "t_uint256",
        "label": "mapping(uint256 => struct ERC721A.TokenOwnership)",
        "numberOfBytes": "32",
        "value": "t_struct(TokenOwnership)3043_storage"
      },
      "t_string_storage": {
        "encoding": "bytes",
        "label": "string",
        "numberOfBytes": "32"
      },
      "t_struct(AddressData)3050_storage": {
        "encoding": "inplace",
        "label": "struct ERC721A.AddressData",
        "members": [
          {
            "astId": 3045,
            "contract": "contracts/test/helpers/RhapsodyCreatorGenerativeRinkeby.sol:RhapsodyCreatorGenerativeRinkeby",
            "label": "balance",
            "offset": 0,
            "slot": "0",
            "type": "t_uint64"
          },
          {
            "astId": 3047,
            "contract": "contracts/test/helpers/RhapsodyCreatorGenerativeRinkeby.sol:RhapsodyCreatorGenerativeRinkeby",
            "label": "numberMinted",
            "offset": 8,
            "slot": "0",
            "type": "t_uint64"
          },
          {
            "astId": 3049,
            "contract": "contracts/test/helpers/RhapsodyCreatorGenerativeRinkeby.sol:RhapsodyCreatorGenerativeRinkeby",
            "label": "numberBurned",
            "offset": 16,
            "slot": "0",
            "type": "t_uint64"
          }
        ],
        "numberOfBytes": "32"
      },
      "t_struct(TokenOwnership)3043_storage": {
        "encoding": "inplace",
        "label": "struct ERC721A.TokenOwnership",
        "members": [
          {
            "astId": 3038,
            "contract": "contracts/test/helpers/RhapsodyCreatorGenerativeRinkeby.sol:RhapsodyCreatorGenerativeRinkeby",
            "label": "addr",
            "offset": 0,
            "slot": "0",
            "type": "t_address"
          },
          {
            "astId": 3040,
            "contract": "contracts/test/helpers/RhapsodyCreatorGenerativeRinkeby.sol:RhapsodyCreatorGenerativeRinkeby",
            "label": "startTimestamp",
            "offset": 20,
            "slot": "0",
            "type": "t_uint64"
          },
          {
            "astId": 3042,
            "contract": "contracts/test/helpers/RhapsodyCreatorGenerativeRinkeby.sol:RhapsodyCreatorGenerativeRinkeby",
            "label": "burned",
            "offset": 28,
            "slot": "0",
            "type": "t_bool"
          }
        ],
        "numberOfBytes": "32"
      },
      "t_uint128": {
        "encoding": "inplace",
        "label": "uint128",
        "numberOfBytes": "16"
      },
      "t_uint256": {
        "encoding": "inplace",
        "label": "uint256",
        "numberOfBytes": "32"
      },
      "t_uint64": {
        "encoding": "inplace",
        "label": "uint64",
        "numberOfBytes": "8"
      }
    }
  }
}