{
  "address": "0x86E8e7153f959ACBbEBAA962387dbb8d72555095",
  "abi": [
    {
      "inputs": [
        {
          "internalType": "uint256",
          "name": "_collectionSize",
          "type": "uint256"
        },
        {
          "internalType": "uint256",
          "name": "_maxPublicBatchPerAddress",
          "type": "uint256"
        },
        {
          "internalType": "uint256",
          "name": "_amountForPromotion",
          "type": "uint256"
        },
        {
          "internalType": "uint256",
          "name": "_mintPrice",
          "type": "uint256"
        }
      ],
      "stateMutability": "nonpayable",
      "type": "constructor"
    },
    {
      "inputs": [],
      "name": "AllOwnershipsHaveBeenSet",
      "type": "error"
    },
    {
      "inputs": [],
      "name": "ApprovalCallerNotOwnerNorApproved",
      "type": "error"
    },
    {
      "inputs": [],
      "name": "ApprovalQueryForNonexistentToken",
      "type": "error"
    },
    {
      "inputs": [],
      "name": "ApprovalToCurrentOwner",
      "type": "error"
    },
    {
      "inputs": [],
      "name": "ApproveToCaller",
      "type": "error"
    },
    {
      "inputs": [],
      "name": "BalanceQueryForZeroAddress",
      "type": "error"
    },
    {
      "inputs": [],
      "name": "HashQueryForNonexistentToken",
      "type": "error"
    },
    {
      "inputs": [],
      "name": "MintToZeroAddress",
      "type": "error"
    },
    {
      "inputs": [],
      "name": "MintZeroQuantity",
      "type": "error"
    },
    {
      "inputs": [],
      "name": "NoTokensMintedYet",
      "type": "error"
    },
    {
      "inputs": [],
      "name": "OwnerQueryForNonexistentToken",
      "type": "error"
    },
    {
      "inputs": [],
      "name": "QuantityMustBeNonZero",
      "type": "error"
    },
    {
      "inputs": [],
      "name": "TransferCallerNotOwnerNorApproved",
      "type": "error"
    },
    {
      "inputs": [],
      "name": "TransferFromIncorrectOwner",
      "type": "error"
    },
    {
      "inputs": [],
      "name": "TransferToNonERC721ReceiverImplementer",
      "type": "error"
    },
    {
      "inputs": [],
      "name": "TransferToZeroAddress",
      "type": "error"
    },
    {
      "inputs": [],
      "name": "URIQueryForNonexistentToken",
      "type": "error"
    },
    {
      "anonymous": false,
      "inputs": [
        {
          "indexed": true,
          "internalType": "address",
          "name": "owner",
          "type": "address"
        },
        {
          "indexed": true,
          "internalType": "address",
          "name": "approved",
          "type": "address"
        },
        {
          "indexed": true,
          "internalType": "uint256",
          "name": "tokenId",
          "type": "uint256"
        }
      ],
      "name": "Approval",
      "type": "event"
    },
    {
      "anonymous": false,
      "inputs": [
        {
          "indexed": true,
          "internalType": "address",
          "name": "owner",
          "type": "address"
        },
        {
          "indexed": true,
          "internalType": "address",
          "name": "operator",
          "type": "address"
        },
        {
          "indexed": false,
          "internalType": "bool",
          "name": "approved",
          "type": "bool"
        }
      ],
      "name": "ApprovalForAll",
      "type": "event"
    },
    {
      "anonymous": false,
      "inputs": [
        {
          "indexed": true,
          "internalType": "address",
          "name": "to",
          "type": "address"
        },
        {
          "indexed": false,
          "internalType": "uint256",
          "name": "currentTotalSupply",
          "type": "uint256"
        },
        {
          "indexed": false,
          "internalType": "uint256",
          "name": "invocations",
          "type": "uint256"
        },
        {
          "indexed": false,
          "internalType": "bytes32[]",
          "name": "identifiers",
          "type": "bytes32[]"
        }
      ],
      "name": "Created",
      "type": "event"
    },
    {
      "anonymous": false,
      "inputs": [
        {
          "indexed": true,
          "internalType": "address",
          "name": "previousOwner",
          "type": "address"
        },
        {
          "indexed": true,
          "internalType": "address",
          "name": "newOwner",
          "type": "address"
        }
      ],
      "name": "OwnershipTransferred",
      "type": "event"
    },
    {
      "anonymous": false,
      "inputs": [
        {
          "indexed": true,
          "internalType": "address",
          "name": "from",
          "type": "address"
        },
        {
          "indexed": true,
          "internalType": "address",
          "name": "to",
          "type": "address"
        },
        {
          "indexed": true,
          "internalType": "uint256",
          "name": "tokenId",
          "type": "uint256"
        }
      ],
      "name": "Transfer",
      "type": "event"
    },
    {
      "inputs": [],
      "name": "VERSION",
      "outputs": [
        {
          "internalType": "string",
          "name": "",
          "type": "string"
        }
      ],
      "stateMutability": "view",
      "type": "function"
    },
    {
      "inputs": [],
      "name": "amountForPromotion",
      "outputs": [
        {
          "internalType": "uint256",
          "name": "",
          "type": "uint256"
        }
      ],
      "stateMutability": "view",
      "type": "function"
    },
    {
      "inputs": [
        {
          "internalType": "address",
          "name": "to",
          "type": "address"
        },
        {
          "internalType": "uint256",
          "name": "tokenId",
          "type": "uint256"
        }
      ],
      "name": "approve",
      "outputs": [],
      "stateMutability": "nonpayable",
      "type": "function"
    },
    {
      "inputs": [
        {
          "internalType": "address",
          "name": "owner",
          "type": "address"
        }
      ],
      "name": "balanceOf",
      "outputs": [
        {
          "internalType": "uint256",
          "name": "",
          "type": "uint256"
        }
      ],
      "stateMutability": "view",
      "type": "function"
    },
    {
      "inputs": [],
      "name": "baseURI",
      "outputs": [
        {
          "internalType": "string",
          "name": "",
          "type": "string"
        }
      ],
      "stateMutability": "view",
      "type": "function"
    },
    {
      "inputs": [],
      "name": "claimMerkleRoot",
      "outputs": [
        {
          "internalType": "bytes32",
          "name": "",
          "type": "bytes32"
        }
      ],
      "stateMutability": "view",
      "type": "function"
    },
    {
      "inputs": [
        {
          "internalType": "uint256",
          "name": "invocations",
          "type": "uint256"
        },
        {
          "internalType": "bytes32[]",
          "name": "proof",
          "type": "bytes32[]"
        }
      ],
      "name": "claimMint",
      "outputs": [],
      "stateMutability": "nonpayable",
      "type": "function"
    },
    {
      "inputs": [],
      "name": "claimTime",
      "outputs": [
        {
          "internalType": "uint256",
          "name": "",
          "type": "uint256"
        }
      ],
      "stateMutability": "view",
      "type": "function"
    },
    {
      "inputs": [
        {
          "internalType": "uint256",
          "name": "tokenId",
          "type": "uint256"
        }
      ],
      "name": "getApproved",
      "outputs": [
        {
          "internalType": "address",
          "name": "",
          "type": "address"
        }
      ],
      "stateMutability": "view",
      "type": "function"
    },
    {
      "inputs": [
        {
          "internalType": "address",
          "name": "owner",
          "type": "address"
        },
        {
          "internalType": "address",
          "name": "operator",
          "type": "address"
        }
      ],
      "name": "isApprovedForAll",
      "outputs": [
        {
          "internalType": "bool",
          "name": "",
          "type": "bool"
        }
      ],
      "stateMutability": "view",
      "type": "function"
    },
    {
      "inputs": [],
      "name": "maxPublicBatchPerAddress",
      "outputs": [
        {
          "internalType": "uint256",
          "name": "",
          "type": "uint256"
        }
      ],
      "stateMutability": "view",
      "type": "function"
    },
    {
      "inputs": [
        {
          "internalType": "address",
          "name": "_owner",
          "type": "address"
        }
      ],
      "name": "mintOf",
      "outputs": [
        {
          "internalType": "uint256",
          "name": "",
          "type": "uint256"
        }
      ],
      "stateMutability": "view",
      "type": "function"
    },
    {
      "inputs": [],
      "name": "mintPrice",
      "outputs": [
        {
          "internalType": "uint256",
          "name": "",
          "type": "uint256"
        }
      ],
      "stateMutability": "view",
      "type": "function"
    },
    {
      "inputs": [],
      "name": "mintRandomizerContract",
      "outputs": [
        {
          "internalType": "contract IRandomizer",
          "name": "",
          "type": "address"
        }
      ],
      "stateMutability": "view",
      "type": "function"
    },
    {
      "inputs": [],
      "name": "name",
      "outputs": [
        {
          "internalType": "string",
          "name": "",
          "type": "string"
        }
      ],
      "stateMutability": "view",
      "type": "function"
    },
    {
      "inputs": [],
      "name": "nextOwnerToExplicitlySet",
      "outputs": [
        {
          "internalType": "uint256",
          "name": "",
          "type": "uint256"
        }
      ],
      "stateMutability": "view",
      "type": "function"
    },
    {
      "inputs": [],
      "name": "owner",
      "outputs": [
        {
          "internalType": "address",
          "name": "",
          "type": "address"
        }
      ],
      "stateMutability": "view",
      "type": "function"
    },
    {
      "inputs": [
        {
          "internalType": "uint256",
          "name": "tokenId",
          "type": "uint256"
        }
      ],
      "name": "ownerOf",
      "outputs": [
        {
          "internalType": "address",
          "name": "",
          "type": "address"
        }
      ],
      "stateMutability": "view",
      "type": "function"
    },
    {
      "inputs": [],
      "name": "presaleMerkleRoot",
      "outputs": [
        {
          "internalType": "bytes32",
          "name": "",
          "type": "bytes32"
        }
      ],
      "stateMutability": "view",
      "type": "function"
    },
    {
      "inputs": [
        {
          "internalType": "uint256",
          "name": "invocations",
          "type": "uint256"
        },
        {
          "internalType": "uint256",
          "name": "maxInvocation",
          "type": "uint256"
        },
        {
          "internalType": "bytes32[]",
          "name": "proof",
          "type": "bytes32[]"
        }
      ],
      "name": "presaleMint",
      "outputs": [],
      "stateMutability": "payable",
      "type": "function"
    },
    {
      "inputs": [],
      "name": "presaleTime",
      "outputs": [
        {
          "internalType": "uint256",
          "name": "",
          "type": "uint256"
        }
      ],
      "stateMutability": "view",
      "type": "function"
    },
    {
      "inputs": [
        {
          "internalType": "uint256",
          "name": "invocations",
          "type": "uint256"
        }
      ],
      "name": "promotionMint",
      "outputs": [],
      "stateMutability": "nonpayable",
      "type": "function"
    },
    {
      "inputs": [
        {
          "internalType": "uint256",
          "name": "invocations",
          "type": "uint256"
        }
      ],
      "name": "publicMint",
      "outputs": [],
      "stateMutability": "payable",
      "type": "function"
    },
    {
      "inputs": [],
      "name": "publicTime",
      "outputs": [
        {
          "internalType": "uint256",
          "name": "",
          "type": "uint256"
        }
      ],
      "stateMutability": "view",
      "type": "function"
    },
    {
      "inputs": [],
      "name": "renounceOwnership",
      "outputs": [],
      "stateMutability": "nonpayable",
      "type": "function"
    },
    {
      "inputs": [
        {
          "internalType": "address",
          "name": "from",
          "type": "address"
        },
        {
          "internalType": "address",
          "name": "to",
          "type": "address"
        },
        {
          "internalType": "uint256",
          "name": "tokenId",
          "type": "uint256"
        }
      ],
      "name": "safeTransferFrom",
      "outputs": [],
      "stateMutability": "nonpayable",
      "type": "function"
    },
    {
      "inputs": [
        {
          "internalType": "address",
          "name": "from",
          "type": "address"
        },
        {
          "internalType": "address",
          "name": "to",
          "type": "address"
        },
        {
          "internalType": "uint256",
          "name": "tokenId",
          "type": "uint256"
        },
        {
          "internalType": "bytes",
          "name": "_data",
          "type": "bytes"
        }
      ],
      "name": "safeTransferFrom",
      "outputs": [],
      "stateMutability": "nonpayable",
      "type": "function"
    },
    {
      "inputs": [
        {
          "internalType": "address",
          "name": "operator",
          "type": "address"
        },
        {
          "internalType": "bool",
          "name": "approved",
          "type": "bool"
        }
      ],
      "name": "setApprovalForAll",
      "outputs": [],
      "stateMutability": "nonpayable",
      "type": "function"
    },
    {
      "inputs": [
        {
          "internalType": "string",
          "name": "newBaseURI",
          "type": "string"
        }
      ],
      "name": "setBaseURI",
      "outputs": [],
      "stateMutability": "nonpayable",
      "type": "function"
    },
    {
      "inputs": [
        {
          "internalType": "bytes32",
          "name": "_claimMerkleRoot",
          "type": "bytes32"
        }
      ],
      "name": "setClaimMerkleRoot",
      "outputs": [],
      "stateMutability": "nonpayable",
      "type": "function"
    },
    {
      "inputs": [
        {
          "internalType": "address",
          "name": "_mintRandomizerContract",
          "type": "address"
        }
      ],
      "name": "setMintRandomizerContract",
      "outputs": [],
      "stateMutability": "nonpayable",
      "type": "function"
    },
    {
      "inputs": [
        {
          "internalType": "uint256",
          "name": "_claimTime",
          "type": "uint256"
        },
        {
          "internalType": "uint256",
          "name": "_presaleTime",
          "type": "uint256"
        },
        {
          "internalType": "uint256",
          "name": "_publicTime",
          "type": "uint256"
        }
      ],
      "name": "setMintTime",
      "outputs": [],
      "stateMutability": "nonpayable",
      "type": "function"
    },
    {
      "inputs": [
        {
          "internalType": "uint256",
          "name": "quantity",
          "type": "uint256"
        }
      ],
      "name": "setOwnersExplicit",
      "outputs": [],
      "stateMutability": "nonpayable",
      "type": "function"
    },
    {
      "inputs": [
        {
          "internalType": "bytes32",
          "name": "_presaleMerkleRoot",
          "type": "bytes32"
        }
      ],
      "name": "setPresaleMerkleRoot",
      "outputs": [],
      "stateMutability": "nonpayable",
      "type": "function"
    },
    {
      "inputs": [
        {
          "internalType": "bytes4",
          "name": "interfaceId",
          "type": "bytes4"
        }
      ],
      "name": "supportsInterface",
      "outputs": [
        {
          "internalType": "bool",
          "name": "",
          "type": "bool"
        }
      ],
      "stateMutability": "view",
      "type": "function"
    },
    {
      "inputs": [],
      "name": "symbol",
      "outputs": [
        {
          "internalType": "string",
          "name": "",
          "type": "string"
        }
      ],
      "stateMutability": "view",
      "type": "function"
    },
    {
      "inputs": [
        {
          "internalType": "uint256",
          "name": "_tokenId",
          "type": "uint256"
        }
      ],
      "name": "tokenHash",
      "outputs": [
        {
          "internalType": "bytes32",
          "name": "",
          "type": "bytes32"
        }
      ],
      "stateMutability": "view",
      "type": "function"
    },
    {
      "inputs": [
        {
          "internalType": "uint256",
          "name": "tokenId",
          "type": "uint256"
        }
      ],
      "name": "tokenURI",
      "outputs": [
        {
          "internalType": "string",
          "name": "",
          "type": "string"
        }
      ],
      "stateMutability": "view",
      "type": "function"
    },
    {
      "inputs": [],
      "name": "totalSupply",
      "outputs": [
        {
          "internalType": "uint256",
          "name": "",
          "type": "uint256"
        }
      ],
      "stateMutability": "view",
      "type": "function"
    },
    {
      "inputs": [
        {
          "internalType": "address",
          "name": "from",
          "type": "address"
        },
        {
          "internalType": "address",
          "name": "to",
          "type": "address"
        },
        {
          "internalType": "uint256",
          "name": "tokenId",
          "type": "uint256"
        }
      ],
      "name": "transferFrom",
      "outputs": [],
      "stateMutability": "nonpayable",
      "type": "function"
    },
    {
      "inputs": [
        {
          "internalType": "address",
          "name": "newOwner",
          "type": "address"
        }
      ],
      "name": "transferOwnership",
      "outputs": [],
      "stateMutability": "nonpayable",
      "type": "function"
    },
    {
      "inputs": [],
      "name": "withdrawMoney",
      "outputs": [],
      "stateMutability": "nonpayable",
      "type": "function"
    }
  ],
  "transactionHash": "0xb89083fed3248dd5495595a033715dfb0dd213b9be54bb0ac20a5fe4d2ccd5d7",
  "args": [
    1111,
    2,
    40,
    "333000000000000000"
  ],
  "numDeployments": 20,
  "solcInputHash": "d0797eab796deda0d68af359ef404f3d",
  "bytecode": "0x6101006040523480156200001257600080fd5b5060405162005c2838038062005c288339818101604052810190620000389190620003c5565b60405180606001604052806023815260200162005c05602391396040518060400160405280600381526020017f52435400000000000000000000000000000000000000000000000000000000008152508585858585858160029080519060200190620000a6929190620002d5565b508060039080519060200190620000bf929190620002d5565b50620000d06200020260201b60201c565b6000819055505050620000f8620000ec6200020760201b60201c565b6200020f60201b60201c565b6001600a819055506000841162000146576040517f08c379a00000000000000000000000000000000000000000000000000000000081526004016200013d90620004be565b60405180910390fd5b838211156200018c576040517f08c379a0000000000000000000000000000000000000000000000000000000008152600401620001839062000556565b60405180910390fd5b60008111620001d2576040517f08c379a0000000000000000000000000000000000000000000000000000000008152600401620001c990620005ee565b60405180910390fd5b8360e081815250508260a0818152505081608081815250508060c081815250505050505050505050505062000675565b600090565b600033905090565b6000600960009054906101000a900473ffffffffffffffffffffffffffffffffffffffff16905081600960006101000a81548173ffffffffffffffffffffffffffffffffffffffff021916908373ffffffffffffffffffffffffffffffffffffffff1602179055508173ffffffffffffffffffffffffffffffffffffffff168173ffffffffffffffffffffffffffffffffffffffff167f8be0079c531659141344cd1fd0a4f28419497f9722a3daafe3b4186f6b6457e060405160405180910390a35050565b828054620002e3906200063f565b90600052602060002090601f01602090048101928262000307576000855562000353565b82601f106200032257805160ff191683800117855562000353565b8280016001018555821562000353579182015b828111156200035257825182559160200191906001019062000335565b5b50905062000362919062000366565b5090565b5b808211156200038157600081600090555060010162000367565b5090565b600080fd5b6000819050919050565b6200039f816200038a565b8114620003ab57600080fd5b50565b600081519050620003bf8162000394565b92915050565b60008060008060808587031215620003e257620003e162000385565b5b6000620003f287828801620003ae565b94505060206200040587828801620003ae565b93505060406200041887828801620003ae565b92505060606200042b87828801620003ae565b91505092959194509250565b600082825260208201905092915050565b7f52686170736f647943726561746f7247656e657261746976652f696e76616c6960008201527f642d636f6c6c656374696f6e2d73697a65000000000000000000000000000000602082015250565b6000620004a660318362000437565b9150620004b38262000448565b604082019050919050565b60006020820190508181036000830152620004d98162000497565b9050919050565b7f52686170736f647943726561746f7247656e657261746976652f696e76616c6960008201527f642d70726f6d6f74696f6e2d616d6f756e740000000000000000000000000000602082015250565b60006200053e60328362000437565b91506200054b82620004e0565b604082019050919050565b6000602082019050818103600083015262000571816200052f565b9050919050565b7f52686170736f647943726561746f7247656e657261746976652f696e76616c6960008201527f642d6d696e742d70726963650000000000000000000000000000000000000000602082015250565b6000620005d6602c8362000437565b9150620005e38262000578565b604082019050919050565b600060208201905081810360008301526200060981620005c7565b9050919050565b7f4e487b7100000000000000000000000000000000000000000000000000000000600052602260045260246000fd5b600060028204905060018216806200065857607f821691505b602082108114156200066f576200066e62000610565b5b50919050565b60805160a05160c05160e051615525620006e060003960008181610e270152818161138001526119dc015260008181610f48015281816114a101526117900152600081816112f101528181611ea901526121d6015260008181611bc9015261215801526155256000f3fe6080604052600436106102515760003560e01c8063715018a611610139578063ac446002116100b6578063c87b56dd1161007a578063c87b56dd14610870578063d7224ba0146108ad578063e985e9c5146108d8578063f2fde38b14610915578063fd1e29621461093e578063ffa1ad741461096757610251565b8063ac4460021461079f578063b1f536fa146107b6578063b88d4fde146107f3578063ba2f59c81461081c578063c6e62e0b1461084557610251565b8063993670f2116100fd578063993670f2146106b85780639c4dab52146106e3578063a22cb4651461070e578063a386439714610737578063a4babffd1461077457610251565b8063715018a6146105f757806372830dfd1461060e57806376972db2146106375780638da5cb5b1461066257806395d89b411461068d57610251565b806327b3bf11116101d257806355f804b31161019657806355f804b3146104d5578063617aa43c146104fe5780636352211e146105275780636817c76c146105645780636c0360eb1461058f57806370a08231146105ba57610251565b806327b3bf111461041357806328d7b2761461043e5780632d20fb60146104675780632db115441461049057806342842e0e146104ac57610251565b806318160ddd1161021957806318160ddd1461034d5780631b59169d146103785780631bdc608e1461039457806322212e2b146103bf57806323b872dd146103ea57610251565b806301ffc9a71461025657806306fdde0314610293578063081812fc146102be578063095ea7b3146102fb57806317ccc54b14610324575b600080fd5b34801561026257600080fd5b5061027d60048036038101906102789190613d4f565b610992565b60405161028a9190613d97565b60405180910390f35b34801561029f57600080fd5b506102a8610a74565b6040516102b59190613e4b565b60405180910390f35b3480156102ca57600080fd5b506102e560048036038101906102e09190613ea3565b610b06565b6040516102f29190613f11565b60405180910390f35b34801561030757600080fd5b50610322600480360381019061031d9190613f58565b610b82565b005b34801561033057600080fd5b5061034b60048036038101906103469190613f98565b610c8d565b005b34801561035957600080fd5b50610362610d4d565b60405161036f9190613fd4565b60405180910390f35b610392600480360381019061038d9190614054565b610d64565b005b3480156103a057600080fd5b506103a9611117565b6040516103b69190613fd4565b60405180910390f35b3480156103cb57600080fd5b506103d461111d565b6040516103e191906140e1565b60405180910390f35b3480156103f657600080fd5b50610411600480360381019061040c91906140fc565b611123565b005b34801561041f57600080fd5b50610428611133565b6040516104359190613fd4565b60405180910390f35b34801561044a57600080fd5b506104656004803603810190610460919061417b565b611139565b005b34801561047357600080fd5b5061048e60048036038101906104899190613ea3565b6111bf565b005b6104aa60048036038101906104a59190613ea3565b61129d565b005b3480156104b857600080fd5b506104d360048036038101906104ce91906140fc565b611563565b005b3480156104e157600080fd5b506104fc60048036038101906104f791906141fe565b611583565b005b34801561050a57600080fd5b506105256004803603810190610520919061424b565b611615565b005b34801561053357600080fd5b5061054e60048036038101906105499190613ea3565b611778565b60405161055b9190613f11565b60405180910390f35b34801561057057600080fd5b5061057961178e565b6040516105869190613fd4565b60405180910390f35b34801561059b57600080fd5b506105a46117b2565b6040516105b19190613e4b565b60405180910390f35b3480156105c657600080fd5b506105e160048036038101906105dc9190613f98565b6117c1565b6040516105ee9190613fd4565b60405180910390f35b34801561060357600080fd5b5061060c611891565b005b34801561061a57600080fd5b506106356004803603810190610630919061429e565b611919565b005b34801561064357600080fd5b5061064c611bc7565b6040516106599190613fd4565b60405180910390f35b34801561066e57600080fd5b50610677611beb565b6040516106849190613f11565b60405180910390f35b34801561069957600080fd5b506106a2611c15565b6040516106af9190613e4b565b60405180910390f35b3480156106c457600080fd5b506106cd611ca7565b6040516106da919061435d565b60405180910390f35b3480156106ef57600080fd5b506106f8611ccd565b60405161070591906140e1565b60405180910390f35b34801561071a57600080fd5b50610735600480360381019061073091906143a4565b611cd3565b005b34801561074357600080fd5b5061075e60048036038101906107599190613ea3565b611e4b565b60405161076b91906140e1565b60405180910390f35b34801561078057600080fd5b50610789611ea7565b6040516107969190613fd4565b60405180910390f35b3480156107ab57600080fd5b506107b4611ecb565b005b3480156107c257600080fd5b506107dd60048036038101906107d89190613f98565b61204c565b6040516107ea9190613fd4565b60405180910390f35b3480156107ff57600080fd5b5061081a60048036038101906108159190614514565b61205e565b005b34801561082857600080fd5b50610843600480360381019061083e9190613ea3565b6120da565b005b34801561085157600080fd5b5061085a612291565b6040516108679190613fd4565b60405180910390f35b34801561087c57600080fd5b5061089760048036038101906108929190613ea3565b612297565b6040516108a49190613e4b565b60405180910390f35b3480156108b957600080fd5b506108c2612336565b6040516108cf9190613fd4565b60405180910390f35b3480156108e457600080fd5b506108ff60048036038101906108fa9190614597565b61233c565b60405161090c9190613d97565b60405180910390f35b34801561092157600080fd5b5061093c60048036038101906109379190613f98565b6123d0565b005b34801561094a57600080fd5b506109656004803603810190610960919061417b565b6124c8565b005b34801561097357600080fd5b5061097c61254e565b6040516109899190613e4b565b60405180910390f35b60007f80ac58cd000000000000000000000000000000000000000000000000000000007bffffffffffffffffffffffffffffffffffffffffffffffffffffffff1916827bffffffffffffffffffffffffffffffffffffffffffffffffffffffff19161480610a5d57507f5b5e139f000000000000000000000000000000000000000000000000000000007bffffffffffffffffffffffffffffffffffffffffffffffffffffffff1916827bffffffffffffffffffffffffffffffffffffffffffffffffffffffff1916145b80610a6d5750610a6c82612587565b5b9050919050565b606060028054610a8390614606565b80601f0160208091040260200160405190810160405280929190818152602001828054610aaf90614606565b8015610afc5780601f10610ad157610100808354040283529160200191610afc565b820191906000526020600020905b815481529060010190602001808311610adf57829003601f168201915b5050505050905090565b6000610b11826125f1565b610b47576040517fcf4700e400000000000000000000000000000000000000000000000000000000815260040160405180910390fd5b6006600083815260200190815260200160002060009054906101000a900473ffffffffffffffffffffffffffffffffffffffff169050919050565b6000610b8d82611778565b90508073ffffffffffffffffffffffffffffffffffffffff168373ffffffffffffffffffffffffffffffffffffffff161415610bf5576040517f943f7b8c00000000000000000000000000000000000000000000000000000000815260040160405180910390fd5b8073ffffffffffffffffffffffffffffffffffffffff16610c1461263f565b73ffffffffffffffffffffffffffffffffffffffff1614158015610c465750610c4481610c3f61263f565b61233c565b155b15610c7d576040517fcfb3b94200000000000000000000000000000000000000000000000000000000815260040160405180910390fd5b610c88838383612647565b505050565b610c9561263f565b73ffffffffffffffffffffffffffffffffffffffff16610cb3611beb565b73ffffffffffffffffffffffffffffffffffffffff1614610d09576040517f08c379a0000000000000000000000000000000000000000000000000000000008152600401610d0090614684565b60405180910390fd5b80601260006101000a81548173ffffffffffffffffffffffffffffffffffffffff021916908373ffffffffffffffffffffffffffffffffffffffff16021790555050565b6000610d576126f9565b6001546000540303905090565b600e54600081118015610d7657508042115b610db5576040517f08c379a0000000000000000000000000000000000000000000000000000000008152600401610dac90614716565b60405180910390fd5b84843373ffffffffffffffffffffffffffffffffffffffff163273ffffffffffffffffffffffffffffffffffffffff1614610e25576040517f08c379a0000000000000000000000000000000000000000000000000000000008152600401610e1c906147a8565b60405180910390fd5b7f0000000000000000000000000000000000000000000000000000000000000000610e6083610e52610d4d565b6126fe90919063ffffffff16565b1115610ea1576040517f08c379a0000000000000000000000000000000000000000000000000000000008152600401610e989061483a565b60405180910390fd5b80610ebd83610eaf33612714565b6126fe90919063ffffffff16565b1115610efe576040517f08c379a0000000000000000000000000000000000000000000000000000000008152600401610ef5906148cc565b60405180910390fd5b60008211610f41576040517f08c379a0000000000000000000000000000000000000000000000000000000008152600401610f389061495e565b60405180910390fd5b86610f75817f000000000000000000000000000000000000000000000000000000000000000061272690919063ffffffff16565b3414610fb6576040517f08c379a0000000000000000000000000000000000000000000000000000000008152600401610fad906149f0565b60405180910390fd5b60003411610ff9576040517f08c379a0000000000000000000000000000000000000000000000000000000008152600401610ff09061495e565b60405180910390fd5b86338787600b54611074838380806020026020016040519081016040528093929190818152602001838360200280828437600081840152601f19601f82011690508083019250505050505050828688604051602001611059929190614a79565b6040516020818303038152906040528051906020012061273c565b6110b3576040517f08c379a00000000000000000000000000000000000000000000000000000000081526004016110aa90614b17565b60405180910390fd5b60006110be33612714565b146110fe576040517f08c379a00000000000000000000000000000000000000000000000000000000081526004016110f590614ba9565b60405180910390fd5b611108338e612753565b50505050505050505050505050565b600f5481565b600b5481565b61112e8383836128a3565b505050565b600d5481565b61114161263f565b73ffffffffffffffffffffffffffffffffffffffff1661115f611beb565b73ffffffffffffffffffffffffffffffffffffffff16146111b5576040517f08c379a00000000000000000000000000000000000000000000000000000000081526004016111ac90614684565b60405180910390fd5b80600b8190555050565b6111c761263f565b73ffffffffffffffffffffffffffffffffffffffff166111e5611beb565b73ffffffffffffffffffffffffffffffffffffffff161461123b576040517f08c379a000000000000000000000000000000000000000000000000000000000815260040161123290614684565b60405180910390fd5b6002600a541415611281576040517f08c379a000000000000000000000000000000000000000000000000000000000815260040161127890614c15565b60405180910390fd5b6002600a8190555061129281612d59565b6001600a8190555050565b600f546000811180156112af57508042115b6112ee576040517f08c379a00000000000000000000000000000000000000000000000000000000081526004016112e590614716565b60405180910390fd5b817f00000000000000000000000000000000000000000000000000000000000000003373ffffffffffffffffffffffffffffffffffffffff163273ffffffffffffffffffffffffffffffffffffffff161461137e576040517f08c379a0000000000000000000000000000000000000000000000000000000008152600401611375906147a8565b60405180910390fd5b7f00000000000000000000000000000000000000000000000000000000000000006113b9836113ab610d4d565b6126fe90919063ffffffff16565b11156113fa576040517f08c379a00000000000000000000000000000000000000000000000000000000081526004016113f19061483a565b60405180910390fd5b806114168361140833612714565b6126fe90919063ffffffff16565b1115611457576040517f08c379a000000000000000000000000000000000000000000000000000000000815260040161144e906148cc565b60405180910390fd5b6000821161149a576040517f08c379a00000000000000000000000000000000000000000000000000000000081526004016114919061495e565b60405180910390fd5b836114ce817f000000000000000000000000000000000000000000000000000000000000000061272690919063ffffffff16565b341461150f576040517f08c379a0000000000000000000000000000000000000000000000000000000008152600401611506906149f0565b60405180910390fd5b60003411611552576040517f08c379a00000000000000000000000000000000000000000000000000000000081526004016115499061495e565b60405180910390fd5b61155c3386612753565b5050505050565b61157e8383836040518060200160405280600081525061205e565b505050565b61158b61263f565b73ffffffffffffffffffffffffffffffffffffffff166115a9611beb565b73ffffffffffffffffffffffffffffffffffffffff16146115ff576040517f08c379a00000000000000000000000000000000000000000000000000000000081526004016115f690614684565b60405180910390fd5b818160119190611610929190613bfd565b505050565b61161d61263f565b73ffffffffffffffffffffffffffffffffffffffff1661163b611beb565b73ffffffffffffffffffffffffffffffffffffffff1614611691576040517f08c379a000000000000000000000000000000000000000000000000000000000815260040161168890614684565b60405180910390fd5b611699612fb8565b83116116da576040517f08c379a00000000000000000000000000000000000000000000000000000000081526004016116d190614ca7565b60405180910390fd5b82821161171c576040517f08c379a000000000000000000000000000000000000000000000000000000000815260040161171390614d39565b60405180910390fd5b81811161175e576040517f08c379a000000000000000000000000000000000000000000000000000000000815260040161175590614dcb565b60405180910390fd5b82600d8190555081600e8190555080600f81905550505050565b600061178382612fc0565b600001519050919050565b7f000000000000000000000000000000000000000000000000000000000000000081565b60606117bc61324f565b905090565b60008073ffffffffffffffffffffffffffffffffffffffff168273ffffffffffffffffffffffffffffffffffffffff161415611829576040517f8f4eb60400000000000000000000000000000000000000000000000000000000815260040160405180910390fd5b600560008373ffffffffffffffffffffffffffffffffffffffff1673ffffffffffffffffffffffffffffffffffffffff16815260200190815260200160002060000160009054906101000a900467ffffffffffffffff1667ffffffffffffffff169050919050565b61189961263f565b73ffffffffffffffffffffffffffffffffffffffff166118b7611beb565b73ffffffffffffffffffffffffffffffffffffffff161461190d576040517f08c379a000000000000000000000000000000000000000000000000000000000815260040161190490614684565b60405180910390fd5b61191760006132e1565b565b600d5460008111801561192b57508042115b61196a576040517f08c379a000000000000000000000000000000000000000000000000000000000815260040161196190614716565b60405180910390fd5b83843373ffffffffffffffffffffffffffffffffffffffff163273ffffffffffffffffffffffffffffffffffffffff16146119da576040517f08c379a00000000000000000000000000000000000000000000000000000000081526004016119d1906147a8565b60405180910390fd5b7f0000000000000000000000000000000000000000000000000000000000000000611a1583611a07610d4d565b6126fe90919063ffffffff16565b1115611a56576040517f08c379a0000000000000000000000000000000000000000000000000000000008152600401611a4d9061483a565b60405180910390fd5b80611a7283611a6433612714565b6126fe90919063ffffffff16565b1115611ab3576040517f08c379a0000000000000000000000000000000000000000000000000000000008152600401611aaa906148cc565b60405180910390fd5b60008211611af6576040517f08c379a0000000000000000000000000000000000000000000000000000000008152600401611aed9061495e565b60405180910390fd5b85338686600c54611b71838380806020026020016040519081016040528093929190818152602001838360200280828437600081840152601f19601f82011690508083019250505050505050828688604051602001611b56929190614a79565b6040516020818303038152906040528051906020012061273c565b611bb0576040517f08c379a0000000000000000000000000000000000000000000000000000000008152600401611ba790614b17565b60405180910390fd5b611bba338c612753565b5050505050505050505050565b7f000000000000000000000000000000000000000000000000000000000000000081565b6000600960009054906101000a900473ffffffffffffffffffffffffffffffffffffffff16905090565b606060038054611c2490614606565b80601f0160208091040260200160405190810160405280929190818152602001828054611c5090614606565b8015611c9d5780601f10611c7257610100808354040283529160200191611c9d565b820191906000526020600020905b815481529060010190602001808311611c8057829003601f168201915b5050505050905090565b601260009054906101000a900473ffffffffffffffffffffffffffffffffffffffff1681565b600c5481565b611cdb61263f565b73ffffffffffffffffffffffffffffffffffffffff168273ffffffffffffffffffffffffffffffffffffffff161415611d40576040517fb06307db00000000000000000000000000000000000000000000000000000000815260040160405180910390fd5b8060076000611d4d61263f565b73ffffffffffffffffffffffffffffffffffffffff1673ffffffffffffffffffffffffffffffffffffffff16815260200190815260200160002060008473ffffffffffffffffffffffffffffffffffffffff1673ffffffffffffffffffffffffffffffffffffffff16815260200190815260200160002060006101000a81548160ff0219169083151502179055508173ffffffffffffffffffffffffffffffffffffffff16611dfa61263f565b73ffffffffffffffffffffffffffffffffffffffff167f17307eab39ab6107e8899845ad3d59bd9653f200f220920489ca2b5937696c3183604051611e3f9190613d97565b60405180910390a35050565b6000611e56826125f1565b611e8c576040517f963eb14f00000000000000000000000000000000000000000000000000000000815260040160405180910390fd5b60106000838152602001908152602001600020549050919050565b7f000000000000000000000000000000000000000000000000000000000000000081565b611ed361263f565b73ffffffffffffffffffffffffffffffffffffffff16611ef1611beb565b73ffffffffffffffffffffffffffffffffffffffff1614611f47576040517f08c379a0000000000000000000000000000000000000000000000000000000008152600401611f3e90614684565b60405180910390fd5b6002600a541415611f8d576040517f08c379a0000000000000000000000000000000000000000000000000000000008152600401611f8490614c15565b60405180910390fd5b6002600a8190555060003373ffffffffffffffffffffffffffffffffffffffff1647604051611fbb90614e1c565b60006040518083038185875af1925050503d8060008114611ff8576040519150601f19603f3d011682016040523d82523d6000602084013e611ffd565b606091505b5050905080612041576040517f08c379a000000000000000000000000000000000000000000000000000000000815260040161203890614ea3565b60405180910390fd5b506001600a81905550565b600061205782612714565b9050919050565b6120698484846128a3565b6120888373ffffffffffffffffffffffffffffffffffffffff166133a7565b801561209d575061209b848484846133ca565b155b156120d4576040517fd1a57ed600000000000000000000000000000000000000000000000000000000815260040160405180910390fd5b50505050565b6120e261263f565b73ffffffffffffffffffffffffffffffffffffffff16612100611beb565b73ffffffffffffffffffffffffffffffffffffffff1614612156576040517f08c379a000000000000000000000000000000000000000000000000000000000815260040161214d90614684565b60405180910390fd5b7f000000000000000000000000000000000000000000000000000000000000000061219182612183610d4d565b6126fe90919063ffffffff16565b11156121d2576040517f08c379a00000000000000000000000000000000000000000000000000000000081526004016121c990614f35565b60405180910390fd5b60007f00000000000000000000000000000000000000000000000000000000000000009050600061220c828461352a90919063ffffffff16565b1461224c576040517f08c379a000000000000000000000000000000000000000000000000000000000815260040161224390614fc7565b60405180910390fd5b6000612261828461354090919063ffffffff16565b905060005b8181101561228b576122783384612753565b808061228390615016565b915050612266565b50505050565b600e5481565b60606122a2826125f1565b6122d8576040517fa14c4b5000000000000000000000000000000000000000000000000000000000815260040160405180910390fd5b60006122e261324f565b9050600081511415612303576040518060200160405280600081525061232e565b8061230d84613556565b60405160200161231e92919061509b565b6040516020818303038152906040525b915050919050565b60085481565b6000600760008473ffffffffffffffffffffffffffffffffffffffff1673ffffffffffffffffffffffffffffffffffffffff16815260200190815260200160002060008373ffffffffffffffffffffffffffffffffffffffff1673ffffffffffffffffffffffffffffffffffffffff16815260200190815260200160002060009054906101000a900460ff16905092915050565b6123d861263f565b73ffffffffffffffffffffffffffffffffffffffff166123f6611beb565b73ffffffffffffffffffffffffffffffffffffffff161461244c576040517f08c379a000000000000000000000000000000000000000000000000000000000815260040161244390614684565b60405180910390fd5b600073ffffffffffffffffffffffffffffffffffffffff168173ffffffffffffffffffffffffffffffffffffffff1614156124bc576040517f08c379a00000000000000000000000000000000000000000000000000000000081526004016124b390615131565b60405180910390fd5b6124c5816132e1565b50565b6124d061263f565b73ffffffffffffffffffffffffffffffffffffffff166124ee611beb565b73ffffffffffffffffffffffffffffffffffffffff1614612544576040517f08c379a000000000000000000000000000000000000000000000000000000000815260040161253b90614684565b60405180910390fd5b80600c8190555050565b6040518060400160405280600581526020017f302e322e3000000000000000000000000000000000000000000000000000000081525081565b60007f01ffc9a7000000000000000000000000000000000000000000000000000000007bffffffffffffffffffffffffffffffffffffffffffffffffffffffff1916827bffffffffffffffffffffffffffffffffffffffffffffffffffffffff1916149050919050565b6000816125fc6126f9565b1115801561260b575060005482105b8015612638575060046000838152602001908152602001600020600001601c9054906101000a900460ff16155b9050919050565b600033905090565b826006600084815260200190815260200160002060006101000a81548173ffffffffffffffffffffffffffffffffffffffff021916908373ffffffffffffffffffffffffffffffffffffffff160217905550818373ffffffffffffffffffffffffffffffffffffffff168273ffffffffffffffffffffffffffffffffffffffff167f8c5be1e5ebec7d5bd14f71427d1e84f3dd0314c0f7b2291e5b200ac8c7c3b92560405160405180910390a4505050565b600090565b6000818361270c9190615151565b905092915050565b600061271f826136b7565b9050919050565b6000818361273491906151a7565b905092915050565b6000826127498584613721565b1490509392505050565b61275d8282613796565b6000612767610d4d565b9050600061277e83836137b490919063ffffffff16565b905060008367ffffffffffffffff81111561279c5761279b6143e9565b5b6040519080825280602002602001820160405280156127ca5781602001602082028036833780820191505090505b50905060005b848110156128495760006127ed82856126fe90919063ffffffff16565b905060006127fa826137ca565b9050808484815181106128105761280f615201565b5b6020026020010181815250508060106000848152602001908152602001600020819055505050808061284190615016565b9150506127d0565b508473ffffffffffffffffffffffffffffffffffffffff167f5cb27d2833c0b1f5f25192224a4f5c4573f3c2a9394c0a0a9a31c092e8879eb4848684604051612894939291906152ee565b60405180910390a25050505050565b60006128ae82612fc0565b90508373ffffffffffffffffffffffffffffffffffffffff16816000015173ffffffffffffffffffffffffffffffffffffffff1614612919576040517fa114810000000000000000000000000000000000000000000000000000000000815260040160405180910390fd5b60008473ffffffffffffffffffffffffffffffffffffffff1661293a61263f565b73ffffffffffffffffffffffffffffffffffffffff16148061296957506129688561296361263f565b61233c565b5b806129ae575061297761263f565b73ffffffffffffffffffffffffffffffffffffffff1661299684610b06565b73ffffffffffffffffffffffffffffffffffffffff16145b9050806129e7576040517f59c896be00000000000000000000000000000000000000000000000000000000815260040160405180910390fd5b600073ffffffffffffffffffffffffffffffffffffffff168473ffffffffffffffffffffffffffffffffffffffff161415612a4e576040517fea553b3400000000000000000000000000000000000000000000000000000000815260040160405180910390fd5b612a5b85858560016137fa565b612a6760008487612647565b6001600560008773ffffffffffffffffffffffffffffffffffffffff1673ffffffffffffffffffffffffffffffffffffffff16815260200190815260200160002060000160008282829054906101000a900467ffffffffffffffff160392506101000a81548167ffffffffffffffff021916908367ffffffffffffffff1602179055506001600560008673ffffffffffffffffffffffffffffffffffffffff1673ffffffffffffffffffffffffffffffffffffffff16815260200190815260200160002060000160008282829054906101000a900467ffffffffffffffff160192506101000a81548167ffffffffffffffff021916908367ffffffffffffffff1602179055506000600460008581526020019081526020016000209050848160000160006101000a81548173ffffffffffffffffffffffffffffffffffffffff021916908373ffffffffffffffffffffffffffffffffffffffff160217905550428160000160146101000a81548167ffffffffffffffff021916908367ffffffffffffffff16021790555060006001850190506000600460008381526020019081526020016000209050600073ffffffffffffffffffffffffffffffffffffffff168160000160009054906101000a900473ffffffffffffffffffffffffffffffffffffffff1673ffffffffffffffffffffffffffffffffffffffff161415612ce7576000548214612ce657878160000160006101000a81548173ffffffffffffffffffffffffffffffffffffffff021916908373ffffffffffffffffffffffffffffffffffffffff16021790555084602001518160000160146101000a81548167ffffffffffffffff021916908367ffffffffffffffff1602179055505b5b505050828473ffffffffffffffffffffffffffffffffffffffff168673ffffffffffffffffffffffffffffffffffffffff167fddf252ad1be2c89b69c2b068fc378daa952ba7f163c4a11628f55a4df523b3ef60405160405180910390a4612d528585856001613800565b5050505050565b6000811415612d94576040517f56be441500000000000000000000000000000000000000000000000000000000815260040160405180910390fd5b612d9c6126f9565b6000541415612dd7576040517fc0367cab00000000000000000000000000000000000000000000000000000000815260040160405180910390fd5b600060085490506000811415612df257612def6126f9565b90505b6000548110612e2d576040517f70e89b1b00000000000000000000000000000000000000000000000000000000815260040160405180910390fd5b60006001838301039050600054600182011115612e4d5760016000540390505b60008290505b818111612fa857600073ffffffffffffffffffffffffffffffffffffffff166004600083815260200190815260200160002060000160009054906101000a900473ffffffffffffffffffffffffffffffffffffffff1673ffffffffffffffffffffffffffffffffffffffff16148015612eed575060046000828152602001908152602001600020600001601c9054906101000a900460ff16155b15612f9b576000612efd82612fc0565b905080600001516004600084815260200190815260200160002060000160006101000a81548173ffffffffffffffffffffffffffffffffffffffff021916908373ffffffffffffffffffffffffffffffffffffffff16021790555080602001516004600084815260200190815260200160002060000160146101000a81548167ffffffffffffffff021916908367ffffffffffffffff160217905550505b8080600101915050612e53565b5060018101600881905550505050565b600042905090565b612fc8613c83565b600082905080612fd66126f9565b11158015612fe5575060005481105b15613218576000600460008381526020019081526020016000206040518060600160405290816000820160009054906101000a900473ffffffffffffffffffffffffffffffffffffffff1673ffffffffffffffffffffffffffffffffffffffff1673ffffffffffffffffffffffffffffffffffffffff1681526020016000820160149054906101000a900467ffffffffffffffff1667ffffffffffffffff1667ffffffffffffffff16815260200160008201601c9054906101000a900460ff1615151515815250509050806040015161321657600073ffffffffffffffffffffffffffffffffffffffff16816000015173ffffffffffffffffffffffffffffffffffffffff16146130fa57809250505061324a565b5b60011561321557818060019003925050600460008381526020019081526020016000206040518060600160405290816000820160009054906101000a900473ffffffffffffffffffffffffffffffffffffffff1673ffffffffffffffffffffffffffffffffffffffff1673ffffffffffffffffffffffffffffffffffffffff1681526020016000820160149054906101000a900467ffffffffffffffff1667ffffffffffffffff1667ffffffffffffffff16815260200160008201601c9054906101000a900460ff1615151515815250509050600073ffffffffffffffffffffffffffffffffffffffff16816000015173ffffffffffffffffffffffffffffffffffffffff161461321057809250505061324a565b6130fb565b5b505b6040517fdf2d9b4200000000000000000000000000000000000000000000000000000000815260040160405180910390fd5b919050565b60606011805461325e90614606565b80601f016020809104026020016040519081016040528092919081815260200182805461328a90614606565b80156132d75780601f106132ac576101008083540402835291602001916132d7565b820191906000526020600020905b8154815290600101906020018083116132ba57829003601f168201915b5050505050905090565b6000600960009054906101000a900473ffffffffffffffffffffffffffffffffffffffff16905081600960006101000a81548173ffffffffffffffffffffffffffffffffffffffff021916908373ffffffffffffffffffffffffffffffffffffffff1602179055508173ffffffffffffffffffffffffffffffffffffffff168173ffffffffffffffffffffffffffffffffffffffff167f8be0079c531659141344cd1fd0a4f28419497f9722a3daafe3b4186f6b6457e060405160405180910390a35050565b6000808273ffffffffffffffffffffffffffffffffffffffff163b119050919050565b60008373ffffffffffffffffffffffffffffffffffffffff1663150b7a026133f061263f565b8786866040518563ffffffff1660e01b81526004016134129493929190615381565b602060405180830381600087803b15801561342c57600080fd5b505af192505050801561345d57506040513d601f19601f8201168201806040525081019061345a91906153e2565b60015b6134d7573d806000811461348d576040519150601f19603f3d011682016040523d82523d6000602084013e613492565b606091505b506000815114156134cf576040517fd1a57ed600000000000000000000000000000000000000000000000000000000815260040160405180910390fd5b805181602001fd5b63150b7a0260e01b7bffffffffffffffffffffffffffffffffffffffffffffffffffffffff1916817bffffffffffffffffffffffffffffffffffffffffffffffffffffffff191614915050949350505050565b60008183613538919061543e565b905092915050565b6000818361354e919061546f565b905092915050565b6060600082141561359e576040518060400160405280600181526020017f300000000000000000000000000000000000000000000000000000000000000081525090506136b2565b600082905060005b600082146135d05780806135b990615016565b915050600a826135c9919061546f565b91506135a6565b60008167ffffffffffffffff8111156135ec576135eb6143e9565b5b6040519080825280601f01601f19166020018201604052801561361e5781602001600182028036833780820191505090505b5090505b600085146136ab5760018261363791906154a0565b9150600a85613646919061543e565b60306136529190615151565b60f81b81838151811061366857613667615201565b5b60200101907effffffffffffffffffffffffffffffffffffffffffffffffffffffffffffff1916908160001a905350600a856136a4919061546f565b9450613622565b8093505050505b919050565b6000600560008373ffffffffffffffffffffffffffffffffffffffff1673ffffffffffffffffffffffffffffffffffffffff16815260200190815260200160002060000160089054906101000a900467ffffffffffffffff1667ffffffffffffffff169050919050565b60008082905060005b845181101561378b57600085828151811061374857613747615201565b5b6020026020010151905080831161376a576137638382613806565b9250613777565b6137748184613806565b92505b50808061378390615016565b91505061372a565b508091505092915050565b6137b082826040518060200160405280600081525061381d565b5050565b600081836137c291906154a0565b905092915050565b6000816040516020016137dd91906154d4565b604051602081830303815290604052805190602001209050919050565b50505050565b50505050565b600082600052816020526040600020905092915050565b61382a838383600161382f565b505050565b600080549050600073ffffffffffffffffffffffffffffffffffffffff168573ffffffffffffffffffffffffffffffffffffffff16141561389c576040517f2e07630000000000000000000000000000000000000000000000000000000000815260040160405180910390fd5b60008414156138d7576040517fb562e8dd00000000000000000000000000000000000000000000000000000000815260040160405180910390fd5b6138e460008683876137fa565b83600560008773ffffffffffffffffffffffffffffffffffffffff1673ffffffffffffffffffffffffffffffffffffffff16815260200190815260200160002060000160008282829054906101000a900467ffffffffffffffff160192506101000a81548167ffffffffffffffff021916908367ffffffffffffffff16021790555083600560008773ffffffffffffffffffffffffffffffffffffffff1673ffffffffffffffffffffffffffffffffffffffff16815260200190815260200160002060000160088282829054906101000a900467ffffffffffffffff160192506101000a81548167ffffffffffffffff021916908367ffffffffffffffff160217905550846004600083815260200190815260200160002060000160006101000a81548173ffffffffffffffffffffffffffffffffffffffff021916908373ffffffffffffffffffffffffffffffffffffffff160217905550426004600083815260200190815260200160002060000160146101000a81548167ffffffffffffffff021916908367ffffffffffffffff160217905550600081905060008582019050838015613aae5750613aad8773ffffffffffffffffffffffffffffffffffffffff166133a7565b5b15613b74575b818773ffffffffffffffffffffffffffffffffffffffff16600073ffffffffffffffffffffffffffffffffffffffff167fddf252ad1be2c89b69c2b068fc378daa952ba7f163c4a11628f55a4df523b3ef60405160405180910390a4613b2360008884806001019550886133ca565b613b59576040517fd1a57ed600000000000000000000000000000000000000000000000000000000815260040160405180910390fd5b80821415613ab4578260005414613b6f57600080fd5b613be0565b5b818060010192508773ffffffffffffffffffffffffffffffffffffffff16600073ffffffffffffffffffffffffffffffffffffffff167fddf252ad1be2c89b69c2b068fc378daa952ba7f163c4a11628f55a4df523b3ef60405160405180910390a480821415613b75575b816000819055505050613bf66000868387613800565b5050505050565b828054613c0990614606565b90600052602060002090601f016020900481019282613c2b5760008555613c72565b82601f10613c4457803560ff1916838001178555613c72565b82800160010185558215613c72579182015b82811115613c71578235825591602001919060010190613c56565b5b509050613c7f9190613cc6565b5090565b6040518060600160405280600073ffffffffffffffffffffffffffffffffffffffff168152602001600067ffffffffffffffff1681526020016000151581525090565b5b80821115613cdf576000816000905550600101613cc7565b5090565b6000604051905090565b600080fd5b600080fd5b60007fffffffff0000000000000000000000000000000000000000000000000000000082169050919050565b613d2c81613cf7565b8114613d3757600080fd5b50565b600081359050613d4981613d23565b92915050565b600060208284031215613d6557613d64613ced565b5b6000613d7384828501613d3a565b91505092915050565b60008115159050919050565b613d9181613d7c565b82525050565b6000602082019050613dac6000830184613d88565b92915050565b600081519050919050565b600082825260208201905092915050565b60005b83811015613dec578082015181840152602081019050613dd1565b83811115613dfb576000848401525b50505050565b6000601f19601f8301169050919050565b6000613e1d82613db2565b613e278185613dbd565b9350613e37818560208601613dce565b613e4081613e01565b840191505092915050565b60006020820190508181036000830152613e658184613e12565b905092915050565b6000819050919050565b613e8081613e6d565b8114613e8b57600080fd5b50565b600081359050613e9d81613e77565b92915050565b600060208284031215613eb957613eb8613ced565b5b6000613ec784828501613e8e565b91505092915050565b600073ffffffffffffffffffffffffffffffffffffffff82169050919050565b6000613efb82613ed0565b9050919050565b613f0b81613ef0565b82525050565b6000602082019050613f266000830184613f02565b92915050565b613f3581613ef0565b8114613f4057600080fd5b50565b600081359050613f5281613f2c565b92915050565b60008060408385031215613f6f57613f6e613ced565b5b6000613f7d85828601613f43565b9250506020613f8e85828601613e8e565b9150509250929050565b600060208284031215613fae57613fad613ced565b5b6000613fbc84828501613f43565b91505092915050565b613fce81613e6d565b82525050565b6000602082019050613fe96000830184613fc5565b92915050565b600080fd5b600080fd5b600080fd5b60008083601f84011261401457614013613fef565b5b8235905067ffffffffffffffff81111561403157614030613ff4565b5b60208301915083602082028301111561404d5761404c613ff9565b5b9250929050565b6000806000806060858703121561406e5761406d613ced565b5b600061407c87828801613e8e565b945050602061408d87828801613e8e565b935050604085013567ffffffffffffffff8111156140ae576140ad613cf2565b5b6140ba87828801613ffe565b925092505092959194509250565b6000819050919050565b6140db816140c8565b82525050565b60006020820190506140f660008301846140d2565b92915050565b60008060006060848603121561411557614114613ced565b5b600061412386828701613f43565b935050602061413486828701613f43565b925050604061414586828701613e8e565b9150509250925092565b614158816140c8565b811461416357600080fd5b50565b6000813590506141758161414f565b92915050565b60006020828403121561419157614190613ced565b5b600061419f84828501614166565b91505092915050565b60008083601f8401126141be576141bd613fef565b5b8235905067ffffffffffffffff8111156141db576141da613ff4565b5b6020830191508360018202830111156141f7576141f6613ff9565b5b9250929050565b6000806020838503121561421557614214613ced565b5b600083013567ffffffffffffffff81111561423357614232613cf2565b5b61423f858286016141a8565b92509250509250929050565b60008060006060848603121561426457614263613ced565b5b600061427286828701613e8e565b935050602061428386828701613e8e565b925050604061429486828701613e8e565b9150509250925092565b6000806000604084860312156142b7576142b6613ced565b5b60006142c586828701613e8e565b935050602084013567ffffffffffffffff8111156142e6576142e5613cf2565b5b6142f286828701613ffe565b92509250509250925092565b6000819050919050565b600061432361431e61431984613ed0565b6142fe565b613ed0565b9050919050565b600061433582614308565b9050919050565b60006143478261432a565b9050919050565b6143578161433c565b82525050565b6000602082019050614372600083018461434e565b92915050565b61438181613d7c565b811461438c57600080fd5b50565b60008135905061439e81614378565b92915050565b600080604083850312156143bb576143ba613ced565b5b60006143c985828601613f43565b92505060206143da8582860161438f565b9150509250929050565b600080fd5b7f4e487b7100000000000000000000000000000000000000000000000000000000600052604160045260246000fd5b61442182613e01565b810181811067ffffffffffffffff821117156144405761443f6143e9565b5b80604052505050565b6000614453613ce3565b905061445f8282614418565b919050565b600067ffffffffffffffff82111561447f5761447e6143e9565b5b61448882613e01565b9050602081019050919050565b82818337600083830152505050565b60006144b76144b284614464565b614449565b9050828152602081018484840111156144d3576144d26143e4565b5b6144de848285614495565b509392505050565b600082601f8301126144fb576144fa613fef565b5b813561450b8482602086016144a4565b91505092915050565b6000806000806080858703121561452e5761452d613ced565b5b600061453c87828801613f43565b945050602061454d87828801613f43565b935050604061455e87828801613e8e565b925050606085013567ffffffffffffffff81111561457f5761457e613cf2565b5b61458b878288016144e6565b91505092959194509250565b600080604083850312156145ae576145ad613ced565b5b60006145bc85828601613f43565b92505060206145cd85828601613f43565b9150509250929050565b7f4e487b7100000000000000000000000000000000000000000000000000000000600052602260045260246000fd5b6000600282049050600182168061461e57607f821691505b60208210811415614632576146316145d7565b5b50919050565b7f4f776e61626c653a2063616c6c6572206973206e6f7420746865206f776e6572600082015250565b600061466e602083613dbd565b915061467982614638565b602082019050919050565b6000602082019050818103600083015261469d81614661565b9050919050565b7f52686170736f647943726561746f7247656e657261746976652f696e76616c6960008201527f642d6d696e742d74696d65000000000000000000000000000000000000000000602082015250565b6000614700602b83613dbd565b915061470b826146a4565b604082019050919050565b6000602082019050818103600083015261472f816146f3565b9050919050565b7f52686170736f647943726561746f7247656e657261746976652f696e76616c6960008201527f642d6d696e742d63616c6c657200000000000000000000000000000000000000602082015250565b6000614792602d83613dbd565b915061479d82614736565b604082019050919050565b600060208201905081810360008301526147c181614785565b9050919050565b7f52686170736f647943726561746f7247656e657261746976652f696e76616c6960008201527f642d746f74616c2d737570706c79000000000000000000000000000000000000602082015250565b6000614824602e83613dbd565b915061482f826147c8565b604082019050919050565b6000602082019050818103600083015261485381614817565b9050919050565b7f52686170736f647943726561746f7247656e657261746976652f696e76616c6960008201527f642d696e766f636174696f6e2d75707065722d626f756e646172790000000000602082015250565b60006148b6603b83613dbd565b91506148c18261485a565b604082019050919050565b600060208201905081810360008301526148e5816148a9565b9050919050565b7f52686170736f647943726561746f7247656e657261746976652f696e76616c6960008201527f642d696e766f636174696f6e2d6c6f7765722d626f756e646172790000000000602082015250565b6000614948603b83613dbd565b9150614953826148ec565b604082019050919050565b600060208201905081810360008301526149778161493b565b9050919050565b7f52686170736f647943726561746f7247656e657261746976652f696e76616c6960008201527f642d6d696e742d76616c75650000000000000000000000000000000000000000602082015250565b60006149da602c83613dbd565b91506149e58261497e565b604082019050919050565b60006020820190508181036000830152614a09816149cd565b9050919050565b60008160601b9050919050565b6000614a2882614a10565b9050919050565b6000614a3a82614a1d565b9050919050565b614a52614a4d82613ef0565b614a2f565b82525050565b6000819050919050565b614a73614a6e82613e6d565b614a58565b82525050565b6000614a858285614a41565b601482019150614a958284614a62565b6020820191508190509392505050565b7f52686170736f647943726561746f7247656e657261746976652f696e76616c6960008201527f642d616464726573732d70726f6f660000000000000000000000000000000000602082015250565b6000614b01602f83613dbd565b9150614b0c82614aa5565b604082019050919050565b60006020820190508181036000830152614b3081614af4565b9050919050565b7f52686170736f647943726561746f7247656e657261746976652f696e76616c6960008201527f642d646f75626c652d6d696e7400000000000000000000000000000000000000602082015250565b6000614b93602d83613dbd565b9150614b9e82614b37565b604082019050919050565b60006020820190508181036000830152614bc281614b86565b9050919050565b7f5265656e7472616e637947756172643a207265656e7472616e742063616c6c00600082015250565b6000614bff601f83613dbd565b9150614c0a82614bc9565b602082019050919050565b60006020820190508181036000830152614c2e81614bf2565b9050919050565b7f52686170736f647943726561746f7247656e657261746976652f696e76616c6960008201527f642d636c61696d2d74696d650000000000000000000000000000000000000000602082015250565b6000614c91602c83613dbd565b9150614c9c82614c35565b604082019050919050565b60006020820190508181036000830152614cc081614c84565b9050919050565b7f52686170736f647943726561746f7247656e657261746976652f696e76616c6960008201527f642d70726573616c652d74696d65000000000000000000000000000000000000602082015250565b6000614d23602e83613dbd565b9150614d2e82614cc7565b604082019050919050565b60006020820190508181036000830152614d5281614d16565b9050919050565b7f52686170736f647943726561746f7247656e657261746976652f696e76616c6960008201527f642d7075626c69632d74696d6500000000000000000000000000000000000000602082015250565b6000614db5602d83613dbd565b9150614dc082614d59565b604082019050919050565b60006020820190508181036000830152614de481614da8565b9050919050565b600081905092915050565b50565b6000614e06600083614deb565b9150614e1182614df6565b600082019050919050565b6000614e2782614df9565b9150819050919050565b7f52686170736f647943726561746f7247656e657261746976652f696e76616c6960008201527f642d77697468647261772d6d6f6e657900000000000000000000000000000000602082015250565b6000614e8d603083613dbd565b9150614e9882614e31565b604082019050919050565b60006020820190508181036000830152614ebc81614e80565b9050919050565b7f52686170736f647943726561746f7247656e657261746976652f696e76616c6960008201527f642d70726f6d6f74696f6e2d737570706c790000000000000000000000000000602082015250565b6000614f1f603283613dbd565b9150614f2a82614ec3565b604082019050919050565b60006020820190508181036000830152614f4e81614f12565b9050919050565b7f52686170736f647943726561746f7247656e657261746976652f696e76616c6960008201527f642d62617463682d6d756c7469706c6500000000000000000000000000000000602082015250565b6000614fb1603083613dbd565b9150614fbc82614f55565b604082019050919050565b60006020820190508181036000830152614fe081614fa4565b9050919050565b7f4e487b7100000000000000000000000000000000000000000000000000000000600052601160045260246000fd5b600061502182613e6d565b91507fffffffffffffffffffffffffffffffffffffffffffffffffffffffffffffffff82141561505457615053614fe7565b5b600182019050919050565b600081905092915050565b600061507582613db2565b61507f818561505f565b935061508f818560208601613dce565b80840191505092915050565b60006150a7828561506a565b91506150b3828461506a565b91508190509392505050565b7f4f776e61626c653a206e6577206f776e657220697320746865207a65726f206160008201527f6464726573730000000000000000000000000000000000000000000000000000602082015250565b600061511b602683613dbd565b9150615126826150bf565b604082019050919050565b6000602082019050818103600083015261514a8161510e565b9050919050565b600061515c82613e6d565b915061516783613e6d565b9250827fffffffffffffffffffffffffffffffffffffffffffffffffffffffffffffffff0382111561519c5761519b614fe7565b5b828201905092915050565b60006151b282613e6d565b91506151bd83613e6d565b9250817fffffffffffffffffffffffffffffffffffffffffffffffffffffffffffffffff04831182151516156151f6576151f5614fe7565b5b828202905092915050565b7f4e487b7100000000000000000000000000000000000000000000000000000000600052603260045260246000fd5b600081519050919050565b600082825260208201905092915050565b6000819050602082019050919050565b615265816140c8565b82525050565b6000615277838361525c565b60208301905092915050565b6000602082019050919050565b600061529b82615230565b6152a5818561523b565b93506152b08361524c565b8060005b838110156152e15781516152c8888261526b565b97506152d383615283565b9250506001810190506152b4565b5085935050505092915050565b60006060820190506153036000830186613fc5565b6153106020830185613fc5565b81810360408301526153228184615290565b9050949350505050565b600081519050919050565b600082825260208201905092915050565b60006153538261532c565b61535d8185615337565b935061536d818560208601613dce565b61537681613e01565b840191505092915050565b60006080820190506153966000830187613f02565b6153a36020830186613f02565b6153b06040830185613fc5565b81810360608301526153c28184615348565b905095945050505050565b6000815190506153dc81613d23565b92915050565b6000602082840312156153f8576153f7613ced565b5b6000615406848285016153cd565b91505092915050565b7f4e487b7100000000000000000000000000000000000000000000000000000000600052601260045260246000fd5b600061544982613e6d565b915061545483613e6d565b9250826154645761546361540f565b5b828206905092915050565b600061547a82613e6d565b915061548583613e6d565b9250826154955761549461540f565b5b828204905092915050565b60006154ab82613e6d565b91506154b683613e6d565b9250828210156154c9576154c8614fe7565b5b828203905092915050565b60006154e08284614a62565b6020820191508190509291505056fea2646970667358221220b22e6b94966b73772f07db4f94bd66d891daf5074ededbc905686972c6849fa064736f6c6343000809003352686170736f64792043726561746f722047656e657261746976652052696e6b656279",
  "devdoc": {
    "kind": "dev",
    "methods": {
      "approve(address,uint256)": {
        "details": "See {IERC721-approve}."
      },
      "balanceOf(address)": {
        "details": "See {IERC721-balanceOf}."
      },
      "claimMint(uint256,bytes32[])": {
        "details": "user must mint max invocations",
        "params": {
          "invocations": "number of tokens to mint",
          "proof": "merkle proof to prove address and token mint count are in tree"
        }
      },
      "getApproved(uint256)": {
        "details": "See {IERC721-getApproved}."
      },
      "isApprovedForAll(address,address)": {
        "details": "See {IERC721-isApprovedForAll}."
      },
      "name()": {
        "details": "See {IERC721Metadata-name}."
      },
      "owner()": {
        "details": "Returns the address of the current owner."
      },
      "ownerOf(uint256)": {
        "details": "See {IERC721-ownerOf}."
      },
      "presaleMint(uint256,uint256,bytes32[])": {
        "params": {
          "invocations": "number of tokens to mint",
          "maxInvocation": "max number of invocations of the user",
          "proof": "merkle proof to prove address and token mint count are in tree"
        }
      },
      "promotionMint(uint256)": {
        "params": {
          "invocations": "the number of invocations to batch mint"
        }
      },
      "publicMint(uint256)": {
        "details": "user can only mint less than maxPublicBatchPerAddress of tokens",
        "params": {
          "invocations": "number of tokens to mint"
        }
      },
      "renounceOwnership()": {
        "details": "Leaves the contract without owner. It will not be possible to call `onlyOwner` functions anymore. Can only be called by the current owner. NOTE: Renouncing ownership will leave the contract without an owner, thereby removing any functionality that is only available to the owner."
      },
      "safeTransferFrom(address,address,uint256)": {
        "details": "See {IERC721-safeTransferFrom}."
      },
      "safeTransferFrom(address,address,uint256,bytes)": {
        "details": "See {IERC721-safeTransferFrom}."
      },
      "setApprovalForAll(address,bool)": {
        "details": "See {IERC721-setApprovalForAll}."
      },
      "setClaimMerkleRoot(bytes32)": {
        "params": {
          "_claimMerkleRoot": "root of the merklelized claimlist"
        }
      },
      "setMintTime(uint256,uint256,uint256)": {
        "details": "this function can serve as an \"active\" and \"non-active\" sale statusset the values to uint256(-1) for \"non-active\" sale statusalso, pass contract ownership to address(0) to close sale forever",
        "params": {
          "_presaleTime": "time the presale starts",
          "_publicTime": "time the public sale starts"
        }
      },
      "setOwnersExplicit(uint256)": {
        "details": "eliminate loops in future calls of ownerOf()"
      },
      "setPresaleMerkleRoot(bytes32)": {
        "params": {
          "_presaleMerkleRoot": "root of the merklelized whitelist"
        }
      },
      "supportsInterface(bytes4)": {
        "details": "See {IERC165-supportsInterface}."
      },
      "symbol()": {
        "details": "See {IERC721Metadata-symbol}."
      },
      "tokenURI(uint256)": {
        "details": "See {IERC721Metadata-tokenURI}."
      },
      "totalSupply()": {
        "details": "Burned tokens are calculated here, use _totalMinted() if you want to count just minted tokens."
      },
      "transferFrom(address,address,uint256)": {
        "details": "See {IERC721-transferFrom}."
      },
      "transferOwnership(address)": {
        "details": "Transfers ownership of the contract to a new account (`newOwner`). Can only be called by the current owner."
      }
    },
    "version": 1
  },
  "userdoc": {
    "events": {
      "Created(address,uint256,uint256,bytes32[])": {
        "notice": "============ Events ============"
      }
    },
    "kind": "user",
    "methods": {
      "VERSION()": {
        "notice": "Semver Version"
      },
      "amountForPromotion()": {
        "notice": "promotional nfts count"
      },
      "baseURI()": {
        "notice": "core metadata baseURI used for tokens metadata"
      },
      "claimMerkleRoot()": {
        "notice": "ERC721-claim inclusion root"
      },
      "claimMint(uint256,bytes32[])": {
        "notice": "Allows claim of tokens if address is part of merkle tree"
      },
      "claimTime()": {
        "notice": "time the public starts"
      },
      "maxPublicBatchPerAddress()": {
        "notice": "max mintable tokens for each address in public"
      },
      "mintOf(address)": {
        "notice": "returns the number of mints of an address"
      },
      "mintPrice()": {
        "notice": "mint price of each nft; same for pre/public sale."
      },
      "mintRandomizerContract()": {
        "notice": "the randomizer contract"
      },
      "presaleMerkleRoot()": {
        "notice": "ERC721-presale inclusion root"
      },
      "presaleMint(uint256,uint256,bytes32[])": {
        "notice": "Allows presale minting of tokens if address is part of merkle tree"
      },
      "presaleTime()": {
        "notice": "time the presale starts"
      },
      "promotionMint(uint256)": {
        "notice": "used by owner to mint promotional nfts"
      },
      "publicMint(uint256)": {
        "notice": "Allows public minting of tokens"
      },
      "publicTime()": {
        "notice": "time the public starts"
      },
      "setBaseURI(string)": {
        "notice": "set the new baseURI to change the tokens metadata"
      },
      "setClaimMerkleRoot(bytes32)": {
        "notice": "force override the merkle root used in presale mint"
      },
      "setMintRandomizerContract(address)": {
        "notice": "used the set the mint randomizer for on-chain generative projects"
      },
      "setMintTime(uint256,uint256,uint256)": {
        "notice": "Set the time for the mint"
      },
      "setOwnersExplicit(uint256)": {
        "notice": "sets the owners quantity explicity"
      },
      "setPresaleMerkleRoot(bytes32)": {
        "notice": "force override the merkle root used in presale mint"
      },
      "withdrawMoney()": {
        "notice": "withdraws the ether in the contract to owner"
      }
    },
    "version": 1
  },
  "storageLayout": {
    "storage": [
      {
        "astId": 2986,
        "contract": "contracts/test/helpers/RhapsodyCreatorGenerativeRinkeby.sol:RhapsodyCreatorGenerativeRinkeby",
        "label": "_currentIndex",
        "offset": 0,
        "slot": "0",
        "type": "t_uint256"
      },
      {
        "astId": 2988,
        "contract": "contracts/test/helpers/RhapsodyCreatorGenerativeRinkeby.sol:RhapsodyCreatorGenerativeRinkeby",
        "label": "_burnCounter",
        "offset": 0,
        "slot": "1",
        "type": "t_uint256"
      },
      {
        "astId": 2990,
        "contract": "contracts/test/helpers/RhapsodyCreatorGenerativeRinkeby.sol:RhapsodyCreatorGenerativeRinkeby",
        "label": "_name",
        "offset": 0,
        "slot": "2",
        "type": "t_string_storage"
      },
      {
        "astId": 2992,
        "contract": "contracts/test/helpers/RhapsodyCreatorGenerativeRinkeby.sol:RhapsodyCreatorGenerativeRinkeby",
        "label": "_symbol",
        "offset": 0,
        "slot": "3",
        "type": "t_string_storage"
      },
      {
        "astId": 2997,
        "contract": "contracts/test/helpers/RhapsodyCreatorGenerativeRinkeby.sol:RhapsodyCreatorGenerativeRinkeby",
        "label": "_ownerships",
        "offset": 0,
        "slot": "4",
        "type": "t_mapping(t_uint256,t_struct(TokenOwnership)2975_storage)"
      },
      {
        "astId": 3002,
        "contract": "contracts/test/helpers/RhapsodyCreatorGenerativeRinkeby.sol:RhapsodyCreatorGenerativeRinkeby",
        "label": "_addressData",
        "offset": 0,
        "slot": "5",
        "type": "t_mapping(t_address,t_struct(AddressData)2984_storage)"
      },
      {
        "astId": 3006,
        "contract": "contracts/test/helpers/RhapsodyCreatorGenerativeRinkeby.sol:RhapsodyCreatorGenerativeRinkeby",
        "label": "_tokenApprovals",
        "offset": 0,
        "slot": "6",
        "type": "t_mapping(t_uint256,t_address)"
      },
      {
        "astId": 3012,
        "contract": "contracts/test/helpers/RhapsodyCreatorGenerativeRinkeby.sol:RhapsodyCreatorGenerativeRinkeby",
        "label": "_operatorApprovals",
        "offset": 0,
        "slot": "7",
        "type": "t_mapping(t_address,t_mapping(t_address,t_bool))"
      },
      {
        "astId": 4252,
        "contract": "contracts/test/helpers/RhapsodyCreatorGenerativeRinkeby.sol:RhapsodyCreatorGenerativeRinkeby",
        "label": "nextOwnerToExplicitlySet",
        "offset": 0,
        "slot": "8",
        "type": "t_uint256"
      },
      {
        "astId": 7,
        "contract": "contracts/test/helpers/RhapsodyCreatorGenerativeRinkeby.sol:RhapsodyCreatorGenerativeRinkeby",
        "label": "_owner",
        "offset": 0,
        "slot": "9",
        "type": "t_address"
      },
      {
        "astId": 115,
        "contract": "contracts/test/helpers/RhapsodyCreatorGenerativeRinkeby.sol:RhapsodyCreatorGenerativeRinkeby",
        "label": "_status",
        "offset": 0,
        "slot": "10",
        "type": "t_uint256"
      },
      {
        "astId": 2182,
        "contract": "contracts/test/helpers/RhapsodyCreatorGenerativeRinkeby.sol:RhapsodyCreatorGenerativeRinkeby",
        "label": "presaleMerkleRoot",
        "offset": 0,
        "slot": "11",
        "type": "t_bytes32"
      },
      {
        "astId": 2185,
        "contract": "contracts/test/helpers/RhapsodyCreatorGenerativeRinkeby.sol:RhapsodyCreatorGenerativeRinkeby",
        "label": "claimMerkleRoot",
        "offset": 0,
        "slot": "12",
        "type": "t_bytes32"
      },
      {
        "astId": 2188,
        "contract": "contracts/test/helpers/RhapsodyCreatorGenerativeRinkeby.sol:RhapsodyCreatorGenerativeRinkeby",
        "label": "claimTime",
        "offset": 0,
        "slot": "13",
        "type": "t_uint256"
      },
      {
        "astId": 2191,
        "contract": "contracts/test/helpers/RhapsodyCreatorGenerativeRinkeby.sol:RhapsodyCreatorGenerativeRinkeby",
        "label": "presaleTime",
        "offset": 0,
        "slot": "14",
        "type": "t_uint256"
      },
      {
        "astId": 2194,
        "contract": "contracts/test/helpers/RhapsodyCreatorGenerativeRinkeby.sol:RhapsodyCreatorGenerativeRinkeby",
        "label": "publicTime",
        "offset": 0,
        "slot": "15",
        "type": "t_uint256"
      },
      {
        "astId": 2199,
        "contract": "contracts/test/helpers/RhapsodyCreatorGenerativeRinkeby.sol:RhapsodyCreatorGenerativeRinkeby",
        "label": "_tokenHash",
        "offset": 0,
        "slot": "16",
        "type": "t_mapping(t_uint256,t_bytes32)"
      },
      {
        "astId": 2201,
        "contract": "contracts/test/helpers/RhapsodyCreatorGenerativeRinkeby.sol:RhapsodyCreatorGenerativeRinkeby",
        "label": "_baseTokenURI",
        "offset": 0,
        "slot": "17",
        "type": "t_string_storage"
      },
      {
        "astId": 2205,
        "contract": "contracts/test/helpers/RhapsodyCreatorGenerativeRinkeby.sol:RhapsodyCreatorGenerativeRinkeby",
        "label": "mintRandomizerContract",
        "offset": 0,
        "slot": "18",
        "type": "t_contract(IRandomizer)2918"
      }
    ],
    "types": {
      "t_address": {
        "encoding": "inplace",
        "label": "address",
        "numberOfBytes": "20"
      },
      "t_bool": {
        "encoding": "inplace",
        "label": "bool",
        "numberOfBytes": "1"
      },
      "t_bytes32": {
        "encoding": "inplace",
        "label": "bytes32",
        "numberOfBytes": "32"
      },
      "t_contract(IRandomizer)2918": {
        "encoding": "inplace",
        "label": "contract IRandomizer",
        "numberOfBytes": "20"
      },
      "t_mapping(t_address,t_bool)": {
        "encoding": "mapping",
        "key": "t_address",
        "label": "mapping(address => bool)",
        "numberOfBytes": "32",
        "value": "t_bool"
      },
      "t_mapping(t_address,t_mapping(t_address,t_bool))": {
        "encoding": "mapping",
        "key": "t_address",
        "label": "mapping(address => mapping(address => bool))",
        "numberOfBytes": "32",
        "value": "t_mapping(t_address,t_bool)"
      },
      "t_mapping(t_address,t_struct(AddressData)2984_storage)": {
        "encoding": "mapping",
        "key": "t_address",
        "label": "mapping(address => struct ERC721A.AddressData)",
        "numberOfBytes": "32",
        "value": "t_struct(AddressData)2984_storage"
      },
      "t_mapping(t_uint256,t_address)": {
        "encoding": "mapping",
        "key": "t_uint256",
        "label": "mapping(uint256 => address)",
        "numberOfBytes": "32",
        "value": "t_address"
      },
      "t_mapping(t_uint256,t_bytes32)": {
        "encoding": "mapping",
        "key": "t_uint256",
        "label": "mapping(uint256 => bytes32)",
        "numberOfBytes": "32",
        "value": "t_bytes32"
      },
      "t_mapping(t_uint256,t_struct(TokenOwnership)2975_storage)": {
        "encoding": "mapping",
        "key": "t_uint256",
        "label": "mapping(uint256 => struct ERC721A.TokenOwnership)",
        "numberOfBytes": "32",
        "value": "t_struct(TokenOwnership)2975_storage"
      },
      "t_string_storage": {
        "encoding": "bytes",
        "label": "string",
        "numberOfBytes": "32"
      },
      "t_struct(AddressData)2984_storage": {
        "encoding": "inplace",
        "label": "struct ERC721A.AddressData",
        "members": [
          {
            "astId": 2977,
            "contract": "contracts/test/helpers/RhapsodyCreatorGenerativeRinkeby.sol:RhapsodyCreatorGenerativeRinkeby",
            "label": "balance",
            "offset": 0,
            "slot": "0",
            "type": "t_uint64"
          },
          {
            "astId": 2979,
            "contract": "contracts/test/helpers/RhapsodyCreatorGenerativeRinkeby.sol:RhapsodyCreatorGenerativeRinkeby",
            "label": "numberMinted",
            "offset": 8,
            "slot": "0",
            "type": "t_uint64"
          },
          {
            "astId": 2981,
            "contract": "contracts/test/helpers/RhapsodyCreatorGenerativeRinkeby.sol:RhapsodyCreatorGenerativeRinkeby",
            "label": "numberBurned",
            "offset": 16,
            "slot": "0",
            "type": "t_uint64"
          },
          {
            "astId": 2983,
            "contract": "contracts/test/helpers/RhapsodyCreatorGenerativeRinkeby.sol:RhapsodyCreatorGenerativeRinkeby",
            "label": "aux",
            "offset": 24,
            "slot": "0",
            "type": "t_uint64"
          }
        ],
        "numberOfBytes": "32"
      },
      "t_struct(TokenOwnership)2975_storage": {
        "encoding": "inplace",
        "label": "struct ERC721A.TokenOwnership",
        "members": [
          {
            "astId": 2970,
            "contract": "contracts/test/helpers/RhapsodyCreatorGenerativeRinkeby.sol:RhapsodyCreatorGenerativeRinkeby",
            "label": "addr",
            "offset": 0,
            "slot": "0",
            "type": "t_address"
          },
          {
            "astId": 2972,
            "contract": "contracts/test/helpers/RhapsodyCreatorGenerativeRinkeby.sol:RhapsodyCreatorGenerativeRinkeby",
            "label": "startTimestamp",
            "offset": 20,
            "slot": "0",
            "type": "t_uint64"
          },
          {
            "astId": 2974,
            "contract": "contracts/test/helpers/RhapsodyCreatorGenerativeRinkeby.sol:RhapsodyCreatorGenerativeRinkeby",
            "label": "burned",
            "offset": 28,
            "slot": "0",
            "type": "t_bool"
          }
        ],
        "numberOfBytes": "32"
      },
      "t_uint256": {
        "encoding": "inplace",
        "label": "uint256",
        "numberOfBytes": "32"
      },
      "t_uint64": {
        "encoding": "inplace",
        "label": "uint64",
        "numberOfBytes": "8"
      }
    }
  }
}