{
  "address": "0x42884066baaD2466E8b9e06e0949cC02F70E0832",
  "abi": [
    {
      "inputs": [
        {
          "internalType": "uint256",
          "name": "_collectionSize",
          "type": "uint256"
        },
        {
          "internalType": "uint256",
          "name": "_maxPublicBatchPerAddress",
          "type": "uint256"
        },
        {
          "internalType": "uint256",
          "name": "_amountForPromotion",
          "type": "uint256"
        },
        {
          "internalType": "uint256",
          "name": "_mintPrice",
          "type": "uint256"
        }
      ],
      "stateMutability": "nonpayable",
      "type": "constructor"
    },
    {
      "inputs": [],
      "name": "AllOwnershipsHaveBeenSet",
      "type": "error"
    },
    {
      "inputs": [],
      "name": "ApprovalCallerNotOwnerNorApproved",
      "type": "error"
    },
    {
      "inputs": [],
      "name": "ApprovalQueryForNonexistentToken",
      "type": "error"
    },
    {
      "inputs": [],
      "name": "ApprovalToCurrentOwner",
      "type": "error"
    },
    {
      "inputs": [],
      "name": "ApproveToCaller",
      "type": "error"
    },
    {
      "inputs": [],
      "name": "BalanceQueryForZeroAddress",
      "type": "error"
    },
    {
      "inputs": [],
      "name": "HashQueryForNonexistentToken",
      "type": "error"
    },
    {
      "inputs": [],
      "name": "MintToZeroAddress",
      "type": "error"
    },
    {
      "inputs": [],
      "name": "MintZeroQuantity",
      "type": "error"
    },
    {
      "inputs": [],
      "name": "NoTokensMintedYet",
      "type": "error"
    },
    {
      "inputs": [],
      "name": "OwnerQueryForNonexistentToken",
      "type": "error"
    },
    {
      "inputs": [],
      "name": "QuantityMustBeNonZero",
      "type": "error"
    },
    {
      "inputs": [],
      "name": "TransferCallerNotOwnerNorApproved",
      "type": "error"
    },
    {
      "inputs": [],
      "name": "TransferFromIncorrectOwner",
      "type": "error"
    },
    {
      "inputs": [],
      "name": "TransferToNonERC721ReceiverImplementer",
      "type": "error"
    },
    {
      "inputs": [],
      "name": "TransferToZeroAddress",
      "type": "error"
    },
    {
      "inputs": [],
      "name": "URIQueryForNonexistentToken",
      "type": "error"
    },
    {
      "anonymous": false,
      "inputs": [
        {
          "indexed": true,
          "internalType": "address",
          "name": "owner",
          "type": "address"
        },
        {
          "indexed": true,
          "internalType": "address",
          "name": "approved",
          "type": "address"
        },
        {
          "indexed": true,
          "internalType": "uint256",
          "name": "tokenId",
          "type": "uint256"
        }
      ],
      "name": "Approval",
      "type": "event"
    },
    {
      "anonymous": false,
      "inputs": [
        {
          "indexed": true,
          "internalType": "address",
          "name": "owner",
          "type": "address"
        },
        {
          "indexed": true,
          "internalType": "address",
          "name": "operator",
          "type": "address"
        },
        {
          "indexed": false,
          "internalType": "bool",
          "name": "approved",
          "type": "bool"
        }
      ],
      "name": "ApprovalForAll",
      "type": "event"
    },
    {
      "anonymous": false,
      "inputs": [
        {
          "indexed": true,
          "internalType": "address",
          "name": "to",
          "type": "address"
        },
        {
          "indexed": false,
          "internalType": "uint256",
          "name": "currentTotalSupply",
          "type": "uint256"
        },
        {
          "indexed": false,
          "internalType": "uint256",
          "name": "invocations",
          "type": "uint256"
        },
        {
          "indexed": false,
          "internalType": "bytes32[]",
          "name": "identifiers",
          "type": "bytes32[]"
        }
      ],
      "name": "Created",
      "type": "event"
    },
    {
      "anonymous": false,
      "inputs": [
        {
          "indexed": true,
          "internalType": "address",
          "name": "previousOwner",
          "type": "address"
        },
        {
          "indexed": true,
          "internalType": "address",
          "name": "newOwner",
          "type": "address"
        }
      ],
      "name": "OwnershipTransferred",
      "type": "event"
    },
    {
      "anonymous": false,
      "inputs": [
        {
          "indexed": true,
          "internalType": "address",
          "name": "from",
          "type": "address"
        },
        {
          "indexed": true,
          "internalType": "address",
          "name": "to",
          "type": "address"
        },
        {
          "indexed": true,
          "internalType": "uint256",
          "name": "tokenId",
          "type": "uint256"
        }
      ],
      "name": "Transfer",
      "type": "event"
    },
    {
      "inputs": [],
      "name": "VERSION",
      "outputs": [
        {
          "internalType": "string",
          "name": "",
          "type": "string"
        }
      ],
      "stateMutability": "view",
      "type": "function"
    },
    {
      "inputs": [],
      "name": "amountForPromotion",
      "outputs": [
        {
          "internalType": "uint256",
          "name": "",
          "type": "uint256"
        }
      ],
      "stateMutability": "view",
      "type": "function"
    },
    {
      "inputs": [
        {
          "internalType": "address",
          "name": "to",
          "type": "address"
        },
        {
          "internalType": "uint256",
          "name": "tokenId",
          "type": "uint256"
        }
      ],
      "name": "approve",
      "outputs": [],
      "stateMutability": "nonpayable",
      "type": "function"
    },
    {
      "inputs": [
        {
          "internalType": "address",
          "name": "owner",
          "type": "address"
        }
      ],
      "name": "balanceOf",
      "outputs": [
        {
          "internalType": "uint256",
          "name": "",
          "type": "uint256"
        }
      ],
      "stateMutability": "view",
      "type": "function"
    },
    {
      "inputs": [],
      "name": "baseURI",
      "outputs": [
        {
          "internalType": "string",
          "name": "",
          "type": "string"
        }
      ],
      "stateMutability": "view",
      "type": "function"
    },
    {
      "inputs": [],
      "name": "claimMerkleRoot",
      "outputs": [
        {
          "internalType": "bytes32",
          "name": "",
          "type": "bytes32"
        }
      ],
      "stateMutability": "view",
      "type": "function"
    },
    {
      "inputs": [
        {
          "internalType": "uint256",
          "name": "invocations",
          "type": "uint256"
        },
        {
          "internalType": "bytes32[]",
          "name": "proof",
          "type": "bytes32[]"
        }
      ],
      "name": "claimMint",
      "outputs": [],
      "stateMutability": "nonpayable",
      "type": "function"
    },
    {
      "inputs": [],
      "name": "claimTime",
      "outputs": [
        {
          "internalType": "uint256",
          "name": "",
          "type": "uint256"
        }
      ],
      "stateMutability": "view",
      "type": "function"
    },
    {
      "inputs": [
        {
          "internalType": "uint256",
          "name": "tokenId",
          "type": "uint256"
        }
      ],
      "name": "getApproved",
      "outputs": [
        {
          "internalType": "address",
          "name": "",
          "type": "address"
        }
      ],
      "stateMutability": "view",
      "type": "function"
    },
    {
      "inputs": [
        {
          "internalType": "address",
          "name": "owner",
          "type": "address"
        },
        {
          "internalType": "address",
          "name": "operator",
          "type": "address"
        }
      ],
      "name": "isApprovedForAll",
      "outputs": [
        {
          "internalType": "bool",
          "name": "",
          "type": "bool"
        }
      ],
      "stateMutability": "view",
      "type": "function"
    },
    {
      "inputs": [],
      "name": "maxPublicBatchPerAddress",
      "outputs": [
        {
          "internalType": "uint256",
          "name": "",
          "type": "uint256"
        }
      ],
      "stateMutability": "view",
      "type": "function"
    },
    {
      "inputs": [
        {
          "internalType": "address",
          "name": "_owner",
          "type": "address"
        }
      ],
      "name": "mintOf",
      "outputs": [
        {
          "internalType": "uint256",
          "name": "",
          "type": "uint256"
        }
      ],
      "stateMutability": "view",
      "type": "function"
    },
    {
      "inputs": [],
      "name": "mintPrice",
      "outputs": [
        {
          "internalType": "uint256",
          "name": "",
          "type": "uint256"
        }
      ],
      "stateMutability": "view",
      "type": "function"
    },
    {
      "inputs": [],
      "name": "mintRandomizerContract",
      "outputs": [
        {
          "internalType": "contract IRandomizer",
          "name": "",
          "type": "address"
        }
      ],
      "stateMutability": "view",
      "type": "function"
    },
    {
      "inputs": [],
      "name": "name",
      "outputs": [
        {
          "internalType": "string",
          "name": "",
          "type": "string"
        }
      ],
      "stateMutability": "view",
      "type": "function"
    },
    {
      "inputs": [],
      "name": "nextOwnerToExplicitlySet",
      "outputs": [
        {
          "internalType": "uint256",
          "name": "",
          "type": "uint256"
        }
      ],
      "stateMutability": "view",
      "type": "function"
    },
    {
      "inputs": [],
      "name": "owner",
      "outputs": [
        {
          "internalType": "address",
          "name": "",
          "type": "address"
        }
      ],
      "stateMutability": "view",
      "type": "function"
    },
    {
      "inputs": [
        {
          "internalType": "uint256",
          "name": "tokenId",
          "type": "uint256"
        }
      ],
      "name": "ownerOf",
      "outputs": [
        {
          "internalType": "address",
          "name": "",
          "type": "address"
        }
      ],
      "stateMutability": "view",
      "type": "function"
    },
    {
      "inputs": [],
      "name": "presaleMerkleRoot",
      "outputs": [
        {
          "internalType": "bytes32",
          "name": "",
          "type": "bytes32"
        }
      ],
      "stateMutability": "view",
      "type": "function"
    },
    {
      "inputs": [
        {
          "internalType": "uint256",
          "name": "invocations",
          "type": "uint256"
        },
        {
          "internalType": "uint256",
          "name": "maxInvocation",
          "type": "uint256"
        },
        {
          "internalType": "bytes32[]",
          "name": "proof",
          "type": "bytes32[]"
        }
      ],
      "name": "presaleMint",
      "outputs": [],
      "stateMutability": "payable",
      "type": "function"
    },
    {
      "inputs": [],
      "name": "presaleTime",
      "outputs": [
        {
          "internalType": "uint256",
          "name": "",
          "type": "uint256"
        }
      ],
      "stateMutability": "view",
      "type": "function"
    },
    {
      "inputs": [
        {
          "internalType": "uint256",
          "name": "invocations",
          "type": "uint256"
        }
      ],
      "name": "promotionMint",
      "outputs": [],
      "stateMutability": "nonpayable",
      "type": "function"
    },
    {
      "inputs": [
        {
          "internalType": "uint256",
          "name": "invocations",
          "type": "uint256"
        }
      ],
      "name": "publicMint",
      "outputs": [],
      "stateMutability": "payable",
      "type": "function"
    },
    {
      "inputs": [],
      "name": "publicTime",
      "outputs": [
        {
          "internalType": "uint256",
          "name": "",
          "type": "uint256"
        }
      ],
      "stateMutability": "view",
      "type": "function"
    },
    {
      "inputs": [],
      "name": "renounceOwnership",
      "outputs": [],
      "stateMutability": "nonpayable",
      "type": "function"
    },
    {
      "inputs": [
        {
          "internalType": "address",
          "name": "from",
          "type": "address"
        },
        {
          "internalType": "address",
          "name": "to",
          "type": "address"
        },
        {
          "internalType": "uint256",
          "name": "tokenId",
          "type": "uint256"
        }
      ],
      "name": "safeTransferFrom",
      "outputs": [],
      "stateMutability": "nonpayable",
      "type": "function"
    },
    {
      "inputs": [
        {
          "internalType": "address",
          "name": "from",
          "type": "address"
        },
        {
          "internalType": "address",
          "name": "to",
          "type": "address"
        },
        {
          "internalType": "uint256",
          "name": "tokenId",
          "type": "uint256"
        },
        {
          "internalType": "bytes",
          "name": "_data",
          "type": "bytes"
        }
      ],
      "name": "safeTransferFrom",
      "outputs": [],
      "stateMutability": "nonpayable",
      "type": "function"
    },
    {
      "inputs": [
        {
          "internalType": "address",
          "name": "operator",
          "type": "address"
        },
        {
          "internalType": "bool",
          "name": "approved",
          "type": "bool"
        }
      ],
      "name": "setApprovalForAll",
      "outputs": [],
      "stateMutability": "nonpayable",
      "type": "function"
    },
    {
      "inputs": [
        {
          "internalType": "string",
          "name": "newBaseURI",
          "type": "string"
        }
      ],
      "name": "setBaseURI",
      "outputs": [],
      "stateMutability": "nonpayable",
      "type": "function"
    },
    {
      "inputs": [
        {
          "internalType": "bytes32",
          "name": "_claimMerkleRoot",
          "type": "bytes32"
        }
      ],
      "name": "setClaimMerkleRoot",
      "outputs": [],
      "stateMutability": "nonpayable",
      "type": "function"
    },
    {
      "inputs": [
        {
          "internalType": "address",
          "name": "_mintRandomizerContract",
          "type": "address"
        }
      ],
      "name": "setMintRandomizerContract",
      "outputs": [],
      "stateMutability": "nonpayable",
      "type": "function"
    },
    {
      "inputs": [
        {
          "internalType": "uint256",
          "name": "_claimTime",
          "type": "uint256"
        },
        {
          "internalType": "uint256",
          "name": "_presaleTime",
          "type": "uint256"
        },
        {
          "internalType": "uint256",
          "name": "_publicTime",
          "type": "uint256"
        }
      ],
      "name": "setMintTime",
      "outputs": [],
      "stateMutability": "nonpayable",
      "type": "function"
    },
    {
      "inputs": [
        {
          "internalType": "uint256",
          "name": "quantity",
          "type": "uint256"
        }
      ],
      "name": "setOwnersExplicit",
      "outputs": [],
      "stateMutability": "nonpayable",
      "type": "function"
    },
    {
      "inputs": [
        {
          "internalType": "bytes32",
          "name": "_presaleMerkleRoot",
          "type": "bytes32"
        }
      ],
      "name": "setPresaleMerkleRoot",
      "outputs": [],
      "stateMutability": "nonpayable",
      "type": "function"
    },
    {
      "inputs": [
        {
          "internalType": "bytes4",
          "name": "interfaceId",
          "type": "bytes4"
        }
      ],
      "name": "supportsInterface",
      "outputs": [
        {
          "internalType": "bool",
          "name": "",
          "type": "bool"
        }
      ],
      "stateMutability": "view",
      "type": "function"
    },
    {
      "inputs": [],
      "name": "symbol",
      "outputs": [
        {
          "internalType": "string",
          "name": "",
          "type": "string"
        }
      ],
      "stateMutability": "view",
      "type": "function"
    },
    {
      "inputs": [
        {
          "internalType": "uint256",
          "name": "_tokenId",
          "type": "uint256"
        }
      ],
      "name": "tokenHash",
      "outputs": [
        {
          "internalType": "bytes32",
          "name": "",
          "type": "bytes32"
        }
      ],
      "stateMutability": "view",
      "type": "function"
    },
    {
      "inputs": [
        {
          "internalType": "uint256",
          "name": "tokenId",
          "type": "uint256"
        }
      ],
      "name": "tokenURI",
      "outputs": [
        {
          "internalType": "string",
          "name": "",
          "type": "string"
        }
      ],
      "stateMutability": "view",
      "type": "function"
    },
    {
      "inputs": [],
      "name": "totalSupply",
      "outputs": [
        {
          "internalType": "uint256",
          "name": "",
          "type": "uint256"
        }
      ],
      "stateMutability": "view",
      "type": "function"
    },
    {
      "inputs": [
        {
          "internalType": "address",
          "name": "from",
          "type": "address"
        },
        {
          "internalType": "address",
          "name": "to",
          "type": "address"
        },
        {
          "internalType": "uint256",
          "name": "tokenId",
          "type": "uint256"
        }
      ],
      "name": "transferFrom",
      "outputs": [],
      "stateMutability": "nonpayable",
      "type": "function"
    },
    {
      "inputs": [
        {
          "internalType": "address",
          "name": "newOwner",
          "type": "address"
        }
      ],
      "name": "transferOwnership",
      "outputs": [],
      "stateMutability": "nonpayable",
      "type": "function"
    },
    {
      "inputs": [],
      "name": "withdrawMoney",
      "outputs": [],
      "stateMutability": "nonpayable",
      "type": "function"
    }
  ],
  "transactionHash": "0x61d0a5646c4834b1b4bf6a13911aff6d0e92be47b048cf39d0e65f2fbae798ff",
  "args": [
    1111,
    2,
    40,
    "333000000000000000"
  ],
  "numDeployments": 21,
  "solcInputHash": "40a64b0be9585bf1c74045a177e53037",
  "bytecode": "0x6101006040523480156200001257600080fd5b5060405162005b6a38038062005b6a8339818101604052810190620000389190620003c5565b60405180606001604052806023815260200162005b47602391396040518060400160405280600381526020017f52435400000000000000000000000000000000000000000000000000000000008152508585858585858160029080519060200190620000a6929190620002d5565b508060039080519060200190620000bf929190620002d5565b50620000d06200020260201b60201c565b6000819055505050620000f8620000ec6200020760201b60201c565b6200020f60201b60201c565b6001600a819055506000841162000146576040517f08c379a00000000000000000000000000000000000000000000000000000000081526004016200013d90620004be565b60405180910390fd5b838211156200018c576040517f08c379a0000000000000000000000000000000000000000000000000000000008152600401620001839062000556565b60405180910390fd5b60008111620001d2576040517f08c379a0000000000000000000000000000000000000000000000000000000008152600401620001c990620005ee565b60405180910390fd5b8360e081815250508260a0818152505081608081815250508060c081815250505050505050505050505062000675565b600090565b600033905090565b6000600960009054906101000a900473ffffffffffffffffffffffffffffffffffffffff16905081600960006101000a81548173ffffffffffffffffffffffffffffffffffffffff021916908373ffffffffffffffffffffffffffffffffffffffff1602179055508173ffffffffffffffffffffffffffffffffffffffff168173ffffffffffffffffffffffffffffffffffffffff167f8be0079c531659141344cd1fd0a4f28419497f9722a3daafe3b4186f6b6457e060405160405180910390a35050565b828054620002e3906200063f565b90600052602060002090601f01602090048101928262000307576000855562000353565b82601f106200032257805160ff191683800117855562000353565b8280016001018555821562000353579182015b828111156200035257825182559160200191906001019062000335565b5b50905062000362919062000366565b5090565b5b808211156200038157600081600090555060010162000367565b5090565b600080fd5b6000819050919050565b6200039f816200038a565b8114620003ab57600080fd5b50565b600081519050620003bf8162000394565b92915050565b60008060008060808587031215620003e257620003e162000385565b5b6000620003f287828801620003ae565b94505060206200040587828801620003ae565b93505060406200041887828801620003ae565b92505060606200042b87828801620003ae565b91505092959194509250565b600082825260208201905092915050565b7f52686170736f647943726561746f7247656e657261746976652f696e76616c6960008201527f642d636f6c6c656374696f6e2d73697a65000000000000000000000000000000602082015250565b6000620004a660318362000437565b9150620004b38262000448565b604082019050919050565b60006020820190508181036000830152620004d98162000497565b9050919050565b7f52686170736f647943726561746f7247656e657261746976652f696e76616c6960008201527f642d70726f6d6f74696f6e2d616d6f756e740000000000000000000000000000602082015250565b60006200053e60328362000437565b91506200054b82620004e0565b604082019050919050565b6000602082019050818103600083015262000571816200052f565b9050919050565b7f52686170736f647943726561746f7247656e657261746976652f696e76616c6960008201527f642d6d696e742d70726963650000000000000000000000000000000000000000602082015250565b6000620005d6602c8362000437565b9150620005e38262000578565b604082019050919050565b600060208201905081810360008301526200060981620005c7565b9050919050565b7f4e487b7100000000000000000000000000000000000000000000000000000000600052602260045260246000fd5b600060028204905060018216806200065857607f821691505b602082108114156200066f576200066e62000610565b5b50919050565b60805160a05160c05160e051615467620006e060003960008181610e75015281816113d90152611a42015260008181610f96015281816114fa01526117a801526000818161134a01528181611f170152612244015260008181611c3701526121c601526154676000f3fe6080604052600436106102515760003560e01c8063715018a611610139578063ac446002116100b6578063c87b56dd1161007a578063c87b56dd14610870578063d7224ba0146108ad578063e985e9c5146108d8578063f2fde38b14610915578063fd1e29621461093e578063ffa1ad741461096757610251565b8063ac4460021461079f578063b1f536fa146107b6578063b88d4fde146107f3578063ba2f59c81461081c578063c6e62e0b1461084557610251565b8063993670f2116100fd578063993670f2146106b85780639c4dab52146106e3578063a22cb4651461070e578063a386439714610737578063a4babffd1461077457610251565b8063715018a6146105f757806372830dfd1461060e57806376972db2146106375780638da5cb5b1461066257806395d89b411461068d57610251565b806327b3bf11116101d257806355f804b31161019657806355f804b3146104d5578063617aa43c146104fe5780636352211e146105275780636817c76c146105645780636c0360eb1461058f57806370a08231146105ba57610251565b806327b3bf111461041357806328d7b2761461043e5780632d20fb60146104675780632db115441461049057806342842e0e146104ac57610251565b806318160ddd1161021957806318160ddd1461034d5780631b59169d146103785780631bdc608e1461039457806322212e2b146103bf57806323b872dd146103ea57610251565b806301ffc9a71461025657806306fdde0314610293578063081812fc146102be578063095ea7b3146102fb57806317ccc54b14610324575b600080fd5b34801561026257600080fd5b5061027d60048036038101906102789190613db5565b610992565b60405161028a9190613dfd565b60405180910390f35b34801561029f57600080fd5b506102a8610a74565b6040516102b59190613eb1565b60405180910390f35b3480156102ca57600080fd5b506102e560048036038101906102e09190613f09565b610b06565b6040516102f29190613f77565b60405180910390f35b34801561030757600080fd5b50610322600480360381019061031d9190613fbe565b610b82565b005b34801561033057600080fd5b5061034b60048036038101906103469190613ffe565b610c8d565b005b34801561035957600080fd5b50610362610d4d565b60405161036f919061403a565b60405180910390f35b610392600480360381019061038d91906140ba565b610d64565b005b3480156103a057600080fd5b506103a9611122565b6040516103b6919061403a565b60405180910390f35b3480156103cb57600080fd5b506103d4611128565b6040516103e19190614147565b60405180910390f35b3480156103f657600080fd5b50610411600480360381019061040c9190614162565b61112e565b005b34801561041f57600080fd5b5061042861113e565b604051610435919061403a565b60405180910390f35b34801561044a57600080fd5b50610465600480360381019061046091906141e1565b611144565b005b34801561047357600080fd5b5061048e60048036038101906104899190613f09565b6111ca565b005b6104aa60048036038101906104a59190613f09565b6112a8565b005b3480156104b857600080fd5b506104d360048036038101906104ce9190614162565b6115c4565b005b3480156104e157600080fd5b506104fc60048036038101906104f79190614264565b6115e4565b005b34801561050a57600080fd5b50610525600480360381019061052091906142b1565b611676565b005b34801561053357600080fd5b5061054e60048036038101906105499190613f09565b611790565b60405161055b9190613f77565b60405180910390f35b34801561057057600080fd5b506105796117a6565b604051610586919061403a565b60405180910390f35b34801561059b57600080fd5b506105a46117ca565b6040516105b19190613eb1565b60405180910390f35b3480156105c657600080fd5b506105e160048036038101906105dc9190613ffe565b6117d9565b6040516105ee919061403a565b60405180910390f35b34801561060357600080fd5b5061060c6118a9565b005b34801561061a57600080fd5b5061063560048036038101906106309190614304565b611931565b005b34801561064357600080fd5b5061064c611c35565b604051610659919061403a565b60405180910390f35b34801561066e57600080fd5b50610677611c59565b6040516106849190613f77565b60405180910390f35b34801561069957600080fd5b506106a2611c83565b6040516106af9190613eb1565b60405180910390f35b3480156106c457600080fd5b506106cd611d15565b6040516106da91906143c3565b60405180910390f35b3480156106ef57600080fd5b506106f8611d3b565b6040516107059190614147565b60405180910390f35b34801561071a57600080fd5b506107356004803603810190610730919061440a565b611d41565b005b34801561074357600080fd5b5061075e60048036038101906107599190613f09565b611eb9565b60405161076b9190614147565b60405180910390f35b34801561078057600080fd5b50610789611f15565b604051610796919061403a565b60405180910390f35b3480156107ab57600080fd5b506107b4611f39565b005b3480156107c257600080fd5b506107dd60048036038101906107d89190613ffe565b6120ba565b6040516107ea919061403a565b60405180910390f35b3480156107ff57600080fd5b5061081a6004803603810190610815919061457a565b6120cc565b005b34801561082857600080fd5b50610843600480360381019061083e9190613f09565b612148565b005b34801561085157600080fd5b5061085a6122ff565b604051610867919061403a565b60405180910390f35b34801561087c57600080fd5b5061089760048036038101906108929190613f09565b612305565b6040516108a49190613eb1565b60405180910390f35b3480156108b957600080fd5b506108c26123a4565b6040516108cf919061403a565b60405180910390f35b3480156108e457600080fd5b506108ff60048036038101906108fa91906145fd565b6123aa565b60405161090c9190613dfd565b60405180910390f35b34801561092157600080fd5b5061093c60048036038101906109379190613ffe565b61243e565b005b34801561094a57600080fd5b50610965600480360381019061096091906141e1565b612536565b005b34801561097357600080fd5b5061097c6125bc565b6040516109899190613eb1565b60405180910390f35b60007f80ac58cd000000000000000000000000000000000000000000000000000000007bffffffffffffffffffffffffffffffffffffffffffffffffffffffff1916827bffffffffffffffffffffffffffffffffffffffffffffffffffffffff19161480610a5d57507f5b5e139f000000000000000000000000000000000000000000000000000000007bffffffffffffffffffffffffffffffffffffffffffffffffffffffff1916827bffffffffffffffffffffffffffffffffffffffffffffffffffffffff1916145b80610a6d5750610a6c826125f5565b5b9050919050565b606060028054610a839061466c565b80601f0160208091040260200160405190810160405280929190818152602001828054610aaf9061466c565b8015610afc5780601f10610ad157610100808354040283529160200191610afc565b820191906000526020600020905b815481529060010190602001808311610adf57829003601f168201915b5050505050905090565b6000610b118261265f565b610b47576040517fcf4700e400000000000000000000000000000000000000000000000000000000815260040160405180910390fd5b6006600083815260200190815260200160002060009054906101000a900473ffffffffffffffffffffffffffffffffffffffff169050919050565b6000610b8d82611790565b90508073ffffffffffffffffffffffffffffffffffffffff168373ffffffffffffffffffffffffffffffffffffffff161415610bf5576040517f943f7b8c00000000000000000000000000000000000000000000000000000000815260040160405180910390fd5b8073ffffffffffffffffffffffffffffffffffffffff16610c146126ad565b73ffffffffffffffffffffffffffffffffffffffff1614158015610c465750610c4481610c3f6126ad565b6123aa565b155b15610c7d576040517fcfb3b94200000000000000000000000000000000000000000000000000000000815260040160405180910390fd5b610c888383836126b5565b505050565b610c956126ad565b73ffffffffffffffffffffffffffffffffffffffff16610cb3611c59565b73ffffffffffffffffffffffffffffffffffffffff1614610d09576040517f08c379a0000000000000000000000000000000000000000000000000000000008152600401610d00906146ea565b60405180910390fd5b80601260006101000a81548173ffffffffffffffffffffffffffffffffffffffff021916908373ffffffffffffffffffffffffffffffffffffffff16021790555050565b6000610d57612767565b6001546000540303905090565b6002600a541415610daa576040517f08c379a0000000000000000000000000000000000000000000000000000000008152600401610da190614756565b60405180910390fd5b6002600a81905550600e54600081118015610dc457508042115b610e03576040517f08c379a0000000000000000000000000000000000000000000000000000000008152600401610dfa906147e8565b60405180910390fd5b84843373ffffffffffffffffffffffffffffffffffffffff163273ffffffffffffffffffffffffffffffffffffffff1614610e73576040517f08c379a0000000000000000000000000000000000000000000000000000000008152600401610e6a9061487a565b60405180910390fd5b7f0000000000000000000000000000000000000000000000000000000000000000610eae83610ea0610d4d565b61276c90919063ffffffff16565b1115610eef576040517f08c379a0000000000000000000000000000000000000000000000000000000008152600401610ee69061490c565b60405180910390fd5b80610f0b83610efd33612782565b61276c90919063ffffffff16565b1115610f4c576040517f08c379a0000000000000000000000000000000000000000000000000000000008152600401610f439061499e565b60405180910390fd5b60008211610f8f576040517f08c379a0000000000000000000000000000000000000000000000000000000008152600401610f8690614a30565b60405180910390fd5b86610fc3817f000000000000000000000000000000000000000000000000000000000000000061279490919063ffffffff16565b3414611004576040517f08c379a0000000000000000000000000000000000000000000000000000000008152600401610ffb90614ac2565b60405180910390fd5b60003411611047576040517f08c379a000000000000000000000000000000000000000000000000000000000815260040161103e90614a30565b60405180910390fd5b86338787600b546110c2838380806020026020016040519081016040528093929190818152602001838360200280828437600081840152601f19601f820116905080830192505050505050508286886040516020016110a7929190614b4b565b604051602081830303815290604052805190602001206127aa565b611101576040517f08c379a00000000000000000000000000000000000000000000000000000000081526004016110f890614be9565b60405180910390fd5b61110b338e6127c1565b5050505050505050506001600a8190555050505050565b600f5481565b600b5481565b611139838383612911565b505050565b600d5481565b61114c6126ad565b73ffffffffffffffffffffffffffffffffffffffff1661116a611c59565b73ffffffffffffffffffffffffffffffffffffffff16146111c0576040517f08c379a00000000000000000000000000000000000000000000000000000000081526004016111b7906146ea565b60405180910390fd5b80600b8190555050565b6111d26126ad565b73ffffffffffffffffffffffffffffffffffffffff166111f0611c59565b73ffffffffffffffffffffffffffffffffffffffff1614611246576040517f08c379a000000000000000000000000000000000000000000000000000000000815260040161123d906146ea565b60405180910390fd5b6002600a54141561128c576040517f08c379a000000000000000000000000000000000000000000000000000000000815260040161128390614756565b60405180910390fd5b6002600a8190555061129d81612dc7565b6001600a8190555050565b6002600a5414156112ee576040517f08c379a00000000000000000000000000000000000000000000000000000000081526004016112e590614756565b60405180910390fd5b6002600a81905550600f5460008111801561130857508042115b611347576040517f08c379a000000000000000000000000000000000000000000000000000000000815260040161133e906147e8565b60405180910390fd5b817f00000000000000000000000000000000000000000000000000000000000000003373ffffffffffffffffffffffffffffffffffffffff163273ffffffffffffffffffffffffffffffffffffffff16146113d7576040517f08c379a00000000000000000000000000000000000000000000000000000000081526004016113ce9061487a565b60405180910390fd5b7f000000000000000000000000000000000000000000000000000000000000000061141283611404610d4d565b61276c90919063ffffffff16565b1115611453576040517f08c379a000000000000000000000000000000000000000000000000000000000815260040161144a9061490c565b60405180910390fd5b8061146f8361146133612782565b61276c90919063ffffffff16565b11156114b0576040517f08c379a00000000000000000000000000000000000000000000000000000000081526004016114a79061499e565b60405180910390fd5b600082116114f3576040517f08c379a00000000000000000000000000000000000000000000000000000000081526004016114ea90614a30565b60405180910390fd5b83611527817f000000000000000000000000000000000000000000000000000000000000000061279490919063ffffffff16565b3414611568576040517f08c379a000000000000000000000000000000000000000000000000000000000815260040161155f90614ac2565b60405180910390fd5b600034116115ab576040517f08c379a00000000000000000000000000000000000000000000000000000000081526004016115a290614a30565b60405180910390fd5b6115b533866127c1565b505050506001600a8190555050565b6115df838383604051806020016040528060008152506120cc565b505050565b6115ec6126ad565b73ffffffffffffffffffffffffffffffffffffffff1661160a611c59565b73ffffffffffffffffffffffffffffffffffffffff1614611660576040517f08c379a0000000000000000000000000000000000000000000000000000000008152600401611657906146ea565b60405180910390fd5b818160119190611671929190613c63565b505050565b61167e6126ad565b73ffffffffffffffffffffffffffffffffffffffff1661169c611c59565b73ffffffffffffffffffffffffffffffffffffffff16146116f2576040517f08c379a00000000000000000000000000000000000000000000000000000000081526004016116e9906146ea565b60405180910390fd5b828211611734576040517f08c379a000000000000000000000000000000000000000000000000000000000815260040161172b90614c7b565b60405180910390fd5b818111611776576040517f08c379a000000000000000000000000000000000000000000000000000000000815260040161176d90614d0d565b60405180910390fd5b82600d8190555081600e8190555080600f81905550505050565b600061179b82613026565b600001519050919050565b7f000000000000000000000000000000000000000000000000000000000000000081565b60606117d46132b5565b905090565b60008073ffffffffffffffffffffffffffffffffffffffff168273ffffffffffffffffffffffffffffffffffffffff161415611841576040517f8f4eb60400000000000000000000000000000000000000000000000000000000815260040160405180910390fd5b600560008373ffffffffffffffffffffffffffffffffffffffff1673ffffffffffffffffffffffffffffffffffffffff16815260200190815260200160002060000160009054906101000a900467ffffffffffffffff1667ffffffffffffffff169050919050565b6118b16126ad565b73ffffffffffffffffffffffffffffffffffffffff166118cf611c59565b73ffffffffffffffffffffffffffffffffffffffff1614611925576040517f08c379a000000000000000000000000000000000000000000000000000000000815260040161191c906146ea565b60405180910390fd5b61192f6000613347565b565b6002600a541415611977576040517f08c379a000000000000000000000000000000000000000000000000000000000815260040161196e90614756565b60405180910390fd5b6002600a81905550600d5460008111801561199157508042115b6119d0576040517f08c379a00000000000000000000000000000000000000000000000000000000081526004016119c7906147e8565b60405180910390fd5b83843373ffffffffffffffffffffffffffffffffffffffff163273ffffffffffffffffffffffffffffffffffffffff1614611a40576040517f08c379a0000000000000000000000000000000000000000000000000000000008152600401611a379061487a565b60405180910390fd5b7f0000000000000000000000000000000000000000000000000000000000000000611a7b83611a6d610d4d565b61276c90919063ffffffff16565b1115611abc576040517f08c379a0000000000000000000000000000000000000000000000000000000008152600401611ab39061490c565b60405180910390fd5b80611ad883611aca33612782565b61276c90919063ffffffff16565b1115611b19576040517f08c379a0000000000000000000000000000000000000000000000000000000008152600401611b109061499e565b60405180910390fd5b60008211611b5c576040517f08c379a0000000000000000000000000000000000000000000000000000000008152600401611b5390614a30565b60405180910390fd5b85338686600c54611bd7838380806020026020016040519081016040528093929190818152602001838360200280828437600081840152601f19601f82011690508083019250505050505050828688604051602001611bbc929190614b4b565b604051602081830303815290604052805190602001206127aa565b611c16576040517f08c379a0000000000000000000000000000000000000000000000000000000008152600401611c0d90614be9565b60405180910390fd5b611c20338c6127c1565b50505050505050506001600a81905550505050565b7f000000000000000000000000000000000000000000000000000000000000000081565b6000600960009054906101000a900473ffffffffffffffffffffffffffffffffffffffff16905090565b606060038054611c929061466c565b80601f0160208091040260200160405190810160405280929190818152602001828054611cbe9061466c565b8015611d0b5780601f10611ce057610100808354040283529160200191611d0b565b820191906000526020600020905b815481529060010190602001808311611cee57829003601f168201915b5050505050905090565b601260009054906101000a900473ffffffffffffffffffffffffffffffffffffffff1681565b600c5481565b611d496126ad565b73ffffffffffffffffffffffffffffffffffffffff168273ffffffffffffffffffffffffffffffffffffffff161415611dae576040517fb06307db00000000000000000000000000000000000000000000000000000000815260040160405180910390fd5b8060076000611dbb6126ad565b73ffffffffffffffffffffffffffffffffffffffff1673ffffffffffffffffffffffffffffffffffffffff16815260200190815260200160002060008473ffffffffffffffffffffffffffffffffffffffff1673ffffffffffffffffffffffffffffffffffffffff16815260200190815260200160002060006101000a81548160ff0219169083151502179055508173ffffffffffffffffffffffffffffffffffffffff16611e686126ad565b73ffffffffffffffffffffffffffffffffffffffff167f17307eab39ab6107e8899845ad3d59bd9653f200f220920489ca2b5937696c3183604051611ead9190613dfd565b60405180910390a35050565b6000611ec48261265f565b611efa576040517f963eb14f00000000000000000000000000000000000000000000000000000000815260040160405180910390fd5b60106000838152602001908152602001600020549050919050565b7f000000000000000000000000000000000000000000000000000000000000000081565b611f416126ad565b73ffffffffffffffffffffffffffffffffffffffff16611f5f611c59565b73ffffffffffffffffffffffffffffffffffffffff1614611fb5576040517f08c379a0000000000000000000000000000000000000000000000000000000008152600401611fac906146ea565b60405180910390fd5b6002600a541415611ffb576040517f08c379a0000000000000000000000000000000000000000000000000000000008152600401611ff290614756565b60405180910390fd5b6002600a8190555060003373ffffffffffffffffffffffffffffffffffffffff164760405161202990614d5e565b60006040518083038185875af1925050503d8060008114612066576040519150601f19603f3d011682016040523d82523d6000602084013e61206b565b606091505b50509050806120af576040517f08c379a00000000000000000000000000000000000000000000000000000000081526004016120a690614de5565b60405180910390fd5b506001600a81905550565b60006120c582612782565b9050919050565b6120d7848484612911565b6120f68373ffffffffffffffffffffffffffffffffffffffff1661340d565b801561210b575061210984848484613430565b155b15612142576040517fd1a57ed600000000000000000000000000000000000000000000000000000000815260040160405180910390fd5b50505050565b6121506126ad565b73ffffffffffffffffffffffffffffffffffffffff1661216e611c59565b73ffffffffffffffffffffffffffffffffffffffff16146121c4576040517f08c379a00000000000000000000000000000000000000000000000000000000081526004016121bb906146ea565b60405180910390fd5b7f00000000000000000000000000000000000000000000000000000000000000006121ff826121f1610d4d565b61276c90919063ffffffff16565b1115612240576040517f08c379a000000000000000000000000000000000000000000000000000000000815260040161223790614e77565b60405180910390fd5b60007f00000000000000000000000000000000000000000000000000000000000000009050600061227a828461359090919063ffffffff16565b146122ba576040517f08c379a00000000000000000000000000000000000000000000000000000000081526004016122b190614f09565b60405180910390fd5b60006122cf82846135a690919063ffffffff16565b905060005b818110156122f9576122e633846127c1565b80806122f190614f58565b9150506122d4565b50505050565b600e5481565b60606123108261265f565b612346576040517fa14c4b5000000000000000000000000000000000000000000000000000000000815260040160405180910390fd5b60006123506132b5565b9050600081511415612371576040518060200160405280600081525061239c565b8061237b846135bc565b60405160200161238c929190614fdd565b6040516020818303038152906040525b915050919050565b60085481565b6000600760008473ffffffffffffffffffffffffffffffffffffffff1673ffffffffffffffffffffffffffffffffffffffff16815260200190815260200160002060008373ffffffffffffffffffffffffffffffffffffffff1673ffffffffffffffffffffffffffffffffffffffff16815260200190815260200160002060009054906101000a900460ff16905092915050565b6124466126ad565b73ffffffffffffffffffffffffffffffffffffffff16612464611c59565b73ffffffffffffffffffffffffffffffffffffffff16146124ba576040517f08c379a00000000000000000000000000000000000000000000000000000000081526004016124b1906146ea565b60405180910390fd5b600073ffffffffffffffffffffffffffffffffffffffff168173ffffffffffffffffffffffffffffffffffffffff16141561252a576040517f08c379a000000000000000000000000000000000000000000000000000000000815260040161252190615073565b60405180910390fd5b61253381613347565b50565b61253e6126ad565b73ffffffffffffffffffffffffffffffffffffffff1661255c611c59565b73ffffffffffffffffffffffffffffffffffffffff16146125b2576040517f08c379a00000000000000000000000000000000000000000000000000000000081526004016125a9906146ea565b60405180910390fd5b80600c8190555050565b6040518060400160405280600581526020017f302e322e3100000000000000000000000000000000000000000000000000000081525081565b60007f01ffc9a7000000000000000000000000000000000000000000000000000000007bffffffffffffffffffffffffffffffffffffffffffffffffffffffff1916827bffffffffffffffffffffffffffffffffffffffffffffffffffffffff1916149050919050565b60008161266a612767565b11158015612679575060005482105b80156126a6575060046000838152602001908152602001600020600001601c9054906101000a900460ff16155b9050919050565b600033905090565b826006600084815260200190815260200160002060006101000a81548173ffffffffffffffffffffffffffffffffffffffff021916908373ffffffffffffffffffffffffffffffffffffffff160217905550818373ffffffffffffffffffffffffffffffffffffffff168273ffffffffffffffffffffffffffffffffffffffff167f8c5be1e5ebec7d5bd14f71427d1e84f3dd0314c0f7b2291e5b200ac8c7c3b92560405160405180910390a4505050565b600090565b6000818361277a9190615093565b905092915050565b600061278d8261371d565b9050919050565b600081836127a291906150e9565b905092915050565b6000826127b78584613787565b1490509392505050565b6127cb82826137fc565b60006127d5610d4d565b905060006127ec838361381a90919063ffffffff16565b905060008367ffffffffffffffff81111561280a5761280961444f565b5b6040519080825280602002602001820160405280156128385781602001602082028036833780820191505090505b50905060005b848110156128b757600061285b828561276c90919063ffffffff16565b9050600061286882613830565b90508084848151811061287e5761287d615143565b5b602002602001018181525050806010600084815260200190815260200160002081905550505080806128af90614f58565b91505061283e565b508473ffffffffffffffffffffffffffffffffffffffff167f5cb27d2833c0b1f5f25192224a4f5c4573f3c2a9394c0a0a9a31c092e8879eb484868460405161290293929190615230565b60405180910390a25050505050565b600061291c82613026565b90508373ffffffffffffffffffffffffffffffffffffffff16816000015173ffffffffffffffffffffffffffffffffffffffff1614612987576040517fa114810000000000000000000000000000000000000000000000000000000000815260040160405180910390fd5b60008473ffffffffffffffffffffffffffffffffffffffff166129a86126ad565b73ffffffffffffffffffffffffffffffffffffffff1614806129d757506129d6856129d16126ad565b6123aa565b5b80612a1c57506129e56126ad565b73ffffffffffffffffffffffffffffffffffffffff16612a0484610b06565b73ffffffffffffffffffffffffffffffffffffffff16145b905080612a55576040517f59c896be00000000000000000000000000000000000000000000000000000000815260040160405180910390fd5b600073ffffffffffffffffffffffffffffffffffffffff168473ffffffffffffffffffffffffffffffffffffffff161415612abc576040517fea553b3400000000000000000000000000000000000000000000000000000000815260040160405180910390fd5b612ac98585856001613860565b612ad5600084876126b5565b6001600560008773ffffffffffffffffffffffffffffffffffffffff1673ffffffffffffffffffffffffffffffffffffffff16815260200190815260200160002060000160008282829054906101000a900467ffffffffffffffff160392506101000a81548167ffffffffffffffff021916908367ffffffffffffffff1602179055506001600560008673ffffffffffffffffffffffffffffffffffffffff1673ffffffffffffffffffffffffffffffffffffffff16815260200190815260200160002060000160008282829054906101000a900467ffffffffffffffff160192506101000a81548167ffffffffffffffff021916908367ffffffffffffffff1602179055506000600460008581526020019081526020016000209050848160000160006101000a81548173ffffffffffffffffffffffffffffffffffffffff021916908373ffffffffffffffffffffffffffffffffffffffff160217905550428160000160146101000a81548167ffffffffffffffff021916908367ffffffffffffffff16021790555060006001850190506000600460008381526020019081526020016000209050600073ffffffffffffffffffffffffffffffffffffffff168160000160009054906101000a900473ffffffffffffffffffffffffffffffffffffffff1673ffffffffffffffffffffffffffffffffffffffff161415612d55576000548214612d5457878160000160006101000a81548173ffffffffffffffffffffffffffffffffffffffff021916908373ffffffffffffffffffffffffffffffffffffffff16021790555084602001518160000160146101000a81548167ffffffffffffffff021916908367ffffffffffffffff1602179055505b5b505050828473ffffffffffffffffffffffffffffffffffffffff168673ffffffffffffffffffffffffffffffffffffffff167fddf252ad1be2c89b69c2b068fc378daa952ba7f163c4a11628f55a4df523b3ef60405160405180910390a4612dc08585856001613866565b5050505050565b6000811415612e02576040517f56be441500000000000000000000000000000000000000000000000000000000815260040160405180910390fd5b612e0a612767565b6000541415612e45576040517fc0367cab00000000000000000000000000000000000000000000000000000000815260040160405180910390fd5b600060085490506000811415612e6057612e5d612767565b90505b6000548110612e9b576040517f70e89b1b00000000000000000000000000000000000000000000000000000000815260040160405180910390fd5b60006001838301039050600054600182011115612ebb5760016000540390505b60008290505b81811161301657600073ffffffffffffffffffffffffffffffffffffffff166004600083815260200190815260200160002060000160009054906101000a900473ffffffffffffffffffffffffffffffffffffffff1673ffffffffffffffffffffffffffffffffffffffff16148015612f5b575060046000828152602001908152602001600020600001601c9054906101000a900460ff16155b15613009576000612f6b82613026565b905080600001516004600084815260200190815260200160002060000160006101000a81548173ffffffffffffffffffffffffffffffffffffffff021916908373ffffffffffffffffffffffffffffffffffffffff16021790555080602001516004600084815260200190815260200160002060000160146101000a81548167ffffffffffffffff021916908367ffffffffffffffff160217905550505b8080600101915050612ec1565b5060018101600881905550505050565b61302e613ce9565b60008290508061303c612767565b1115801561304b575060005481105b1561327e576000600460008381526020019081526020016000206040518060600160405290816000820160009054906101000a900473ffffffffffffffffffffffffffffffffffffffff1673ffffffffffffffffffffffffffffffffffffffff1673ffffffffffffffffffffffffffffffffffffffff1681526020016000820160149054906101000a900467ffffffffffffffff1667ffffffffffffffff1667ffffffffffffffff16815260200160008201601c9054906101000a900460ff1615151515815250509050806040015161327c57600073ffffffffffffffffffffffffffffffffffffffff16816000015173ffffffffffffffffffffffffffffffffffffffff16146131605780925050506132b0565b5b60011561327b57818060019003925050600460008381526020019081526020016000206040518060600160405290816000820160009054906101000a900473ffffffffffffffffffffffffffffffffffffffff1673ffffffffffffffffffffffffffffffffffffffff1673ffffffffffffffffffffffffffffffffffffffff1681526020016000820160149054906101000a900467ffffffffffffffff1667ffffffffffffffff1667ffffffffffffffff16815260200160008201601c9054906101000a900460ff1615151515815250509050600073ffffffffffffffffffffffffffffffffffffffff16816000015173ffffffffffffffffffffffffffffffffffffffff16146132765780925050506132b0565b613161565b5b505b6040517fdf2d9b4200000000000000000000000000000000000000000000000000000000815260040160405180910390fd5b919050565b6060601180546132c49061466c565b80601f01602080910402602001604051908101604052809291908181526020018280546132f09061466c565b801561333d5780601f106133125761010080835404028352916020019161333d565b820191906000526020600020905b81548152906001019060200180831161332057829003601f168201915b5050505050905090565b6000600960009054906101000a900473ffffffffffffffffffffffffffffffffffffffff16905081600960006101000a81548173ffffffffffffffffffffffffffffffffffffffff021916908373ffffffffffffffffffffffffffffffffffffffff1602179055508173ffffffffffffffffffffffffffffffffffffffff168173ffffffffffffffffffffffffffffffffffffffff167f8be0079c531659141344cd1fd0a4f28419497f9722a3daafe3b4186f6b6457e060405160405180910390a35050565b6000808273ffffffffffffffffffffffffffffffffffffffff163b119050919050565b60008373ffffffffffffffffffffffffffffffffffffffff1663150b7a026134566126ad565b8786866040518563ffffffff1660e01b815260040161347894939291906152c3565b602060405180830381600087803b15801561349257600080fd5b505af19250505080156134c357506040513d601f19601f820116820180604052508101906134c09190615324565b60015b61353d573d80600081146134f3576040519150601f19603f3d011682016040523d82523d6000602084013e6134f8565b606091505b50600081511415613535576040517fd1a57ed600000000000000000000000000000000000000000000000000000000815260040160405180910390fd5b805181602001fd5b63150b7a0260e01b7bffffffffffffffffffffffffffffffffffffffffffffffffffffffff1916817bffffffffffffffffffffffffffffffffffffffffffffffffffffffff191614915050949350505050565b6000818361359e9190615380565b905092915050565b600081836135b491906153b1565b905092915050565b60606000821415613604576040518060400160405280600181526020017f30000000000000000000000000000000000000000000000000000000000000008152509050613718565b600082905060005b6000821461363657808061361f90614f58565b915050600a8261362f91906153b1565b915061360c565b60008167ffffffffffffffff8111156136525761365161444f565b5b6040519080825280601f01601f1916602001820160405280156136845781602001600182028036833780820191505090505b5090505b600085146137115760018261369d91906153e2565b9150600a856136ac9190615380565b60306136b89190615093565b60f81b8183815181106136ce576136cd615143565b5b60200101907effffffffffffffffffffffffffffffffffffffffffffffffffffffffffffff1916908160001a905350600a8561370a91906153b1565b9450613688565b8093505050505b919050565b6000600560008373ffffffffffffffffffffffffffffffffffffffff1673ffffffffffffffffffffffffffffffffffffffff16815260200190815260200160002060000160089054906101000a900467ffffffffffffffff1667ffffffffffffffff169050919050565b60008082905060005b84518110156137f15760008582815181106137ae576137ad615143565b5b602002602001015190508083116137d0576137c9838261386c565b92506137dd565b6137da818461386c565b92505b5080806137e990614f58565b915050613790565b508091505092915050565b613816828260405180602001604052806000815250613883565b5050565b6000818361382891906153e2565b905092915050565b6000816040516020016138439190615416565b604051602081830303815290604052805190602001209050919050565b50505050565b50505050565b600082600052816020526040600020905092915050565b6138908383836001613895565b505050565b600080549050600073ffffffffffffffffffffffffffffffffffffffff168573ffffffffffffffffffffffffffffffffffffffff161415613902576040517f2e07630000000000000000000000000000000000000000000000000000000000815260040160405180910390fd5b600084141561393d576040517fb562e8dd00000000000000000000000000000000000000000000000000000000815260040160405180910390fd5b61394a6000868387613860565b83600560008773ffffffffffffffffffffffffffffffffffffffff1673ffffffffffffffffffffffffffffffffffffffff16815260200190815260200160002060000160008282829054906101000a900467ffffffffffffffff160192506101000a81548167ffffffffffffffff021916908367ffffffffffffffff16021790555083600560008773ffffffffffffffffffffffffffffffffffffffff1673ffffffffffffffffffffffffffffffffffffffff16815260200190815260200160002060000160088282829054906101000a900467ffffffffffffffff160192506101000a81548167ffffffffffffffff021916908367ffffffffffffffff160217905550846004600083815260200190815260200160002060000160006101000a81548173ffffffffffffffffffffffffffffffffffffffff021916908373ffffffffffffffffffffffffffffffffffffffff160217905550426004600083815260200190815260200160002060000160146101000a81548167ffffffffffffffff021916908367ffffffffffffffff160217905550600081905060008582019050838015613b145750613b138773ffffffffffffffffffffffffffffffffffffffff1661340d565b5b15613bda575b818773ffffffffffffffffffffffffffffffffffffffff16600073ffffffffffffffffffffffffffffffffffffffff167fddf252ad1be2c89b69c2b068fc378daa952ba7f163c4a11628f55a4df523b3ef60405160405180910390a4613b896000888480600101955088613430565b613bbf576040517fd1a57ed600000000000000000000000000000000000000000000000000000000815260040160405180910390fd5b80821415613b1a578260005414613bd557600080fd5b613c46565b5b818060010192508773ffffffffffffffffffffffffffffffffffffffff16600073ffffffffffffffffffffffffffffffffffffffff167fddf252ad1be2c89b69c2b068fc378daa952ba7f163c4a11628f55a4df523b3ef60405160405180910390a480821415613bdb575b816000819055505050613c5c6000868387613866565b5050505050565b828054613c6f9061466c565b90600052602060002090601f016020900481019282613c915760008555613cd8565b82601f10613caa57803560ff1916838001178555613cd8565b82800160010185558215613cd8579182015b82811115613cd7578235825591602001919060010190613cbc565b5b509050613ce59190613d2c565b5090565b6040518060600160405280600073ffffffffffffffffffffffffffffffffffffffff168152602001600067ffffffffffffffff1681526020016000151581525090565b5b80821115613d45576000816000905550600101613d2d565b5090565b6000604051905090565b600080fd5b600080fd5b60007fffffffff0000000000000000000000000000000000000000000000000000000082169050919050565b613d9281613d5d565b8114613d9d57600080fd5b50565b600081359050613daf81613d89565b92915050565b600060208284031215613dcb57613dca613d53565b5b6000613dd984828501613da0565b91505092915050565b60008115159050919050565b613df781613de2565b82525050565b6000602082019050613e126000830184613dee565b92915050565b600081519050919050565b600082825260208201905092915050565b60005b83811015613e52578082015181840152602081019050613e37565b83811115613e61576000848401525b50505050565b6000601f19601f8301169050919050565b6000613e8382613e18565b613e8d8185613e23565b9350613e9d818560208601613e34565b613ea681613e67565b840191505092915050565b60006020820190508181036000830152613ecb8184613e78565b905092915050565b6000819050919050565b613ee681613ed3565b8114613ef157600080fd5b50565b600081359050613f0381613edd565b92915050565b600060208284031215613f1f57613f1e613d53565b5b6000613f2d84828501613ef4565b91505092915050565b600073ffffffffffffffffffffffffffffffffffffffff82169050919050565b6000613f6182613f36565b9050919050565b613f7181613f56565b82525050565b6000602082019050613f8c6000830184613f68565b92915050565b613f9b81613f56565b8114613fa657600080fd5b50565b600081359050613fb881613f92565b92915050565b60008060408385031215613fd557613fd4613d53565b5b6000613fe385828601613fa9565b9250506020613ff485828601613ef4565b9150509250929050565b60006020828403121561401457614013613d53565b5b600061402284828501613fa9565b91505092915050565b61403481613ed3565b82525050565b600060208201905061404f600083018461402b565b92915050565b600080fd5b600080fd5b600080fd5b60008083601f84011261407a57614079614055565b5b8235905067ffffffffffffffff8111156140975761409661405a565b5b6020830191508360208202830111156140b3576140b261405f565b5b9250929050565b600080600080606085870312156140d4576140d3613d53565b5b60006140e287828801613ef4565b94505060206140f387828801613ef4565b935050604085013567ffffffffffffffff81111561411457614113613d58565b5b61412087828801614064565b925092505092959194509250565b6000819050919050565b6141418161412e565b82525050565b600060208201905061415c6000830184614138565b92915050565b60008060006060848603121561417b5761417a613d53565b5b600061418986828701613fa9565b935050602061419a86828701613fa9565b92505060406141ab86828701613ef4565b9150509250925092565b6141be8161412e565b81146141c957600080fd5b50565b6000813590506141db816141b5565b92915050565b6000602082840312156141f7576141f6613d53565b5b6000614205848285016141cc565b91505092915050565b60008083601f84011261422457614223614055565b5b8235905067ffffffffffffffff8111156142415761424061405a565b5b60208301915083600182028301111561425d5761425c61405f565b5b9250929050565b6000806020838503121561427b5761427a613d53565b5b600083013567ffffffffffffffff81111561429957614298613d58565b5b6142a58582860161420e565b92509250509250929050565b6000806000606084860312156142ca576142c9613d53565b5b60006142d886828701613ef4565b93505060206142e986828701613ef4565b92505060406142fa86828701613ef4565b9150509250925092565b60008060006040848603121561431d5761431c613d53565b5b600061432b86828701613ef4565b935050602084013567ffffffffffffffff81111561434c5761434b613d58565b5b61435886828701614064565b92509250509250925092565b6000819050919050565b600061438961438461437f84613f36565b614364565b613f36565b9050919050565b600061439b8261436e565b9050919050565b60006143ad82614390565b9050919050565b6143bd816143a2565b82525050565b60006020820190506143d860008301846143b4565b92915050565b6143e781613de2565b81146143f257600080fd5b50565b600081359050614404816143de565b92915050565b6000806040838503121561442157614420613d53565b5b600061442f85828601613fa9565b9250506020614440858286016143f5565b9150509250929050565b600080fd5b7f4e487b7100000000000000000000000000000000000000000000000000000000600052604160045260246000fd5b61448782613e67565b810181811067ffffffffffffffff821117156144a6576144a561444f565b5b80604052505050565b60006144b9613d49565b90506144c5828261447e565b919050565b600067ffffffffffffffff8211156144e5576144e461444f565b5b6144ee82613e67565b9050602081019050919050565b82818337600083830152505050565b600061451d614518846144ca565b6144af565b9050828152602081018484840111156145395761453861444a565b5b6145448482856144fb565b509392505050565b600082601f83011261456157614560614055565b5b813561457184826020860161450a565b91505092915050565b6000806000806080858703121561459457614593613d53565b5b60006145a287828801613fa9565b94505060206145b387828801613fa9565b93505060406145c487828801613ef4565b925050606085013567ffffffffffffffff8111156145e5576145e4613d58565b5b6145f18782880161454c565b91505092959194509250565b6000806040838503121561461457614613613d53565b5b600061462285828601613fa9565b925050602061463385828601613fa9565b9150509250929050565b7f4e487b7100000000000000000000000000000000000000000000000000000000600052602260045260246000fd5b6000600282049050600182168061468457607f821691505b602082108114156146985761469761463d565b5b50919050565b7f4f776e61626c653a2063616c6c6572206973206e6f7420746865206f776e6572600082015250565b60006146d4602083613e23565b91506146df8261469e565b602082019050919050565b60006020820190508181036000830152614703816146c7565b9050919050565b7f5265656e7472616e637947756172643a207265656e7472616e742063616c6c00600082015250565b6000614740601f83613e23565b915061474b8261470a565b602082019050919050565b6000602082019050818103600083015261476f81614733565b9050919050565b7f52686170736f647943726561746f7247656e657261746976652f696e76616c6960008201527f642d6d696e742d74696d65000000000000000000000000000000000000000000602082015250565b60006147d2602b83613e23565b91506147dd82614776565b604082019050919050565b60006020820190508181036000830152614801816147c5565b9050919050565b7f52686170736f647943726561746f7247656e657261746976652f696e76616c6960008201527f642d6d696e742d63616c6c657200000000000000000000000000000000000000602082015250565b6000614864602d83613e23565b915061486f82614808565b604082019050919050565b6000602082019050818103600083015261489381614857565b9050919050565b7f52686170736f647943726561746f7247656e657261746976652f696e76616c6960008201527f642d746f74616c2d737570706c79000000000000000000000000000000000000602082015250565b60006148f6602e83613e23565b91506149018261489a565b604082019050919050565b60006020820190508181036000830152614925816148e9565b9050919050565b7f52686170736f647943726561746f7247656e657261746976652f696e76616c6960008201527f642d696e766f636174696f6e2d75707065722d626f756e646172790000000000602082015250565b6000614988603b83613e23565b91506149938261492c565b604082019050919050565b600060208201905081810360008301526149b78161497b565b9050919050565b7f52686170736f647943726561746f7247656e657261746976652f696e76616c6960008201527f642d696e766f636174696f6e2d6c6f7765722d626f756e646172790000000000602082015250565b6000614a1a603b83613e23565b9150614a25826149be565b604082019050919050565b60006020820190508181036000830152614a4981614a0d565b9050919050565b7f52686170736f647943726561746f7247656e657261746976652f696e76616c6960008201527f642d6d696e742d76616c75650000000000000000000000000000000000000000602082015250565b6000614aac602c83613e23565b9150614ab782614a50565b604082019050919050565b60006020820190508181036000830152614adb81614a9f565b9050919050565b60008160601b9050919050565b6000614afa82614ae2565b9050919050565b6000614b0c82614aef565b9050919050565b614b24614b1f82613f56565b614b01565b82525050565b6000819050919050565b614b45614b4082613ed3565b614b2a565b82525050565b6000614b578285614b13565b601482019150614b678284614b34565b6020820191508190509392505050565b7f52686170736f647943726561746f7247656e657261746976652f696e76616c6960008201527f642d616464726573732d70726f6f660000000000000000000000000000000000602082015250565b6000614bd3602f83613e23565b9150614bde82614b77565b604082019050919050565b60006020820190508181036000830152614c0281614bc6565b9050919050565b7f52686170736f647943726561746f7247656e657261746976652f696e76616c6960008201527f642d70726573616c652d74696d65000000000000000000000000000000000000602082015250565b6000614c65602e83613e23565b9150614c7082614c09565b604082019050919050565b60006020820190508181036000830152614c9481614c58565b9050919050565b7f52686170736f647943726561746f7247656e657261746976652f696e76616c6960008201527f642d7075626c69632d74696d6500000000000000000000000000000000000000602082015250565b6000614cf7602d83613e23565b9150614d0282614c9b565b604082019050919050565b60006020820190508181036000830152614d2681614cea565b9050919050565b600081905092915050565b50565b6000614d48600083614d2d565b9150614d5382614d38565b600082019050919050565b6000614d6982614d3b565b9150819050919050565b7f52686170736f647943726561746f7247656e657261746976652f696e76616c6960008201527f642d77697468647261772d6d6f6e657900000000000000000000000000000000602082015250565b6000614dcf603083613e23565b9150614dda82614d73565b604082019050919050565b60006020820190508181036000830152614dfe81614dc2565b9050919050565b7f52686170736f647943726561746f7247656e657261746976652f696e76616c6960008201527f642d70726f6d6f74696f6e2d737570706c790000000000000000000000000000602082015250565b6000614e61603283613e23565b9150614e6c82614e05565b604082019050919050565b60006020820190508181036000830152614e9081614e54565b9050919050565b7f52686170736f647943726561746f7247656e657261746976652f696e76616c6960008201527f642d62617463682d6d756c7469706c6500000000000000000000000000000000602082015250565b6000614ef3603083613e23565b9150614efe82614e97565b604082019050919050565b60006020820190508181036000830152614f2281614ee6565b9050919050565b7f4e487b7100000000000000000000000000000000000000000000000000000000600052601160045260246000fd5b6000614f6382613ed3565b91507fffffffffffffffffffffffffffffffffffffffffffffffffffffffffffffffff821415614f9657614f95614f29565b5b600182019050919050565b600081905092915050565b6000614fb782613e18565b614fc18185614fa1565b9350614fd1818560208601613e34565b80840191505092915050565b6000614fe98285614fac565b9150614ff58284614fac565b91508190509392505050565b7f4f776e61626c653a206e6577206f776e657220697320746865207a65726f206160008201527f6464726573730000000000000000000000000000000000000000000000000000602082015250565b600061505d602683613e23565b915061506882615001565b604082019050919050565b6000602082019050818103600083015261508c81615050565b9050919050565b600061509e82613ed3565b91506150a983613ed3565b9250827fffffffffffffffffffffffffffffffffffffffffffffffffffffffffffffffff038211156150de576150dd614f29565b5b828201905092915050565b60006150f482613ed3565b91506150ff83613ed3565b9250817fffffffffffffffffffffffffffffffffffffffffffffffffffffffffffffffff048311821515161561513857615137614f29565b5b828202905092915050565b7f4e487b7100000000000000000000000000000000000000000000000000000000600052603260045260246000fd5b600081519050919050565b600082825260208201905092915050565b6000819050602082019050919050565b6151a78161412e565b82525050565b60006151b9838361519e565b60208301905092915050565b6000602082019050919050565b60006151dd82615172565b6151e7818561517d565b93506151f28361518e565b8060005b8381101561522357815161520a88826151ad565b9750615215836151c5565b9250506001810190506151f6565b5085935050505092915050565b6000606082019050615245600083018661402b565b615252602083018561402b565b818103604083015261526481846151d2565b9050949350505050565b600081519050919050565b600082825260208201905092915050565b60006152958261526e565b61529f8185615279565b93506152af818560208601613e34565b6152b881613e67565b840191505092915050565b60006080820190506152d86000830187613f68565b6152e56020830186613f68565b6152f2604083018561402b565b8181036060830152615304818461528a565b905095945050505050565b60008151905061531e81613d89565b92915050565b60006020828403121561533a57615339613d53565b5b60006153488482850161530f565b91505092915050565b7f4e487b7100000000000000000000000000000000000000000000000000000000600052601260045260246000fd5b600061538b82613ed3565b915061539683613ed3565b9250826153a6576153a5615351565b5b828206905092915050565b60006153bc82613ed3565b91506153c783613ed3565b9250826153d7576153d6615351565b5b828204905092915050565b60006153ed82613ed3565b91506153f883613ed3565b92508282101561540b5761540a614f29565b5b828203905092915050565b60006154228284614b34565b6020820191508190509291505056fea26469706673582212209ae97b3537a64cce91b02b68f22490992d6f47d6d5a909f86363c567367a7b9d64736f6c6343000809003352686170736f64792043726561746f722047656e657261746976652052696e6b656279",
  "devdoc": {
    "kind": "dev",
    "methods": {
      "approve(address,uint256)": {
        "details": "See {IERC721-approve}."
      },
      "balanceOf(address)": {
        "details": "See {IERC721-balanceOf}."
      },
      "claimMint(uint256,bytes32[])": {
        "details": "user must mint max invocations",
        "params": {
          "invocations": "number of tokens to mint",
          "proof": "merkle proof to prove address and token mint count are in tree"
        }
      },
      "getApproved(uint256)": {
        "details": "See {IERC721-getApproved}."
      },
      "isApprovedForAll(address,address)": {
        "details": "See {IERC721-isApprovedForAll}."
      },
      "name()": {
        "details": "See {IERC721Metadata-name}."
      },
      "owner()": {
        "details": "Returns the address of the current owner."
      },
      "ownerOf(uint256)": {
        "details": "See {IERC721-ownerOf}."
      },
      "presaleMint(uint256,uint256,bytes32[])": {
        "params": {
          "invocations": "number of tokens to mint",
          "maxInvocation": "max number of invocations of the user",
          "proof": "merkle proof to prove address and token mint count are in tree"
        }
      },
      "promotionMint(uint256)": {
        "params": {
          "invocations": "the number of invocations to batch mint"
        }
      },
      "publicMint(uint256)": {
        "details": "user can only mint less than maxPublicBatchPerAddress of tokens",
        "params": {
          "invocations": "number of tokens to mint"
        }
      },
      "renounceOwnership()": {
        "details": "Leaves the contract without owner. It will not be possible to call `onlyOwner` functions anymore. Can only be called by the current owner. NOTE: Renouncing ownership will leave the contract without an owner, thereby removing any functionality that is only available to the owner."
      },
      "safeTransferFrom(address,address,uint256)": {
        "details": "See {IERC721-safeTransferFrom}."
      },
      "safeTransferFrom(address,address,uint256,bytes)": {
        "details": "See {IERC721-safeTransferFrom}."
      },
      "setApprovalForAll(address,bool)": {
        "details": "See {IERC721-setApprovalForAll}."
      },
      "setClaimMerkleRoot(bytes32)": {
        "params": {
          "_claimMerkleRoot": "root of the merklelized claimlist"
        }
      },
      "setMintTime(uint256,uint256,uint256)": {
        "details": "this function can serve as an \"active\" and \"non-active\" sale statusset the values to uint256(-1) for \"non-active\" sale statusalso, pass contract ownership to address(0) to close sale forever",
        "params": {
          "_presaleTime": "time the presale starts",
          "_publicTime": "time the public sale starts"
        }
      },
      "setOwnersExplicit(uint256)": {
        "details": "eliminate loops in future calls of ownerOf()"
      },
      "setPresaleMerkleRoot(bytes32)": {
        "params": {
          "_presaleMerkleRoot": "root of the merklelized whitelist"
        }
      },
      "supportsInterface(bytes4)": {
        "details": "See {IERC165-supportsInterface}."
      },
      "symbol()": {
        "details": "See {IERC721Metadata-symbol}."
      },
      "tokenURI(uint256)": {
        "details": "See {IERC721Metadata-tokenURI}."
      },
      "totalSupply()": {
        "details": "Burned tokens are calculated here, use _totalMinted() if you want to count just minted tokens."
      },
      "transferFrom(address,address,uint256)": {
        "details": "See {IERC721-transferFrom}."
      },
      "transferOwnership(address)": {
        "details": "Transfers ownership of the contract to a new account (`newOwner`). Can only be called by the current owner."
      }
    },
    "version": 1
  },
  "userdoc": {
    "events": {
      "Created(address,uint256,uint256,bytes32[])": {
        "notice": "============ Events ============"
      }
    },
    "kind": "user",
    "methods": {
      "VERSION()": {
        "notice": "Semver Version"
      },
      "amountForPromotion()": {
        "notice": "promotional nfts count"
      },
      "baseURI()": {
        "notice": "core metadata baseURI used for tokens metadata"
      },
      "claimMerkleRoot()": {
        "notice": "ERC721-claim inclusion root"
      },
      "claimMint(uint256,bytes32[])": {
        "notice": "Allows claim of tokens if address is part of merkle tree"
      },
      "claimTime()": {
        "notice": "time the public starts"
      },
      "maxPublicBatchPerAddress()": {
        "notice": "max mintable tokens for each address in public"
      },
      "mintOf(address)": {
        "notice": "returns the number of mints of an address"
      },
      "mintPrice()": {
        "notice": "mint price of each nft; same for pre/public sale."
      },
      "mintRandomizerContract()": {
        "notice": "the randomizer contract"
      },
      "presaleMerkleRoot()": {
        "notice": "ERC721-presale inclusion root"
      },
      "presaleMint(uint256,uint256,bytes32[])": {
        "notice": "Allows presale minting of tokens if address is part of merkle tree"
      },
      "presaleTime()": {
        "notice": "time the presale starts"
      },
      "promotionMint(uint256)": {
        "notice": "used by owner to mint promotional nfts"
      },
      "publicMint(uint256)": {
        "notice": "Allows public minting of tokens"
      },
      "publicTime()": {
        "notice": "time the public starts"
      },
      "setBaseURI(string)": {
        "notice": "set the new baseURI to change the tokens metadata"
      },
      "setClaimMerkleRoot(bytes32)": {
        "notice": "force override the merkle root used in presale mint"
      },
      "setMintRandomizerContract(address)": {
        "notice": "used the set the mint randomizer for on-chain generative projects"
      },
      "setMintTime(uint256,uint256,uint256)": {
        "notice": "Set the time for the mint"
      },
      "setOwnersExplicit(uint256)": {
        "notice": "sets the owners quantity explicity"
      },
      "setPresaleMerkleRoot(bytes32)": {
        "notice": "force override the merkle root used in presale mint"
      },
      "withdrawMoney()": {
        "notice": "withdraws the ether in the contract to owner"
      }
    },
    "version": 1
  },
  "storageLayout": {
    "storage": [
      {
        "astId": 2978,
        "contract": "contracts/test/helpers/RhapsodyCreatorGenerativeRinkeby.sol:RhapsodyCreatorGenerativeRinkeby",
        "label": "_currentIndex",
        "offset": 0,
        "slot": "0",
        "type": "t_uint256"
      },
      {
        "astId": 2980,
        "contract": "contracts/test/helpers/RhapsodyCreatorGenerativeRinkeby.sol:RhapsodyCreatorGenerativeRinkeby",
        "label": "_burnCounter",
        "offset": 0,
        "slot": "1",
        "type": "t_uint256"
      },
      {
        "astId": 2982,
        "contract": "contracts/test/helpers/RhapsodyCreatorGenerativeRinkeby.sol:RhapsodyCreatorGenerativeRinkeby",
        "label": "_name",
        "offset": 0,
        "slot": "2",
        "type": "t_string_storage"
      },
      {
        "astId": 2984,
        "contract": "contracts/test/helpers/RhapsodyCreatorGenerativeRinkeby.sol:RhapsodyCreatorGenerativeRinkeby",
        "label": "_symbol",
        "offset": 0,
        "slot": "3",
        "type": "t_string_storage"
      },
      {
        "astId": 2989,
        "contract": "contracts/test/helpers/RhapsodyCreatorGenerativeRinkeby.sol:RhapsodyCreatorGenerativeRinkeby",
        "label": "_ownerships",
        "offset": 0,
        "slot": "4",
        "type": "t_mapping(t_uint256,t_struct(TokenOwnership)2967_storage)"
      },
      {
        "astId": 2994,
        "contract": "contracts/test/helpers/RhapsodyCreatorGenerativeRinkeby.sol:RhapsodyCreatorGenerativeRinkeby",
        "label": "_addressData",
        "offset": 0,
        "slot": "5",
        "type": "t_mapping(t_address,t_struct(AddressData)2976_storage)"
      },
      {
        "astId": 2998,
        "contract": "contracts/test/helpers/RhapsodyCreatorGenerativeRinkeby.sol:RhapsodyCreatorGenerativeRinkeby",
        "label": "_tokenApprovals",
        "offset": 0,
        "slot": "6",
        "type": "t_mapping(t_uint256,t_address)"
      },
      {
        "astId": 3004,
        "contract": "contracts/test/helpers/RhapsodyCreatorGenerativeRinkeby.sol:RhapsodyCreatorGenerativeRinkeby",
        "label": "_operatorApprovals",
        "offset": 0,
        "slot": "7",
        "type": "t_mapping(t_address,t_mapping(t_address,t_bool))"
      },
      {
        "astId": 4244,
        "contract": "contracts/test/helpers/RhapsodyCreatorGenerativeRinkeby.sol:RhapsodyCreatorGenerativeRinkeby",
        "label": "nextOwnerToExplicitlySet",
        "offset": 0,
        "slot": "8",
        "type": "t_uint256"
      },
      {
        "astId": 7,
        "contract": "contracts/test/helpers/RhapsodyCreatorGenerativeRinkeby.sol:RhapsodyCreatorGenerativeRinkeby",
        "label": "_owner",
        "offset": 0,
        "slot": "9",
        "type": "t_address"
      },
      {
        "astId": 115,
        "contract": "contracts/test/helpers/RhapsodyCreatorGenerativeRinkeby.sol:RhapsodyCreatorGenerativeRinkeby",
        "label": "_status",
        "offset": 0,
        "slot": "10",
        "type": "t_uint256"
      },
      {
        "astId": 2182,
        "contract": "contracts/test/helpers/RhapsodyCreatorGenerativeRinkeby.sol:RhapsodyCreatorGenerativeRinkeby",
        "label": "presaleMerkleRoot",
        "offset": 0,
        "slot": "11",
        "type": "t_bytes32"
      },
      {
        "astId": 2185,
        "contract": "contracts/test/helpers/RhapsodyCreatorGenerativeRinkeby.sol:RhapsodyCreatorGenerativeRinkeby",
        "label": "claimMerkleRoot",
        "offset": 0,
        "slot": "12",
        "type": "t_bytes32"
      },
      {
        "astId": 2188,
        "contract": "contracts/test/helpers/RhapsodyCreatorGenerativeRinkeby.sol:RhapsodyCreatorGenerativeRinkeby",
        "label": "claimTime",
        "offset": 0,
        "slot": "13",
        "type": "t_uint256"
      },
      {
        "astId": 2191,
        "contract": "contracts/test/helpers/RhapsodyCreatorGenerativeRinkeby.sol:RhapsodyCreatorGenerativeRinkeby",
        "label": "presaleTime",
        "offset": 0,
        "slot": "14",
        "type": "t_uint256"
      },
      {
        "astId": 2194,
        "contract": "contracts/test/helpers/RhapsodyCreatorGenerativeRinkeby.sol:RhapsodyCreatorGenerativeRinkeby",
        "label": "publicTime",
        "offset": 0,
        "slot": "15",
        "type": "t_uint256"
      },
      {
        "astId": 2199,
        "contract": "contracts/test/helpers/RhapsodyCreatorGenerativeRinkeby.sol:RhapsodyCreatorGenerativeRinkeby",
        "label": "_tokenHash",
        "offset": 0,
        "slot": "16",
        "type": "t_mapping(t_uint256,t_bytes32)"
      },
      {
        "astId": 2201,
        "contract": "contracts/test/helpers/RhapsodyCreatorGenerativeRinkeby.sol:RhapsodyCreatorGenerativeRinkeby",
        "label": "_baseTokenURI",
        "offset": 0,
        "slot": "17",
        "type": "t_string_storage"
      },
      {
        "astId": 2205,
        "contract": "contracts/test/helpers/RhapsodyCreatorGenerativeRinkeby.sol:RhapsodyCreatorGenerativeRinkeby",
        "label": "mintRandomizerContract",
        "offset": 0,
        "slot": "18",
        "type": "t_contract(IRandomizer)2910"
      }
    ],
    "types": {
      "t_address": {
        "encoding": "inplace",
        "label": "address",
        "numberOfBytes": "20"
      },
      "t_bool": {
        "encoding": "inplace",
        "label": "bool",
        "numberOfBytes": "1"
      },
      "t_bytes32": {
        "encoding": "inplace",
        "label": "bytes32",
        "numberOfBytes": "32"
      },
      "t_contract(IRandomizer)2910": {
        "encoding": "inplace",
        "label": "contract IRandomizer",
        "numberOfBytes": "20"
      },
      "t_mapping(t_address,t_bool)": {
        "encoding": "mapping",
        "key": "t_address",
        "label": "mapping(address => bool)",
        "numberOfBytes": "32",
        "value": "t_bool"
      },
      "t_mapping(t_address,t_mapping(t_address,t_bool))": {
        "encoding": "mapping",
        "key": "t_address",
        "label": "mapping(address => mapping(address => bool))",
        "numberOfBytes": "32",
        "value": "t_mapping(t_address,t_bool)"
      },
      "t_mapping(t_address,t_struct(AddressData)2976_storage)": {
        "encoding": "mapping",
        "key": "t_address",
        "label": "mapping(address => struct ERC721A.AddressData)",
        "numberOfBytes": "32",
        "value": "t_struct(AddressData)2976_storage"
      },
      "t_mapping(t_uint256,t_address)": {
        "encoding": "mapping",
        "key": "t_uint256",
        "label": "mapping(uint256 => address)",
        "numberOfBytes": "32",
        "value": "t_address"
      },
      "t_mapping(t_uint256,t_bytes32)": {
        "encoding": "mapping",
        "key": "t_uint256",
        "label": "mapping(uint256 => bytes32)",
        "numberOfBytes": "32",
        "value": "t_bytes32"
      },
      "t_mapping(t_uint256,t_struct(TokenOwnership)2967_storage)": {
        "encoding": "mapping",
        "key": "t_uint256",
        "label": "mapping(uint256 => struct ERC721A.TokenOwnership)",
        "numberOfBytes": "32",
        "value": "t_struct(TokenOwnership)2967_storage"
      },
      "t_string_storage": {
        "encoding": "bytes",
        "label": "string",
        "numberOfBytes": "32"
      },
      "t_struct(AddressData)2976_storage": {
        "encoding": "inplace",
        "label": "struct ERC721A.AddressData",
        "members": [
          {
            "astId": 2969,
            "contract": "contracts/test/helpers/RhapsodyCreatorGenerativeRinkeby.sol:RhapsodyCreatorGenerativeRinkeby",
            "label": "balance",
            "offset": 0,
            "slot": "0",
            "type": "t_uint64"
          },
          {
            "astId": 2971,
            "contract": "contracts/test/helpers/RhapsodyCreatorGenerativeRinkeby.sol:RhapsodyCreatorGenerativeRinkeby",
            "label": "numberMinted",
            "offset": 8,
            "slot": "0",
            "type": "t_uint64"
          },
          {
            "astId": 2973,
            "contract": "contracts/test/helpers/RhapsodyCreatorGenerativeRinkeby.sol:RhapsodyCreatorGenerativeRinkeby",
            "label": "numberBurned",
            "offset": 16,
            "slot": "0",
            "type": "t_uint64"
          },
          {
            "astId": 2975,
            "contract": "contracts/test/helpers/RhapsodyCreatorGenerativeRinkeby.sol:RhapsodyCreatorGenerativeRinkeby",
            "label": "aux",
            "offset": 24,
            "slot": "0",
            "type": "t_uint64"
          }
        ],
        "numberOfBytes": "32"
      },
      "t_struct(TokenOwnership)2967_storage": {
        "encoding": "inplace",
        "label": "struct ERC721A.TokenOwnership",
        "members": [
          {
            "astId": 2962,
            "contract": "contracts/test/helpers/RhapsodyCreatorGenerativeRinkeby.sol:RhapsodyCreatorGenerativeRinkeby",
            "label": "addr",
            "offset": 0,
            "slot": "0",
            "type": "t_address"
          },
          {
            "astId": 2964,
            "contract": "contracts/test/helpers/RhapsodyCreatorGenerativeRinkeby.sol:RhapsodyCreatorGenerativeRinkeby",
            "label": "startTimestamp",
            "offset": 20,
            "slot": "0",
            "type": "t_uint64"
          },
          {
            "astId": 2966,
            "contract": "contracts/test/helpers/RhapsodyCreatorGenerativeRinkeby.sol:RhapsodyCreatorGenerativeRinkeby",
            "label": "burned",
            "offset": 28,
            "slot": "0",
            "type": "t_bool"
          }
        ],
        "numberOfBytes": "32"
      },
      "t_uint256": {
        "encoding": "inplace",
        "label": "uint256",
        "numberOfBytes": "32"
      },
      "t_uint64": {
        "encoding": "inplace",
        "label": "uint64",
        "numberOfBytes": "8"
      }
    }
  }
}