{
  "address": "0x91A5d4F6e691432a58d5579ae45955210eC6a2f1",
  "abi": [
    {
      "inputs": [],
      "stateMutability": "nonpayable",
      "type": "constructor"
    },
    {
      "inputs": [],
      "name": "AllOwnershipsHaveBeenSet",
      "type": "error"
    },
    {
      "inputs": [],
      "name": "ApprovalCallerNotOwnerNorApproved",
      "type": "error"
    },
    {
      "inputs": [],
      "name": "ApprovalQueryForNonexistentToken",
      "type": "error"
    },
    {
      "inputs": [],
      "name": "ApprovalToCurrentOwner",
      "type": "error"
    },
    {
      "inputs": [],
      "name": "ApproveToCaller",
      "type": "error"
    },
    {
      "inputs": [],
      "name": "BalanceQueryForZeroAddress",
      "type": "error"
    },
    {
      "inputs": [],
      "name": "HashQueryForNonexistentToken",
      "type": "error"
    },
    {
      "inputs": [],
      "name": "MintToZeroAddress",
      "type": "error"
    },
    {
      "inputs": [],
      "name": "MintZeroQuantity",
      "type": "error"
    },
    {
      "inputs": [],
      "name": "NoTokensMintedYet",
      "type": "error"
    },
    {
      "inputs": [],
      "name": "OwnerQueryForNonexistentToken",
      "type": "error"
    },
    {
      "inputs": [],
      "name": "QuantityMustBeNonZero",
      "type": "error"
    },
    {
      "inputs": [],
      "name": "TransferCallerNotOwnerNorApproved",
      "type": "error"
    },
    {
      "inputs": [],
      "name": "TransferFromIncorrectOwner",
      "type": "error"
    },
    {
      "inputs": [],
      "name": "TransferToNonERC721ReceiverImplementer",
      "type": "error"
    },
    {
      "inputs": [],
      "name": "TransferToZeroAddress",
      "type": "error"
    },
    {
      "inputs": [],
      "name": "URIQueryForNonexistentToken",
      "type": "error"
    },
    {
      "anonymous": false,
      "inputs": [
        {
          "indexed": true,
          "internalType": "address",
          "name": "owner",
          "type": "address"
        },
        {
          "indexed": true,
          "internalType": "address",
          "name": "approved",
          "type": "address"
        },
        {
          "indexed": true,
          "internalType": "uint256",
          "name": "tokenId",
          "type": "uint256"
        }
      ],
      "name": "Approval",
      "type": "event"
    },
    {
      "anonymous": false,
      "inputs": [
        {
          "indexed": true,
          "internalType": "address",
          "name": "owner",
          "type": "address"
        },
        {
          "indexed": true,
          "internalType": "address",
          "name": "operator",
          "type": "address"
        },
        {
          "indexed": false,
          "internalType": "bool",
          "name": "approved",
          "type": "bool"
        }
      ],
      "name": "ApprovalForAll",
      "type": "event"
    },
    {
      "anonymous": false,
      "inputs": [
        {
          "indexed": true,
          "internalType": "address",
          "name": "to",
          "type": "address"
        },
        {
          "indexed": false,
          "internalType": "uint256",
          "name": "currentTotalSupply",
          "type": "uint256"
        },
        {
          "indexed": false,
          "internalType": "uint256",
          "name": "invocations",
          "type": "uint256"
        },
        {
          "indexed": false,
          "internalType": "bytes32[]",
          "name": "identifiers",
          "type": "bytes32[]"
        }
      ],
      "name": "Created",
      "type": "event"
    },
    {
      "anonymous": false,
      "inputs": [
        {
          "indexed": true,
          "internalType": "address",
          "name": "previousOwner",
          "type": "address"
        },
        {
          "indexed": true,
          "internalType": "address",
          "name": "newOwner",
          "type": "address"
        }
      ],
      "name": "OwnershipTransferred",
      "type": "event"
    },
    {
      "anonymous": false,
      "inputs": [
        {
          "indexed": true,
          "internalType": "address",
          "name": "from",
          "type": "address"
        },
        {
          "indexed": true,
          "internalType": "address",
          "name": "to",
          "type": "address"
        },
        {
          "indexed": true,
          "internalType": "uint256",
          "name": "tokenId",
          "type": "uint256"
        }
      ],
      "name": "Transfer",
      "type": "event"
    },
    {
      "inputs": [],
      "name": "amountForPromotion",
      "outputs": [
        {
          "internalType": "uint256",
          "name": "",
          "type": "uint256"
        }
      ],
      "stateMutability": "view",
      "type": "function"
    },
    {
      "inputs": [
        {
          "internalType": "address",
          "name": "to",
          "type": "address"
        },
        {
          "internalType": "uint256",
          "name": "tokenId",
          "type": "uint256"
        }
      ],
      "name": "approve",
      "outputs": [],
      "stateMutability": "nonpayable",
      "type": "function"
    },
    {
      "inputs": [
        {
          "internalType": "address",
          "name": "owner",
          "type": "address"
        }
      ],
      "name": "balanceOf",
      "outputs": [
        {
          "internalType": "uint256",
          "name": "",
          "type": "uint256"
        }
      ],
      "stateMutability": "view",
      "type": "function"
    },
    {
      "inputs": [],
      "name": "baseURI",
      "outputs": [
        {
          "internalType": "string",
          "name": "",
          "type": "string"
        }
      ],
      "stateMutability": "view",
      "type": "function"
    },
    {
      "inputs": [],
      "name": "claimMerkleRoot",
      "outputs": [
        {
          "internalType": "bytes32",
          "name": "",
          "type": "bytes32"
        }
      ],
      "stateMutability": "view",
      "type": "function"
    },
    {
      "inputs": [
        {
          "internalType": "uint256",
          "name": "invocations",
          "type": "uint256"
        },
        {
          "internalType": "bytes32[]",
          "name": "proof",
          "type": "bytes32[]"
        }
      ],
      "name": "claimMint",
      "outputs": [],
      "stateMutability": "nonpayable",
      "type": "function"
    },
    {
      "inputs": [],
      "name": "claimTime",
      "outputs": [
        {
          "internalType": "uint256",
          "name": "",
          "type": "uint256"
        }
      ],
      "stateMutability": "view",
      "type": "function"
    },
    {
      "inputs": [
        {
          "internalType": "uint256",
          "name": "tokenId",
          "type": "uint256"
        }
      ],
      "name": "getApproved",
      "outputs": [
        {
          "internalType": "address",
          "name": "",
          "type": "address"
        }
      ],
      "stateMutability": "view",
      "type": "function"
    },
    {
      "inputs": [
        {
          "internalType": "address",
          "name": "owner",
          "type": "address"
        },
        {
          "internalType": "address",
          "name": "operator",
          "type": "address"
        }
      ],
      "name": "isApprovedForAll",
      "outputs": [
        {
          "internalType": "bool",
          "name": "",
          "type": "bool"
        }
      ],
      "stateMutability": "view",
      "type": "function"
    },
    {
      "inputs": [],
      "name": "maxPublicBatchPerAddress",
      "outputs": [
        {
          "internalType": "uint256",
          "name": "",
          "type": "uint256"
        }
      ],
      "stateMutability": "view",
      "type": "function"
    },
    {
      "inputs": [
        {
          "internalType": "address",
          "name": "_owner",
          "type": "address"
        }
      ],
      "name": "mintOf",
      "outputs": [
        {
          "internalType": "uint256",
          "name": "",
          "type": "uint256"
        }
      ],
      "stateMutability": "view",
      "type": "function"
    },
    {
      "inputs": [],
      "name": "mintPrice",
      "outputs": [
        {
          "internalType": "uint256",
          "name": "",
          "type": "uint256"
        }
      ],
      "stateMutability": "view",
      "type": "function"
    },
    {
      "inputs": [],
      "name": "mintRandomizerContract",
      "outputs": [
        {
          "internalType": "contract IRandomizer",
          "name": "",
          "type": "address"
        }
      ],
      "stateMutability": "view",
      "type": "function"
    },
    {
      "inputs": [],
      "name": "name",
      "outputs": [
        {
          "internalType": "string",
          "name": "",
          "type": "string"
        }
      ],
      "stateMutability": "view",
      "type": "function"
    },
    {
      "inputs": [],
      "name": "nextOwnerToExplicitlySet",
      "outputs": [
        {
          "internalType": "uint256",
          "name": "",
          "type": "uint256"
        }
      ],
      "stateMutability": "view",
      "type": "function"
    },
    {
      "inputs": [],
      "name": "owner",
      "outputs": [
        {
          "internalType": "address",
          "name": "",
          "type": "address"
        }
      ],
      "stateMutability": "view",
      "type": "function"
    },
    {
      "inputs": [
        {
          "internalType": "uint256",
          "name": "tokenId",
          "type": "uint256"
        }
      ],
      "name": "ownerOf",
      "outputs": [
        {
          "internalType": "address",
          "name": "",
          "type": "address"
        }
      ],
      "stateMutability": "view",
      "type": "function"
    },
    {
      "inputs": [],
      "name": "presaleMerkleRoot",
      "outputs": [
        {
          "internalType": "bytes32",
          "name": "",
          "type": "bytes32"
        }
      ],
      "stateMutability": "view",
      "type": "function"
    },
    {
      "inputs": [
        {
          "internalType": "uint256",
          "name": "invocations",
          "type": "uint256"
        },
        {
          "internalType": "uint256",
          "name": "maxInvocation",
          "type": "uint256"
        },
        {
          "internalType": "bytes32[]",
          "name": "proof",
          "type": "bytes32[]"
        }
      ],
      "name": "presaleMint",
      "outputs": [],
      "stateMutability": "payable",
      "type": "function"
    },
    {
      "inputs": [],
      "name": "presaleTime",
      "outputs": [
        {
          "internalType": "uint256",
          "name": "",
          "type": "uint256"
        }
      ],
      "stateMutability": "view",
      "type": "function"
    },
    {
      "inputs": [
        {
          "internalType": "uint256",
          "name": "invocations",
          "type": "uint256"
        }
      ],
      "name": "promotionMint",
      "outputs": [],
      "stateMutability": "nonpayable",
      "type": "function"
    },
    {
      "inputs": [
        {
          "internalType": "uint256",
          "name": "invocations",
          "type": "uint256"
        }
      ],
      "name": "publicMint",
      "outputs": [],
      "stateMutability": "payable",
      "type": "function"
    },
    {
      "inputs": [],
      "name": "publicTime",
      "outputs": [
        {
          "internalType": "uint256",
          "name": "",
          "type": "uint256"
        }
      ],
      "stateMutability": "view",
      "type": "function"
    },
    {
      "inputs": [],
      "name": "renounceOwnership",
      "outputs": [],
      "stateMutability": "nonpayable",
      "type": "function"
    },
    {
      "inputs": [
        {
          "internalType": "address",
          "name": "from",
          "type": "address"
        },
        {
          "internalType": "address",
          "name": "to",
          "type": "address"
        },
        {
          "internalType": "uint256",
          "name": "tokenId",
          "type": "uint256"
        }
      ],
      "name": "safeTransferFrom",
      "outputs": [],
      "stateMutability": "nonpayable",
      "type": "function"
    },
    {
      "inputs": [
        {
          "internalType": "address",
          "name": "from",
          "type": "address"
        },
        {
          "internalType": "address",
          "name": "to",
          "type": "address"
        },
        {
          "internalType": "uint256",
          "name": "tokenId",
          "type": "uint256"
        },
        {
          "internalType": "bytes",
          "name": "_data",
          "type": "bytes"
        }
      ],
      "name": "safeTransferFrom",
      "outputs": [],
      "stateMutability": "nonpayable",
      "type": "function"
    },
    {
      "inputs": [
        {
          "internalType": "address",
          "name": "operator",
          "type": "address"
        },
        {
          "internalType": "bool",
          "name": "approved",
          "type": "bool"
        }
      ],
      "name": "setApprovalForAll",
      "outputs": [],
      "stateMutability": "nonpayable",
      "type": "function"
    },
    {
      "inputs": [
        {
          "internalType": "string",
          "name": "newBaseURI",
          "type": "string"
        }
      ],
      "name": "setBaseURI",
      "outputs": [],
      "stateMutability": "nonpayable",
      "type": "function"
    },
    {
      "inputs": [
        {
          "internalType": "bytes32",
          "name": "_claimMerkleRoot",
          "type": "bytes32"
        }
      ],
      "name": "setClaimMerkleRoot",
      "outputs": [],
      "stateMutability": "nonpayable",
      "type": "function"
    },
    {
      "inputs": [
        {
          "internalType": "address",
          "name": "_mintRandomizerContract",
          "type": "address"
        }
      ],
      "name": "setMintRandomizerContract",
      "outputs": [],
      "stateMutability": "nonpayable",
      "type": "function"
    },
    {
      "inputs": [
        {
          "internalType": "uint256",
          "name": "_claimTime",
          "type": "uint256"
        },
        {
          "internalType": "uint256",
          "name": "_presaleTime",
          "type": "uint256"
        },
        {
          "internalType": "uint256",
          "name": "_publicTime",
          "type": "uint256"
        }
      ],
      "name": "setMintTime",
      "outputs": [],
      "stateMutability": "nonpayable",
      "type": "function"
    },
    {
      "inputs": [
        {
          "internalType": "uint256",
          "name": "quantity",
          "type": "uint256"
        }
      ],
      "name": "setOwnersExplicit",
      "outputs": [],
      "stateMutability": "nonpayable",
      "type": "function"
    },
    {
      "inputs": [
        {
          "internalType": "bytes32",
          "name": "_presaleMerkleRoot",
          "type": "bytes32"
        }
      ],
      "name": "setPresaleMerkleRoot",
      "outputs": [],
      "stateMutability": "nonpayable",
      "type": "function"
    },
    {
      "inputs": [
        {
          "internalType": "bytes4",
          "name": "interfaceId",
          "type": "bytes4"
        }
      ],
      "name": "supportsInterface",
      "outputs": [
        {
          "internalType": "bool",
          "name": "",
          "type": "bool"
        }
      ],
      "stateMutability": "view",
      "type": "function"
    },
    {
      "inputs": [],
      "name": "symbol",
      "outputs": [
        {
          "internalType": "string",
          "name": "",
          "type": "string"
        }
      ],
      "stateMutability": "view",
      "type": "function"
    },
    {
      "inputs": [
        {
          "internalType": "uint256",
          "name": "_tokenId",
          "type": "uint256"
        }
      ],
      "name": "tokenHash",
      "outputs": [
        {
          "internalType": "bytes32",
          "name": "",
          "type": "bytes32"
        }
      ],
      "stateMutability": "view",
      "type": "function"
    },
    {
      "inputs": [
        {
          "internalType": "uint256",
          "name": "tokenId",
          "type": "uint256"
        }
      ],
      "name": "tokenURI",
      "outputs": [
        {
          "internalType": "string",
          "name": "",
          "type": "string"
        }
      ],
      "stateMutability": "view",
      "type": "function"
    },
    {
      "inputs": [],
      "name": "totalSupply",
      "outputs": [
        {
          "internalType": "uint256",
          "name": "",
          "type": "uint256"
        }
      ],
      "stateMutability": "view",
      "type": "function"
    },
    {
      "inputs": [
        {
          "internalType": "address",
          "name": "from",
          "type": "address"
        },
        {
          "internalType": "address",
          "name": "to",
          "type": "address"
        },
        {
          "internalType": "uint256",
          "name": "tokenId",
          "type": "uint256"
        }
      ],
      "name": "transferFrom",
      "outputs": [],
      "stateMutability": "nonpayable",
      "type": "function"
    },
    {
      "inputs": [
        {
          "internalType": "address",
          "name": "newOwner",
          "type": "address"
        }
      ],
      "name": "transferOwnership",
      "outputs": [],
      "stateMutability": "nonpayable",
      "type": "function"
    },
    {
      "inputs": [],
      "name": "withdrawMoney",
      "outputs": [],
      "stateMutability": "nonpayable",
      "type": "function"
    }
  ],
  "transactionHash": "0x2555dcc35c3c72b754a5862a43c0d082426910de3c11aeccb2833294f38ad1f9",
  "args": [],
  "numDeployments": 1,
  "solcInputHash": "c3137584e277bcae9085ca4f97cf6da6",
  "bytecode": "0x6101006040523480156200001257600080fd5b506040518060400160405280601b81526020017f5245464c454354494f4e53206279204a61636f62205269676c696e00000000008152506040518060400160405280600b81526020017f5245464c454354494f4e530000000000000000000000000000000000000000008152506104576002602867049f0dbc5634800085858160029080519060200190620000a9929190620002d4565b508060039080519060200190620000c2929190620002d4565b50620000d36200020160201b60201c565b6000819055505050620000fb620000ef6200020660201b60201c565b6200020e60201b60201c565b6001600a819055506000841162000149576040517f08c379a000000000000000000000000000000000000000000000000000000000815260040162000140906200040b565b60405180910390fd5b838211156200018f576040517f08c379a00000000000000000000000000000000000000000000000000000000081526004016200018690620004a3565b60405180910390fd5b60008111620001d5576040517f08c379a0000000000000000000000000000000000000000000000000000000008152600401620001cc906200053b565b60405180910390fd5b8360e081815250508260a0818152505081608081815250508060c08181525050505050505050620005c2565b600090565b600033905090565b6000600960009054906101000a900473ffffffffffffffffffffffffffffffffffffffff16905081600960006101000a81548173ffffffffffffffffffffffffffffffffffffffff021916908373ffffffffffffffffffffffffffffffffffffffff1602179055508173ffffffffffffffffffffffffffffffffffffffff168173ffffffffffffffffffffffffffffffffffffffff167f8be0079c531659141344cd1fd0a4f28419497f9722a3daafe3b4186f6b6457e060405160405180910390a35050565b828054620002e2906200058c565b90600052602060002090601f01602090048101928262000306576000855562000352565b82601f106200032157805160ff191683800117855562000352565b8280016001018555821562000352579182015b828111156200035157825182559160200191906001019062000334565b5b50905062000361919062000365565b5090565b5b808211156200038057600081600090555060010162000366565b5090565b600082825260208201905092915050565b7f52686170736f647943726561746f7247656e657261746976652f696e76616c6960008201527f642d636f6c6c656374696f6e2d73697a65000000000000000000000000000000602082015250565b6000620003f360318362000384565b9150620004008262000395565b604082019050919050565b600060208201905081810360008301526200042681620003e4565b9050919050565b7f52686170736f647943726561746f7247656e657261746976652f696e76616c6960008201527f642d70726f6d6f74696f6e2d616d6f756e740000000000000000000000000000602082015250565b60006200048b60328362000384565b915062000498826200042d565b604082019050919050565b60006020820190508181036000830152620004be816200047c565b9050919050565b7f52686170736f647943726561746f7247656e657261746976652f696e76616c6960008201527f642d6d696e742d70726963650000000000000000000000000000000000000000602082015250565b600062000523602c8362000384565b91506200053082620004c5565b604082019050919050565b60006020820190508181036000830152620005568162000514565b9050919050565b7f4e487b7100000000000000000000000000000000000000000000000000000000600052602260045260246000fd5b60006002820490506001821680620005a557607f821691505b60208210811415620005bc57620005bb6200055d565b5b50919050565b60805160a05160c05160e05161551e6200062d60003960008181610e3f015281816113a30152611a0c015260008181610f60015281816114c4015261177201526000818161131401528181611ee1015261220e015260008181611c010152612190015261551e6000f3fe6080604052600436106102465760003560e01c806370a0823111610139578063a4babffd116100b6578063c6e62e0b1161007a578063c6e62e0b1461083a578063c87b56dd14610865578063d7224ba0146108a2578063e985e9c5146108cd578063f2fde38b1461090a578063fd1e29621461093357610246565b8063a4babffd14610769578063ac44600214610794578063b1f536fa146107ab578063b88d4fde146107e8578063ba2f59c81461081157610246565b806395d89b41116100fd57806395d89b4114610682578063993670f2146106ad5780639c4dab52146106d8578063a22cb46514610703578063a38643971461072c57610246565b806370a08231146105af578063715018a6146105ec57806372830dfd1461060357806376972db21461062c5780638da5cb5b1461065757610246565b806327b3bf11116101c757806355f804b31161018b57806355f804b3146104ca578063617aa43c146104f35780636352211e1461051c5780636817c76c146105595780636c0360eb1461058457610246565b806327b3bf111461040857806328d7b276146104335780632d20fb601461045c5780632db115441461048557806342842e0e146104a157610246565b806318160ddd1161020e57806318160ddd146103425780631b59169d1461036d5780631bdc608e1461038957806322212e2b146103b457806323b872dd146103df57610246565b806301ffc9a71461024b57806306fdde0314610288578063081812fc146102b3578063095ea7b3146102f057806317ccc54b14610319575b600080fd5b34801561025757600080fd5b50610272600480360381019061026d9190613df7565b61095c565b60405161027f9190613e3f565b60405180910390f35b34801561029457600080fd5b5061029d610a3e565b6040516102aa9190613ef3565b60405180910390f35b3480156102bf57600080fd5b506102da60048036038101906102d59190613f4b565b610ad0565b6040516102e79190613fb9565b60405180910390f35b3480156102fc57600080fd5b5061031760048036038101906103129190614000565b610b4c565b005b34801561032557600080fd5b50610340600480360381019061033b9190614040565b610c57565b005b34801561034e57600080fd5b50610357610d17565b604051610364919061407c565b60405180910390f35b610387600480360381019061038291906140fc565b610d2e565b005b34801561039557600080fd5b5061039e6110ec565b6040516103ab919061407c565b60405180910390f35b3480156103c057600080fd5b506103c96110f2565b6040516103d69190614189565b60405180910390f35b3480156103eb57600080fd5b50610406600480360381019061040191906141a4565b6110f8565b005b34801561041457600080fd5b5061041d611108565b60405161042a919061407c565b60405180910390f35b34801561043f57600080fd5b5061045a60048036038101906104559190614223565b61110e565b005b34801561046857600080fd5b50610483600480360381019061047e9190613f4b565b611194565b005b61049f600480360381019061049a9190613f4b565b611272565b005b3480156104ad57600080fd5b506104c860048036038101906104c391906141a4565b61158e565b005b3480156104d657600080fd5b506104f160048036038101906104ec91906142a6565b6115ae565b005b3480156104ff57600080fd5b5061051a600480360381019061051591906142f3565b611640565b005b34801561052857600080fd5b50610543600480360381019061053e9190613f4b565b61175a565b6040516105509190613fb9565b60405180910390f35b34801561056557600080fd5b5061056e611770565b60405161057b919061407c565b60405180910390f35b34801561059057600080fd5b50610599611794565b6040516105a69190613ef3565b60405180910390f35b3480156105bb57600080fd5b506105d660048036038101906105d19190614040565b6117a3565b6040516105e3919061407c565b60405180910390f35b3480156105f857600080fd5b50610601611873565b005b34801561060f57600080fd5b5061062a60048036038101906106259190614346565b6118fb565b005b34801561063857600080fd5b50610641611bff565b60405161064e919061407c565b60405180910390f35b34801561066357600080fd5b5061066c611c23565b6040516106799190613fb9565b60405180910390f35b34801561068e57600080fd5b50610697611c4d565b6040516106a49190613ef3565b60405180910390f35b3480156106b957600080fd5b506106c2611cdf565b6040516106cf9190614405565b60405180910390f35b3480156106e457600080fd5b506106ed611d05565b6040516106fa9190614189565b60405180910390f35b34801561070f57600080fd5b5061072a6004803603810190610725919061444c565b611d0b565b005b34801561073857600080fd5b50610753600480360381019061074e9190613f4b565b611e83565b6040516107609190614189565b60405180910390f35b34801561077557600080fd5b5061077e611edf565b60405161078b919061407c565b60405180910390f35b3480156107a057600080fd5b506107a9611f03565b005b3480156107b757600080fd5b506107d260048036038101906107cd9190614040565b612084565b6040516107df919061407c565b60405180910390f35b3480156107f457600080fd5b5061080f600480360381019061080a91906145bc565b612096565b005b34801561081d57600080fd5b5061083860048036038101906108339190613f4b565b612112565b005b34801561084657600080fd5b5061084f6122c9565b60405161085c919061407c565b60405180910390f35b34801561087157600080fd5b5061088c60048036038101906108879190613f4b565b6122cf565b6040516108999190613ef3565b60405180910390f35b3480156108ae57600080fd5b506108b761236e565b6040516108c4919061407c565b60405180910390f35b3480156108d957600080fd5b506108f460048036038101906108ef919061463f565b612374565b6040516109019190613e3f565b60405180910390f35b34801561091657600080fd5b50610931600480360381019061092c9190614040565b612408565b005b34801561093f57600080fd5b5061095a60048036038101906109559190614223565b612500565b005b60007f80ac58cd000000000000000000000000000000000000000000000000000000007bffffffffffffffffffffffffffffffffffffffffffffffffffffffff1916827bffffffffffffffffffffffffffffffffffffffffffffffffffffffff19161480610a2757507f5b5e139f000000000000000000000000000000000000000000000000000000007bffffffffffffffffffffffffffffffffffffffffffffffffffffffff1916827bffffffffffffffffffffffffffffffffffffffffffffffffffffffff1916145b80610a375750610a3682612586565b5b9050919050565b606060028054610a4d906146ae565b80601f0160208091040260200160405190810160405280929190818152602001828054610a79906146ae565b8015610ac65780601f10610a9b57610100808354040283529160200191610ac6565b820191906000526020600020905b815481529060010190602001808311610aa957829003601f168201915b5050505050905090565b6000610adb826125f0565b610b11576040517fcf4700e400000000000000000000000000000000000000000000000000000000815260040160405180910390fd5b6006600083815260200190815260200160002060009054906101000a900473ffffffffffffffffffffffffffffffffffffffff169050919050565b6000610b578261175a565b90508073ffffffffffffffffffffffffffffffffffffffff168373ffffffffffffffffffffffffffffffffffffffff161415610bbf576040517f943f7b8c00000000000000000000000000000000000000000000000000000000815260040160405180910390fd5b8073ffffffffffffffffffffffffffffffffffffffff16610bde61263e565b73ffffffffffffffffffffffffffffffffffffffff1614158015610c105750610c0e81610c0961263e565b612374565b155b15610c47576040517fcfb3b94200000000000000000000000000000000000000000000000000000000815260040160405180910390fd5b610c52838383612646565b505050565b610c5f61263e565b73ffffffffffffffffffffffffffffffffffffffff16610c7d611c23565b73ffffffffffffffffffffffffffffffffffffffff1614610cd3576040517f08c379a0000000000000000000000000000000000000000000000000000000008152600401610cca9061472c565b60405180910390fd5b80601260006101000a81548173ffffffffffffffffffffffffffffffffffffffff021916908373ffffffffffffffffffffffffffffffffffffffff16021790555050565b6000610d216126f8565b6001546000540303905090565b6002600a541415610d74576040517f08c379a0000000000000000000000000000000000000000000000000000000008152600401610d6b90614798565b60405180910390fd5b6002600a81905550600e54600081118015610d8e57508042115b610dcd576040517f08c379a0000000000000000000000000000000000000000000000000000000008152600401610dc49061482a565b60405180910390fd5b84843373ffffffffffffffffffffffffffffffffffffffff163273ffffffffffffffffffffffffffffffffffffffff1614610e3d576040517f08c379a0000000000000000000000000000000000000000000000000000000008152600401610e34906148bc565b60405180910390fd5b7f0000000000000000000000000000000000000000000000000000000000000000610e7883610e6a610d17565b6126fd90919063ffffffff16565b1115610eb9576040517f08c379a0000000000000000000000000000000000000000000000000000000008152600401610eb09061494e565b60405180910390fd5b80610ed583610ec733612713565b6126fd90919063ffffffff16565b1115610f16576040517f08c379a0000000000000000000000000000000000000000000000000000000008152600401610f0d906149e0565b60405180910390fd5b60008211610f59576040517f08c379a0000000000000000000000000000000000000000000000000000000008152600401610f5090614a72565b60405180910390fd5b86610f8d817f000000000000000000000000000000000000000000000000000000000000000061272590919063ffffffff16565b3414610fce576040517f08c379a0000000000000000000000000000000000000000000000000000000008152600401610fc590614b04565b60405180910390fd5b60003411611011576040517f08c379a000000000000000000000000000000000000000000000000000000000815260040161100890614a72565b60405180910390fd5b86338787600b5461108c838380806020026020016040519081016040528093929190818152602001838360200280828437600081840152601f19601f82011690508083019250505050505050828688604051602001611071929190614b8d565b6040516020818303038152906040528051906020012061273b565b6110cb576040517f08c379a00000000000000000000000000000000000000000000000000000000081526004016110c290614c2b565b60405180910390fd5b6110d5338e612752565b5050505050505050506001600a8190555050505050565b600f5481565b600b5481565b6111038383836128a2565b505050565b600d5481565b61111661263e565b73ffffffffffffffffffffffffffffffffffffffff16611134611c23565b73ffffffffffffffffffffffffffffffffffffffff161461118a576040517f08c379a00000000000000000000000000000000000000000000000000000000081526004016111819061472c565b60405180910390fd5b80600b8190555050565b61119c61263e565b73ffffffffffffffffffffffffffffffffffffffff166111ba611c23565b73ffffffffffffffffffffffffffffffffffffffff1614611210576040517f08c379a00000000000000000000000000000000000000000000000000000000081526004016112079061472c565b60405180910390fd5b6002600a541415611256576040517f08c379a000000000000000000000000000000000000000000000000000000000815260040161124d90614798565b60405180910390fd5b6002600a8190555061126781612d58565b6001600a8190555050565b6002600a5414156112b8576040517f08c379a00000000000000000000000000000000000000000000000000000000081526004016112af90614798565b60405180910390fd5b6002600a81905550600f546000811180156112d257508042115b611311576040517f08c379a00000000000000000000000000000000000000000000000000000000081526004016113089061482a565b60405180910390fd5b817f00000000000000000000000000000000000000000000000000000000000000003373ffffffffffffffffffffffffffffffffffffffff163273ffffffffffffffffffffffffffffffffffffffff16146113a1576040517f08c379a0000000000000000000000000000000000000000000000000000000008152600401611398906148bc565b60405180910390fd5b7f00000000000000000000000000000000000000000000000000000000000000006113dc836113ce610d17565b6126fd90919063ffffffff16565b111561141d576040517f08c379a00000000000000000000000000000000000000000000000000000000081526004016114149061494e565b60405180910390fd5b806114398361142b33612713565b6126fd90919063ffffffff16565b111561147a576040517f08c379a0000000000000000000000000000000000000000000000000000000008152600401611471906149e0565b60405180910390fd5b600082116114bd576040517f08c379a00000000000000000000000000000000000000000000000000000000081526004016114b490614a72565b60405180910390fd5b836114f1817f000000000000000000000000000000000000000000000000000000000000000061272590919063ffffffff16565b3414611532576040517f08c379a000000000000000000000000000000000000000000000000000000000815260040161152990614b04565b60405180910390fd5b60003411611575576040517f08c379a000000000000000000000000000000000000000000000000000000000815260040161156c90614a72565b60405180910390fd5b61157f3386612752565b505050506001600a8190555050565b6115a983838360405180602001604052806000815250612096565b505050565b6115b661263e565b73ffffffffffffffffffffffffffffffffffffffff166115d4611c23565b73ffffffffffffffffffffffffffffffffffffffff161461162a576040517f08c379a00000000000000000000000000000000000000000000000000000000081526004016116219061472c565b60405180910390fd5b81816011919061163b929190613ca5565b505050565b61164861263e565b73ffffffffffffffffffffffffffffffffffffffff16611666611c23565b73ffffffffffffffffffffffffffffffffffffffff16146116bc576040517f08c379a00000000000000000000000000000000000000000000000000000000081526004016116b39061472c565b60405180910390fd5b8282116116fe576040517f08c379a00000000000000000000000000000000000000000000000000000000081526004016116f590614cbd565b60405180910390fd5b818111611740576040517f08c379a000000000000000000000000000000000000000000000000000000000815260040161173790614d4f565b60405180910390fd5b82600d8190555081600e8190555080600f81905550505050565b600061176582612fb7565b600001519050919050565b7f000000000000000000000000000000000000000000000000000000000000000081565b606061179e613246565b905090565b60008073ffffffffffffffffffffffffffffffffffffffff168273ffffffffffffffffffffffffffffffffffffffff16141561180b576040517f8f4eb60400000000000000000000000000000000000000000000000000000000815260040160405180910390fd5b600560008373ffffffffffffffffffffffffffffffffffffffff1673ffffffffffffffffffffffffffffffffffffffff16815260200190815260200160002060000160009054906101000a900467ffffffffffffffff1667ffffffffffffffff169050919050565b61187b61263e565b73ffffffffffffffffffffffffffffffffffffffff16611899611c23565b73ffffffffffffffffffffffffffffffffffffffff16146118ef576040517f08c379a00000000000000000000000000000000000000000000000000000000081526004016118e69061472c565b60405180910390fd5b6118f960006132d8565b565b6002600a541415611941576040517f08c379a000000000000000000000000000000000000000000000000000000000815260040161193890614798565b60405180910390fd5b6002600a81905550600d5460008111801561195b57508042115b61199a576040517f08c379a00000000000000000000000000000000000000000000000000000000081526004016119919061482a565b60405180910390fd5b83843373ffffffffffffffffffffffffffffffffffffffff163273ffffffffffffffffffffffffffffffffffffffff1614611a0a576040517f08c379a0000000000000000000000000000000000000000000000000000000008152600401611a01906148bc565b60405180910390fd5b7f0000000000000000000000000000000000000000000000000000000000000000611a4583611a37610d17565b6126fd90919063ffffffff16565b1115611a86576040517f08c379a0000000000000000000000000000000000000000000000000000000008152600401611a7d9061494e565b60405180910390fd5b80611aa283611a9433612713565b6126fd90919063ffffffff16565b1115611ae3576040517f08c379a0000000000000000000000000000000000000000000000000000000008152600401611ada906149e0565b60405180910390fd5b60008211611b26576040517f08c379a0000000000000000000000000000000000000000000000000000000008152600401611b1d90614a72565b60405180910390fd5b85338686600c54611ba1838380806020026020016040519081016040528093929190818152602001838360200280828437600081840152601f19601f82011690508083019250505050505050828688604051602001611b86929190614b8d565b6040516020818303038152906040528051906020012061273b565b611be0576040517f08c379a0000000000000000000000000000000000000000000000000000000008152600401611bd790614c2b565b60405180910390fd5b611bea338c612752565b50505050505050506001600a81905550505050565b7f000000000000000000000000000000000000000000000000000000000000000081565b6000600960009054906101000a900473ffffffffffffffffffffffffffffffffffffffff16905090565b606060038054611c5c906146ae565b80601f0160208091040260200160405190810160405280929190818152602001828054611c88906146ae565b8015611cd55780601f10611caa57610100808354040283529160200191611cd5565b820191906000526020600020905b815481529060010190602001808311611cb857829003601f168201915b5050505050905090565b601260009054906101000a900473ffffffffffffffffffffffffffffffffffffffff1681565b600c5481565b611d1361263e565b73ffffffffffffffffffffffffffffffffffffffff168273ffffffffffffffffffffffffffffffffffffffff161415611d78576040517fb06307db00000000000000000000000000000000000000000000000000000000815260040160405180910390fd5b8060076000611d8561263e565b73ffffffffffffffffffffffffffffffffffffffff1673ffffffffffffffffffffffffffffffffffffffff16815260200190815260200160002060008473ffffffffffffffffffffffffffffffffffffffff1673ffffffffffffffffffffffffffffffffffffffff16815260200190815260200160002060006101000a81548160ff0219169083151502179055508173ffffffffffffffffffffffffffffffffffffffff16611e3261263e565b73ffffffffffffffffffffffffffffffffffffffff167f17307eab39ab6107e8899845ad3d59bd9653f200f220920489ca2b5937696c3183604051611e779190613e3f565b60405180910390a35050565b6000611e8e826125f0565b611ec4576040517f963eb14f00000000000000000000000000000000000000000000000000000000815260040160405180910390fd5b60106000838152602001908152602001600020549050919050565b7f000000000000000000000000000000000000000000000000000000000000000081565b611f0b61263e565b73ffffffffffffffffffffffffffffffffffffffff16611f29611c23565b73ffffffffffffffffffffffffffffffffffffffff1614611f7f576040517f08c379a0000000000000000000000000000000000000000000000000000000008152600401611f769061472c565b60405180910390fd5b6002600a541415611fc5576040517f08c379a0000000000000000000000000000000000000000000000000000000008152600401611fbc90614798565b60405180910390fd5b6002600a8190555060003373ffffffffffffffffffffffffffffffffffffffff1647604051611ff390614da0565b60006040518083038185875af1925050503d8060008114612030576040519150601f19603f3d011682016040523d82523d6000602084013e612035565b606091505b5050905080612079576040517f08c379a000000000000000000000000000000000000000000000000000000000815260040161207090614e27565b60405180910390fd5b506001600a81905550565b600061208f82612713565b9050919050565b6120a18484846128a2565b6120c08373ffffffffffffffffffffffffffffffffffffffff1661339e565b80156120d557506120d3848484846133c1565b155b1561210c576040517fd1a57ed600000000000000000000000000000000000000000000000000000000815260040160405180910390fd5b50505050565b61211a61263e565b73ffffffffffffffffffffffffffffffffffffffff16612138611c23565b73ffffffffffffffffffffffffffffffffffffffff161461218e576040517f08c379a00000000000000000000000000000000000000000000000000000000081526004016121859061472c565b60405180910390fd5b7f00000000000000000000000000000000000000000000000000000000000000006121c9826121bb610d17565b6126fd90919063ffffffff16565b111561220a576040517f08c379a000000000000000000000000000000000000000000000000000000000815260040161220190614eb9565b60405180910390fd5b60007f000000000000000000000000000000000000000000000000000000000000000090506000612244828461352190919063ffffffff16565b14612284576040517f08c379a000000000000000000000000000000000000000000000000000000000815260040161227b90614f4b565b60405180910390fd5b6000612299828461353790919063ffffffff16565b905060005b818110156122c3576122b03384612752565b80806122bb90614f9a565b91505061229e565b50505050565b600e5481565b60606122da826125f0565b612310576040517fa14c4b5000000000000000000000000000000000000000000000000000000000815260040160405180910390fd5b600061231a613246565b905060008151141561233b5760405180602001604052806000815250612366565b806123458461354d565b60405160200161235692919061501f565b6040516020818303038152906040525b915050919050565b60085481565b6000600760008473ffffffffffffffffffffffffffffffffffffffff1673ffffffffffffffffffffffffffffffffffffffff16815260200190815260200160002060008373ffffffffffffffffffffffffffffffffffffffff1673ffffffffffffffffffffffffffffffffffffffff16815260200190815260200160002060009054906101000a900460ff16905092915050565b61241061263e565b73ffffffffffffffffffffffffffffffffffffffff1661242e611c23565b73ffffffffffffffffffffffffffffffffffffffff1614612484576040517f08c379a000000000000000000000000000000000000000000000000000000000815260040161247b9061472c565b60405180910390fd5b600073ffffffffffffffffffffffffffffffffffffffff168173ffffffffffffffffffffffffffffffffffffffff1614156124f4576040517f08c379a00000000000000000000000000000000000000000000000000000000081526004016124eb906150b5565b60405180910390fd5b6124fd816132d8565b50565b61250861263e565b73ffffffffffffffffffffffffffffffffffffffff16612526611c23565b73ffffffffffffffffffffffffffffffffffffffff161461257c576040517f08c379a00000000000000000000000000000000000000000000000000000000081526004016125739061472c565b60405180910390fd5b80600c8190555050565b60007f01ffc9a7000000000000000000000000000000000000000000000000000000007bffffffffffffffffffffffffffffffffffffffffffffffffffffffff1916827bffffffffffffffffffffffffffffffffffffffffffffffffffffffff1916149050919050565b6000816125fb6126f8565b1115801561260a575060005482105b8015612637575060046000838152602001908152602001600020600001601c9054906101000a900460ff16155b9050919050565b600033905090565b826006600084815260200190815260200160002060006101000a81548173ffffffffffffffffffffffffffffffffffffffff021916908373ffffffffffffffffffffffffffffffffffffffff160217905550818373ffffffffffffffffffffffffffffffffffffffff168273ffffffffffffffffffffffffffffffffffffffff167f8c5be1e5ebec7d5bd14f71427d1e84f3dd0314c0f7b2291e5b200ac8c7c3b92560405160405180910390a4505050565b600090565b6000818361270b91906150d5565b905092915050565b600061271e826136ae565b9050919050565b60008183612733919061512b565b905092915050565b6000826127488584613718565b1490509392505050565b61275c828261378d565b6000612766610d17565b9050600061277d83836137ab90919063ffffffff16565b905060008367ffffffffffffffff81111561279b5761279a614491565b5b6040519080825280602002602001820160405280156127c95781602001602082028036833780820191505090505b50905060005b848110156128485760006127ec82856126fd90919063ffffffff16565b905060006127f9826137c1565b90508084848151811061280f5761280e615185565b5b6020026020010181815250508060106000848152602001908152602001600020819055505050808061284090614f9a565b9150506127cf565b508473ffffffffffffffffffffffffffffffffffffffff167f5cb27d2833c0b1f5f25192224a4f5c4573f3c2a9394c0a0a9a31c092e8879eb484868460405161289393929190615272565b60405180910390a25050505050565b60006128ad82612fb7565b90508373ffffffffffffffffffffffffffffffffffffffff16816000015173ffffffffffffffffffffffffffffffffffffffff1614612918576040517fa114810000000000000000000000000000000000000000000000000000000000815260040160405180910390fd5b60008473ffffffffffffffffffffffffffffffffffffffff1661293961263e565b73ffffffffffffffffffffffffffffffffffffffff16148061296857506129678561296261263e565b612374565b5b806129ad575061297661263e565b73ffffffffffffffffffffffffffffffffffffffff1661299584610ad0565b73ffffffffffffffffffffffffffffffffffffffff16145b9050806129e6576040517f59c896be00000000000000000000000000000000000000000000000000000000815260040160405180910390fd5b600073ffffffffffffffffffffffffffffffffffffffff168473ffffffffffffffffffffffffffffffffffffffff161415612a4d576040517fea553b3400000000000000000000000000000000000000000000000000000000815260040160405180910390fd5b612a5a85858560016138a2565b612a6660008487612646565b6001600560008773ffffffffffffffffffffffffffffffffffffffff1673ffffffffffffffffffffffffffffffffffffffff16815260200190815260200160002060000160008282829054906101000a900467ffffffffffffffff160392506101000a81548167ffffffffffffffff021916908367ffffffffffffffff1602179055506001600560008673ffffffffffffffffffffffffffffffffffffffff1673ffffffffffffffffffffffffffffffffffffffff16815260200190815260200160002060000160008282829054906101000a900467ffffffffffffffff160192506101000a81548167ffffffffffffffff021916908367ffffffffffffffff1602179055506000600460008581526020019081526020016000209050848160000160006101000a81548173ffffffffffffffffffffffffffffffffffffffff021916908373ffffffffffffffffffffffffffffffffffffffff160217905550428160000160146101000a81548167ffffffffffffffff021916908367ffffffffffffffff16021790555060006001850190506000600460008381526020019081526020016000209050600073ffffffffffffffffffffffffffffffffffffffff168160000160009054906101000a900473ffffffffffffffffffffffffffffffffffffffff1673ffffffffffffffffffffffffffffffffffffffff161415612ce6576000548214612ce557878160000160006101000a81548173ffffffffffffffffffffffffffffffffffffffff021916908373ffffffffffffffffffffffffffffffffffffffff16021790555084602001518160000160146101000a81548167ffffffffffffffff021916908367ffffffffffffffff1602179055505b5b505050828473ffffffffffffffffffffffffffffffffffffffff168673ffffffffffffffffffffffffffffffffffffffff167fddf252ad1be2c89b69c2b068fc378daa952ba7f163c4a11628f55a4df523b3ef60405160405180910390a4612d5185858560016138a8565b5050505050565b6000811415612d93576040517f56be441500000000000000000000000000000000000000000000000000000000815260040160405180910390fd5b612d9b6126f8565b6000541415612dd6576040517fc0367cab00000000000000000000000000000000000000000000000000000000815260040160405180910390fd5b600060085490506000811415612df157612dee6126f8565b90505b6000548110612e2c576040517f70e89b1b00000000000000000000000000000000000000000000000000000000815260040160405180910390fd5b60006001838301039050600054600182011115612e4c5760016000540390505b60008290505b818111612fa757600073ffffffffffffffffffffffffffffffffffffffff166004600083815260200190815260200160002060000160009054906101000a900473ffffffffffffffffffffffffffffffffffffffff1673ffffffffffffffffffffffffffffffffffffffff16148015612eec575060046000828152602001908152602001600020600001601c9054906101000a900460ff16155b15612f9a576000612efc82612fb7565b905080600001516004600084815260200190815260200160002060000160006101000a81548173ffffffffffffffffffffffffffffffffffffffff021916908373ffffffffffffffffffffffffffffffffffffffff16021790555080602001516004600084815260200190815260200160002060000160146101000a81548167ffffffffffffffff021916908367ffffffffffffffff160217905550505b8080600101915050612e52565b5060018101600881905550505050565b612fbf613d2b565b600082905080612fcd6126f8565b11158015612fdc575060005481105b1561320f576000600460008381526020019081526020016000206040518060600160405290816000820160009054906101000a900473ffffffffffffffffffffffffffffffffffffffff1673ffffffffffffffffffffffffffffffffffffffff1673ffffffffffffffffffffffffffffffffffffffff1681526020016000820160149054906101000a900467ffffffffffffffff1667ffffffffffffffff1667ffffffffffffffff16815260200160008201601c9054906101000a900460ff1615151515815250509050806040015161320d57600073ffffffffffffffffffffffffffffffffffffffff16816000015173ffffffffffffffffffffffffffffffffffffffff16146130f1578092505050613241565b5b60011561320c57818060019003925050600460008381526020019081526020016000206040518060600160405290816000820160009054906101000a900473ffffffffffffffffffffffffffffffffffffffff1673ffffffffffffffffffffffffffffffffffffffff1673ffffffffffffffffffffffffffffffffffffffff1681526020016000820160149054906101000a900467ffffffffffffffff1667ffffffffffffffff1667ffffffffffffffff16815260200160008201601c9054906101000a900460ff1615151515815250509050600073ffffffffffffffffffffffffffffffffffffffff16816000015173ffffffffffffffffffffffffffffffffffffffff1614613207578092505050613241565b6130f2565b5b505b6040517fdf2d9b4200000000000000000000000000000000000000000000000000000000815260040160405180910390fd5b919050565b606060118054613255906146ae565b80601f0160208091040260200160405190810160405280929190818152602001828054613281906146ae565b80156132ce5780601f106132a3576101008083540402835291602001916132ce565b820191906000526020600020905b8154815290600101906020018083116132b157829003601f168201915b5050505050905090565b6000600960009054906101000a900473ffffffffffffffffffffffffffffffffffffffff16905081600960006101000a81548173ffffffffffffffffffffffffffffffffffffffff021916908373ffffffffffffffffffffffffffffffffffffffff1602179055508173ffffffffffffffffffffffffffffffffffffffff168173ffffffffffffffffffffffffffffffffffffffff167f8be0079c531659141344cd1fd0a4f28419497f9722a3daafe3b4186f6b6457e060405160405180910390a35050565b6000808273ffffffffffffffffffffffffffffffffffffffff163b119050919050565b60008373ffffffffffffffffffffffffffffffffffffffff1663150b7a026133e761263e565b8786866040518563ffffffff1660e01b81526004016134099493929190615305565b602060405180830381600087803b15801561342357600080fd5b505af192505050801561345457506040513d601f19601f820116820180604052508101906134519190615366565b60015b6134ce573d8060008114613484576040519150601f19603f3d011682016040523d82523d6000602084013e613489565b606091505b506000815114156134c6576040517fd1a57ed600000000000000000000000000000000000000000000000000000000815260040160405180910390fd5b805181602001fd5b63150b7a0260e01b7bffffffffffffffffffffffffffffffffffffffffffffffffffffffff1916817bffffffffffffffffffffffffffffffffffffffffffffffffffffffff191614915050949350505050565b6000818361352f91906153c2565b905092915050565b6000818361354591906153f3565b905092915050565b60606000821415613595576040518060400160405280600181526020017f300000000000000000000000000000000000000000000000000000000000000081525090506136a9565b600082905060005b600082146135c75780806135b090614f9a565b915050600a826135c091906153f3565b915061359d565b60008167ffffffffffffffff8111156135e3576135e2614491565b5b6040519080825280601f01601f1916602001820160405280156136155781602001600182028036833780820191505090505b5090505b600085146136a25760018261362e9190615424565b9150600a8561363d91906153c2565b603061364991906150d5565b60f81b81838151811061365f5761365e615185565b5b60200101907effffffffffffffffffffffffffffffffffffffffffffffffffffffffffffff1916908160001a905350600a8561369b91906153f3565b9450613619565b8093505050505b919050565b6000600560008373ffffffffffffffffffffffffffffffffffffffff1673ffffffffffffffffffffffffffffffffffffffff16815260200190815260200160002060000160089054906101000a900467ffffffffffffffff1667ffffffffffffffff169050919050565b60008082905060005b845181101561378257600085828151811061373f5761373e615185565b5b602002602001015190508083116137615761375a83826138ae565b925061376e565b61376b81846138ae565b92505b50808061377a90614f9a565b915050613721565b508091505092915050565b6137a78282604051806020016040528060008152506138c5565b5050565b600081836137b99190615424565b905092915050565b600081326001436137d29190615424565b601260009054906101000a900473ffffffffffffffffffffffffffffffffffffffff1673ffffffffffffffffffffffffffffffffffffffff16631486a2766040518163ffffffff1660e01b815260040160206040518083038186803b15801561383a57600080fd5b505afa15801561384e573d6000803e3d6000fd5b505050506040513d601f19601f82011682018060405250810190613872919061546d565b604051602001613885949392919061549a565b604051602081830303815290604052805190602001209050919050565b50505050565b50505050565b600082600052816020526040600020905092915050565b6138d283838360016138d7565b505050565b600080549050600073ffffffffffffffffffffffffffffffffffffffff168573ffffffffffffffffffffffffffffffffffffffff161415613944576040517f2e07630000000000000000000000000000000000000000000000000000000000815260040160405180910390fd5b600084141561397f576040517fb562e8dd00000000000000000000000000000000000000000000000000000000815260040160405180910390fd5b61398c60008683876138a2565b83600560008773ffffffffffffffffffffffffffffffffffffffff1673ffffffffffffffffffffffffffffffffffffffff16815260200190815260200160002060000160008282829054906101000a900467ffffffffffffffff160192506101000a81548167ffffffffffffffff021916908367ffffffffffffffff16021790555083600560008773ffffffffffffffffffffffffffffffffffffffff1673ffffffffffffffffffffffffffffffffffffffff16815260200190815260200160002060000160088282829054906101000a900467ffffffffffffffff160192506101000a81548167ffffffffffffffff021916908367ffffffffffffffff160217905550846004600083815260200190815260200160002060000160006101000a81548173ffffffffffffffffffffffffffffffffffffffff021916908373ffffffffffffffffffffffffffffffffffffffff160217905550426004600083815260200190815260200160002060000160146101000a81548167ffffffffffffffff021916908367ffffffffffffffff160217905550600081905060008582019050838015613b565750613b558773ffffffffffffffffffffffffffffffffffffffff1661339e565b5b15613c1c575b818773ffffffffffffffffffffffffffffffffffffffff16600073ffffffffffffffffffffffffffffffffffffffff167fddf252ad1be2c89b69c2b068fc378daa952ba7f163c4a11628f55a4df523b3ef60405160405180910390a4613bcb60008884806001019550886133c1565b613c01576040517fd1a57ed600000000000000000000000000000000000000000000000000000000815260040160405180910390fd5b80821415613b5c578260005414613c1757600080fd5b613c88565b5b818060010192508773ffffffffffffffffffffffffffffffffffffffff16600073ffffffffffffffffffffffffffffffffffffffff167fddf252ad1be2c89b69c2b068fc378daa952ba7f163c4a11628f55a4df523b3ef60405160405180910390a480821415613c1d575b816000819055505050613c9e60008683876138a8565b5050505050565b828054613cb1906146ae565b90600052602060002090601f016020900481019282613cd35760008555613d1a565b82601f10613cec57803560ff1916838001178555613d1a565b82800160010185558215613d1a579182015b82811115613d19578235825591602001919060010190613cfe565b5b509050613d279190613d6e565b5090565b6040518060600160405280600073ffffffffffffffffffffffffffffffffffffffff168152602001600067ffffffffffffffff1681526020016000151581525090565b5b80821115613d87576000816000905550600101613d6f565b5090565b6000604051905090565b600080fd5b600080fd5b60007fffffffff0000000000000000000000000000000000000000000000000000000082169050919050565b613dd481613d9f565b8114613ddf57600080fd5b50565b600081359050613df181613dcb565b92915050565b600060208284031215613e0d57613e0c613d95565b5b6000613e1b84828501613de2565b91505092915050565b60008115159050919050565b613e3981613e24565b82525050565b6000602082019050613e546000830184613e30565b92915050565b600081519050919050565b600082825260208201905092915050565b60005b83811015613e94578082015181840152602081019050613e79565b83811115613ea3576000848401525b50505050565b6000601f19601f8301169050919050565b6000613ec582613e5a565b613ecf8185613e65565b9350613edf818560208601613e76565b613ee881613ea9565b840191505092915050565b60006020820190508181036000830152613f0d8184613eba565b905092915050565b6000819050919050565b613f2881613f15565b8114613f3357600080fd5b50565b600081359050613f4581613f1f565b92915050565b600060208284031215613f6157613f60613d95565b5b6000613f6f84828501613f36565b91505092915050565b600073ffffffffffffffffffffffffffffffffffffffff82169050919050565b6000613fa382613f78565b9050919050565b613fb381613f98565b82525050565b6000602082019050613fce6000830184613faa565b92915050565b613fdd81613f98565b8114613fe857600080fd5b50565b600081359050613ffa81613fd4565b92915050565b6000806040838503121561401757614016613d95565b5b600061402585828601613feb565b925050602061403685828601613f36565b9150509250929050565b60006020828403121561405657614055613d95565b5b600061406484828501613feb565b91505092915050565b61407681613f15565b82525050565b6000602082019050614091600083018461406d565b92915050565b600080fd5b600080fd5b600080fd5b60008083601f8401126140bc576140bb614097565b5b8235905067ffffffffffffffff8111156140d9576140d861409c565b5b6020830191508360208202830111156140f5576140f46140a1565b5b9250929050565b6000806000806060858703121561411657614115613d95565b5b600061412487828801613f36565b945050602061413587828801613f36565b935050604085013567ffffffffffffffff81111561415657614155613d9a565b5b614162878288016140a6565b925092505092959194509250565b6000819050919050565b61418381614170565b82525050565b600060208201905061419e600083018461417a565b92915050565b6000806000606084860312156141bd576141bc613d95565b5b60006141cb86828701613feb565b93505060206141dc86828701613feb565b92505060406141ed86828701613f36565b9150509250925092565b61420081614170565b811461420b57600080fd5b50565b60008135905061421d816141f7565b92915050565b60006020828403121561423957614238613d95565b5b60006142478482850161420e565b91505092915050565b60008083601f84011261426657614265614097565b5b8235905067ffffffffffffffff8111156142835761428261409c565b5b60208301915083600182028301111561429f5761429e6140a1565b5b9250929050565b600080602083850312156142bd576142bc613d95565b5b600083013567ffffffffffffffff8111156142db576142da613d9a565b5b6142e785828601614250565b92509250509250929050565b60008060006060848603121561430c5761430b613d95565b5b600061431a86828701613f36565b935050602061432b86828701613f36565b925050604061433c86828701613f36565b9150509250925092565b60008060006040848603121561435f5761435e613d95565b5b600061436d86828701613f36565b935050602084013567ffffffffffffffff81111561438e5761438d613d9a565b5b61439a868287016140a6565b92509250509250925092565b6000819050919050565b60006143cb6143c66143c184613f78565b6143a6565b613f78565b9050919050565b60006143dd826143b0565b9050919050565b60006143ef826143d2565b9050919050565b6143ff816143e4565b82525050565b600060208201905061441a60008301846143f6565b92915050565b61442981613e24565b811461443457600080fd5b50565b60008135905061444681614420565b92915050565b6000806040838503121561446357614462613d95565b5b600061447185828601613feb565b925050602061448285828601614437565b9150509250929050565b600080fd5b7f4e487b7100000000000000000000000000000000000000000000000000000000600052604160045260246000fd5b6144c982613ea9565b810181811067ffffffffffffffff821117156144e8576144e7614491565b5b80604052505050565b60006144fb613d8b565b905061450782826144c0565b919050565b600067ffffffffffffffff82111561452757614526614491565b5b61453082613ea9565b9050602081019050919050565b82818337600083830152505050565b600061455f61455a8461450c565b6144f1565b90508281526020810184848401111561457b5761457a61448c565b5b61458684828561453d565b509392505050565b600082601f8301126145a3576145a2614097565b5b81356145b384826020860161454c565b91505092915050565b600080600080608085870312156145d6576145d5613d95565b5b60006145e487828801613feb565b94505060206145f587828801613feb565b935050604061460687828801613f36565b925050606085013567ffffffffffffffff81111561462757614626613d9a565b5b6146338782880161458e565b91505092959194509250565b6000806040838503121561465657614655613d95565b5b600061466485828601613feb565b925050602061467585828601613feb565b9150509250929050565b7f4e487b7100000000000000000000000000000000000000000000000000000000600052602260045260246000fd5b600060028204905060018216806146c657607f821691505b602082108114156146da576146d961467f565b5b50919050565b7f4f776e61626c653a2063616c6c6572206973206e6f7420746865206f776e6572600082015250565b6000614716602083613e65565b9150614721826146e0565b602082019050919050565b6000602082019050818103600083015261474581614709565b9050919050565b7f5265656e7472616e637947756172643a207265656e7472616e742063616c6c00600082015250565b6000614782601f83613e65565b915061478d8261474c565b602082019050919050565b600060208201905081810360008301526147b181614775565b9050919050565b7f52686170736f647943726561746f7247656e657261746976652f696e76616c6960008201527f642d6d696e742d74696d65000000000000000000000000000000000000000000602082015250565b6000614814602b83613e65565b915061481f826147b8565b604082019050919050565b6000602082019050818103600083015261484381614807565b9050919050565b7f52686170736f647943726561746f7247656e657261746976652f696e76616c6960008201527f642d6d696e742d63616c6c657200000000000000000000000000000000000000602082015250565b60006148a6602d83613e65565b91506148b18261484a565b604082019050919050565b600060208201905081810360008301526148d581614899565b9050919050565b7f52686170736f647943726561746f7247656e657261746976652f696e76616c6960008201527f642d746f74616c2d737570706c79000000000000000000000000000000000000602082015250565b6000614938602e83613e65565b9150614943826148dc565b604082019050919050565b600060208201905081810360008301526149678161492b565b9050919050565b7f52686170736f647943726561746f7247656e657261746976652f696e76616c6960008201527f642d696e766f636174696f6e2d75707065722d626f756e646172790000000000602082015250565b60006149ca603b83613e65565b91506149d58261496e565b604082019050919050565b600060208201905081810360008301526149f9816149bd565b9050919050565b7f52686170736f647943726561746f7247656e657261746976652f696e76616c6960008201527f642d696e766f636174696f6e2d6c6f7765722d626f756e646172790000000000602082015250565b6000614a5c603b83613e65565b9150614a6782614a00565b604082019050919050565b60006020820190508181036000830152614a8b81614a4f565b9050919050565b7f52686170736f647943726561746f7247656e657261746976652f696e76616c6960008201527f642d6d696e742d76616c75650000000000000000000000000000000000000000602082015250565b6000614aee602c83613e65565b9150614af982614a92565b604082019050919050565b60006020820190508181036000830152614b1d81614ae1565b9050919050565b60008160601b9050919050565b6000614b3c82614b24565b9050919050565b6000614b4e82614b31565b9050919050565b614b66614b6182613f98565b614b43565b82525050565b6000819050919050565b614b87614b8282613f15565b614b6c565b82525050565b6000614b998285614b55565b601482019150614ba98284614b76565b6020820191508190509392505050565b7f52686170736f647943726561746f7247656e657261746976652f696e76616c6960008201527f642d616464726573732d70726f6f660000000000000000000000000000000000602082015250565b6000614c15602f83613e65565b9150614c2082614bb9565b604082019050919050565b60006020820190508181036000830152614c4481614c08565b9050919050565b7f52686170736f647943726561746f7247656e657261746976652f696e76616c6960008201527f642d70726573616c652d74696d65000000000000000000000000000000000000602082015250565b6000614ca7602e83613e65565b9150614cb282614c4b565b604082019050919050565b60006020820190508181036000830152614cd681614c9a565b9050919050565b7f52686170736f647943726561746f7247656e657261746976652f696e76616c6960008201527f642d7075626c69632d74696d6500000000000000000000000000000000000000602082015250565b6000614d39602d83613e65565b9150614d4482614cdd565b604082019050919050565b60006020820190508181036000830152614d6881614d2c565b9050919050565b600081905092915050565b50565b6000614d8a600083614d6f565b9150614d9582614d7a565b600082019050919050565b6000614dab82614d7d565b9150819050919050565b7f52686170736f647943726561746f7247656e657261746976652f696e76616c6960008201527f642d77697468647261772d6d6f6e657900000000000000000000000000000000602082015250565b6000614e11603083613e65565b9150614e1c82614db5565b604082019050919050565b60006020820190508181036000830152614e4081614e04565b9050919050565b7f52686170736f647943726561746f7247656e657261746976652f696e76616c6960008201527f642d70726f6d6f74696f6e2d737570706c790000000000000000000000000000602082015250565b6000614ea3603283613e65565b9150614eae82614e47565b604082019050919050565b60006020820190508181036000830152614ed281614e96565b9050919050565b7f52686170736f647943726561746f7247656e657261746976652f696e76616c6960008201527f642d62617463682d6d756c7469706c6500000000000000000000000000000000602082015250565b6000614f35603083613e65565b9150614f4082614ed9565b604082019050919050565b60006020820190508181036000830152614f6481614f28565b9050919050565b7f4e487b7100000000000000000000000000000000000000000000000000000000600052601160045260246000fd5b6000614fa582613f15565b91507fffffffffffffffffffffffffffffffffffffffffffffffffffffffffffffffff821415614fd857614fd7614f6b565b5b600182019050919050565b600081905092915050565b6000614ff982613e5a565b6150038185614fe3565b9350615013818560208601613e76565b80840191505092915050565b600061502b8285614fee565b91506150378284614fee565b91508190509392505050565b7f4f776e61626c653a206e6577206f776e657220697320746865207a65726f206160008201527f6464726573730000000000000000000000000000000000000000000000000000602082015250565b600061509f602683613e65565b91506150aa82615043565b604082019050919050565b600060208201905081810360008301526150ce81615092565b9050919050565b60006150e082613f15565b91506150eb83613f15565b9250827fffffffffffffffffffffffffffffffffffffffffffffffffffffffffffffffff038211156151205761511f614f6b565b5b828201905092915050565b600061513682613f15565b915061514183613f15565b9250817fffffffffffffffffffffffffffffffffffffffffffffffffffffffffffffffff048311821515161561517a57615179614f6b565b5b828202905092915050565b7f4e487b7100000000000000000000000000000000000000000000000000000000600052603260045260246000fd5b600081519050919050565b600082825260208201905092915050565b6000819050602082019050919050565b6151e981614170565b82525050565b60006151fb83836151e0565b60208301905092915050565b6000602082019050919050565b600061521f826151b4565b61522981856151bf565b9350615234836151d0565b8060005b8381101561526557815161524c88826151ef565b975061525783615207565b925050600181019050615238565b5085935050505092915050565b6000606082019050615287600083018661406d565b615294602083018561406d565b81810360408301526152a68184615214565b9050949350505050565b600081519050919050565b600082825260208201905092915050565b60006152d7826152b0565b6152e181856152bb565b93506152f1818560208601613e76565b6152fa81613ea9565b840191505092915050565b600060808201905061531a6000830187613faa565b6153276020830186613faa565b615334604083018561406d565b818103606083015261534681846152cc565b905095945050505050565b60008151905061536081613dcb565b92915050565b60006020828403121561537c5761537b613d95565b5b600061538a84828501615351565b91505092915050565b7f4e487b7100000000000000000000000000000000000000000000000000000000600052601260045260246000fd5b60006153cd82613f15565b91506153d883613f15565b9250826153e8576153e7615393565b5b828206905092915050565b60006153fe82613f15565b915061540983613f15565b92508261541957615418615393565b5b828204905092915050565b600061542f82613f15565b915061543a83613f15565b92508282101561544d5761544c614f6b565b5b828203905092915050565b60008151905061546781613f1f565b92915050565b60006020828403121561548357615482613d95565b5b600061549184828501615458565b91505092915050565b60006154a68287614b76565b6020820191506154b68286614b55565b6014820191506154c68285614b76565b6020820191506154d68284614b76565b6020820191508190509594505050505056fea2646970667358221220ae081ea08215d7efa99672f67755254bdee1c59774533510f28e2b984f56834c64736f6c63430008090033",
  "devdoc": {
    "author": "rlxyz.eth",
    "kind": "dev",
    "methods": {
      "approve(address,uint256)": {
        "details": "See {IERC721-approve}."
      },
      "balanceOf(address)": {
        "details": "See {IERC721-balanceOf}."
      },
      "claimMint(uint256,bytes32[])": {
        "details": "user must mint max invocations",
        "params": {
          "invocations": "number of tokens to mint",
          "proof": "merkle proof to prove address and token mint count are in tree"
        }
      },
      "getApproved(uint256)": {
        "details": "See {IERC721-getApproved}."
      },
      "isApprovedForAll(address,address)": {
        "details": "See {IERC721-isApprovedForAll}."
      },
      "name()": {
        "details": "See {IERC721Metadata-name}."
      },
      "owner()": {
        "details": "Returns the address of the current owner."
      },
      "ownerOf(uint256)": {
        "details": "See {IERC721-ownerOf}."
      },
      "presaleMint(uint256,uint256,bytes32[])": {
        "params": {
          "invocations": "number of tokens to mint",
          "maxInvocation": "max number of invocations of the user",
          "proof": "merkle proof to prove address and token mint count are in tree"
        }
      },
      "promotionMint(uint256)": {
        "params": {
          "invocations": "the number of invocations to batch mint"
        }
      },
      "publicMint(uint256)": {
        "details": "user can only mint less than maxPublicBatchPerAddress of tokens",
        "params": {
          "invocations": "number of tokens to mint"
        }
      },
      "renounceOwnership()": {
        "details": "Leaves the contract without owner. It will not be possible to call `onlyOwner` functions anymore. Can only be called by the current owner. NOTE: Renouncing ownership will leave the contract without an owner, thereby removing any functionality that is only available to the owner."
      },
      "safeTransferFrom(address,address,uint256)": {
        "details": "See {IERC721-safeTransferFrom}."
      },
      "safeTransferFrom(address,address,uint256,bytes)": {
        "details": "See {IERC721-safeTransferFrom}."
      },
      "setApprovalForAll(address,bool)": {
        "details": "See {IERC721-setApprovalForAll}."
      },
      "setClaimMerkleRoot(bytes32)": {
        "params": {
          "_claimMerkleRoot": "root of the merklelized claimlist"
        }
      },
      "setMintTime(uint256,uint256,uint256)": {
        "details": "this function can serve as an \"active\" and \"non-active\" sale statusset the values to uint256(-1) for \"non-active\" sale statusalso, pass contract ownership to address(0) to close sale forever",
        "params": {
          "_presaleTime": "time the presale starts",
          "_publicTime": "time the public sale starts"
        }
      },
      "setOwnersExplicit(uint256)": {
        "details": "eliminate loops in future calls of ownerOf()"
      },
      "setPresaleMerkleRoot(bytes32)": {
        "params": {
          "_presaleMerkleRoot": "root of the merklelized whitelist"
        }
      },
      "supportsInterface(bytes4)": {
        "details": "See {IERC165-supportsInterface}."
      },
      "symbol()": {
        "details": "See {IERC721Metadata-symbol}."
      },
      "tokenURI(uint256)": {
        "details": "See {IERC721Metadata-tokenURI}."
      },
      "totalSupply()": {
        "details": "Burned tokens are calculated here, use _totalMinted() if you want to count just minted tokens."
      },
      "transferFrom(address,address,uint256)": {
        "details": "See {IERC721-transferFrom}."
      },
      "transferOwnership(address)": {
        "details": "Transfers ownership of the contract to a new account (`newOwner`). Can only be called by the current owner."
      }
    },
    "title": "REFLECTIONS by Jacob Riglin",
    "version": 1
  },
  "userdoc": {
    "events": {
      "Created(address,uint256,uint256,bytes32[])": {
        "notice": "============ Events ============"
      }
    },
    "kind": "user",
    "methods": {
      "amountForPromotion()": {
        "notice": "promotional nfts count"
      },
      "baseURI()": {
        "notice": "core metadata baseURI used for tokens metadata"
      },
      "claimMerkleRoot()": {
        "notice": "ERC721-claim inclusion root"
      },
      "claimMint(uint256,bytes32[])": {
        "notice": "Allows claim of tokens if address is part of merkle tree"
      },
      "claimTime()": {
        "notice": "time the public starts"
      },
      "maxPublicBatchPerAddress()": {
        "notice": "max mintable tokens for each address in public"
      },
      "mintOf(address)": {
        "notice": "returns the number of mints of an address"
      },
      "mintPrice()": {
        "notice": "mint price of each nft; same for pre/public sale."
      },
      "mintRandomizerContract()": {
        "notice": "the randomizer contract"
      },
      "presaleMerkleRoot()": {
        "notice": "ERC721-presale inclusion root"
      },
      "presaleMint(uint256,uint256,bytes32[])": {
        "notice": "Allows presale minting of tokens if address is part of merkle tree"
      },
      "presaleTime()": {
        "notice": "time the presale starts"
      },
      "promotionMint(uint256)": {
        "notice": "used by owner to mint promotional nfts"
      },
      "publicMint(uint256)": {
        "notice": "Allows public minting of tokens"
      },
      "publicTime()": {
        "notice": "time the public starts"
      },
      "setBaseURI(string)": {
        "notice": "set the new baseURI to change the tokens metadata"
      },
      "setClaimMerkleRoot(bytes32)": {
        "notice": "force override the merkle root used in presale mint"
      },
      "setMintRandomizerContract(address)": {
        "notice": "used the set the mint randomizer for on-chain generative projects"
      },
      "setMintTime(uint256,uint256,uint256)": {
        "notice": "Set the time for the mint"
      },
      "setOwnersExplicit(uint256)": {
        "notice": "sets the owners quantity explicity"
      },
      "setPresaleMerkleRoot(bytes32)": {
        "notice": "force override the merkle root used in presale mint"
      },
      "withdrawMoney()": {
        "notice": "withdraws the ether in the contract to owner"
      }
    },
    "version": 1
  },
  "storageLayout": {
    "storage": [
      {
        "astId": 2951,
        "contract": "contracts/core/REFLECTIONS.sol:REFLECTIONS",
        "label": "_currentIndex",
        "offset": 0,
        "slot": "0",
        "type": "t_uint256"
      },
      {
        "astId": 2953,
        "contract": "contracts/core/REFLECTIONS.sol:REFLECTIONS",
        "label": "_burnCounter",
        "offset": 0,
        "slot": "1",
        "type": "t_uint256"
      },
      {
        "astId": 2955,
        "contract": "contracts/core/REFLECTIONS.sol:REFLECTIONS",
        "label": "_name",
        "offset": 0,
        "slot": "2",
        "type": "t_string_storage"
      },
      {
        "astId": 2957,
        "contract": "contracts/core/REFLECTIONS.sol:REFLECTIONS",
        "label": "_symbol",
        "offset": 0,
        "slot": "3",
        "type": "t_string_storage"
      },
      {
        "astId": 2962,
        "contract": "contracts/core/REFLECTIONS.sol:REFLECTIONS",
        "label": "_ownerships",
        "offset": 0,
        "slot": "4",
        "type": "t_mapping(t_uint256,t_struct(TokenOwnership)2940_storage)"
      },
      {
        "astId": 2967,
        "contract": "contracts/core/REFLECTIONS.sol:REFLECTIONS",
        "label": "_addressData",
        "offset": 0,
        "slot": "5",
        "type": "t_mapping(t_address,t_struct(AddressData)2949_storage)"
      },
      {
        "astId": 2971,
        "contract": "contracts/core/REFLECTIONS.sol:REFLECTIONS",
        "label": "_tokenApprovals",
        "offset": 0,
        "slot": "6",
        "type": "t_mapping(t_uint256,t_address)"
      },
      {
        "astId": 2977,
        "contract": "contracts/core/REFLECTIONS.sol:REFLECTIONS",
        "label": "_operatorApprovals",
        "offset": 0,
        "slot": "7",
        "type": "t_mapping(t_address,t_mapping(t_address,t_bool))"
      },
      {
        "astId": 4217,
        "contract": "contracts/core/REFLECTIONS.sol:REFLECTIONS",
        "label": "nextOwnerToExplicitlySet",
        "offset": 0,
        "slot": "8",
        "type": "t_uint256"
      },
      {
        "astId": 7,
        "contract": "contracts/core/REFLECTIONS.sol:REFLECTIONS",
        "label": "_owner",
        "offset": 0,
        "slot": "9",
        "type": "t_address"
      },
      {
        "astId": 115,
        "contract": "contracts/core/REFLECTIONS.sol:REFLECTIONS",
        "label": "_status",
        "offset": 0,
        "slot": "10",
        "type": "t_uint256"
      },
      {
        "astId": 2182,
        "contract": "contracts/core/REFLECTIONS.sol:REFLECTIONS",
        "label": "presaleMerkleRoot",
        "offset": 0,
        "slot": "11",
        "type": "t_bytes32"
      },
      {
        "astId": 2185,
        "contract": "contracts/core/REFLECTIONS.sol:REFLECTIONS",
        "label": "claimMerkleRoot",
        "offset": 0,
        "slot": "12",
        "type": "t_bytes32"
      },
      {
        "astId": 2188,
        "contract": "contracts/core/REFLECTIONS.sol:REFLECTIONS",
        "label": "claimTime",
        "offset": 0,
        "slot": "13",
        "type": "t_uint256"
      },
      {
        "astId": 2191,
        "contract": "contracts/core/REFLECTIONS.sol:REFLECTIONS",
        "label": "presaleTime",
        "offset": 0,
        "slot": "14",
        "type": "t_uint256"
      },
      {
        "astId": 2194,
        "contract": "contracts/core/REFLECTIONS.sol:REFLECTIONS",
        "label": "publicTime",
        "offset": 0,
        "slot": "15",
        "type": "t_uint256"
      },
      {
        "astId": 2199,
        "contract": "contracts/core/REFLECTIONS.sol:REFLECTIONS",
        "label": "_tokenHash",
        "offset": 0,
        "slot": "16",
        "type": "t_mapping(t_uint256,t_bytes32)"
      },
      {
        "astId": 2201,
        "contract": "contracts/core/REFLECTIONS.sol:REFLECTIONS",
        "label": "_baseTokenURI",
        "offset": 0,
        "slot": "17",
        "type": "t_string_storage"
      },
      {
        "astId": 2205,
        "contract": "contracts/core/REFLECTIONS.sol:REFLECTIONS",
        "label": "mintRandomizerContract",
        "offset": 0,
        "slot": "18",
        "type": "t_contract(IRandomizer)2883"
      }
    ],
    "types": {
      "t_address": {
        "encoding": "inplace",
        "label": "address",
        "numberOfBytes": "20"
      },
      "t_bool": {
        "encoding": "inplace",
        "label": "bool",
        "numberOfBytes": "1"
      },
      "t_bytes32": {
        "encoding": "inplace",
        "label": "bytes32",
        "numberOfBytes": "32"
      },
      "t_contract(IRandomizer)2883": {
        "encoding": "inplace",
        "label": "contract IRandomizer",
        "numberOfBytes": "20"
      },
      "t_mapping(t_address,t_bool)": {
        "encoding": "mapping",
        "key": "t_address",
        "label": "mapping(address => bool)",
        "numberOfBytes": "32",
        "value": "t_bool"
      },
      "t_mapping(t_address,t_mapping(t_address,t_bool))": {
        "encoding": "mapping",
        "key": "t_address",
        "label": "mapping(address => mapping(address => bool))",
        "numberOfBytes": "32",
        "value": "t_mapping(t_address,t_bool)"
      },
      "t_mapping(t_address,t_struct(AddressData)2949_storage)": {
        "encoding": "mapping",
        "key": "t_address",
        "label": "mapping(address => struct ERC721A.AddressData)",
        "numberOfBytes": "32",
        "value": "t_struct(AddressData)2949_storage"
      },
      "t_mapping(t_uint256,t_address)": {
        "encoding": "mapping",
        "key": "t_uint256",
        "label": "mapping(uint256 => address)",
        "numberOfBytes": "32",
        "value": "t_address"
      },
      "t_mapping(t_uint256,t_bytes32)": {
        "encoding": "mapping",
        "key": "t_uint256",
        "label": "mapping(uint256 => bytes32)",
        "numberOfBytes": "32",
        "value": "t_bytes32"
      },
      "t_mapping(t_uint256,t_struct(TokenOwnership)2940_storage)": {
        "encoding": "mapping",
        "key": "t_uint256",
        "label": "mapping(uint256 => struct ERC721A.TokenOwnership)",
        "numberOfBytes": "32",
        "value": "t_struct(TokenOwnership)2940_storage"
      },
      "t_string_storage": {
        "encoding": "bytes",
        "label": "string",
        "numberOfBytes": "32"
      },
      "t_struct(AddressData)2949_storage": {
        "encoding": "inplace",
        "label": "struct ERC721A.AddressData",
        "members": [
          {
            "astId": 2942,
            "contract": "contracts/core/REFLECTIONS.sol:REFLECTIONS",
            "label": "balance",
            "offset": 0,
            "slot": "0",
            "type": "t_uint64"
          },
          {
            "astId": 2944,
            "contract": "contracts/core/REFLECTIONS.sol:REFLECTIONS",
            "label": "numberMinted",
            "offset": 8,
            "slot": "0",
            "type": "t_uint64"
          },
          {
            "astId": 2946,
            "contract": "contracts/core/REFLECTIONS.sol:REFLECTIONS",
            "label": "numberBurned",
            "offset": 16,
            "slot": "0",
            "type": "t_uint64"
          },
          {
            "astId": 2948,
            "contract": "contracts/core/REFLECTIONS.sol:REFLECTIONS",
            "label": "aux",
            "offset": 24,
            "slot": "0",
            "type": "t_uint64"
          }
        ],
        "numberOfBytes": "32"
      },
      "t_struct(TokenOwnership)2940_storage": {
        "encoding": "inplace",
        "label": "struct ERC721A.TokenOwnership",
        "members": [
          {
            "astId": 2935,
            "contract": "contracts/core/REFLECTIONS.sol:REFLECTIONS",
            "label": "addr",
            "offset": 0,
            "slot": "0",
            "type": "t_address"
          },
          {
            "astId": 2937,
            "contract": "contracts/core/REFLECTIONS.sol:REFLECTIONS",
            "label": "startTimestamp",
            "offset": 20,
            "slot": "0",
            "type": "t_uint64"
          },
          {
            "astId": 2939,
            "contract": "contracts/core/REFLECTIONS.sol:REFLECTIONS",
            "label": "burned",
            "offset": 28,
            "slot": "0",
            "type": "t_bool"
          }
        ],
        "numberOfBytes": "32"
      },
      "t_uint256": {
        "encoding": "inplace",
        "label": "uint256",
        "numberOfBytes": "32"
      },
      "t_uint64": {
        "encoding": "inplace",
        "label": "uint64",
        "numberOfBytes": "8"
      }
    }
  }
}