{
  "address": "0x41a1F0aEBfCD87E7a6B546F44d5D092d69102F75",
  "abi": [
    {
      "inputs": [],
      "name": "getRandomValue",
      "outputs": [
        {
          "internalType": "uint256",
          "name": "",
          "type": "uint256"
        }
      ],
      "stateMutability": "view",
      "type": "function"
    }
  ],
  "transactionHash": "0x04423248decefb742f803f43b4435ce2937e51313691a6dbaeb0aa016fc414b0",
  "args": [],
  "numDeployments": 2,
  "solcInputHash": "6032657650e6f7557e176541f9135f08",
  "bytecode": "0x608060405234801561001057600080fd5b50610113806100206000396000f3fe6080604052348015600f57600080fd5b506004361060285760003560e01c80631486a27614602d575b600080fd5b60336045565b60405190815260200160405180910390f35b600032605160454360b4565b60405160609290921b6bffffffffffffffffffffffff19166020830152603482015260540160408051601f1981840301815291905280516020909101206099906205a52b60c8565b905090565b634e487b7160e01b600052601160045260246000fd5b60008282101560c35760c3609e565b500390565b6000821982111560d85760d8609e565b50019056fea264697066735822122085ed078a782f518e902c7aefbfdebd5fb56ca8640167d5ed5d3ddfca697d593264736f6c63430008090033",
  "devdoc": {
    "kind": "dev",
    "methods": {},
    "version": 1
  },
  "userdoc": {
    "kind": "user",
    "methods": {},
    "version": 1
  },
  "storageLayout": {
    "storage": [],
    "types": null
  }
}