{
  "address": "0x032B5d85406AbCF60955f0550766c40391EfE417",
  "abi": [
    {
      "inputs": [],
      "name": "getRandomValue",
      "outputs": [
        {
          "internalType": "uint256",
          "name": "",
          "type": "uint256"
        }
      ],
      "stateMutability": "view",
      "type": "function"
    }
  ],
  "transactionHash": "0xf55c3bce44e6935f60434a8d2b8e4c9f2141aa9dead53e4df619d555172f96c4",
  "args": [],
  "numDeployments": 1,
  "solcInputHash": "5613a3416ccf0fe64f0dc40eb3f6c490",
  "bytecode": "0x608060405234801561001057600080fd5b5060d68061001f6000396000f3fe6080604052348015600f57600080fd5b506004361060285760003560e01c80631486a27614602d575b600080fd5b60336045565b60405190815260200160405180910390f35b600060506001436077565b605c90406205a52b608b565b905090565b634e487b7160e01b600052601160045260246000fd5b60008282101560865760866061565b500390565b60008219821115609b57609b6061565b50019056fea264697066735822122002a2024e0e4ae62684978e667442ad381b331279fbe67f356422eca851d68d9664736f6c63430008090033",
  "devdoc": {
    "kind": "dev",
    "methods": {},
    "version": 1
  },
  "userdoc": {
    "kind": "user",
    "methods": {},
    "version": 1
  },
  "storageLayout": {
    "storage": [],
    "types": null
  }
}