{
  "address": "0x855cE5929Ab9AdFDf6E1140364c86041B80f6781",
  "abi": [
    {
      "inputs": [
        {
          "internalType": "string",
          "name": "_name",
          "type": "string"
        },
        {
          "internalType": "string",
          "name": "_symbol",
          "type": "string"
        },
        {
          "internalType": "uint256",
          "name": "_collectionSize",
          "type": "uint256"
        },
        {
          "internalType": "uint256",
          "name": "_maxMintPerAddress",
          "type": "uint256"
        },
        {
          "internalType": "uint256",
          "name": "_amountForPromotion",
          "type": "uint256"
        },
        {
          "internalType": "uint256",
          "name": "_mintPrice",
          "type": "uint256"
        },
        {
          "internalType": "uint256",
          "name": "_claimTime",
          "type": "uint256"
        },
        {
          "internalType": "uint256",
          "name": "_presaleTime",
          "type": "uint256"
        },
        {
          "internalType": "uint256",
          "name": "_publicTime",
          "type": "uint256"
        }
      ],
      "stateMutability": "nonpayable",
      "type": "constructor"
    },
    {
      "inputs": [],
      "name": "AllOwnershipsHaveBeenSet",
      "type": "error"
    },
    {
      "inputs": [],
      "name": "ApprovalCallerNotOwnerNorApproved",
      "type": "error"
    },
    {
      "inputs": [],
      "name": "ApprovalQueryForNonexistentToken",
      "type": "error"
    },
    {
      "inputs": [],
      "name": "ApprovalToCurrentOwner",
      "type": "error"
    },
    {
      "inputs": [],
      "name": "ApproveToCaller",
      "type": "error"
    },
    {
      "inputs": [],
      "name": "BalanceQueryForZeroAddress",
      "type": "error"
    },
    {
      "inputs": [],
      "name": "HashQueryForNonexistentToken",
      "type": "error"
    },
    {
      "inputs": [],
      "name": "MintToZeroAddress",
      "type": "error"
    },
    {
      "inputs": [],
      "name": "MintZeroQuantity",
      "type": "error"
    },
    {
      "inputs": [],
      "name": "NoTokensMintedYet",
      "type": "error"
    },
    {
      "inputs": [],
      "name": "OwnerQueryForNonexistentToken",
      "type": "error"
    },
    {
      "inputs": [],
      "name": "QuantityMustBeNonZero",
      "type": "error"
    },
    {
      "inputs": [],
      "name": "TransferCallerNotOwnerNorApproved",
      "type": "error"
    },
    {
      "inputs": [],
      "name": "TransferFromIncorrectOwner",
      "type": "error"
    },
    {
      "inputs": [],
      "name": "TransferToNonERC721ReceiverImplementer",
      "type": "error"
    },
    {
      "inputs": [],
      "name": "TransferToZeroAddress",
      "type": "error"
    },
    {
      "inputs": [],
      "name": "URIQueryForNonexistentToken",
      "type": "error"
    },
    {
      "anonymous": false,
      "inputs": [
        {
          "indexed": true,
          "internalType": "address",
          "name": "owner",
          "type": "address"
        },
        {
          "indexed": true,
          "internalType": "address",
          "name": "approved",
          "type": "address"
        },
        {
          "indexed": true,
          "internalType": "uint256",
          "name": "tokenId",
          "type": "uint256"
        }
      ],
      "name": "Approval",
      "type": "event"
    },
    {
      "anonymous": false,
      "inputs": [
        {
          "indexed": true,
          "internalType": "address",
          "name": "owner",
          "type": "address"
        },
        {
          "indexed": true,
          "internalType": "address",
          "name": "operator",
          "type": "address"
        },
        {
          "indexed": false,
          "internalType": "bool",
          "name": "approved",
          "type": "bool"
        }
      ],
      "name": "ApprovalForAll",
      "type": "event"
    },
    {
      "anonymous": false,
      "inputs": [
        {
          "indexed": true,
          "internalType": "address",
          "name": "to",
          "type": "address"
        },
        {
          "indexed": false,
          "internalType": "uint256",
          "name": "currentTotalSupply",
          "type": "uint256"
        },
        {
          "indexed": false,
          "internalType": "uint256",
          "name": "invocations",
          "type": "uint256"
        },
        {
          "indexed": false,
          "internalType": "bytes32[]",
          "name": "identifiers",
          "type": "bytes32[]"
        }
      ],
      "name": "Created",
      "type": "event"
    },
    {
      "anonymous": false,
      "inputs": [
        {
          "indexed": true,
          "internalType": "address",
          "name": "previousOwner",
          "type": "address"
        },
        {
          "indexed": true,
          "internalType": "address",
          "name": "newOwner",
          "type": "address"
        }
      ],
      "name": "OwnershipTransferred",
      "type": "event"
    },
    {
      "anonymous": false,
      "inputs": [
        {
          "indexed": true,
          "internalType": "address",
          "name": "from",
          "type": "address"
        },
        {
          "indexed": true,
          "internalType": "address",
          "name": "to",
          "type": "address"
        },
        {
          "indexed": true,
          "internalType": "uint256",
          "name": "tokenId",
          "type": "uint256"
        }
      ],
      "name": "Transfer",
      "type": "event"
    },
    {
      "inputs": [],
      "name": "amountForPromotion",
      "outputs": [
        {
          "internalType": "uint256",
          "name": "",
          "type": "uint256"
        }
      ],
      "stateMutability": "view",
      "type": "function"
    },
    {
      "inputs": [
        {
          "internalType": "address",
          "name": "to",
          "type": "address"
        },
        {
          "internalType": "uint256",
          "name": "tokenId",
          "type": "uint256"
        }
      ],
      "name": "approve",
      "outputs": [],
      "stateMutability": "nonpayable",
      "type": "function"
    },
    {
      "inputs": [
        {
          "internalType": "address",
          "name": "owner",
          "type": "address"
        }
      ],
      "name": "balanceOf",
      "outputs": [
        {
          "internalType": "uint256",
          "name": "",
          "type": "uint256"
        }
      ],
      "stateMutability": "view",
      "type": "function"
    },
    {
      "inputs": [],
      "name": "baseURI",
      "outputs": [
        {
          "internalType": "string",
          "name": "",
          "type": "string"
        }
      ],
      "stateMutability": "view",
      "type": "function"
    },
    {
      "inputs": [],
      "name": "claimMerkleRoot",
      "outputs": [
        {
          "internalType": "bytes32",
          "name": "",
          "type": "bytes32"
        }
      ],
      "stateMutability": "view",
      "type": "function"
    },
    {
      "inputs": [
        {
          "internalType": "uint256",
          "name": "invocations",
          "type": "uint256"
        },
        {
          "internalType": "uint256",
          "name": "maxInvocation",
          "type": "uint256"
        },
        {
          "internalType": "bytes32[]",
          "name": "proof",
          "type": "bytes32[]"
        }
      ],
      "name": "claimMint",
      "outputs": [],
      "stateMutability": "nonpayable",
      "type": "function"
    },
    {
      "inputs": [],
      "name": "claimTime",
      "outputs": [
        {
          "internalType": "uint256",
          "name": "",
          "type": "uint256"
        }
      ],
      "stateMutability": "view",
      "type": "function"
    },
    {
      "inputs": [],
      "name": "collectionSize",
      "outputs": [
        {
          "internalType": "uint256",
          "name": "",
          "type": "uint256"
        }
      ],
      "stateMutability": "view",
      "type": "function"
    },
    {
      "inputs": [
        {
          "internalType": "uint256",
          "name": "tokenId",
          "type": "uint256"
        }
      ],
      "name": "getApproved",
      "outputs": [
        {
          "internalType": "address",
          "name": "",
          "type": "address"
        }
      ],
      "stateMutability": "view",
      "type": "function"
    },
    {
      "inputs": [
        {
          "internalType": "address",
          "name": "owner",
          "type": "address"
        },
        {
          "internalType": "address",
          "name": "operator",
          "type": "address"
        }
      ],
      "name": "isApprovedForAll",
      "outputs": [
        {
          "internalType": "bool",
          "name": "",
          "type": "bool"
        }
      ],
      "stateMutability": "view",
      "type": "function"
    },
    {
      "inputs": [],
      "name": "maxMintPerAddress",
      "outputs": [
        {
          "internalType": "uint256",
          "name": "",
          "type": "uint256"
        }
      ],
      "stateMutability": "view",
      "type": "function"
    },
    {
      "inputs": [
        {
          "internalType": "address",
          "name": "_owner",
          "type": "address"
        }
      ],
      "name": "mintOf",
      "outputs": [
        {
          "internalType": "uint256",
          "name": "",
          "type": "uint256"
        }
      ],
      "stateMutability": "view",
      "type": "function"
    },
    {
      "inputs": [],
      "name": "mintPrice",
      "outputs": [
        {
          "internalType": "uint256",
          "name": "",
          "type": "uint256"
        }
      ],
      "stateMutability": "view",
      "type": "function"
    },
    {
      "inputs": [],
      "name": "name",
      "outputs": [
        {
          "internalType": "string",
          "name": "",
          "type": "string"
        }
      ],
      "stateMutability": "view",
      "type": "function"
    },
    {
      "inputs": [],
      "name": "nextOwnerToExplicitlySet",
      "outputs": [
        {
          "internalType": "uint256",
          "name": "",
          "type": "uint256"
        }
      ],
      "stateMutability": "view",
      "type": "function"
    },
    {
      "inputs": [],
      "name": "owner",
      "outputs": [
        {
          "internalType": "address",
          "name": "",
          "type": "address"
        }
      ],
      "stateMutability": "view",
      "type": "function"
    },
    {
      "inputs": [
        {
          "internalType": "uint256",
          "name": "tokenId",
          "type": "uint256"
        }
      ],
      "name": "ownerOf",
      "outputs": [
        {
          "internalType": "address",
          "name": "",
          "type": "address"
        }
      ],
      "stateMutability": "view",
      "type": "function"
    },
    {
      "inputs": [],
      "name": "presaleMerkleRoot",
      "outputs": [
        {
          "internalType": "bytes32",
          "name": "",
          "type": "bytes32"
        }
      ],
      "stateMutability": "view",
      "type": "function"
    },
    {
      "inputs": [
        {
          "internalType": "uint256",
          "name": "invocations",
          "type": "uint256"
        },
        {
          "internalType": "uint256",
          "name": "maxInvocation",
          "type": "uint256"
        },
        {
          "internalType": "bytes32[]",
          "name": "proof",
          "type": "bytes32[]"
        }
      ],
      "name": "presaleMint",
      "outputs": [],
      "stateMutability": "payable",
      "type": "function"
    },
    {
      "inputs": [],
      "name": "presaleTime",
      "outputs": [
        {
          "internalType": "uint256",
          "name": "",
          "type": "uint256"
        }
      ],
      "stateMutability": "view",
      "type": "function"
    },
    {
      "inputs": [
        {
          "internalType": "uint256",
          "name": "invocations",
          "type": "uint256"
        }
      ],
      "name": "promotionMint",
      "outputs": [],
      "stateMutability": "nonpayable",
      "type": "function"
    },
    {
      "inputs": [
        {
          "internalType": "uint256",
          "name": "invocations",
          "type": "uint256"
        }
      ],
      "name": "publicMint",
      "outputs": [],
      "stateMutability": "payable",
      "type": "function"
    },
    {
      "inputs": [],
      "name": "publicTime",
      "outputs": [
        {
          "internalType": "uint256",
          "name": "",
          "type": "uint256"
        }
      ],
      "stateMutability": "view",
      "type": "function"
    },
    {
      "inputs": [],
      "name": "renounceOwnership",
      "outputs": [],
      "stateMutability": "nonpayable",
      "type": "function"
    },
    {
      "inputs": [
        {
          "internalType": "address",
          "name": "from",
          "type": "address"
        },
        {
          "internalType": "address",
          "name": "to",
          "type": "address"
        },
        {
          "internalType": "uint256",
          "name": "tokenId",
          "type": "uint256"
        }
      ],
      "name": "safeTransferFrom",
      "outputs": [],
      "stateMutability": "nonpayable",
      "type": "function"
    },
    {
      "inputs": [
        {
          "internalType": "address",
          "name": "from",
          "type": "address"
        },
        {
          "internalType": "address",
          "name": "to",
          "type": "address"
        },
        {
          "internalType": "uint256",
          "name": "tokenId",
          "type": "uint256"
        },
        {
          "internalType": "bytes",
          "name": "_data",
          "type": "bytes"
        }
      ],
      "name": "safeTransferFrom",
      "outputs": [],
      "stateMutability": "nonpayable",
      "type": "function"
    },
    {
      "inputs": [
        {
          "internalType": "address",
          "name": "operator",
          "type": "address"
        },
        {
          "internalType": "bool",
          "name": "approved",
          "type": "bool"
        }
      ],
      "name": "setApprovalForAll",
      "outputs": [],
      "stateMutability": "nonpayable",
      "type": "function"
    },
    {
      "inputs": [
        {
          "internalType": "string",
          "name": "newBaseURI",
          "type": "string"
        }
      ],
      "name": "setBaseURI",
      "outputs": [],
      "stateMutability": "nonpayable",
      "type": "function"
    },
    {
      "inputs": [
        {
          "internalType": "bytes32",
          "name": "_claimMerkleRoot",
          "type": "bytes32"
        }
      ],
      "name": "setClaimMerkleRoot",
      "outputs": [],
      "stateMutability": "nonpayable",
      "type": "function"
    },
    {
      "inputs": [
        {
          "internalType": "uint256",
          "name": "_claimTime",
          "type": "uint256"
        }
      ],
      "name": "setClaimTime",
      "outputs": [],
      "stateMutability": "nonpayable",
      "type": "function"
    },
    {
      "inputs": [
        {
          "internalType": "uint256",
          "name": "quantity",
          "type": "uint256"
        }
      ],
      "name": "setOwnersExplicit",
      "outputs": [],
      "stateMutability": "nonpayable",
      "type": "function"
    },
    {
      "inputs": [
        {
          "internalType": "bytes32",
          "name": "_presaleMerkleRoot",
          "type": "bytes32"
        }
      ],
      "name": "setPresaleMerkleRoot",
      "outputs": [],
      "stateMutability": "nonpayable",
      "type": "function"
    },
    {
      "inputs": [
        {
          "internalType": "uint256",
          "name": "_presaleTime",
          "type": "uint256"
        }
      ],
      "name": "setPresaleTime",
      "outputs": [],
      "stateMutability": "nonpayable",
      "type": "function"
    },
    {
      "inputs": [
        {
          "internalType": "uint256",
          "name": "_publicTime",
          "type": "uint256"
        }
      ],
      "name": "setPublicTime",
      "outputs": [],
      "stateMutability": "nonpayable",
      "type": "function"
    },
    {
      "inputs": [
        {
          "internalType": "bytes4",
          "name": "interfaceId",
          "type": "bytes4"
        }
      ],
      "name": "supportsInterface",
      "outputs": [
        {
          "internalType": "bool",
          "name": "",
          "type": "bool"
        }
      ],
      "stateMutability": "view",
      "type": "function"
    },
    {
      "inputs": [],
      "name": "symbol",
      "outputs": [
        {
          "internalType": "string",
          "name": "",
          "type": "string"
        }
      ],
      "stateMutability": "view",
      "type": "function"
    },
    {
      "inputs": [
        {
          "internalType": "uint256",
          "name": "_tokenId",
          "type": "uint256"
        }
      ],
      "name": "tokenHash",
      "outputs": [
        {
          "internalType": "bytes32",
          "name": "",
          "type": "bytes32"
        }
      ],
      "stateMutability": "view",
      "type": "function"
    },
    {
      "inputs": [
        {
          "internalType": "uint256",
          "name": "tokenId",
          "type": "uint256"
        }
      ],
      "name": "tokenURI",
      "outputs": [
        {
          "internalType": "string",
          "name": "",
          "type": "string"
        }
      ],
      "stateMutability": "view",
      "type": "function"
    },
    {
      "inputs": [],
      "name": "totalSupply",
      "outputs": [
        {
          "internalType": "uint256",
          "name": "",
          "type": "uint256"
        }
      ],
      "stateMutability": "view",
      "type": "function"
    },
    {
      "inputs": [
        {
          "internalType": "address",
          "name": "from",
          "type": "address"
        },
        {
          "internalType": "address",
          "name": "to",
          "type": "address"
        },
        {
          "internalType": "uint256",
          "name": "tokenId",
          "type": "uint256"
        }
      ],
      "name": "transferFrom",
      "outputs": [],
      "stateMutability": "nonpayable",
      "type": "function"
    },
    {
      "inputs": [
        {
          "internalType": "address",
          "name": "newOwner",
          "type": "address"
        }
      ],
      "name": "transferOwnership",
      "outputs": [],
      "stateMutability": "nonpayable",
      "type": "function"
    },
    {
      "inputs": [],
      "name": "version",
      "outputs": [
        {
          "internalType": "string",
          "name": "",
          "type": "string"
        }
      ],
      "stateMutability": "view",
      "type": "function"
    },
    {
      "inputs": [],
      "name": "withdrawMoney",
      "outputs": [],
      "stateMutability": "nonpayable",
      "type": "function"
    }
  ],
  "transactionHash": "0x9ac4328ae22b38921368d0a29d1be70c1753c92e87a739b912c3f23a0857c8f1",
  "args": [
    "Rhapsody",
    "RHY",
    1111,
    2,
    40,
    "333000000000000000",
    1670819200,
    1670819400,
    1670823000
  ],
  "numDeployments": 2,
  "solcInputHash": "9058c0d4ec14415579c7c3e3805e7114",
  "bytecode": "0x6101006040523480156200001257600080fd5b50604051620030123803806200301283398101604081905262000035916200041d565b8851899089906200004e906002906020850190620002aa565b50805162000064906003906020840190620002aa565b505060008055506200007633620001cd565b6001600a5586620000d75760405162461bcd60e51b8152602060048201526031602482015260008051602062002ff2833981519152604482015270642d636f6c6c656374696f6e2d73697a6560781b60648201526084015b60405180910390fd5b86851115620001335760405162461bcd60e51b8152602060048201526032602482015260008051602062002ff2833981519152604482015271190b5c1c9bdb5bdd1a5bdb8b585b5bdd5b9d60721b6064820152608401620000ce565b60008411620001895760405162461bcd60e51b815260206004820152602c602482015260008051602062002ff283398151915260448201526b642d6d696e742d707269636560a01b6064820152608401620000ce565b60e087905260a0869052608085905260c0849052620001a8836200021f565b620001b3826200022e565b620001be816200023d565b50505050505050505062000508565b600980546001600160a01b038381166001600160a01b0319831681179093556040519116919082907f8be0079c531659141344cd1fd0a4f28419497f9722a3daafe3b4186f6b6457e090600090a35050565b620002296200024c565b600d55565b620002386200024c565b600e55565b620002476200024c565b600f55565b6009546001600160a01b03163314620002a85760405162461bcd60e51b815260206004820181905260248201527f4f776e61626c653a2063616c6c6572206973206e6f7420746865206f776e65726044820152606401620000ce565b565b828054620002b890620004cb565b90600052602060002090601f016020900481019282620002dc576000855562000327565b82601f10620002f757805160ff191683800117855562000327565b8280016001018555821562000327579182015b82811115620003275782518255916020019190600101906200030a565b506200033592915062000339565b5090565b5b808211156200033557600081556001016200033a565b634e487b7160e01b600052604160045260246000fd5b600082601f8301126200037857600080fd5b81516001600160401b038082111562000395576200039562000350565b604051601f8301601f19908116603f01168101908282118183101715620003c057620003c062000350565b81604052838152602092508683858801011115620003dd57600080fd5b600091505b83821015620004015785820183015181830184015290820190620003e2565b83821115620004135760008385830101525b9695505050505050565b60008060008060008060008060006101208a8c0312156200043d57600080fd5b89516001600160401b03808211156200045557600080fd5b620004638d838e0162000366565b9a5060208c01519150808211156200047a57600080fd5b50620004898c828d0162000366565b98505060408a0151965060608a0151955060808a0151945060a08a0151935060c08a0151925060e08a015191506101008a015190509295985092959850929598565b600181811c90821680620004e057607f821691505b602082108114156200050257634e487b7160e01b600052602260045260246000fd5b50919050565b60805160a05160c05160e051612a636200058f6000396000818161046f01528181610a3f01528181610d3c01526113fe01526000818161056801528181610b310152610e2801526000818161051401528181610ac101528181610cfc01528181610db801528181611242015261147a0152600081816105e601526111b90152612a636000f3fe60806040526004361061025c5760003560e01c80636352211e11610144578063ac446002116100b6578063c87b56dd1161007a578063c87b56dd1461071c578063d7224ba01461073c578063e7d5161114610752578063e985e9c514610772578063f2fde38b146107bb578063fd1e2962146107db57600080fd5b8063ac44600214610691578063b1f536fa146106a6578063b88d4fde146106c6578063ba2f59c8146106e6578063c6e62e0b1461070657600080fd5b806376972db21161010857806376972db2146105d45780638da5cb5b1461060857806395d89b41146106265780639c4dab521461063b578063a22cb46514610651578063a38643971461067157600080fd5b80636352211e146105365780636817c76c146105565780636c0360eb1461058a57806370a082311461059f578063715018a6146105bf57600080fd5b806327b3bf11116101dd57806342842e0e116101a157806342842e0e1461043d57806345c0f5331461045d57806348ce85841461049157806354fd4d50146104b157806355f804b3146104e2578063572849c41461050257600080fd5b806327b3bf11146103b457806328d7b276146103ca5780632d20fb60146103ea5780632db115441461040a578063421cc3371461041d57600080fd5b806318160ddd1161022457806318160ddd146103325780631b59169d146103555780631bdc608e1461036857806322212e2b1461037e57806323b872dd1461039457600080fd5b806301ffc9a71461026157806306fdde0314610296578063081812fc146102b8578063095ea7b3146102f0578063150c5c2614610312575b600080fd5b34801561026d57600080fd5b5061028161027c36600461229c565b6107fb565b60405190151581526020015b60405180910390f35b3480156102a257600080fd5b506102ab61084d565b60405161028d9190612311565b3480156102c457600080fd5b506102d86102d3366004612324565b6108df565b6040516001600160a01b03909116815260200161028d565b3480156102fc57600080fd5b5061031061030b366004612359565b610923565b005b34801561031e57600080fd5b5061031061032d366004612324565b6109b1565b34801561033e57600080fd5b50600154600054035b60405190815260200161028d565b610310610363366004612383565b6109be565b34801561037457600080fd5b50610347600f5481565b34801561038a57600080fd5b50610347600b5481565b3480156103a057600080fd5b506103106103af366004612405565b610c4b565b3480156103c057600080fd5b50610347600d5481565b3480156103d657600080fd5b506103106103e5366004612324565b610c56565b3480156103f657600080fd5b50610310610405366004612324565b610c63565b610310610418366004612324565b610ca4565b34801561042957600080fd5b50610310610438366004612324565b610ea1565b34801561044957600080fd5b50610310610458366004612405565b610eae565b34801561046957600080fd5b506103477f000000000000000000000000000000000000000000000000000000000000000081565b34801561049d57600080fd5b506103106104ac366004612324565b610ec9565b3480156104bd57600080fd5b506102ab604051806040016040528060058152602001640312e302e360dc1b81525081565b3480156104ee57600080fd5b506103106104fd366004612441565b610ed6565b34801561050e57600080fd5b506103477f000000000000000000000000000000000000000000000000000000000000000081565b34801561054257600080fd5b506102d8610551366004612324565b610f21565b34801561056257600080fd5b506103477f000000000000000000000000000000000000000000000000000000000000000081565b34801561059657600080fd5b506102ab610f33565b3480156105ab57600080fd5b506103476105ba3660046124b2565b610f42565b3480156105cb57600080fd5b50610310610f90565b3480156105e057600080fd5b506103477f000000000000000000000000000000000000000000000000000000000000000081565b34801561061457600080fd5b506009546001600160a01b03166102d8565b34801561063257600080fd5b506102ab610fa4565b34801561064757600080fd5b50610347600c5481565b34801561065d57600080fd5b5061031061066c3660046124cd565b610fb3565b34801561067d57600080fd5b5061034761068c366004612324565b611049565b34801561069d57600080fd5b50610310611084565b3480156106b257600080fd5b506103476106c13660046124b2565b611153565b3480156106d257600080fd5b506103106106e136600461251f565b61115e565b3480156106f257600080fd5b50610310610701366004612324565b6111af565b34801561071257600080fd5b50610347600e5481565b34801561072857600080fd5b506102ab610737366004612324565b6112f4565b34801561074857600080fd5b5061034760085481565b34801561075e57600080fd5b5061031061076d366004612383565b611386565b34801561077e57600080fd5b5061028161078d3660046125fa565b6001600160a01b03918216600090815260076020908152604080832093909416825291909152205460ff1690565b3480156107c757600080fd5b506103106107d63660046124b2565b611583565b3480156107e757600080fd5b506103106107f6366004612324565b6115fc565b60006001600160e01b031982166380ac58cd60e01b148061082c57506001600160e01b03198216635b5e139f60e01b145b8061084757506301ffc9a760e01b6001600160e01b03198316145b92915050565b60606002805461085c9061262d565b80601f01602080910402602001604051908101604052809291908181526020018280546108889061262d565b80156108d55780601f106108aa576101008083540402835291602001916108d5565b820191906000526020600020905b8154815290600101906020018083116108b857829003601f168201915b5050505050905090565b60006108ea82611609565b610907576040516333d1c03960e21b815260040160405180910390fd5b506000908152600660205260409020546001600160a01b031690565b600061092e82610f21565b9050806001600160a01b0316836001600160a01b031614156109635760405163250fdee360e21b815260040160405180910390fd5b336001600160a01b038216148015906109835750610981813361078d565b155b156109a1576040516367d9dca160e11b815260040160405180910390fd5b6109ac838383611634565b505050565b6109b9611690565b600f55565b6002600a5414156109ea5760405162461bcd60e51b81526004016109e190612668565b60405180910390fd5b6002600a55600e548015801590610a0057508042115b610a1c5760405162461bcd60e51b81526004016109e19061269f565b8484323314610a3d5760405162461bcd60e51b81526004016109e1906126d8565b7f0000000000000000000000000000000000000000000000000000000000000000610a7583610a6f6001546000540390565b906116ea565b1115610a935760405162461bcd60e51b81526004016109e190612713565b80610aa183610a6f336116f6565b1115610abf5760405162461bcd60e51b81526004016109e19061274f565b7f0000000000000000000000000000000000000000000000000000000000000000610aed83610a6f336116f6565b1115610b0b5760405162461bcd60e51b81526004016109e19061274f565b60008211610b2b5760405162461bcd60e51b81526004016109e19061279a565b86610b567f000000000000000000000000000000000000000000000000000000000000000082611724565b3414610b745760405162461bcd60e51b81526004016109e1906127e5565b60003411610b945760405162461bcd60e51b81526004016109e19061279a565b86338787600b54610c11838380806020026020016040519081016040528093929190818152602001838360200280828437600092019190915250506040516001600160601b031960608a901b166020820152603481018a905285925060540190505b60405160208183030381529060405280519060200120611730565b610c2d5760405162461bcd60e51b81526004016109e19061281f565b610c37338e611746565b50506001600a555050505050505050505050565b6109ac83838361186b565b610c5e611690565b600b55565b610c6b611690565b6002600a541415610c8e5760405162461bcd60e51b81526004016109e190612668565b6002600a55610c9c81611a59565b506001600a55565b6002600a541415610cc75760405162461bcd60e51b81526004016109e190612668565b6002600a55600f548015801590610cdd57508042115b610cf95760405162461bcd60e51b81526004016109e19061269f565b817f0000000000000000000000000000000000000000000000000000000000000000323314610d3a5760405162461bcd60e51b81526004016109e1906126d8565b7f0000000000000000000000000000000000000000000000000000000000000000610d6c83610a6f6001546000540390565b1115610d8a5760405162461bcd60e51b81526004016109e190612713565b80610d9883610a6f336116f6565b1115610db65760405162461bcd60e51b81526004016109e19061274f565b7f0000000000000000000000000000000000000000000000000000000000000000610de483610a6f336116f6565b1115610e025760405162461bcd60e51b81526004016109e19061274f565b60008211610e225760405162461bcd60e51b81526004016109e19061279a565b83610e4d7f000000000000000000000000000000000000000000000000000000000000000082611724565b3414610e6b5760405162461bcd60e51b81526004016109e1906127e5565b60003411610e8b5760405162461bcd60e51b81526004016109e19061279a565b610e953386611746565b50506001600a55505050565b610ea9611690565b600d55565b6109ac8383836040518060200160405280600081525061115e565b610ed1611690565b600e55565b610ede611690565b610f1d82828080601f016020809104026020016040519081016040528093929190818152602001838380828437600092019190915250611b9092505050565b5050565b6000610f2c82611ba3565b5192915050565b60606011805461085c9061262d565b60006001600160a01b038216610f6b576040516323d3ad8160e21b815260040160405180910390fd5b506001600160a01b03166000908152600560205260409020546001600160401b031690565b610f98611690565b610fa26000611cbd565b565b60606003805461085c9061262d565b6001600160a01b038216331415610fdd5760405163b06307db60e01b815260040160405180910390fd5b3360008181526007602090815260408083206001600160a01b03871680855290835292819020805460ff191686151590811790915590519081529192917f17307eab39ab6107e8899845ad3d59bd9653f200f220920489ca2b5937696c31910160405180910390a35050565b600061105482611609565b6110715760405163963eb14f60e01b815260040160405180910390fd5b5060009081526010602052604090205490565b61108c611690565b6002600a5414156110af5760405162461bcd60e51b81526004016109e190612668565b6002600a55604051600090339047908381818185875af1925050503d80600081146110f6576040519150601f19603f3d011682016040523d82523d6000602084013e6110fb565b606091505b5050905080610c9c5760405162461bcd60e51b81526020600482015260306024820152600080516020612a0e83398151915260448201526f642d77697468647261772d6d6f6e657960801b60648201526084016109e1565b6000610847826116f6565b61116984848461186b565b6001600160a01b0383163b1515801561118b575061118984848484611d0f565b155b156111a9576040516368d2bf6b60e11b815260040160405180910390fd5b50505050565b6111b7611690565b7f00000000000000000000000000000000000000000000000000000000000000006111e982610a6f6001546000540390565b11156112405760405162461bcd60e51b81526020600482015260326024820152600080516020612a0e833981519152604482015271642d70726f6d6f74696f6e2d737570706c7960701b60648201526084016109e1565b7f000000000000000000000000000000000000000000000000000000000000000061126b8282611e07565b156112bf5760405162461bcd60e51b81526020600482015260306024820152600080516020612a0e83398151915260448201526f642d62617463682d6d756c7469706c6560801b60648201526084016109e1565b60006112cb8383611e13565b905060005b818110156111a9576112e23384611746565b806112ec81612872565b9150506112d0565b60606112ff82611609565b61131c57604051630a14c4b560e41b815260040160405180910390fd5b600061133360408051602081019091526000815290565b9050805160001415611354576040518060200160405280600081525061137f565b8061135e84611e1f565b60405160200161136f92919061288d565b6040516020818303038152906040525b9392505050565b6002600a5414156113a95760405162461bcd60e51b81526004016109e190612668565b6002600a55600d5480158015906113bf57508042115b6113db5760405162461bcd60e51b81526004016109e19061269f565b84843233146113fc5760405162461bcd60e51b81526004016109e1906126d8565b7f000000000000000000000000000000000000000000000000000000000000000061142e83610a6f6001546000540390565b111561144c5760405162461bcd60e51b81526004016109e190612713565b8061145a83610a6f336116f6565b11156114785760405162461bcd60e51b81526004016109e19061274f565b7f00000000000000000000000000000000000000000000000000000000000000006114a683610a6f336116f6565b11156114c45760405162461bcd60e51b81526004016109e19061274f565b600082116114e45760405162461bcd60e51b81526004016109e19061279a565b85338686600c5461154a838380806020026020016040519081016040528093929190818152602001838360200280828437600092019190915250506040516001600160601b031960608a901b166020820152603481018a90528592506054019050610bf6565b6115665760405162461bcd60e51b81526004016109e19061281f565b611570338d611746565b50506001600a5550505050505050505050565b61158b611690565b6001600160a01b0381166115f05760405162461bcd60e51b815260206004820152602660248201527f4f776e61626c653a206e6577206f776e657220697320746865207a65726f206160448201526564647265737360d01b60648201526084016109e1565b6115f981611cbd565b50565b611604611690565b600c55565b6000805482108015610847575050600090815260046020526040902054600160e01b900460ff161590565b60008281526006602052604080822080546001600160a01b0319166001600160a01b0387811691821790925591518593918516917f8c5be1e5ebec7d5bd14f71427d1e84f3dd0314c0f7b2291e5b200ac8c7c3b92591a4505050565b6009546001600160a01b03163314610fa25760405162461bcd60e51b815260206004820181905260248201527f4f776e61626c653a2063616c6c6572206973206e6f7420746865206f776e657260448201526064016109e1565b600061137f82846128bc565b6001600160a01b038116600090815260056020526040812054600160401b90046001600160401b0316610847565b600061137f82846128d4565b60008261173d8584611f1c565b14949350505050565b6117508282611f69565b600061175f6001546000540390565b9050600061176d8284611f83565b90506000836001600160401b0381111561178957611789612509565b6040519080825280602002602001820160405280156117b2578160200160208202803683370190505b50905060005b8481101561181e5760006117cc84836116ea565b905060006117d982611f8f565b9050808484815181106117ee576117ee6128f3565b6020908102919091018101919091526000928352601090526040909120558061181681612872565b9150506117b8565b50846001600160a01b03167f5cb27d2833c0b1f5f25192224a4f5c4573f3c2a9394c0a0a9a31c092e8879eb484868460405161185c93929190612909565b60405180910390a25050505050565b600061187682611ba3565b9050836001600160a01b031681600001516001600160a01b0316146118ad5760405162a1148160e81b815260040160405180910390fd5b6000336001600160a01b03861614806118cb57506118cb853361078d565b806118e65750336118db846108df565b6001600160a01b0316145b90508061190657604051632ce44b5f60e11b815260040160405180910390fd5b6001600160a01b03841661192d57604051633a954ecd60e21b815260040160405180910390fd5b61193960008487611634565b6001600160a01b038581166000908152600560209081526040808320805467ffffffffffffffff198082166001600160401b0392831660001901831617909255898616808652838620805493841693831660019081018416949094179055898652600490945282852080546001600160e01b031916909417600160a01b42909216919091021783558701808452922080549193909116611a0d576000548214611a0d57805460208601516001600160401b0316600160a01b026001600160e01b03199091166001600160a01b038a16171781555b50505082846001600160a01b0316866001600160a01b03167fddf252ad1be2c89b69c2b068fc378daa952ba7f163c4a11628f55a4df523b3ef60405160405180910390a45b5050505050565b80611a77576040516356be441560e01b815260040160405180910390fd5b600054611a975760405163c0367cab60e01b815260040160405180910390fd5b60085480611aa3575060005b6000548110611ac5576040516370e89b1b60e01b815260040160405180910390fd5b6000548282016000198101911015611ae05750600054600019015b815b818111611b85576000818152600460205260409020546001600160a01b0316158015611b245750600081815260046020526040902054600160e01b900460ff16155b15611b7d576000611b3482611ba3565b80516000848152600460209081526040909120805491909301516001600160401b0316600160a01b026001600160e01b03199091166001600160a01b0390921691909117179055505b600101611ae2565b506001016008555050565b8051610f1d9060119060208401906121ed565b604080516060810182526000808252602082018190529181019190915281600054811015611ca457600081815260046020908152604091829020825160608101845290546001600160a01b0381168252600160a01b81046001600160401b031692820192909252600160e01b90910460ff16151591810182905290611ca25780516001600160a01b031615611c39579392505050565b5060001901600081815260046020908152604091829020825160608101845290546001600160a01b038116808352600160a01b82046001600160401b031693830193909352600160e01b900460ff1615159281019290925215611c9d579392505050565b611c39565b505b604051636f96cda160e11b815260040160405180910390fd5b600980546001600160a01b038381166001600160a01b0319831681179093556040519116919082907f8be0079c531659141344cd1fd0a4f28419497f9722a3daafe3b4186f6b6457e090600090a35050565b604051630a85bd0160e11b81526000906001600160a01b0385169063150b7a0290611d4490339089908890889060040161295e565b602060405180830381600087803b158015611d5e57600080fd5b505af1925050508015611d8e575060408051601f3d908101601f19168201909252611d8b9181019061299b565b60015b611de9573d808015611dbc576040519150601f19603f3d011682016040523d82523d6000602084013e611dc1565b606091505b508051611de1576040516368d2bf6b60e11b815260040160405180910390fd5b805181602001fd5b6001600160e01b031916630a85bd0160e11b1490505b949350505050565b600061137f82846129ce565b600061137f82846129e2565b606081611e435750506040805180820190915260018152600360fc1b602082015290565b8160005b8115611e6d5780611e5781612872565b9150611e669050600a836129e2565b9150611e47565b6000816001600160401b03811115611e8757611e87612509565b6040519080825280601f01601f191660200182016040528015611eb1576020820181803683370190505b5090505b8415611dff57611ec66001836129f6565b9150611ed3600a866129ce565b611ede9060306128bc565b60f81b818381518110611ef357611ef36128f3565b60200101906001600160f81b031916908160001a905350611f15600a866129e2565b9450611eb5565b600081815b8451811015611f6157611f4d82868381518110611f4057611f406128f3565b6020026020010151611feb565b915080611f5981612872565b915050611f21565b509392505050565b610f1d82826040518060200160405280600081525061201a565b600061137f82846129f6565b60008132611f9e6001436129f6565b604051602001611fce9392919092835260609190911b6001600160601b0319166020830152603482015260540190565b604051602081830303815290604052805190602001209050919050565b600081831061200757600082815260208490526040902061137f565b600083815260208390526040902061137f565b6109ac83838360016000546001600160a01b03851661204b57604051622e076360e81b815260040160405180910390fd5b836120695760405163b562e8dd60e01b815260040160405180910390fd5b6001600160a01b038516600081815260056020908152604080832080546fffffffffffffffffffffffffffffffff1981166001600160401b038083168c018116918217600160401b67ffffffffffffffff1990941690921783900481168c01811690920217909155858452600490925290912080546001600160e01b031916909217600160a01b42909216919091021790558080850183801561211557506001600160a01b0387163b15155b1561219e575b60405182906001600160a01b038916906000907fddf252ad1be2c89b69c2b068fc378daa952ba7f163c4a11628f55a4df523b3ef908290a46121666000888480600101955088611d0f565b612183576040516368d2bf6b60e11b815260040160405180910390fd5b8082141561211b57826000541461219957600080fd5b6121e4565b5b6040516001830192906001600160a01b038916906000907fddf252ad1be2c89b69c2b068fc378daa952ba7f163c4a11628f55a4df523b3ef908290a48082141561219f575b50600055611a52565b8280546121f99061262d565b90600052602060002090601f01602090048101928261221b5760008555612261565b82601f1061223457805160ff1916838001178555612261565b82800160010185558215612261579182015b82811115612261578251825591602001919060010190612246565b5061226d929150612271565b5090565b5b8082111561226d5760008155600101612272565b6001600160e01b0319811681146115f957600080fd5b6000602082840312156122ae57600080fd5b813561137f81612286565b60005b838110156122d45781810151838201526020016122bc565b838111156111a95750506000910152565b600081518084526122fd8160208601602086016122b9565b601f01601f19169290920160200192915050565b60208152600061137f60208301846122e5565b60006020828403121561233657600080fd5b5035919050565b80356001600160a01b038116811461235457600080fd5b919050565b6000806040838503121561236c57600080fd5b6123758361233d565b946020939093013593505050565b6000806000806060858703121561239957600080fd5b843593506020850135925060408501356001600160401b03808211156123be57600080fd5b818701915087601f8301126123d257600080fd5b8135818111156123e157600080fd5b8860208260051b85010111156123f657600080fd5b95989497505060200194505050565b60008060006060848603121561241a57600080fd5b6124238461233d565b92506124316020850161233d565b9150604084013590509250925092565b6000806020838503121561245457600080fd5b82356001600160401b038082111561246b57600080fd5b818501915085601f83011261247f57600080fd5b81358181111561248e57600080fd5b8660208285010111156124a057600080fd5b60209290920196919550909350505050565b6000602082840312156124c457600080fd5b61137f8261233d565b600080604083850312156124e057600080fd5b6124e98361233d565b9150602083013580151581146124fe57600080fd5b809150509250929050565b634e487b7160e01b600052604160045260246000fd5b6000806000806080858703121561253557600080fd5b61253e8561233d565b935061254c6020860161233d565b92506040850135915060608501356001600160401b038082111561256f57600080fd5b818701915087601f83011261258357600080fd5b81358181111561259557612595612509565b604051601f8201601f19908116603f011681019083821181831017156125bd576125bd612509565b816040528281528a60208487010111156125d657600080fd5b82602086016020830137600060208483010152809550505050505092959194509250565b6000806040838503121561260d57600080fd5b6126168361233d565b91506126246020840161233d565b90509250929050565b600181811c9082168061264157607f821691505b6020821081141561266257634e487b7160e01b600052602260045260246000fd5b50919050565b6020808252601f908201527f5265656e7472616e637947756172643a207265656e7472616e742063616c6c00604082015260600190565b6020808252602b90820152600080516020612a0e83398151915260408201526a642d6d696e742d74696d6560a81b606082015260800190565b6020808252602d90820152600080516020612a0e83398151915260408201526c3216b6b4b73a16b1b0b63632b960991b606082015260800190565b6020808252602e90820152600080516020612a0e83398151915260408201526d642d746f74616c2d737570706c7960901b606082015260800190565b6020808252603b90820152600080516020612a0e83398151915260408201527f642d696e766f636174696f6e2d75707065722d626f756e646172790000000000606082015260800190565b6020808252603b90820152600080516020612a0e83398151915260408201527f642d696e766f636174696f6e2d6c6f7765722d626f756e646172790000000000606082015260800190565b6020808252602c90820152600080516020612a0e83398151915260408201526b642d6d696e742d76616c756560a01b606082015260800190565b6020808252602f90820152600080516020612a0e83398151915260408201526e3216b0b2323932b9b996b83937b7b360891b606082015260800190565b634e487b7160e01b600052601160045260246000fd5b60006000198214156128865761288661285c565b5060010190565b6000835161289f8184602088016122b9565b8351908301906128b38183602088016122b9565b01949350505050565b600082198211156128cf576128cf61285c565b500190565b60008160001904831182151516156128ee576128ee61285c565b500290565b634e487b7160e01b600052603260045260246000fd5b6000606082018583526020858185015260606040850152818551808452608086019150828701935060005b8181101561295057845183529383019391830191600101612934565b509098975050505050505050565b6001600160a01b0385811682528416602082015260408101839052608060608201819052600090612991908301846122e5565b9695505050505050565b6000602082840312156129ad57600080fd5b815161137f81612286565b634e487b7160e01b600052601260045260246000fd5b6000826129dd576129dd6129b8565b500690565b6000826129f1576129f16129b8565b500490565b600082821015612a0857612a0861285c565b50039056fe52686170736f647943726561746f7247656e657261746976652f696e76616c69a264697066735822122025792731dfca2baf22969103bd34ed7fcbff20682debbf5eaa69e98841d01dc464736f6c6343000809003352686170736f647943726561746f7247656e657261746976652f696e76616c69",
  "devdoc": {
    "kind": "dev",
    "methods": {
      "approve(address,uint256)": {
        "details": "See {IERC721-approve}."
      },
      "balanceOf(address)": {
        "details": "See {IERC721-balanceOf}."
      },
      "claimMint(uint256,uint256,bytes32[])": {
        "details": "user must mint max invocations",
        "params": {
          "invocations": "number of tokens to mint",
          "proof": "merkle proof to prove address and token mint count are in tree"
        }
      },
      "constructor": {
        "params": {
          "_amountForPromotion": "promotional nfts count",
          "_collectionSize": "the total size of the collection",
          "_maxMintPerAddress": "max mintable tokens in public sale",
          "_mintPrice": "mint price of each nft"
        }
      },
      "getApproved(uint256)": {
        "details": "See {IERC721-getApproved}."
      },
      "isApprovedForAll(address,address)": {
        "details": "See {IERC721-isApprovedForAll}."
      },
      "name()": {
        "details": "See {IERC721Metadata-name}."
      },
      "owner()": {
        "details": "Returns the address of the current owner."
      },
      "ownerOf(uint256)": {
        "details": "See {IERC721-ownerOf}."
      },
      "presaleMint(uint256,uint256,bytes32[])": {
        "params": {
          "invocations": "number of tokens to mint",
          "maxInvocation": "max number of invocations of the user",
          "proof": "merkle proof to prove address and token mint count are in tree"
        }
      },
      "promotionMint(uint256)": {
        "params": {
          "invocations": "the number of invocations to batch mint"
        }
      },
      "publicMint(uint256)": {
        "details": "user can only mint less than maxMintPerAddress of tokens",
        "params": {
          "invocations": "number of tokens to mint"
        }
      },
      "renounceOwnership()": {
        "details": "Leaves the contract without owner. It will not be possible to call `onlyOwner` functions anymore. Can only be called by the current owner. NOTE: Renouncing ownership will leave the contract without an owner, thereby removing any functionality that is only available to the owner."
      },
      "safeTransferFrom(address,address,uint256)": {
        "details": "See {IERC721-safeTransferFrom}."
      },
      "safeTransferFrom(address,address,uint256,bytes)": {
        "details": "See {IERC721-safeTransferFrom}."
      },
      "setApprovalForAll(address,bool)": {
        "details": "See {IERC721-setApprovalForAll}."
      },
      "setClaimMerkleRoot(bytes32)": {
        "params": {
          "_claimMerkleRoot": "root of the merklelized claimlist"
        }
      },
      "setClaimTime(uint256)": {
        "details": "this function can serve as an \"active\" and \"non-active\" sale statusset the values to uint256(-1) for \"non-active\" sale statusalso, pass contract ownership to address(0) to close sale forever",
        "params": {
          "_claimTime": "time the presale starts"
        }
      },
      "setOwnersExplicit(uint256)": {
        "details": "eliminate loops in future calls of ownerOf()"
      },
      "setPresaleMerkleRoot(bytes32)": {
        "params": {
          "_presaleMerkleRoot": "root of the merklelized whitelist"
        }
      },
      "setPresaleTime(uint256)": {
        "details": "this function can serve as an \"active\" and \"non-active\" sale statusset the values to uint256(-1) for \"non-active\" sale statusalso, pass contract ownership to address(0) to close sale forever",
        "params": {
          "_presaleTime": "time the presale starts"
        }
      },
      "setPublicTime(uint256)": {
        "details": "this function can serve as an \"active\" and \"non-active\" sale statusset the values to uint256(-1) for \"non-active\" sale statusalso, pass contract ownership to address(0) to close sale forever",
        "params": {
          "_publicTime": "time the presale starts"
        }
      },
      "supportsInterface(bytes4)": {
        "details": "See {IERC165-supportsInterface}."
      },
      "symbol()": {
        "details": "See {IERC721Metadata-symbol}."
      },
      "tokenURI(uint256)": {
        "details": "See {IERC721Metadata-tokenURI}."
      },
      "totalSupply()": {
        "details": "Burned tokens are calculated here, use _totalMinted() if you want to count just minted tokens."
      },
      "transferFrom(address,address,uint256)": {
        "details": "See {IERC721-transferFrom}."
      },
      "transferOwnership(address)": {
        "details": "Transfers ownership of the contract to a new account (`newOwner`). Can only be called by the current owner."
      }
    },
    "stateVariables": {
      "version": {
        "details": "Semantic versioning for this contract"
      }
    },
    "version": 1
  },
  "userdoc": {
    "events": {
      "Created(address,uint256,uint256,bytes32[])": {
        "notice": "============ Events ============"
      }
    },
    "kind": "user",
    "methods": {
      "amountForPromotion()": {
        "notice": "promotional nfts count"
      },
      "baseURI()": {
        "notice": "core metadata baseURI used for tokens metadata"
      },
      "claimMerkleRoot()": {
        "notice": "ERC721-claim inclusion root"
      },
      "claimMint(uint256,uint256,bytes32[])": {
        "notice": "Allows claim of tokens if address is part of merkle tree"
      },
      "claimTime()": {
        "notice": "time the claim starts"
      },
      "collectionSize()": {
        "notice": "total number of tokens in the collection"
      },
      "constructor": {
        "notice": "Creates a new Creator contract"
      },
      "maxMintPerAddress()": {
        "notice": "max mintable tokens for each address in public"
      },
      "mintOf(address)": {
        "notice": "returns the number of mints of an address"
      },
      "mintPrice()": {
        "notice": "mint price of each nft; same for pre/public sale."
      },
      "presaleMerkleRoot()": {
        "notice": "ERC721-presale inclusion root"
      },
      "presaleMint(uint256,uint256,bytes32[])": {
        "notice": "Allows presale minting of tokens if address is part of merkle tree"
      },
      "presaleTime()": {
        "notice": "time the presale starts"
      },
      "promotionMint(uint256)": {
        "notice": "used by owner to mint promotional nfts"
      },
      "publicMint(uint256)": {
        "notice": "Allows public minting of tokens"
      },
      "publicTime()": {
        "notice": "time the public starts"
      },
      "setBaseURI(string)": {
        "notice": "set the new baseURI to change the tokens metadata"
      },
      "setClaimMerkleRoot(bytes32)": {
        "notice": "force override the merkle root used in presale mint"
      },
      "setClaimTime(uint256)": {
        "notice": "Set the claim time for the mint"
      },
      "setOwnersExplicit(uint256)": {
        "notice": "sets the owners quantity explicity"
      },
      "setPresaleMerkleRoot(bytes32)": {
        "notice": "force override the merkle root used in presale mint"
      },
      "setPresaleTime(uint256)": {
        "notice": "Set the presale time for the mint"
      },
      "setPublicTime(uint256)": {
        "notice": "Set the public time for the mint"
      },
      "version()": {
        "notice": "============ Semantic Versioning ============"
      },
      "withdrawMoney()": {
        "notice": "withdraws the ether in the contract to owner"
      }
    },
    "notice": "! 1. Removed IRandomizer.sol",
    "version": 1
  },
  "storageLayout": {
    "storage": [
      {
        "astId": 5074,
        "contract": "contracts/RhapsodyCreatorGenerative.sol:RhapsodyCreatorGenerative",
        "label": "_currentIndex",
        "offset": 0,
        "slot": "0",
        "type": "t_uint256"
      },
      {
        "astId": 5076,
        "contract": "contracts/RhapsodyCreatorGenerative.sol:RhapsodyCreatorGenerative",
        "label": "_burnCounter",
        "offset": 0,
        "slot": "1",
        "type": "t_uint256"
      },
      {
        "astId": 5078,
        "contract": "contracts/RhapsodyCreatorGenerative.sol:RhapsodyCreatorGenerative",
        "label": "_name",
        "offset": 0,
        "slot": "2",
        "type": "t_string_storage"
      },
      {
        "astId": 5080,
        "contract": "contracts/RhapsodyCreatorGenerative.sol:RhapsodyCreatorGenerative",
        "label": "_symbol",
        "offset": 0,
        "slot": "3",
        "type": "t_string_storage"
      },
      {
        "astId": 5085,
        "contract": "contracts/RhapsodyCreatorGenerative.sol:RhapsodyCreatorGenerative",
        "label": "_ownerships",
        "offset": 0,
        "slot": "4",
        "type": "t_mapping(t_uint256,t_struct(TokenOwnership)5063_storage)"
      },
      {
        "astId": 5090,
        "contract": "contracts/RhapsodyCreatorGenerative.sol:RhapsodyCreatorGenerative",
        "label": "_addressData",
        "offset": 0,
        "slot": "5",
        "type": "t_mapping(t_address,t_struct(AddressData)5072_storage)"
      },
      {
        "astId": 5094,
        "contract": "contracts/RhapsodyCreatorGenerative.sol:RhapsodyCreatorGenerative",
        "label": "_tokenApprovals",
        "offset": 0,
        "slot": "6",
        "type": "t_mapping(t_uint256,t_address)"
      },
      {
        "astId": 5100,
        "contract": "contracts/RhapsodyCreatorGenerative.sol:RhapsodyCreatorGenerative",
        "label": "_operatorApprovals",
        "offset": 0,
        "slot": "7",
        "type": "t_mapping(t_address,t_mapping(t_address,t_bool))"
      },
      {
        "astId": 6340,
        "contract": "contracts/RhapsodyCreatorGenerative.sol:RhapsodyCreatorGenerative",
        "label": "nextOwnerToExplicitlySet",
        "offset": 0,
        "slot": "8",
        "type": "t_uint256"
      },
      {
        "astId": 7,
        "contract": "contracts/RhapsodyCreatorGenerative.sol:RhapsodyCreatorGenerative",
        "label": "_owner",
        "offset": 0,
        "slot": "9",
        "type": "t_address"
      },
      {
        "astId": 123,
        "contract": "contracts/RhapsodyCreatorGenerative.sol:RhapsodyCreatorGenerative",
        "label": "_status",
        "offset": 0,
        "slot": "10",
        "type": "t_uint256"
      },
      {
        "astId": 3960,
        "contract": "contracts/RhapsodyCreatorGenerative.sol:RhapsodyCreatorGenerative",
        "label": "presaleMerkleRoot",
        "offset": 0,
        "slot": "11",
        "type": "t_bytes32"
      },
      {
        "astId": 3963,
        "contract": "contracts/RhapsodyCreatorGenerative.sol:RhapsodyCreatorGenerative",
        "label": "claimMerkleRoot",
        "offset": 0,
        "slot": "12",
        "type": "t_bytes32"
      },
      {
        "astId": 3966,
        "contract": "contracts/RhapsodyCreatorGenerative.sol:RhapsodyCreatorGenerative",
        "label": "claimTime",
        "offset": 0,
        "slot": "13",
        "type": "t_uint256"
      },
      {
        "astId": 3969,
        "contract": "contracts/RhapsodyCreatorGenerative.sol:RhapsodyCreatorGenerative",
        "label": "presaleTime",
        "offset": 0,
        "slot": "14",
        "type": "t_uint256"
      },
      {
        "astId": 3972,
        "contract": "contracts/RhapsodyCreatorGenerative.sol:RhapsodyCreatorGenerative",
        "label": "publicTime",
        "offset": 0,
        "slot": "15",
        "type": "t_uint256"
      },
      {
        "astId": 3977,
        "contract": "contracts/RhapsodyCreatorGenerative.sol:RhapsodyCreatorGenerative",
        "label": "_tokenHash",
        "offset": 0,
        "slot": "16",
        "type": "t_mapping(t_uint256,t_bytes32)"
      },
      {
        "astId": 3979,
        "contract": "contracts/RhapsodyCreatorGenerative.sol:RhapsodyCreatorGenerative",
        "label": "_baseTokenURI",
        "offset": 0,
        "slot": "17",
        "type": "t_string_storage"
      }
    ],
    "types": {
      "t_address": {
        "encoding": "inplace",
        "label": "address",
        "numberOfBytes": "20"
      },
      "t_bool": {
        "encoding": "inplace",
        "label": "bool",
        "numberOfBytes": "1"
      },
      "t_bytes32": {
        "encoding": "inplace",
        "label": "bytes32",
        "numberOfBytes": "32"
      },
      "t_mapping(t_address,t_bool)": {
        "encoding": "mapping",
        "key": "t_address",
        "label": "mapping(address => bool)",
        "numberOfBytes": "32",
        "value": "t_bool"
      },
      "t_mapping(t_address,t_mapping(t_address,t_bool))": {
        "encoding": "mapping",
        "key": "t_address",
        "label": "mapping(address => mapping(address => bool))",
        "numberOfBytes": "32",
        "value": "t_mapping(t_address,t_bool)"
      },
      "t_mapping(t_address,t_struct(AddressData)5072_storage)": {
        "encoding": "mapping",
        "key": "t_address",
        "label": "mapping(address => struct ERC721A.AddressData)",
        "numberOfBytes": "32",
        "value": "t_struct(AddressData)5072_storage"
      },
      "t_mapping(t_uint256,t_address)": {
        "encoding": "mapping",
        "key": "t_uint256",
        "label": "mapping(uint256 => address)",
        "numberOfBytes": "32",
        "value": "t_address"
      },
      "t_mapping(t_uint256,t_bytes32)": {
        "encoding": "mapping",
        "key": "t_uint256",
        "label": "mapping(uint256 => bytes32)",
        "numberOfBytes": "32",
        "value": "t_bytes32"
      },
      "t_mapping(t_uint256,t_struct(TokenOwnership)5063_storage)": {
        "encoding": "mapping",
        "key": "t_uint256",
        "label": "mapping(uint256 => struct ERC721A.TokenOwnership)",
        "numberOfBytes": "32",
        "value": "t_struct(TokenOwnership)5063_storage"
      },
      "t_string_storage": {
        "encoding": "bytes",
        "label": "string",
        "numberOfBytes": "32"
      },
      "t_struct(AddressData)5072_storage": {
        "encoding": "inplace",
        "label": "struct ERC721A.AddressData",
        "members": [
          {
            "astId": 5065,
            "contract": "contracts/RhapsodyCreatorGenerative.sol:RhapsodyCreatorGenerative",
            "label": "balance",
            "offset": 0,
            "slot": "0",
            "type": "t_uint64"
          },
          {
            "astId": 5067,
            "contract": "contracts/RhapsodyCreatorGenerative.sol:RhapsodyCreatorGenerative",
            "label": "numberMinted",
            "offset": 8,
            "slot": "0",
            "type": "t_uint64"
          },
          {
            "astId": 5069,
            "contract": "contracts/RhapsodyCreatorGenerative.sol:RhapsodyCreatorGenerative",
            "label": "numberBurned",
            "offset": 16,
            "slot": "0",
            "type": "t_uint64"
          },
          {
            "astId": 5071,
            "contract": "contracts/RhapsodyCreatorGenerative.sol:RhapsodyCreatorGenerative",
            "label": "aux",
            "offset": 24,
            "slot": "0",
            "type": "t_uint64"
          }
        ],
        "numberOfBytes": "32"
      },
      "t_struct(TokenOwnership)5063_storage": {
        "encoding": "inplace",
        "label": "struct ERC721A.TokenOwnership",
        "members": [
          {
            "astId": 5058,
            "contract": "contracts/RhapsodyCreatorGenerative.sol:RhapsodyCreatorGenerative",
            "label": "addr",
            "offset": 0,
            "slot": "0",
            "type": "t_address"
          },
          {
            "astId": 5060,
            "contract": "contracts/RhapsodyCreatorGenerative.sol:RhapsodyCreatorGenerative",
            "label": "startTimestamp",
            "offset": 20,
            "slot": "0",
            "type": "t_uint64"
          },
          {
            "astId": 5062,
            "contract": "contracts/RhapsodyCreatorGenerative.sol:RhapsodyCreatorGenerative",
            "label": "burned",
            "offset": 28,
            "slot": "0",
            "type": "t_bool"
          }
        ],
        "numberOfBytes": "32"
      },
      "t_uint256": {
        "encoding": "inplace",
        "label": "uint256",
        "numberOfBytes": "32"
      },
      "t_uint64": {
        "encoding": "inplace",
        "label": "uint64",
        "numberOfBytes": "8"
      }
    }
  }
}