{
  "address": "0xaa6B4e981E27259400cB592a88c552Ad03B0d252",
  "abi": [
    {
      "inputs": [
        {
          "internalType": "string",
          "name": "_name",
          "type": "string"
        },
        {
          "internalType": "string",
          "name": "_symbol",
          "type": "string"
        },
        {
          "internalType": "uint256",
          "name": "_collectionSize",
          "type": "uint256"
        },
        {
          "internalType": "uint256",
          "name": "_maxPublicBatchPerAddress",
          "type": "uint256"
        },
        {
          "internalType": "uint256",
          "name": "_amountForPromotion",
          "type": "uint256"
        },
        {
          "internalType": "uint256",
          "name": "_mintPrice",
          "type": "uint256"
        }
      ],
      "stateMutability": "nonpayable",
      "type": "constructor"
    },
    {
      "inputs": [],
      "name": "AllOwnershipsHaveBeenSet",
      "type": "error"
    },
    {
      "inputs": [],
      "name": "ApprovalCallerNotOwnerNorApproved",
      "type": "error"
    },
    {
      "inputs": [],
      "name": "ApprovalQueryForNonexistentToken",
      "type": "error"
    },
    {
      "inputs": [],
      "name": "ApprovalToCurrentOwner",
      "type": "error"
    },
    {
      "inputs": [],
      "name": "ApproveToCaller",
      "type": "error"
    },
    {
      "inputs": [],
      "name": "BalanceQueryForZeroAddress",
      "type": "error"
    },
    {
      "inputs": [],
      "name": "MintToZeroAddress",
      "type": "error"
    },
    {
      "inputs": [],
      "name": "MintZeroQuantity",
      "type": "error"
    },
    {
      "inputs": [],
      "name": "NoTokensMintedYet",
      "type": "error"
    },
    {
      "inputs": [],
      "name": "OwnerQueryForNonexistentToken",
      "type": "error"
    },
    {
      "inputs": [],
      "name": "QuantityMustBeNonZero",
      "type": "error"
    },
    {
      "inputs": [],
      "name": "TransferCallerNotOwnerNorApproved",
      "type": "error"
    },
    {
      "inputs": [],
      "name": "TransferFromIncorrectOwner",
      "type": "error"
    },
    {
      "inputs": [],
      "name": "TransferToNonERC721ReceiverImplementer",
      "type": "error"
    },
    {
      "inputs": [],
      "name": "TransferToZeroAddress",
      "type": "error"
    },
    {
      "inputs": [],
      "name": "URIQueryForNonexistentToken",
      "type": "error"
    },
    {
      "anonymous": false,
      "inputs": [
        {
          "indexed": true,
          "internalType": "address",
          "name": "owner",
          "type": "address"
        },
        {
          "indexed": true,
          "internalType": "address",
          "name": "approved",
          "type": "address"
        },
        {
          "indexed": true,
          "internalType": "uint256",
          "name": "tokenId",
          "type": "uint256"
        }
      ],
      "name": "Approval",
      "type": "event"
    },
    {
      "anonymous": false,
      "inputs": [
        {
          "indexed": true,
          "internalType": "address",
          "name": "owner",
          "type": "address"
        },
        {
          "indexed": true,
          "internalType": "address",
          "name": "operator",
          "type": "address"
        },
        {
          "indexed": false,
          "internalType": "bool",
          "name": "approved",
          "type": "bool"
        }
      ],
      "name": "ApprovalForAll",
      "type": "event"
    },
    {
      "anonymous": false,
      "inputs": [
        {
          "indexed": true,
          "internalType": "address",
          "name": "to",
          "type": "address"
        },
        {
          "indexed": false,
          "internalType": "uint256",
          "name": "amount",
          "type": "uint256"
        }
      ],
      "name": "Created",
      "type": "event"
    },
    {
      "anonymous": false,
      "inputs": [
        {
          "indexed": true,
          "internalType": "address",
          "name": "previousOwner",
          "type": "address"
        },
        {
          "indexed": true,
          "internalType": "address",
          "name": "newOwner",
          "type": "address"
        }
      ],
      "name": "OwnershipTransferred",
      "type": "event"
    },
    {
      "anonymous": false,
      "inputs": [
        {
          "indexed": true,
          "internalType": "address",
          "name": "from",
          "type": "address"
        },
        {
          "indexed": true,
          "internalType": "address",
          "name": "to",
          "type": "address"
        },
        {
          "indexed": true,
          "internalType": "uint256",
          "name": "tokenId",
          "type": "uint256"
        }
      ],
      "name": "Transfer",
      "type": "event"
    },
    {
      "inputs": [],
      "name": "amountForPromotion",
      "outputs": [
        {
          "internalType": "uint256",
          "name": "",
          "type": "uint256"
        }
      ],
      "stateMutability": "view",
      "type": "function"
    },
    {
      "inputs": [
        {
          "internalType": "address",
          "name": "to",
          "type": "address"
        },
        {
          "internalType": "uint256",
          "name": "tokenId",
          "type": "uint256"
        }
      ],
      "name": "approve",
      "outputs": [],
      "stateMutability": "nonpayable",
      "type": "function"
    },
    {
      "inputs": [
        {
          "internalType": "address",
          "name": "owner",
          "type": "address"
        }
      ],
      "name": "balanceOf",
      "outputs": [
        {
          "internalType": "uint256",
          "name": "",
          "type": "uint256"
        }
      ],
      "stateMutability": "view",
      "type": "function"
    },
    {
      "inputs": [],
      "name": "baseURI",
      "outputs": [
        {
          "internalType": "string",
          "name": "",
          "type": "string"
        }
      ],
      "stateMutability": "view",
      "type": "function"
    },
    {
      "inputs": [
        {
          "internalType": "uint256",
          "name": "tokenId",
          "type": "uint256"
        }
      ],
      "name": "getApproved",
      "outputs": [
        {
          "internalType": "address",
          "name": "",
          "type": "address"
        }
      ],
      "stateMutability": "view",
      "type": "function"
    },
    {
      "inputs": [
        {
          "internalType": "address",
          "name": "owner",
          "type": "address"
        },
        {
          "internalType": "address",
          "name": "operator",
          "type": "address"
        }
      ],
      "name": "isApprovedForAll",
      "outputs": [
        {
          "internalType": "bool",
          "name": "",
          "type": "bool"
        }
      ],
      "stateMutability": "view",
      "type": "function"
    },
    {
      "inputs": [],
      "name": "maxPublicBatchPerAddress",
      "outputs": [
        {
          "internalType": "uint256",
          "name": "",
          "type": "uint256"
        }
      ],
      "stateMutability": "view",
      "type": "function"
    },
    {
      "inputs": [
        {
          "internalType": "address",
          "name": "_owner",
          "type": "address"
        }
      ],
      "name": "mintOf",
      "outputs": [
        {
          "internalType": "uint256",
          "name": "",
          "type": "uint256"
        }
      ],
      "stateMutability": "view",
      "type": "function"
    },
    {
      "inputs": [],
      "name": "mintPrice",
      "outputs": [
        {
          "internalType": "uint256",
          "name": "",
          "type": "uint256"
        }
      ],
      "stateMutability": "view",
      "type": "function"
    },
    {
      "inputs": [],
      "name": "name",
      "outputs": [
        {
          "internalType": "string",
          "name": "",
          "type": "string"
        }
      ],
      "stateMutability": "view",
      "type": "function"
    },
    {
      "inputs": [],
      "name": "nextOwnerToExplicitlySet",
      "outputs": [
        {
          "internalType": "uint256",
          "name": "",
          "type": "uint256"
        }
      ],
      "stateMutability": "view",
      "type": "function"
    },
    {
      "inputs": [],
      "name": "owner",
      "outputs": [
        {
          "internalType": "address",
          "name": "",
          "type": "address"
        }
      ],
      "stateMutability": "view",
      "type": "function"
    },
    {
      "inputs": [
        {
          "internalType": "uint256",
          "name": "tokenId",
          "type": "uint256"
        }
      ],
      "name": "ownerOf",
      "outputs": [
        {
          "internalType": "address",
          "name": "",
          "type": "address"
        }
      ],
      "stateMutability": "view",
      "type": "function"
    },
    {
      "inputs": [],
      "name": "presaleMerkleRoot",
      "outputs": [
        {
          "internalType": "bytes32",
          "name": "",
          "type": "bytes32"
        }
      ],
      "stateMutability": "view",
      "type": "function"
    },
    {
      "inputs": [
        {
          "internalType": "uint256",
          "name": "invocations",
          "type": "uint256"
        },
        {
          "internalType": "uint256",
          "name": "maxInvocation",
          "type": "uint256"
        },
        {
          "internalType": "bytes32[]",
          "name": "proof",
          "type": "bytes32[]"
        }
      ],
      "name": "presaleMint",
      "outputs": [],
      "stateMutability": "payable",
      "type": "function"
    },
    {
      "inputs": [],
      "name": "presaleTime",
      "outputs": [
        {
          "internalType": "uint256",
          "name": "",
          "type": "uint256"
        }
      ],
      "stateMutability": "view",
      "type": "function"
    },
    {
      "inputs": [
        {
          "internalType": "uint256",
          "name": "invocations",
          "type": "uint256"
        }
      ],
      "name": "promotionMint",
      "outputs": [],
      "stateMutability": "nonpayable",
      "type": "function"
    },
    {
      "inputs": [
        {
          "internalType": "uint256",
          "name": "invocations",
          "type": "uint256"
        }
      ],
      "name": "publicMint",
      "outputs": [],
      "stateMutability": "payable",
      "type": "function"
    },
    {
      "inputs": [],
      "name": "publicTime",
      "outputs": [
        {
          "internalType": "uint256",
          "name": "",
          "type": "uint256"
        }
      ],
      "stateMutability": "view",
      "type": "function"
    },
    {
      "inputs": [],
      "name": "renounceOwnership",
      "outputs": [],
      "stateMutability": "nonpayable",
      "type": "function"
    },
    {
      "inputs": [
        {
          "internalType": "address",
          "name": "from",
          "type": "address"
        },
        {
          "internalType": "address",
          "name": "to",
          "type": "address"
        },
        {
          "internalType": "uint256",
          "name": "tokenId",
          "type": "uint256"
        }
      ],
      "name": "safeTransferFrom",
      "outputs": [],
      "stateMutability": "nonpayable",
      "type": "function"
    },
    {
      "inputs": [
        {
          "internalType": "address",
          "name": "from",
          "type": "address"
        },
        {
          "internalType": "address",
          "name": "to",
          "type": "address"
        },
        {
          "internalType": "uint256",
          "name": "tokenId",
          "type": "uint256"
        },
        {
          "internalType": "bytes",
          "name": "_data",
          "type": "bytes"
        }
      ],
      "name": "safeTransferFrom",
      "outputs": [],
      "stateMutability": "nonpayable",
      "type": "function"
    },
    {
      "inputs": [
        {
          "internalType": "address",
          "name": "operator",
          "type": "address"
        },
        {
          "internalType": "bool",
          "name": "approved",
          "type": "bool"
        }
      ],
      "name": "setApprovalForAll",
      "outputs": [],
      "stateMutability": "nonpayable",
      "type": "function"
    },
    {
      "inputs": [
        {
          "internalType": "string",
          "name": "newBaseURI",
          "type": "string"
        }
      ],
      "name": "setBaseURI",
      "outputs": [],
      "stateMutability": "nonpayable",
      "type": "function"
    },
    {
      "inputs": [
        {
          "internalType": "bytes32",
          "name": "_presaleMerkleRoot",
          "type": "bytes32"
        }
      ],
      "name": "setMintMerkleRoot",
      "outputs": [],
      "stateMutability": "nonpayable",
      "type": "function"
    },
    {
      "inputs": [
        {
          "internalType": "uint256",
          "name": "_presaleTime",
          "type": "uint256"
        },
        {
          "internalType": "uint256",
          "name": "_publicTime",
          "type": "uint256"
        }
      ],
      "name": "setMintTime",
      "outputs": [],
      "stateMutability": "nonpayable",
      "type": "function"
    },
    {
      "inputs": [
        {
          "internalType": "uint256",
          "name": "quantity",
          "type": "uint256"
        }
      ],
      "name": "setOwnersExplicit",
      "outputs": [],
      "stateMutability": "nonpayable",
      "type": "function"
    },
    {
      "inputs": [
        {
          "internalType": "bytes4",
          "name": "interfaceId",
          "type": "bytes4"
        }
      ],
      "name": "supportsInterface",
      "outputs": [
        {
          "internalType": "bool",
          "name": "",
          "type": "bool"
        }
      ],
      "stateMutability": "view",
      "type": "function"
    },
    {
      "inputs": [],
      "name": "symbol",
      "outputs": [
        {
          "internalType": "string",
          "name": "",
          "type": "string"
        }
      ],
      "stateMutability": "view",
      "type": "function"
    },
    {
      "inputs": [
        {
          "internalType": "uint256",
          "name": "tokenId",
          "type": "uint256"
        }
      ],
      "name": "tokenURI",
      "outputs": [
        {
          "internalType": "string",
          "name": "",
          "type": "string"
        }
      ],
      "stateMutability": "view",
      "type": "function"
    },
    {
      "inputs": [],
      "name": "totalSupply",
      "outputs": [
        {
          "internalType": "uint256",
          "name": "",
          "type": "uint256"
        }
      ],
      "stateMutability": "view",
      "type": "function"
    },
    {
      "inputs": [
        {
          "internalType": "address",
          "name": "from",
          "type": "address"
        },
        {
          "internalType": "address",
          "name": "to",
          "type": "address"
        },
        {
          "internalType": "uint256",
          "name": "tokenId",
          "type": "uint256"
        }
      ],
      "name": "transferFrom",
      "outputs": [],
      "stateMutability": "nonpayable",
      "type": "function"
    },
    {
      "inputs": [
        {
          "internalType": "address",
          "name": "newOwner",
          "type": "address"
        }
      ],
      "name": "transferOwnership",
      "outputs": [],
      "stateMutability": "nonpayable",
      "type": "function"
    },
    {
      "inputs": [],
      "name": "withdrawMoney",
      "outputs": [],
      "stateMutability": "nonpayable",
      "type": "function"
    }
  ],
  "transactionHash": "0xff316eb48e38db214d52d2cba0119fd28c93dad781b1282ae3ef40c146543efe",
  "args": [
    "Rhapsody",
    "RHY",
    1111,
    2,
    40,
    "333000000000000000"
  ],
  "numDeployments": 1,
  "solcInputHash": "7941f7b8571e309ce98e389f22b50869",
  "bytecode": "0x6101006040523480156200001257600080fd5b5060405162002a1a38038062002a1a83398101604081905262000035916200037e565b8551869086906200004e9060029060208501906200020b565b508051620000649060039060208401906200020b565b505060008055506200007633620001b9565b6001600a5583620000de5760405162461bcd60e51b815260206004820152602760248201527f52686170736f647943726561746f722f696e76616c69642d636f6c6c656374696044820152666f6e2d73697a6560c81b60648201526084015b60405180910390fd5b83821115620001415760405162461bcd60e51b815260206004820152602860248201527f52686170736f647943726561746f722f696e76616c69642d70726f6d6f74696f6044820152671b8b585b5bdd5b9d60c21b6064820152608401620000d5565b600081116200019e5760405162461bcd60e51b815260206004820152602260248201527f52686170736f647943726561746f722f696e76616c69642d6d696e742d707269604482015261636560f01b6064820152608401620000d5565b60e09390935260a09190915260805260c052506200044a9050565b600980546001600160a01b038381166001600160a01b0319831681179093556040519116919082907f8be0079c531659141344cd1fd0a4f28419497f9722a3daafe3b4186f6b6457e090600090a35050565b82805462000219906200040d565b90600052602060002090601f0160209004810192826200023d576000855562000288565b82601f106200025857805160ff191683800117855562000288565b8280016001018555821562000288579182015b82811115620002885782518255916020019190600101906200026b565b50620002969291506200029a565b5090565b5b808211156200029657600081556001016200029b565b634e487b7160e01b600052604160045260246000fd5b600082601f830112620002d957600080fd5b81516001600160401b0380821115620002f657620002f6620002b1565b604051601f8301601f19908116603f01168101908282118183101715620003215762000321620002b1565b816040528381526020925086838588010111156200033e57600080fd5b600091505b8382101562000362578582018301518183018401529082019062000343565b83821115620003745760008385830101525b9695505050505050565b60008060008060008060c087890312156200039857600080fd5b86516001600160401b0380821115620003b057600080fd5b620003be8a838b01620002c7565b97506020890151915080821115620003d557600080fd5b50620003e489828a01620002c7565b95505060408701519350606087015192506080870151915060a087015190509295509295509295565b600181811c908216806200042257607f821691505b602082108114156200044457634e487b7160e01b600052602260045260246000fd5b50919050565b60805160a05160c05160e05161256c620004ae600039600081816108490152610baa0152600081816103f6015281816108a20152610bfd01526000818161051b01528181610b6a015261113701526000818161047401526110a6015261256c6000f3fe6080604052600436106101f95760003560e01c806370a082311161010d578063ac446002116100a0578063c6e62e0b1161006f578063c6e62e0b146105b2578063c87b56dd146105c8578063d7224ba0146105e8578063e985e9c5146105fe578063f2fde38b1461064757600080fd5b8063ac4460021461053d578063b1f536fa14610552578063b88d4fde14610572578063ba2f59c81461059257600080fd5b8063910401c5116100dc578063910401c5146104b457806395d89b41146104d4578063a22cb465146104e9578063a4babffd1461050957600080fd5b806370a082311461042d578063715018a61461044d57806376972db2146104625780638da5cb5b1461049657600080fd5b806323b872dd1161019057806342842e0e1161015f57806342842e0e1461038457806355f804b3146103a45780636352211e146103c45780636817c76c146103e45780636c0360eb1461041857600080fd5b806323b872dd146103115780632d20fb60146103315780632db11544146103515780633a4710c41461036457600080fd5b806318160ddd116101cc57806318160ddd146102af5780631b59169d146102d25780631bdc608e146102e557806322212e2b146102fb57600080fd5b806301ffc9a7146101fe57806306fdde0314610233578063081812fc14610255578063095ea7b31461028d575b600080fd5b34801561020a57600080fd5b5061021e610219366004611e3d565b610667565b60405190151581526020015b60405180910390f35b34801561023f57600080fd5b506102486106b9565b60405161022a9190611eb2565b34801561026157600080fd5b50610275610270366004611ec5565b61074b565b6040516001600160a01b03909116815260200161022a565b34801561029957600080fd5b506102ad6102a8366004611efa565b61078f565b005b3480156102bb57600080fd5b50600154600054035b60405190815260200161022a565b6102ad6102e0366004611f24565b61081d565b3480156102f157600080fd5b506102c4600d5481565b34801561030757600080fd5b506102c4600b5481565b34801561031d57600080fd5b506102ad61032c366004611fa7565b610aeb565b34801561033d57600080fd5b506102ad61034c366004611ec5565b610af6565b6102ad61035f366004611ec5565b610b67565b34801561037057600080fd5b506102ad61037f366004611ec5565b610d0b565b34801561039057600080fd5b506102ad61039f366004611fa7565b610d18565b3480156103b057600080fd5b506102ad6103bf366004611fe3565b610d33565b3480156103d057600080fd5b506102756103df366004611ec5565b610d47565b3480156103f057600080fd5b506102c47f000000000000000000000000000000000000000000000000000000000000000081565b34801561042457600080fd5b50610248610d59565b34801561043957600080fd5b506102c4610448366004612055565b610d68565b34801561045957600080fd5b506102ad610db7565b34801561046e57600080fd5b506102c47f000000000000000000000000000000000000000000000000000000000000000081565b3480156104a257600080fd5b506009546001600160a01b0316610275565b3480156104c057600080fd5b506102ad6104cf366004612070565b610dcb565b3480156104e057600080fd5b50610248610e94565b3480156104f557600080fd5b506102ad610504366004612092565b610ea3565b34801561051557600080fd5b506102c47f000000000000000000000000000000000000000000000000000000000000000081565b34801561054957600080fd5b506102ad610f39565b34801561055e57600080fd5b506102c461056d366004612055565b611040565b34801561057e57600080fd5b506102ad61058d3660046120e4565b61104b565b34801561059e57600080fd5b506102ad6105ad366004611ec5565b61109c565b3480156105be57600080fd5b506102c4600c5481565b3480156105d457600080fd5b506102486105e3366004611ec5565b61122c565b3480156105f457600080fd5b506102c460085481565b34801561060a57600080fd5b5061021e6106193660046121c0565b6001600160a01b03918216600090815260076020908152604080832093909416825291909152205460ff1690565b34801561065357600080fd5b506102ad610662366004612055565b6112b1565b60006001600160e01b031982166380ac58cd60e01b148061069857506001600160e01b03198216635b5e139f60e01b145b806106b357506301ffc9a760e01b6001600160e01b03198316145b92915050565b6060600280546106c8906121f3565b80601f01602080910402602001604051908101604052809291908181526020018280546106f4906121f3565b80156107415780601f1061071657610100808354040283529160200191610741565b820191906000526020600020905b81548152906001019060200180831161072457829003601f168201915b5050505050905090565b60006107568261132a565b610773576040516333d1c03960e21b815260040160405180910390fd5b506000908152600660205260409020546001600160a01b031690565b600061079a82610d47565b9050806001600160a01b0316836001600160a01b031614156107cf5760405163250fdee360e21b815260040160405180910390fd5b336001600160a01b038216148015906107ef57506107ed8133610619565b155b1561080d576040516367d9dca160e11b815260040160405180910390fd5b610818838383611355565b505050565b83833233146108475760405162461bcd60e51b815260040161083e9061222e565b60405180910390fd5b7f000000000000000000000000000000000000000000000000000000000000000061087f836108796001546000540390565b906113b1565b111561089d5760405162461bcd60e51b815260040161083e90612271565b6108c77f0000000000000000000000000000000000000000000000000000000000000000836113bd565b34146108e55760405162461bcd60e51b815260040161083e906122b5565b6000341180156108f55750600082115b6109115760405162461bcd60e51b815260040161083e906122f7565b8061091f83610879336113c9565b111561093d5760405162461bcd60e51b815260040161083e90612348565b600c5460008111801561094f57508042115b61096b5760405162461bcd60e51b815260040161083e90612399565b610974336113c9565b156109cd5760405162461bcd60e51b815260206004820152602360248201527f52686170736f647943726561746f722f696e76616c69642d646f75626c652d6d6044820152621a5b9d60ea1b606482015260840161083e565b610a4985858080602002602001604051908101604052809392919081815260200183836020028082843760009201919091525050600b546040516bffffffffffffffffffffffff193360601b166020820152603481018c90529092506054019050604051602081830303815290604052805190602001206113f8565b610aa35760405162461bcd60e51b815260206004820152602560248201527f52686170736f647943726561746f722f696e76616c69642d616464726573732d604482015264383937b7b360d91b606482015260840161083e565b610aad338861140e565b60405187815233907f0ce3610e89a4bb9ec9359763f99110ed52a4abaea0b62028a1637e242ca2768b9060200160405180910390a250505050505050565b61081883838361142c565b610afe61161c565b6002600a541415610b515760405162461bcd60e51b815260206004820152601f60248201527f5265656e7472616e637947756172643a207265656e7472616e742063616c6c00604482015260640161083e565b6002600a55610b5f81611676565b506001600a55565b807f0000000000000000000000000000000000000000000000000000000000000000323314610ba85760405162461bcd60e51b815260040161083e9061222e565b7f0000000000000000000000000000000000000000000000000000000000000000610bda836108796001546000540390565b1115610bf85760405162461bcd60e51b815260040161083e90612271565b610c227f0000000000000000000000000000000000000000000000000000000000000000836113bd565b3414610c405760405162461bcd60e51b815260040161083e906122b5565b600034118015610c505750600082115b610c6c5760405162461bcd60e51b815260040161083e906122f7565b80610c7a83610879336113c9565b1115610c985760405162461bcd60e51b815260040161083e90612348565b600d54600081118015610caa57508042115b610cc65760405162461bcd60e51b815260040161083e90612399565b610cd0338561140e565b60405184815233907f0ce3610e89a4bb9ec9359763f99110ed52a4abaea0b62028a1637e242ca2768b9060200160405180910390a250505050565b610d1361161c565b600b55565b6108188383836040518060200160405280600081525061104b565b610d3b61161c565b610818600e8383611d8e565b6000610d52826117ae565b5192915050565b6060610d636118ca565b905090565b60006001600160a01b038216610d91576040516323d3ad8160e21b815260040160405180910390fd5b506001600160a01b031660009081526005602052604090205467ffffffffffffffff1690565b610dbf61161c565b610dc960006118d9565b565b610dd361161c565b428211610e2e5760405162461bcd60e51b8152602060048201526024808201527f52686170736f647943726561746f722f696e76616c69642d70726573616c652d60448201526374696d6560e01b606482015260840161083e565b818111610e895760405162461bcd60e51b815260206004820152602360248201527f52686170736f647943726561746f722f696e76616c69642d7075626c69632d74604482015262696d6560e81b606482015260840161083e565b600c91909155600d55565b6060600380546106c8906121f3565b6001600160a01b038216331415610ecd5760405163b06307db60e01b815260040160405180910390fd5b3360008181526007602090815260408083206001600160a01b03871680855290835292819020805460ff191686151590811790915590519081529192917f17307eab39ab6107e8899845ad3d59bd9653f200f220920489ca2b5937696c31910160405180910390a35050565b610f4161161c565b6002600a541415610f945760405162461bcd60e51b815260206004820152601f60248201527f5265656e7472616e637947756172643a207265656e7472616e742063616c6c00604482015260640161083e565b6002600a55604051600090339047908381818185875af1925050503d8060008114610fdb576040519150601f19603f3d011682016040523d82523d6000602084013e610fe0565b606091505b5050905080610b5f5760405162461bcd60e51b815260206004820152602660248201527f52686170736f647943726561746f722f696e76616c69642d77697468647261776044820152652d6d6f6e657960d01b606482015260840161083e565b60006106b3826113c9565b61105684848461142c565b6001600160a01b0383163b1515801561107857506110768484848461192b565b155b15611096576040516368d2bf6b60e11b815260040160405180910390fd5b50505050565b6110a461161c565b7f00000000000000000000000000000000000000000000000000000000000000006110d6826108796001546000540390565b11156111355760405162461bcd60e51b815260206004820152602860248201527f52686170736f647943726561746f722f696e76616c69642d70726f6d6f74696f6044820152676e2d737570706c7960c01b606482015260840161083e565b7f00000000000000000000000000000000000000000000000000000000000000006111608282611a23565b156111bc5760405162461bcd60e51b815260206004820152602660248201527f52686170736f647943726561746f722f696e76616c69642d62617463682d6d756044820152656c7469706c6560d01b606482015260840161083e565b60006111c88383611a2f565b905060005b818110156111f1576111df338461140e565b806111e9816123f0565b9150506111cd565b5060405183815233907f0ce3610e89a4bb9ec9359763f99110ed52a4abaea0b62028a1637e242ca2768b9060200160405180910390a2505050565b60606112378261132a565b61125457604051630a14c4b560e41b815260040160405180910390fd5b600061125e6118ca565b905080516000141561127f57604051806020016040528060008152506112aa565b8061128984611a3b565b60405160200161129a92919061240b565b6040516020818303038152906040525b9392505050565b6112b961161c565b6001600160a01b03811661131e5760405162461bcd60e51b815260206004820152602660248201527f4f776e61626c653a206e6577206f776e657220697320746865207a65726f206160448201526564647265737360d01b606482015260840161083e565b611327816118d9565b50565b60008054821080156106b3575050600090815260046020526040902054600160e01b900460ff161590565b60008281526006602052604080822080546001600160a01b0319166001600160a01b0387811691821790925591518593918516917f8c5be1e5ebec7d5bd14f71427d1e84f3dd0314c0f7b2291e5b200ac8c7c3b92591a4505050565b60006112aa828461243a565b60006112aa8284612452565b6001600160a01b038116600090815260056020526040812054600160401b900467ffffffffffffffff166106b3565b6000826114058584611b39565b14949350505050565b611428828260405180602001604052806000815250611b86565b5050565b6000611437826117ae565b9050836001600160a01b031681600001516001600160a01b03161461146e5760405162a1148160e81b815260040160405180910390fd5b6000336001600160a01b038616148061148c575061148c8533610619565b806114a757503361149c8461074b565b6001600160a01b0316145b9050806114c757604051632ce44b5f60e11b815260040160405180910390fd5b6001600160a01b0384166114ee57604051633a954ecd60e21b815260040160405180910390fd5b6114fa60008487611355565b6001600160a01b038581166000908152600560209081526040808320805467ffffffffffffffff1980821667ffffffffffffffff92831660001901831617909255898616808652838620805493841693831660019081018416949094179055898652600490945282852080546001600160e01b031916909417600160a01b429092169190910217835587018084529220805491939091166115d05760005482146115d0578054602086015167ffffffffffffffff16600160a01b026001600160e01b03199091166001600160a01b038a16171781555b50505082846001600160a01b0316866001600160a01b03167fddf252ad1be2c89b69c2b068fc378daa952ba7f163c4a11628f55a4df523b3ef60405160405180910390a45b5050505050565b6009546001600160a01b03163314610dc95760405162461bcd60e51b815260206004820181905260248201527f4f776e61626c653a2063616c6c6572206973206e6f7420746865206f776e6572604482015260640161083e565b80611694576040516356be441560e01b815260040160405180910390fd5b6000546116b45760405163c0367cab60e01b815260040160405180910390fd5b600854806116c0575060005b60005481106116e2576040516370e89b1b60e01b815260040160405180910390fd5b60005482820160001981019110156116fd5750600054600019015b815b8181116117a3576000818152600460205260409020546001600160a01b03161580156117415750600081815260046020526040902054600160e01b900460ff16155b1561179b576000611751826117ae565b805160008481526004602090815260409091208054919093015167ffffffffffffffff16600160a01b026001600160e01b03199091166001600160a01b0390921691909117179055505b6001016116ff565b506001016008555050565b6040805160608101825260008082526020820181905291810191909152816000548110156118b157600081815260046020908152604091829020825160608101845290546001600160a01b0381168252600160a01b810467ffffffffffffffff1692820192909252600160e01b90910460ff161515918101829052906118af5780516001600160a01b031615611845579392505050565b5060001901600081815260046020908152604091829020825160608101845290546001600160a01b038116808352600160a01b820467ffffffffffffffff1693830193909352600160e01b900460ff16151592810192909252156118aa579392505050565b611845565b505b604051636f96cda160e11b815260040160405180910390fd5b6060600e80546106c8906121f3565b600980546001600160a01b038381166001600160a01b0319831681179093556040519116919082907f8be0079c531659141344cd1fd0a4f28419497f9722a3daafe3b4186f6b6457e090600090a35050565b604051630a85bd0160e11b81526000906001600160a01b0385169063150b7a0290611960903390899088908890600401612471565b602060405180830381600087803b15801561197a57600080fd5b505af19250505080156119aa575060408051601f3d908101601f191682019092526119a7918101906124ae565b60015b611a05573d8080156119d8576040519150601f19603f3d011682016040523d82523d6000602084013e6119dd565b606091505b5080516119fd576040516368d2bf6b60e11b815260040160405180910390fd5b805181602001fd5b6001600160e01b031916630a85bd0160e11b1490505b949350505050565b60006112aa82846124e1565b60006112aa82846124f5565b606081611a5f5750506040805180820190915260018152600360fc1b602082015290565b8160005b8115611a895780611a73816123f0565b9150611a829050600a836124f5565b9150611a63565b60008167ffffffffffffffff811115611aa457611aa46120ce565b6040519080825280601f01601f191660200182016040528015611ace576020820181803683370190505b5090505b8415611a1b57611ae3600183612509565b9150611af0600a866124e1565b611afb90603061243a565b60f81b818381518110611b1057611b10612520565b60200101906001600160f81b031916908160001a905350611b32600a866124f5565b9450611ad2565b600081815b8451811015611b7e57611b6a82868381518110611b5d57611b5d612520565b6020026020010151611b93565b915080611b76816123f0565b915050611b3e565b509392505050565b6108188383836001611bc2565b6000818310611baf5760008281526020849052604090206112aa565b60008381526020839052604090206112aa565b6000546001600160a01b038516611beb57604051622e076360e81b815260040160405180910390fd5b83611c095760405163b562e8dd60e01b815260040160405180910390fd5b6001600160a01b038516600081815260056020908152604080832080546fffffffffffffffffffffffffffffffff19811667ffffffffffffffff8083168c018116918217600160401b67ffffffffffffffff1990941690921783900481168c01811690920217909155858452600490925290912080546001600160e01b031916909217600160a01b429092169190910217905580808501838015611cb657506001600160a01b0387163b15155b15611d3f575b60405182906001600160a01b038916906000907fddf252ad1be2c89b69c2b068fc378daa952ba7f163c4a11628f55a4df523b3ef908290a4611d07600088848060010195508861192b565b611d24576040516368d2bf6b60e11b815260040160405180910390fd5b80821415611cbc578260005414611d3a57600080fd5b611d85565b5b6040516001830192906001600160a01b038916906000907fddf252ad1be2c89b69c2b068fc378daa952ba7f163c4a11628f55a4df523b3ef908290a480821415611d40575b50600055611615565b828054611d9a906121f3565b90600052602060002090601f016020900481019282611dbc5760008555611e02565b82601f10611dd55782800160ff19823516178555611e02565b82800160010185558215611e02579182015b82811115611e02578235825591602001919060010190611de7565b50611e0e929150611e12565b5090565b5b80821115611e0e5760008155600101611e13565b6001600160e01b03198116811461132757600080fd5b600060208284031215611e4f57600080fd5b81356112aa81611e27565b60005b83811015611e75578181015183820152602001611e5d565b838111156110965750506000910152565b60008151808452611e9e816020860160208601611e5a565b601f01601f19169290920160200192915050565b6020815260006112aa6020830184611e86565b600060208284031215611ed757600080fd5b5035919050565b80356001600160a01b0381168114611ef557600080fd5b919050565b60008060408385031215611f0d57600080fd5b611f1683611ede565b946020939093013593505050565b60008060008060608587031215611f3a57600080fd5b8435935060208501359250604085013567ffffffffffffffff80821115611f6057600080fd5b818701915087601f830112611f7457600080fd5b813581811115611f8357600080fd5b8860208260051b8501011115611f9857600080fd5b95989497505060200194505050565b600080600060608486031215611fbc57600080fd5b611fc584611ede565b9250611fd360208501611ede565b9150604084013590509250925092565b60008060208385031215611ff657600080fd5b823567ffffffffffffffff8082111561200e57600080fd5b818501915085601f83011261202257600080fd5b81358181111561203157600080fd5b86602082850101111561204357600080fd5b60209290920196919550909350505050565b60006020828403121561206757600080fd5b6112aa82611ede565b6000806040838503121561208357600080fd5b50508035926020909101359150565b600080604083850312156120a557600080fd5b6120ae83611ede565b9150602083013580151581146120c357600080fd5b809150509250929050565b634e487b7160e01b600052604160045260246000fd5b600080600080608085870312156120fa57600080fd5b61210385611ede565b935061211160208601611ede565b925060408501359150606085013567ffffffffffffffff8082111561213557600080fd5b818701915087601f83011261214957600080fd5b81358181111561215b5761215b6120ce565b604051601f8201601f19908116603f01168101908382118183101715612183576121836120ce565b816040528281528a602084870101111561219c57600080fd5b82602086016020830137600060208483010152809550505050505092959194509250565b600080604083850312156121d357600080fd5b6121dc83611ede565b91506121ea60208401611ede565b90509250929050565b600181811c9082168061220757607f821691505b6020821081141561222857634e487b7160e01b600052602260045260246000fd5b50919050565b60208082526023908201527f52686170736f647943726561746f722f696e76616c69642d6d696e742d63616c6040820152623632b960e91b606082015260800190565b60208082526024908201527f52686170736f647943726561746f722f696e76616c69642d746f74616c2d737560408201526370706c7960e01b606082015260800190565b60208082526022908201527f52686170736f647943726561746f722f696e76616c69642d6d696e742d76616c604082015261756560f01b606082015260800190565b60208082526031908201527f52686170736f647943726561746f722f696e76616c69642d696e766f636174696040820152706f6e2d6c6f7765722d626f756e6461727960781b606082015260800190565b60208082526031908201527f52686170736f647943726561746f722f696e76616c69642d696e766f636174696040820152706f6e2d75707065722d626f756e6461727960781b606082015260800190565b60208082526021908201527f52686170736f647943726561746f722f696e76616c69642d6d696e742d74696d6040820152606560f81b606082015260800190565b634e487b7160e01b600052601160045260246000fd5b6000600019821415612404576124046123da565b5060010190565b6000835161241d818460208801611e5a565b835190830190612431818360208801611e5a565b01949350505050565b6000821982111561244d5761244d6123da565b500190565b600081600019048311821515161561246c5761246c6123da565b500290565b6001600160a01b03858116825284166020820152604081018390526080606082018190526000906124a490830184611e86565b9695505050505050565b6000602082840312156124c057600080fd5b81516112aa81611e27565b634e487b7160e01b600052601260045260246000fd5b6000826124f0576124f06124cb565b500690565b600082612504576125046124cb565b500490565b60008282101561251b5761251b6123da565b500390565b634e487b7160e01b600052603260045260246000fdfea2646970667358221220e292cd250806266b971bac97a6f9464e89fa6d4e1d9a53050bdbc70f872ceb1b64736f6c63430008090033",
  "devdoc": {
    "kind": "dev",
    "methods": {
      "approve(address,uint256)": {
        "details": "See {IERC721-approve}."
      },
      "balanceOf(address)": {
        "details": "See {IERC721-balanceOf}."
      },
      "constructor": {
        "params": {
          "_amountForPromotion": "promotional nfts count",
          "_collectionSize": "the total size of the collection",
          "_maxPublicBatchPerAddress": "max mintable tokens in public sale",
          "_mintPrice": "mint price of each nft"
        }
      },
      "getApproved(uint256)": {
        "details": "See {IERC721-getApproved}."
      },
      "isApprovedForAll(address,address)": {
        "details": "See {IERC721-isApprovedForAll}."
      },
      "name()": {
        "details": "See {IERC721Metadata-name}."
      },
      "owner()": {
        "details": "Returns the address of the current owner."
      },
      "ownerOf(uint256)": {
        "details": "See {IERC721-ownerOf}."
      },
      "presaleMint(uint256,uint256,bytes32[])": {
        "params": {
          "invocations": "number of tokens to mint",
          "maxInvocation": "max number of invocations of the user",
          "proof": "merkle proof to prove address and token mint count are in tree"
        }
      },
      "promotionMint(uint256)": {
        "params": {
          "invocations": "the number of invocations to batch mint"
        }
      },
      "publicMint(uint256)": {
        "details": "user can only mint less than maxPublicBatchPerAddress of tokens",
        "params": {
          "invocations": "number of tokens to mint"
        }
      },
      "renounceOwnership()": {
        "details": "Leaves the contract without owner. It will not be possible to call `onlyOwner` functions anymore. Can only be called by the current owner. NOTE: Renouncing ownership will leave the contract without an owner, thereby removing any functionality that is only available to the owner."
      },
      "safeTransferFrom(address,address,uint256)": {
        "details": "See {IERC721-safeTransferFrom}."
      },
      "safeTransferFrom(address,address,uint256,bytes)": {
        "details": "See {IERC721-safeTransferFrom}."
      },
      "setApprovalForAll(address,bool)": {
        "details": "See {IERC721-setApprovalForAll}."
      },
      "setMintMerkleRoot(bytes32)": {
        "params": {
          "_presaleMerkleRoot": "root of the merklelized whitelist"
        }
      },
      "setMintTime(uint256,uint256)": {
        "details": "this function can serve as an \"active\" and \"non-active\" sale statusset the values to uint256(-1) for \"non-active\" sale statusalso, pass contract ownership to address(0) to close sale forever",
        "params": {
          "_presaleTime": "time the presale starts",
          "_publicTime": "time the public sale starts"
        }
      },
      "setOwnersExplicit(uint256)": {
        "details": "eliminate loops in future calls of ownerOf()"
      },
      "supportsInterface(bytes4)": {
        "details": "See {IERC165-supportsInterface}."
      },
      "symbol()": {
        "details": "See {IERC721Metadata-symbol}."
      },
      "tokenURI(uint256)": {
        "details": "See {IERC721Metadata-tokenURI}."
      },
      "totalSupply()": {
        "details": "Burned tokens are calculated here, use _totalMinted() if you want to count just minted tokens."
      },
      "transferFrom(address,address,uint256)": {
        "details": "See {IERC721-transferFrom}."
      },
      "transferOwnership(address)": {
        "details": "Transfers ownership of the contract to a new account (`newOwner`). Can only be called by the current owner."
      }
    },
    "version": 1
  },
  "userdoc": {
    "events": {
      "Created(address,uint256)": {
        "notice": "============ Events ============"
      }
    },
    "kind": "user",
    "methods": {
      "amountForPromotion()": {
        "notice": "promotional nfts count"
      },
      "baseURI()": {
        "notice": "core metadata baseURI used for tokens metadata"
      },
      "constructor": {
        "notice": "Creates a new Creator contract"
      },
      "maxPublicBatchPerAddress()": {
        "notice": "max mintable tokens for each address in public"
      },
      "mintOf(address)": {
        "notice": "returns the number of mints of an address"
      },
      "mintPrice()": {
        "notice": "mint price of each nft; same for pre/public sale."
      },
      "presaleMerkleRoot()": {
        "notice": "ERC721-presale inclusion root"
      },
      "presaleMint(uint256,uint256,bytes32[])": {
        "notice": "Allows presale minting of tokens if address is part of merkle tree"
      },
      "presaleTime()": {
        "notice": "time the presale starts;"
      },
      "promotionMint(uint256)": {
        "notice": "used by owner to mint promotional nfts"
      },
      "publicMint(uint256)": {
        "notice": "Allows public minting of tokens"
      },
      "publicTime()": {
        "notice": "time the public starts;"
      },
      "setBaseURI(string)": {
        "notice": "set the new baseURI to change the tokens metadata"
      },
      "setMintMerkleRoot(bytes32)": {
        "notice": "force override the merkle root used in presale mint"
      },
      "setMintTime(uint256,uint256)": {
        "notice": "Set the time for the mint"
      },
      "setOwnersExplicit(uint256)": {
        "notice": "sets the owners quantity explicity"
      },
      "withdrawMoney()": {
        "notice": "withdraws the ether in the contract to owner"
      }
    },
    "version": 1
  },
  "storageLayout": {
    "storage": [
      {
        "astId": 4993,
        "contract": "contracts/RhapsodyCreator.sol:RhapsodyCreator",
        "label": "_currentIndex",
        "offset": 0,
        "slot": "0",
        "type": "t_uint256"
      },
      {
        "astId": 4995,
        "contract": "contracts/RhapsodyCreator.sol:RhapsodyCreator",
        "label": "_burnCounter",
        "offset": 0,
        "slot": "1",
        "type": "t_uint256"
      },
      {
        "astId": 4997,
        "contract": "contracts/RhapsodyCreator.sol:RhapsodyCreator",
        "label": "_name",
        "offset": 0,
        "slot": "2",
        "type": "t_string_storage"
      },
      {
        "astId": 4999,
        "contract": "contracts/RhapsodyCreator.sol:RhapsodyCreator",
        "label": "_symbol",
        "offset": 0,
        "slot": "3",
        "type": "t_string_storage"
      },
      {
        "astId": 5004,
        "contract": "contracts/RhapsodyCreator.sol:RhapsodyCreator",
        "label": "_ownerships",
        "offset": 0,
        "slot": "4",
        "type": "t_mapping(t_uint256,t_struct(TokenOwnership)4982_storage)"
      },
      {
        "astId": 5009,
        "contract": "contracts/RhapsodyCreator.sol:RhapsodyCreator",
        "label": "_addressData",
        "offset": 0,
        "slot": "5",
        "type": "t_mapping(t_address,t_struct(AddressData)4991_storage)"
      },
      {
        "astId": 5013,
        "contract": "contracts/RhapsodyCreator.sol:RhapsodyCreator",
        "label": "_tokenApprovals",
        "offset": 0,
        "slot": "6",
        "type": "t_mapping(t_uint256,t_address)"
      },
      {
        "astId": 5019,
        "contract": "contracts/RhapsodyCreator.sol:RhapsodyCreator",
        "label": "_operatorApprovals",
        "offset": 0,
        "slot": "7",
        "type": "t_mapping(t_address,t_mapping(t_address,t_bool))"
      },
      {
        "astId": 6259,
        "contract": "contracts/RhapsodyCreator.sol:RhapsodyCreator",
        "label": "nextOwnerToExplicitlySet",
        "offset": 0,
        "slot": "8",
        "type": "t_uint256"
      },
      {
        "astId": 7,
        "contract": "contracts/RhapsodyCreator.sol:RhapsodyCreator",
        "label": "_owner",
        "offset": 0,
        "slot": "9",
        "type": "t_address"
      },
      {
        "astId": 123,
        "contract": "contracts/RhapsodyCreator.sol:RhapsodyCreator",
        "label": "_status",
        "offset": 0,
        "slot": "10",
        "type": "t_uint256"
      },
      {
        "astId": 2615,
        "contract": "contracts/RhapsodyCreator.sol:RhapsodyCreator",
        "label": "presaleMerkleRoot",
        "offset": 0,
        "slot": "11",
        "type": "t_bytes32"
      },
      {
        "astId": 2618,
        "contract": "contracts/RhapsodyCreator.sol:RhapsodyCreator",
        "label": "presaleTime",
        "offset": 0,
        "slot": "12",
        "type": "t_uint256"
      },
      {
        "astId": 2621,
        "contract": "contracts/RhapsodyCreator.sol:RhapsodyCreator",
        "label": "publicTime",
        "offset": 0,
        "slot": "13",
        "type": "t_uint256"
      },
      {
        "astId": 2623,
        "contract": "contracts/RhapsodyCreator.sol:RhapsodyCreator",
        "label": "_baseTokenURI",
        "offset": 0,
        "slot": "14",
        "type": "t_string_storage"
      }
    ],
    "types": {
      "t_address": {
        "encoding": "inplace",
        "label": "address",
        "numberOfBytes": "20"
      },
      "t_bool": {
        "encoding": "inplace",
        "label": "bool",
        "numberOfBytes": "1"
      },
      "t_bytes32": {
        "encoding": "inplace",
        "label": "bytes32",
        "numberOfBytes": "32"
      },
      "t_mapping(t_address,t_bool)": {
        "encoding": "mapping",
        "key": "t_address",
        "label": "mapping(address => bool)",
        "numberOfBytes": "32",
        "value": "t_bool"
      },
      "t_mapping(t_address,t_mapping(t_address,t_bool))": {
        "encoding": "mapping",
        "key": "t_address",
        "label": "mapping(address => mapping(address => bool))",
        "numberOfBytes": "32",
        "value": "t_mapping(t_address,t_bool)"
      },
      "t_mapping(t_address,t_struct(AddressData)4991_storage)": {
        "encoding": "mapping",
        "key": "t_address",
        "label": "mapping(address => struct ERC721A.AddressData)",
        "numberOfBytes": "32",
        "value": "t_struct(AddressData)4991_storage"
      },
      "t_mapping(t_uint256,t_address)": {
        "encoding": "mapping",
        "key": "t_uint256",
        "label": "mapping(uint256 => address)",
        "numberOfBytes": "32",
        "value": "t_address"
      },
      "t_mapping(t_uint256,t_struct(TokenOwnership)4982_storage)": {
        "encoding": "mapping",
        "key": "t_uint256",
        "label": "mapping(uint256 => struct ERC721A.TokenOwnership)",
        "numberOfBytes": "32",
        "value": "t_struct(TokenOwnership)4982_storage"
      },
      "t_string_storage": {
        "encoding": "bytes",
        "label": "string",
        "numberOfBytes": "32"
      },
      "t_struct(AddressData)4991_storage": {
        "encoding": "inplace",
        "label": "struct ERC721A.AddressData",
        "members": [
          {
            "astId": 4984,
            "contract": "contracts/RhapsodyCreator.sol:RhapsodyCreator",
            "label": "balance",
            "offset": 0,
            "slot": "0",
            "type": "t_uint64"
          },
          {
            "astId": 4986,
            "contract": "contracts/RhapsodyCreator.sol:RhapsodyCreator",
            "label": "numberMinted",
            "offset": 8,
            "slot": "0",
            "type": "t_uint64"
          },
          {
            "astId": 4988,
            "contract": "contracts/RhapsodyCreator.sol:RhapsodyCreator",
            "label": "numberBurned",
            "offset": 16,
            "slot": "0",
            "type": "t_uint64"
          },
          {
            "astId": 4990,
            "contract": "contracts/RhapsodyCreator.sol:RhapsodyCreator",
            "label": "aux",
            "offset": 24,
            "slot": "0",
            "type": "t_uint64"
          }
        ],
        "numberOfBytes": "32"
      },
      "t_struct(TokenOwnership)4982_storage": {
        "encoding": "inplace",
        "label": "struct ERC721A.TokenOwnership",
        "members": [
          {
            "astId": 4977,
            "contract": "contracts/RhapsodyCreator.sol:RhapsodyCreator",
            "label": "addr",
            "offset": 0,
            "slot": "0",
            "type": "t_address"
          },
          {
            "astId": 4979,
            "contract": "contracts/RhapsodyCreator.sol:RhapsodyCreator",
            "label": "startTimestamp",
            "offset": 20,
            "slot": "0",
            "type": "t_uint64"
          },
          {
            "astId": 4981,
            "contract": "contracts/RhapsodyCreator.sol:RhapsodyCreator",
            "label": "burned",
            "offset": 28,
            "slot": "0",
            "type": "t_bool"
          }
        ],
        "numberOfBytes": "32"
      },
      "t_uint256": {
        "encoding": "inplace",
        "label": "uint256",
        "numberOfBytes": "32"
      },
      "t_uint64": {
        "encoding": "inplace",
        "label": "uint64",
        "numberOfBytes": "8"
      }
    }
  }
}