{
  "address": "0xA1b88B243053aAC8548A230b2B3D657827ee68Cc",
  "abi": [
    {
      "inputs": [
        {
          "internalType": "string",
          "name": "_name",
          "type": "string"
        },
        {
          "internalType": "string",
          "name": "_symbol",
          "type": "string"
        },
        {
          "internalType": "string",
          "name": "_baseURI",
          "type": "string"
        },
        {
          "internalType": "uint256",
          "name": "_collectionSize",
          "type": "uint256"
        },
        {
          "internalType": "uint256",
          "name": "_maxPublicBatchPerAddress",
          "type": "uint256"
        },
        {
          "internalType": "uint256",
          "name": "_amountForPromotion",
          "type": "uint256"
        },
        {
          "internalType": "uint256",
          "name": "_mintPrice",
          "type": "uint256"
        },
        {
          "internalType": "uint256",
          "name": "_claimTime",
          "type": "uint256"
        },
        {
          "internalType": "uint256",
          "name": "_presaleTime",
          "type": "uint256"
        },
        {
          "internalType": "uint256",
          "name": "_publicTime",
          "type": "uint256"
        }
      ],
      "stateMutability": "nonpayable",
      "type": "constructor"
    },
    {
      "inputs": [],
      "name": "AllOwnershipsHaveBeenSet",
      "type": "error"
    },
    {
      "inputs": [],
      "name": "ApprovalCallerNotOwnerNorApproved",
      "type": "error"
    },
    {
      "inputs": [],
      "name": "ApprovalQueryForNonexistentToken",
      "type": "error"
    },
    {
      "inputs": [],
      "name": "ApprovalToCurrentOwner",
      "type": "error"
    },
    {
      "inputs": [],
      "name": "ApproveToCaller",
      "type": "error"
    },
    {
      "inputs": [],
      "name": "BalanceQueryForZeroAddress",
      "type": "error"
    },
    {
      "inputs": [],
      "name": "MintToZeroAddress",
      "type": "error"
    },
    {
      "inputs": [],
      "name": "MintZeroQuantity",
      "type": "error"
    },
    {
      "inputs": [],
      "name": "NoTokensMintedYet",
      "type": "error"
    },
    {
      "inputs": [],
      "name": "OwnerQueryForNonexistentToken",
      "type": "error"
    },
    {
      "inputs": [],
      "name": "QuantityMustBeNonZero",
      "type": "error"
    },
    {
      "inputs": [],
      "name": "TransferCallerNotOwnerNorApproved",
      "type": "error"
    },
    {
      "inputs": [],
      "name": "TransferFromIncorrectOwner",
      "type": "error"
    },
    {
      "inputs": [],
      "name": "TransferToNonERC721ReceiverImplementer",
      "type": "error"
    },
    {
      "inputs": [],
      "name": "TransferToZeroAddress",
      "type": "error"
    },
    {
      "inputs": [],
      "name": "URIQueryForNonexistentToken",
      "type": "error"
    },
    {
      "anonymous": false,
      "inputs": [
        {
          "indexed": true,
          "internalType": "address",
          "name": "owner",
          "type": "address"
        },
        {
          "indexed": true,
          "internalType": "address",
          "name": "approved",
          "type": "address"
        },
        {
          "indexed": true,
          "internalType": "uint256",
          "name": "tokenId",
          "type": "uint256"
        }
      ],
      "name": "Approval",
      "type": "event"
    },
    {
      "anonymous": false,
      "inputs": [
        {
          "indexed": true,
          "internalType": "address",
          "name": "owner",
          "type": "address"
        },
        {
          "indexed": true,
          "internalType": "address",
          "name": "operator",
          "type": "address"
        },
        {
          "indexed": false,
          "internalType": "bool",
          "name": "approved",
          "type": "bool"
        }
      ],
      "name": "ApprovalForAll",
      "type": "event"
    },
    {
      "anonymous": false,
      "inputs": [
        {
          "indexed": true,
          "internalType": "address",
          "name": "to",
          "type": "address"
        },
        {
          "indexed": false,
          "internalType": "uint256",
          "name": "amount",
          "type": "uint256"
        }
      ],
      "name": "Created",
      "type": "event"
    },
    {
      "anonymous": false,
      "inputs": [
        {
          "indexed": true,
          "internalType": "address",
          "name": "previousOwner",
          "type": "address"
        },
        {
          "indexed": true,
          "internalType": "address",
          "name": "newOwner",
          "type": "address"
        }
      ],
      "name": "OwnershipTransferred",
      "type": "event"
    },
    {
      "anonymous": false,
      "inputs": [
        {
          "indexed": true,
          "internalType": "address",
          "name": "from",
          "type": "address"
        },
        {
          "indexed": true,
          "internalType": "address",
          "name": "to",
          "type": "address"
        },
        {
          "indexed": true,
          "internalType": "uint256",
          "name": "tokenId",
          "type": "uint256"
        }
      ],
      "name": "Transfer",
      "type": "event"
    },
    {
      "inputs": [],
      "name": "amountForPromotion",
      "outputs": [
        {
          "internalType": "uint256",
          "name": "",
          "type": "uint256"
        }
      ],
      "stateMutability": "view",
      "type": "function"
    },
    {
      "inputs": [
        {
          "internalType": "address",
          "name": "to",
          "type": "address"
        },
        {
          "internalType": "uint256",
          "name": "tokenId",
          "type": "uint256"
        }
      ],
      "name": "approve",
      "outputs": [],
      "stateMutability": "nonpayable",
      "type": "function"
    },
    {
      "inputs": [
        {
          "internalType": "address",
          "name": "owner",
          "type": "address"
        }
      ],
      "name": "balanceOf",
      "outputs": [
        {
          "internalType": "uint256",
          "name": "",
          "type": "uint256"
        }
      ],
      "stateMutability": "view",
      "type": "function"
    },
    {
      "inputs": [],
      "name": "baseURI",
      "outputs": [
        {
          "internalType": "string",
          "name": "",
          "type": "string"
        }
      ],
      "stateMutability": "view",
      "type": "function"
    },
    {
      "inputs": [],
      "name": "claimMerkleRoot",
      "outputs": [
        {
          "internalType": "bytes32",
          "name": "",
          "type": "bytes32"
        }
      ],
      "stateMutability": "view",
      "type": "function"
    },
    {
      "inputs": [
        {
          "internalType": "uint256",
          "name": "invocations",
          "type": "uint256"
        },
        {
          "internalType": "bytes32[]",
          "name": "proof",
          "type": "bytes32[]"
        }
      ],
      "name": "claimMint",
      "outputs": [],
      "stateMutability": "nonpayable",
      "type": "function"
    },
    {
      "inputs": [],
      "name": "claimTime",
      "outputs": [
        {
          "internalType": "uint256",
          "name": "",
          "type": "uint256"
        }
      ],
      "stateMutability": "view",
      "type": "function"
    },
    {
      "inputs": [],
      "name": "collectionSize",
      "outputs": [
        {
          "internalType": "uint256",
          "name": "",
          "type": "uint256"
        }
      ],
      "stateMutability": "view",
      "type": "function"
    },
    {
      "inputs": [
        {
          "internalType": "uint256",
          "name": "tokenId",
          "type": "uint256"
        }
      ],
      "name": "getApproved",
      "outputs": [
        {
          "internalType": "address",
          "name": "",
          "type": "address"
        }
      ],
      "stateMutability": "view",
      "type": "function"
    },
    {
      "inputs": [
        {
          "internalType": "address",
          "name": "owner",
          "type": "address"
        },
        {
          "internalType": "address",
          "name": "operator",
          "type": "address"
        }
      ],
      "name": "isApprovedForAll",
      "outputs": [
        {
          "internalType": "bool",
          "name": "",
          "type": "bool"
        }
      ],
      "stateMutability": "view",
      "type": "function"
    },
    {
      "inputs": [],
      "name": "maxPublicBatchPerAddress",
      "outputs": [
        {
          "internalType": "uint256",
          "name": "",
          "type": "uint256"
        }
      ],
      "stateMutability": "view",
      "type": "function"
    },
    {
      "inputs": [
        {
          "internalType": "address",
          "name": "_owner",
          "type": "address"
        }
      ],
      "name": "mintOf",
      "outputs": [
        {
          "internalType": "uint256",
          "name": "",
          "type": "uint256"
        }
      ],
      "stateMutability": "view",
      "type": "function"
    },
    {
      "inputs": [],
      "name": "mintPrice",
      "outputs": [
        {
          "internalType": "uint256",
          "name": "",
          "type": "uint256"
        }
      ],
      "stateMutability": "view",
      "type": "function"
    },
    {
      "inputs": [],
      "name": "name",
      "outputs": [
        {
          "internalType": "string",
          "name": "",
          "type": "string"
        }
      ],
      "stateMutability": "view",
      "type": "function"
    },
    {
      "inputs": [],
      "name": "nextOwnerToExplicitlySet",
      "outputs": [
        {
          "internalType": "uint256",
          "name": "",
          "type": "uint256"
        }
      ],
      "stateMutability": "view",
      "type": "function"
    },
    {
      "inputs": [],
      "name": "owner",
      "outputs": [
        {
          "internalType": "address",
          "name": "",
          "type": "address"
        }
      ],
      "stateMutability": "view",
      "type": "function"
    },
    {
      "inputs": [
        {
          "internalType": "uint256",
          "name": "tokenId",
          "type": "uint256"
        }
      ],
      "name": "ownerOf",
      "outputs": [
        {
          "internalType": "address",
          "name": "",
          "type": "address"
        }
      ],
      "stateMutability": "view",
      "type": "function"
    },
    {
      "inputs": [],
      "name": "presaleMerkleRoot",
      "outputs": [
        {
          "internalType": "bytes32",
          "name": "",
          "type": "bytes32"
        }
      ],
      "stateMutability": "view",
      "type": "function"
    },
    {
      "inputs": [
        {
          "internalType": "uint256",
          "name": "invocations",
          "type": "uint256"
        },
        {
          "internalType": "uint256",
          "name": "maxInvocation",
          "type": "uint256"
        },
        {
          "internalType": "bytes32[]",
          "name": "proof",
          "type": "bytes32[]"
        }
      ],
      "name": "presaleMint",
      "outputs": [],
      "stateMutability": "payable",
      "type": "function"
    },
    {
      "inputs": [],
      "name": "presaleTime",
      "outputs": [
        {
          "internalType": "uint256",
          "name": "",
          "type": "uint256"
        }
      ],
      "stateMutability": "view",
      "type": "function"
    },
    {
      "inputs": [
        {
          "internalType": "uint256",
          "name": "invocations",
          "type": "uint256"
        }
      ],
      "name": "promotionMint",
      "outputs": [],
      "stateMutability": "nonpayable",
      "type": "function"
    },
    {
      "inputs": [
        {
          "internalType": "uint256",
          "name": "invocations",
          "type": "uint256"
        }
      ],
      "name": "publicMint",
      "outputs": [],
      "stateMutability": "payable",
      "type": "function"
    },
    {
      "inputs": [],
      "name": "publicTime",
      "outputs": [
        {
          "internalType": "uint256",
          "name": "",
          "type": "uint256"
        }
      ],
      "stateMutability": "view",
      "type": "function"
    },
    {
      "inputs": [],
      "name": "renounceOwnership",
      "outputs": [],
      "stateMutability": "nonpayable",
      "type": "function"
    },
    {
      "inputs": [
        {
          "internalType": "address",
          "name": "from",
          "type": "address"
        },
        {
          "internalType": "address",
          "name": "to",
          "type": "address"
        },
        {
          "internalType": "uint256",
          "name": "tokenId",
          "type": "uint256"
        }
      ],
      "name": "safeTransferFrom",
      "outputs": [],
      "stateMutability": "nonpayable",
      "type": "function"
    },
    {
      "inputs": [
        {
          "internalType": "address",
          "name": "from",
          "type": "address"
        },
        {
          "internalType": "address",
          "name": "to",
          "type": "address"
        },
        {
          "internalType": "uint256",
          "name": "tokenId",
          "type": "uint256"
        },
        {
          "internalType": "bytes",
          "name": "_data",
          "type": "bytes"
        }
      ],
      "name": "safeTransferFrom",
      "outputs": [],
      "stateMutability": "nonpayable",
      "type": "function"
    },
    {
      "inputs": [
        {
          "internalType": "address",
          "name": "operator",
          "type": "address"
        },
        {
          "internalType": "bool",
          "name": "approved",
          "type": "bool"
        }
      ],
      "name": "setApprovalForAll",
      "outputs": [],
      "stateMutability": "nonpayable",
      "type": "function"
    },
    {
      "inputs": [
        {
          "internalType": "string",
          "name": "newBaseURI",
          "type": "string"
        }
      ],
      "name": "setBaseURI",
      "outputs": [],
      "stateMutability": "nonpayable",
      "type": "function"
    },
    {
      "inputs": [
        {
          "internalType": "bytes32",
          "name": "_claimMerkleRoot",
          "type": "bytes32"
        }
      ],
      "name": "setClaimMerkleRoot",
      "outputs": [],
      "stateMutability": "nonpayable",
      "type": "function"
    },
    {
      "inputs": [
        {
          "internalType": "uint256",
          "name": "_claimTime",
          "type": "uint256"
        },
        {
          "internalType": "uint256",
          "name": "_presaleTime",
          "type": "uint256"
        },
        {
          "internalType": "uint256",
          "name": "_publicTime",
          "type": "uint256"
        }
      ],
      "name": "setMintTime",
      "outputs": [],
      "stateMutability": "nonpayable",
      "type": "function"
    },
    {
      "inputs": [
        {
          "internalType": "uint256",
          "name": "quantity",
          "type": "uint256"
        }
      ],
      "name": "setOwnersExplicit",
      "outputs": [],
      "stateMutability": "nonpayable",
      "type": "function"
    },
    {
      "inputs": [
        {
          "internalType": "bytes32",
          "name": "_presaleMerkleRoot",
          "type": "bytes32"
        }
      ],
      "name": "setPresaleMerkleRoot",
      "outputs": [],
      "stateMutability": "nonpayable",
      "type": "function"
    },
    {
      "inputs": [
        {
          "internalType": "bytes4",
          "name": "interfaceId",
          "type": "bytes4"
        }
      ],
      "name": "supportsInterface",
      "outputs": [
        {
          "internalType": "bool",
          "name": "",
          "type": "bool"
        }
      ],
      "stateMutability": "view",
      "type": "function"
    },
    {
      "inputs": [],
      "name": "symbol",
      "outputs": [
        {
          "internalType": "string",
          "name": "",
          "type": "string"
        }
      ],
      "stateMutability": "view",
      "type": "function"
    },
    {
      "inputs": [
        {
          "internalType": "uint256",
          "name": "tokenId",
          "type": "uint256"
        }
      ],
      "name": "tokenURI",
      "outputs": [
        {
          "internalType": "string",
          "name": "",
          "type": "string"
        }
      ],
      "stateMutability": "view",
      "type": "function"
    },
    {
      "inputs": [],
      "name": "totalSupply",
      "outputs": [
        {
          "internalType": "uint256",
          "name": "",
          "type": "uint256"
        }
      ],
      "stateMutability": "view",
      "type": "function"
    },
    {
      "inputs": [
        {
          "internalType": "address",
          "name": "from",
          "type": "address"
        },
        {
          "internalType": "address",
          "name": "to",
          "type": "address"
        },
        {
          "internalType": "uint256",
          "name": "tokenId",
          "type": "uint256"
        }
      ],
      "name": "transferFrom",
      "outputs": [],
      "stateMutability": "nonpayable",
      "type": "function"
    },
    {
      "inputs": [
        {
          "internalType": "address",
          "name": "newOwner",
          "type": "address"
        }
      ],
      "name": "transferOwnership",
      "outputs": [],
      "stateMutability": "nonpayable",
      "type": "function"
    },
    {
      "inputs": [],
      "name": "version",
      "outputs": [
        {
          "internalType": "string",
          "name": "",
          "type": "string"
        }
      ],
      "stateMutability": "view",
      "type": "function"
    },
    {
      "inputs": [],
      "name": "withdrawMoney",
      "outputs": [],
      "stateMutability": "nonpayable",
      "type": "function"
    }
  ],
  "transactionHash": "0xe8ed4dd3d8365e31e6ecb3bcaf7dd7f41db853a6311c8b4a354e756e061b9e05",
  "args": [
    "Rhapsody",
    "RHY",
    "https://some-random.api/",
    1111,
    2,
    40,
    "333000000000000000",
    1670819200,
    1670819400,
    1670823000
  ],
  "numDeployments": 1,
  "solcInputHash": "56839b07babad4f58726ac7b477c42ec",
  "bytecode": "0x6101006040523480156200001257600080fd5b5060405162002edb38038062002edb833981016040819052620000359162000480565b89518a908a906200004e9060029060208501906200030d565b508051620000649060039060208401906200030d565b505060008055506200007633620001da565b6001600a5586620000de5760405162461bcd60e51b815260206004820152602760248201527f52686170736f647943726561746f722f696e76616c69642d636f6c6c656374696044820152666f6e2d73697a6560c81b60648201526084015b60405180910390fd5b86851115620001415760405162461bcd60e51b815260206004820152602860248201527f52686170736f647943726561746f722f696e76616c69642d70726f6d6f74696f6044820152671b8b585b5bdd5b9d60c21b6064820152608401620000d5565b600084116200019e5760405162461bcd60e51b815260206004820152602260248201527f52686170736f647943726561746f722f696e76616c69642d6d696e742d707269604482015261636560f01b6064820152608401620000d5565b60e087905260a0869052608085905260c0849052620001bd886200022c565b620001ca83838362000245565b5050505050505050505062000594565b600980546001600160a01b038381166001600160a01b0319831681179093556040519116919082907f8be0079c531659141344cd1fd0a4f28419497f9722a3daafe3b4186f6b6457e090600090a35050565b8051620002419060109060208401906200030d565b5050565b828211620002a25760405162461bcd60e51b8152602060048201526024808201527f52686170736f647943726561746f722f696e76616c69642d70726573616c652d60448201526374696d6560e01b6064820152608401620000d5565b818111620002ff5760405162461bcd60e51b815260206004820152602360248201527f52686170736f647943726561746f722f696e76616c69642d7075626c69632d74604482015262696d6560e81b6064820152608401620000d5565b600d92909255600e55600f55565b8280546200031b9062000557565b90600052602060002090601f0160209004810192826200033f57600085556200038a565b82601f106200035a57805160ff19168380011785556200038a565b828001600101855582156200038a579182015b828111156200038a5782518255916020019190600101906200036d565b50620003989291506200039c565b5090565b5b808211156200039857600081556001016200039d565b634e487b7160e01b600052604160045260246000fd5b600082601f830112620003db57600080fd5b81516001600160401b0380821115620003f857620003f8620003b3565b604051601f8301601f19908116603f01168101908282118183101715620004235762000423620003b3565b816040528381526020925086838588010111156200044057600080fd5b600091505b8382101562000464578582018301518183018401529082019062000445565b83821115620004765760008385830101525b9695505050505050565b6000806000806000806000806000806101408b8d031215620004a157600080fd5b8a516001600160401b0380821115620004b957600080fd5b620004c78e838f01620003c9565b9b5060208d0151915080821115620004de57600080fd5b620004ec8e838f01620003c9565b9a5060408d01519150808211156200050357600080fd5b50620005128d828e01620003c9565b98505060608b0151965060808b0151955060a08b0151945060c08b0151935060e08b015192506101008b015191506101208b015190509295989b9194979a5092959850565b600181811c908216806200056c57607f821691505b602082108114156200058e57634e487b7160e01b600052602260045260246000fd5b50919050565b60805160a05160c05160e0516128d5620006066000396000818161040e015281816109b101528181610c670152610ef40152600081816104d301528181610a570152610d0701526000818161060e01528181610c2701526112a4015260008181610571015261121301526128d56000f3fe60806040526004361061023b5760003560e01c80636c0360eb1161012e578063ac446002116100ab578063c87b56dd1161006f578063c87b56dd146106bb578063d7224ba0146106db578063e985e9c5146106f1578063f2fde38b1461073a578063fd1e29621461075a57600080fd5b8063ac44600214610630578063b1f536fa14610645578063b88d4fde14610665578063ba2f59c814610685578063c6e62e0b146106a557600080fd5b80638da5cb5b116100f25780638da5cb5b1461059357806395d89b41146105b15780639c4dab52146105c6578063a22cb465146105dc578063a4babffd146105fc57600080fd5b80636c0360eb146104f557806370a082311461050a578063715018a61461052a57806372830dfd1461053f57806376972db21461055f57600080fd5b806328d7b276116101bc57806354fd4d501161018057806354fd4d501461043057806355f804b314610461578063617aa43c146104815780636352211e146104a15780636817c76c146104c157600080fd5b806328d7b276146103895780632d20fb60146103a95780632db11544146103c957806342842e0e146103dc57806345c0f533146103fc57600080fd5b80631b59169d116102035780631b59169d146103145780631bdc608e1461032757806322212e2b1461033d57806323b872dd1461035357806327b3bf111461037357600080fd5b806301ffc9a71461024057806306fdde0314610275578063081812fc14610297578063095ea7b3146102cf57806318160ddd146102f1575b600080fd5b34801561024c57600080fd5b5061026061025b3660046120d1565b61077a565b60405190151581526020015b60405180910390f35b34801561028157600080fd5b5061028a6107cc565b60405161026c9190612146565b3480156102a357600080fd5b506102b76102b2366004612159565b61085e565b6040516001600160a01b03909116815260200161026c565b3480156102db57600080fd5b506102ef6102ea36600461218e565b6108a2565b005b3480156102fd57600080fd5b50600154600054035b60405190815260200161026c565b6102ef610322366004612203565b610930565b34801561033357600080fd5b50610306600f5481565b34801561034957600080fd5b50610306600c5481565b34801561035f57600080fd5b506102ef61036e366004612255565b610b76565b34801561037f57600080fd5b50610306600d5481565b34801561039557600080fd5b506102ef6103a4366004612159565b610b81565b3480156103b557600080fd5b506102ef6103c4366004612159565b610b8e565b6102ef6103d7366004612159565b610bcf565b3480156103e857600080fd5b506102ef6103f7366004612255565b610d80565b34801561040857600080fd5b506103067f000000000000000000000000000000000000000000000000000000000000000081565b34801561043c57600080fd5b5061028a604051806040016040528060058152602001640312e302e360dc1b81525081565b34801561046d57600080fd5b506102ef61047c366004612291565b610d9b565b34801561048d57600080fd5b506102ef61049c366004612302565b610de6565b3480156104ad57600080fd5b506102b76104bc366004612159565b610df9565b3480156104cd57600080fd5b506103067f000000000000000000000000000000000000000000000000000000000000000081565b34801561050157600080fd5b5061028a610e0b565b34801561051657600080fd5b5061030661052536600461232e565b610e1a565b34801561053657600080fd5b506102ef610e68565b34801561054b57600080fd5b506102ef61055a366004612349565b610e7c565b34801561056b57600080fd5b506103067f000000000000000000000000000000000000000000000000000000000000000081565b34801561059f57600080fd5b506009546001600160a01b03166102b7565b3480156105bd57600080fd5b5061028a611031565b3480156105d257600080fd5b50610306600b5481565b3480156105e857600080fd5b506102ef6105f7366004612394565b611040565b34801561060857600080fd5b506103067f000000000000000000000000000000000000000000000000000000000000000081565b34801561063c57600080fd5b506102ef6110d6565b34801561065157600080fd5b5061030661066036600461232e565b6111ad565b34801561067157600080fd5b506102ef6106803660046123e6565b6111b8565b34801561069157600080fd5b506102ef6106a0366004612159565b611209565b3480156106b157600080fd5b50610306600e5481565b3480156106c757600080fd5b5061028a6106d6366004612159565b611399565b3480156106e757600080fd5b5061030660085481565b3480156106fd57600080fd5b5061026061070c3660046124c1565b6001600160a01b03918216600090815260076020908152604080832093909416825291909152205460ff1690565b34801561074657600080fd5b506102ef61075536600461232e565b61142b565b34801561076657600080fd5b506102ef610775366004612159565b6114a4565b60006001600160e01b031982166380ac58cd60e01b14806107ab57506001600160e01b03198216635b5e139f60e01b145b806107c657506301ffc9a760e01b6001600160e01b03198316145b92915050565b6060600280546107db906124f4565b80601f0160208091040260200160405190810160405280929190818152602001828054610807906124f4565b80156108545780601f1061082957610100808354040283529160200191610854565b820191906000526020600020905b81548152906001019060200180831161083757829003601f168201915b5050505050905090565b6000610869826114b1565b610886576040516333d1c03960e21b815260040160405180910390fd5b506000908152600660205260409020546001600160a01b031690565b60006108ad82610df9565b9050806001600160a01b0316836001600160a01b031614156108e25760405163250fdee360e21b815260040160405180910390fd5b336001600160a01b038216148015906109025750610900813361070c565b155b15610920576040516367d9dca160e11b815260040160405180910390fd5b61092b8383836114dc565b505050565b6002600a54141561095c5760405162461bcd60e51b81526004016109539061252f565b60405180910390fd5b6002600a55600e54801580159061097257508042115b61098e5760405162461bcd60e51b815260040161095390612566565b84843233146109af5760405162461bcd60e51b81526004016109539061259f565b7f00000000000000000000000000000000000000000000000000000000000000006109e7836109e16001546000540390565b90611538565b1115610a055760405162461bcd60e51b8152600401610953906125da565b80610a13836109e133611544565b1115610a315760405162461bcd60e51b815260040161095390612616565b60008211610a515760405162461bcd60e51b815260040161095390612661565b86610a7c7f000000000000000000000000000000000000000000000000000000000000000082611572565b3414610a9a5760405162461bcd60e51b8152600401610953906126ac565b60003411610aba5760405162461bcd60e51b815260040161095390612661565b86338787600c54610b3c838380806020026020016040519081016040528093929190818152602001838360200280828437600092019190915250506040516bffffffffffffffffffffffff1960608a901b166020820152603481018a905285925060540190505b6040516020818303038152906040528051906020012061157e565b610b585760405162461bcd60e51b8152600401610953906126e6565b610b62338e611594565b50506001600a555050505050505050505050565b61092b8383836115e5565b610b896117d3565b600c55565b610b966117d3565b6002600a541415610bb95760405162461bcd60e51b81526004016109539061252f565b6002600a55610bc78161182d565b506001600a55565b6002600a541415610bf25760405162461bcd60e51b81526004016109539061252f565b6002600a55600f548015801590610c0857508042115b610c245760405162461bcd60e51b815260040161095390612566565b817f0000000000000000000000000000000000000000000000000000000000000000323314610c655760405162461bcd60e51b81526004016109539061259f565b7f0000000000000000000000000000000000000000000000000000000000000000610c97836109e16001546000540390565b1115610cb55760405162461bcd60e51b8152600401610953906125da565b80610cc3836109e133611544565b1115610ce15760405162461bcd60e51b815260040161095390612616565b60008211610d015760405162461bcd60e51b815260040161095390612661565b83610d2c7f000000000000000000000000000000000000000000000000000000000000000082611572565b3414610d4a5760405162461bcd60e51b8152600401610953906126ac565b60003411610d6a5760405162461bcd60e51b815260040161095390612661565b610d743386611594565b50506001600a55505050565b61092b838383604051806020016040528060008152506111b8565b610da36117d3565b610de282828080601f01602080910402602001604051908101604052809392919081815260200183838082843760009201919091525061196492505050565b5050565b610dee6117d3565b61092b838383611977565b6000610e0482611a3b565b5192915050565b6060601080546107db906124f4565b60006001600160a01b038216610e43576040516323d3ad8160e21b815260040160405180910390fd5b506001600160a01b03166000908152600560205260409020546001600160401b031690565b610e706117d3565b610e7a6000611b55565b565b6002600a541415610e9f5760405162461bcd60e51b81526004016109539061252f565b6002600a55600d548015801590610eb557508042115b610ed15760405162461bcd60e51b815260040161095390612566565b8380323314610ef25760405162461bcd60e51b81526004016109539061259f565b7f0000000000000000000000000000000000000000000000000000000000000000610f24836109e16001546000540390565b1115610f425760405162461bcd60e51b8152600401610953906125da565b80610f50836109e133611544565b1115610f6e5760405162461bcd60e51b815260040161095390612616565b60008211610f8e5760405162461bcd60e51b815260040161095390612661565b85338686600b54610ff9838380806020026020016040519081016040528093929190818152602001838360200280828437600092019190915250506040516bffffffffffffffffffffffff1960608a901b166020820152603481018a90528592506054019050610b21565b6110155760405162461bcd60e51b8152600401610953906126e6565b61101f338c611594565b50506001600a55505050505050505050565b6060600380546107db906124f4565b6001600160a01b03821633141561106a5760405163b06307db60e01b815260040160405180910390fd5b3360008181526007602090815260408083206001600160a01b03871680855290835292819020805460ff191686151590811790915590519081529192917f17307eab39ab6107e8899845ad3d59bd9653f200f220920489ca2b5937696c31910160405180910390a35050565b6110de6117d3565b6002600a5414156111015760405162461bcd60e51b81526004016109539061252f565b6002600a55604051600090339047908381818185875af1925050503d8060008114611148576040519150601f19603f3d011682016040523d82523d6000602084013e61114d565b606091505b5050905080610bc75760405162461bcd60e51b815260206004820152602660248201527f52686170736f647943726561746f722f696e76616c69642d77697468647261776044820152652d6d6f6e657960d01b6064820152608401610953565b60006107c682611544565b6111c38484846115e5565b6001600160a01b0383163b151580156111e557506111e384848484611ba7565b155b15611203576040516368d2bf6b60e11b815260040160405180910390fd5b50505050565b6112116117d3565b7f0000000000000000000000000000000000000000000000000000000000000000611243826109e16001546000540390565b11156112a25760405162461bcd60e51b815260206004820152602860248201527f52686170736f647943726561746f722f696e76616c69642d70726f6d6f74696f6044820152676e2d737570706c7960c01b6064820152608401610953565b7f00000000000000000000000000000000000000000000000000000000000000006112cd8282611c9f565b156113295760405162461bcd60e51b815260206004820152602660248201527f52686170736f647943726561746f722f696e76616c69642d62617463682d6d756044820152656c7469706c6560d01b6064820152608401610953565b60006113358383611cab565b905060005b8181101561135e5761134c3384611cb7565b8061135681612739565b91505061133a565b5060405183815233907f0ce3610e89a4bb9ec9359763f99110ed52a4abaea0b62028a1637e242ca2768b9060200160405180910390a2505050565b60606113a4826114b1565b6113c157604051630a14c4b560e41b815260040160405180910390fd5b60006113d860408051602081019091526000815290565b90508051600014156113f95760405180602001604052806000815250611424565b8061140384611cd1565b604051602001611414929190612754565b6040516020818303038152906040525b9392505050565b6114336117d3565b6001600160a01b0381166114985760405162461bcd60e51b815260206004820152602660248201527f4f776e61626c653a206e6577206f776e657220697320746865207a65726f206160448201526564647265737360d01b6064820152608401610953565b6114a181611b55565b50565b6114ac6117d3565b600b55565b60008054821080156107c6575050600090815260046020526040902054600160e01b900460ff161590565b60008281526006602052604080822080546001600160a01b0319166001600160a01b0387811691821790925591518593918516917f8c5be1e5ebec7d5bd14f71427d1e84f3dd0314c0f7b2291e5b200ac8c7c3b92591a4505050565b60006114248284612783565b6001600160a01b038116600090815260056020526040812054600160401b90046001600160401b03166107c6565b6000611424828461279b565b60008261158b8584611dce565b14949350505050565b61159e8282611cb7565b816001600160a01b03167f0ce3610e89a4bb9ec9359763f99110ed52a4abaea0b62028a1637e242ca2768b826040516115d991815260200190565b60405180910390a25050565b60006115f082611a3b565b9050836001600160a01b031681600001516001600160a01b0316146116275760405162a1148160e81b815260040160405180910390fd5b6000336001600160a01b03861614806116455750611645853361070c565b806116605750336116558461085e565b6001600160a01b0316145b90508061168057604051632ce44b5f60e11b815260040160405180910390fd5b6001600160a01b0384166116a757604051633a954ecd60e21b815260040160405180910390fd5b6116b3600084876114dc565b6001600160a01b038581166000908152600560209081526040808320805467ffffffffffffffff198082166001600160401b0392831660001901831617909255898616808652838620805493841693831660019081018416949094179055898652600490945282852080546001600160e01b031916909417600160a01b4290921691909102178355870180845292208054919390911661178757600054821461178757805460208601516001600160401b0316600160a01b026001600160e01b03199091166001600160a01b038a16171781555b50505082846001600160a01b0316866001600160a01b03167fddf252ad1be2c89b69c2b068fc378daa952ba7f163c4a11628f55a4df523b3ef60405160405180910390a45b5050505050565b6009546001600160a01b03163314610e7a5760405162461bcd60e51b815260206004820181905260248201527f4f776e61626c653a2063616c6c6572206973206e6f7420746865206f776e65726044820152606401610953565b8061184b576040516356be441560e01b815260040160405180910390fd5b60005461186b5760405163c0367cab60e01b815260040160405180910390fd5b60085480611877575060005b6000548110611899576040516370e89b1b60e01b815260040160405180910390fd5b60005482820160001981019110156118b45750600054600019015b815b818111611959576000818152600460205260409020546001600160a01b03161580156118f85750600081815260046020526040902054600160e01b900460ff16155b1561195157600061190882611a3b565b80516000848152600460209081526040909120805491909301516001600160401b0316600160a01b026001600160e01b03199091166001600160a01b0390921691909117179055505b6001016118b6565b506001016008555050565b8051610de2906010906020840190612022565b8282116119d25760405162461bcd60e51b8152602060048201526024808201527f52686170736f647943726561746f722f696e76616c69642d70726573616c652d60448201526374696d6560e01b6064820152608401610953565b818111611a2d5760405162461bcd60e51b815260206004820152602360248201527f52686170736f647943726561746f722f696e76616c69642d7075626c69632d74604482015262696d6560e81b6064820152608401610953565b600d92909255600e55600f55565b604080516060810182526000808252602082018190529181019190915281600054811015611b3c57600081815260046020908152604091829020825160608101845290546001600160a01b0381168252600160a01b81046001600160401b031692820192909252600160e01b90910460ff16151591810182905290611b3a5780516001600160a01b031615611ad1579392505050565b5060001901600081815260046020908152604091829020825160608101845290546001600160a01b038116808352600160a01b82046001600160401b031693830193909352600160e01b900460ff1615159281019290925215611b35579392505050565b611ad1565b505b604051636f96cda160e11b815260040160405180910390fd5b600980546001600160a01b038381166001600160a01b0319831681179093556040519116919082907f8be0079c531659141344cd1fd0a4f28419497f9722a3daafe3b4186f6b6457e090600090a35050565b604051630a85bd0160e11b81526000906001600160a01b0385169063150b7a0290611bdc9033908990889088906004016127ba565b602060405180830381600087803b158015611bf657600080fd5b505af1925050508015611c26575060408051601f3d908101601f19168201909252611c23918101906127f7565b60015b611c81573d808015611c54576040519150601f19603f3d011682016040523d82523d6000602084013e611c59565b606091505b508051611c79576040516368d2bf6b60e11b815260040160405180910390fd5b805181602001fd5b6001600160e01b031916630a85bd0160e11b1490505b949350505050565b6000611424828461282a565b6000611424828461283e565b610de2828260405180602001604052806000815250611e1b565b606081611cf55750506040805180820190915260018152600360fc1b602082015290565b8160005b8115611d1f5780611d0981612739565b9150611d189050600a8361283e565b9150611cf9565b6000816001600160401b03811115611d3957611d396123d0565b6040519080825280601f01601f191660200182016040528015611d63576020820181803683370190505b5090505b8415611c9757611d78600183612852565b9150611d85600a8661282a565b611d90906030612783565b60f81b818381518110611da557611da5612869565b60200101906001600160f81b031916908160001a905350611dc7600a8661283e565b9450611d67565b600081815b8451811015611e1357611dff82868381518110611df257611df2612869565b6020026020010151611e28565b915080611e0b81612739565b915050611dd3565b509392505050565b61092b8383836001611e57565b6000818310611e44576000828152602084905260409020611424565b6000838152602083905260409020611424565b6000546001600160a01b038516611e8057604051622e076360e81b815260040160405180910390fd5b83611e9e5760405163b562e8dd60e01b815260040160405180910390fd5b6001600160a01b038516600081815260056020908152604080832080546fffffffffffffffffffffffffffffffff1981166001600160401b038083168c018116918217600160401b67ffffffffffffffff1990941690921783900481168c01811690920217909155858452600490925290912080546001600160e01b031916909217600160a01b429092169190910217905580808501838015611f4a57506001600160a01b0387163b15155b15611fd3575b60405182906001600160a01b038916906000907fddf252ad1be2c89b69c2b068fc378daa952ba7f163c4a11628f55a4df523b3ef908290a4611f9b6000888480600101955088611ba7565b611fb8576040516368d2bf6b60e11b815260040160405180910390fd5b80821415611f50578260005414611fce57600080fd5b612019565b5b6040516001830192906001600160a01b038916906000907fddf252ad1be2c89b69c2b068fc378daa952ba7f163c4a11628f55a4df523b3ef908290a480821415611fd4575b506000556117cc565b82805461202e906124f4565b90600052602060002090601f0160209004810192826120505760008555612096565b82601f1061206957805160ff1916838001178555612096565b82800160010185558215612096579182015b8281111561209657825182559160200191906001019061207b565b506120a29291506120a6565b5090565b5b808211156120a257600081556001016120a7565b6001600160e01b0319811681146114a157600080fd5b6000602082840312156120e357600080fd5b8135611424816120bb565b60005b838110156121095781810151838201526020016120f1565b838111156112035750506000910152565b600081518084526121328160208601602086016120ee565b601f01601f19169290920160200192915050565b602081526000611424602083018461211a565b60006020828403121561216b57600080fd5b5035919050565b80356001600160a01b038116811461218957600080fd5b919050565b600080604083850312156121a157600080fd5b6121aa83612172565b946020939093013593505050565b60008083601f8401126121ca57600080fd5b5081356001600160401b038111156121e157600080fd5b6020830191508360208260051b85010111156121fc57600080fd5b9250929050565b6000806000806060858703121561221957600080fd5b843593506020850135925060408501356001600160401b0381111561223d57600080fd5b612249878288016121b8565b95989497509550505050565b60008060006060848603121561226a57600080fd5b61227384612172565b925061228160208501612172565b9150604084013590509250925092565b600080602083850312156122a457600080fd5b82356001600160401b03808211156122bb57600080fd5b818501915085601f8301126122cf57600080fd5b8135818111156122de57600080fd5b8660208285010111156122f057600080fd5b60209290920196919550909350505050565b60008060006060848603121561231757600080fd5b505081359360208301359350604090920135919050565b60006020828403121561234057600080fd5b61142482612172565b60008060006040848603121561235e57600080fd5b8335925060208401356001600160401b0381111561237b57600080fd5b612387868287016121b8565b9497909650939450505050565b600080604083850312156123a757600080fd5b6123b083612172565b9150602083013580151581146123c557600080fd5b809150509250929050565b634e487b7160e01b600052604160045260246000fd5b600080600080608085870312156123fc57600080fd5b61240585612172565b935061241360208601612172565b92506040850135915060608501356001600160401b038082111561243657600080fd5b818701915087601f83011261244a57600080fd5b81358181111561245c5761245c6123d0565b604051601f8201601f19908116603f01168101908382118183101715612484576124846123d0565b816040528281528a602084870101111561249d57600080fd5b82602086016020830137600060208483010152809550505050505092959194509250565b600080604083850312156124d457600080fd5b6124dd83612172565b91506124eb60208401612172565b90509250929050565b600181811c9082168061250857607f821691505b6020821081141561252957634e487b7160e01b600052602260045260246000fd5b50919050565b6020808252601f908201527f5265656e7472616e637947756172643a207265656e7472616e742063616c6c00604082015260600190565b6020808252602b9082015260008051602061288083398151915260408201526a642d6d696e742d74696d6560a81b606082015260800190565b6020808252602d9082015260008051602061288083398151915260408201526c3216b6b4b73a16b1b0b63632b960991b606082015260800190565b6020808252602e9082015260008051602061288083398151915260408201526d642d746f74616c2d737570706c7960901b606082015260800190565b6020808252603b9082015260008051602061288083398151915260408201527f642d696e766f636174696f6e2d75707065722d626f756e646172790000000000606082015260800190565b6020808252603b9082015260008051602061288083398151915260408201527f642d696e766f636174696f6e2d6c6f7765722d626f756e646172790000000000606082015260800190565b6020808252602c9082015260008051602061288083398151915260408201526b642d6d696e742d76616c756560a01b606082015260800190565b6020808252602f9082015260008051602061288083398151915260408201526e3216b0b2323932b9b996b83937b7b360891b606082015260800190565b634e487b7160e01b600052601160045260246000fd5b600060001982141561274d5761274d612723565b5060010190565b600083516127668184602088016120ee565b83519083019061277a8183602088016120ee565b01949350505050565b6000821982111561279657612796612723565b500190565b60008160001904831182151516156127b5576127b5612723565b500290565b6001600160a01b03858116825284166020820152604081018390526080606082018190526000906127ed9083018461211a565b9695505050505050565b60006020828403121561280957600080fd5b8151611424816120bb565b634e487b7160e01b600052601260045260246000fd5b60008261283957612839612814565b500690565b60008261284d5761284d612814565b500490565b60008282101561286457612864612723565b500390565b634e487b7160e01b600052603260045260246000fdfe52686170736f647943726561746f7247656e657261746976652f696e76616c69a26469706673582212200f07c831043bf3a60c5e55c6041379c3836c26d148cdd34bc0b179ef4e17460364736f6c63430008090033",
  "devdoc": {
    "kind": "dev",
    "methods": {
      "approve(address,uint256)": {
        "details": "See {IERC721-approve}."
      },
      "balanceOf(address)": {
        "details": "See {IERC721-balanceOf}."
      },
      "claimMint(uint256,bytes32[])": {
        "details": "user must mint max invocations",
        "params": {
          "invocations": "number of tokens to mint",
          "proof": "merkle proof to prove address and token mint count are in tree"
        }
      },
      "constructor": {
        "params": {
          "_amountForPromotion": "promotional nfts count",
          "_collectionSize": "the total size of the collection",
          "_maxPublicBatchPerAddress": "max mintable tokens in public sale",
          "_mintPrice": "mint price of each nft"
        }
      },
      "getApproved(uint256)": {
        "details": "See {IERC721-getApproved}."
      },
      "isApprovedForAll(address,address)": {
        "details": "See {IERC721-isApprovedForAll}."
      },
      "name()": {
        "details": "See {IERC721Metadata-name}."
      },
      "owner()": {
        "details": "Returns the address of the current owner."
      },
      "ownerOf(uint256)": {
        "details": "See {IERC721-ownerOf}."
      },
      "presaleMint(uint256,uint256,bytes32[])": {
        "params": {
          "invocations": "number of tokens to mint",
          "maxInvocation": "max number of invocations of the user",
          "proof": "merkle proof to prove address and token mint count are in tree"
        }
      },
      "promotionMint(uint256)": {
        "params": {
          "invocations": "the number of invocations to batch mint"
        }
      },
      "publicMint(uint256)": {
        "details": "user can only mint less than maxPublicBatchPerAddress of tokens",
        "params": {
          "invocations": "number of tokens to mint"
        }
      },
      "renounceOwnership()": {
        "details": "Leaves the contract without owner. It will not be possible to call `onlyOwner` functions anymore. Can only be called by the current owner. NOTE: Renouncing ownership will leave the contract without an owner, thereby removing any functionality that is only available to the owner."
      },
      "safeTransferFrom(address,address,uint256)": {
        "details": "See {IERC721-safeTransferFrom}."
      },
      "safeTransferFrom(address,address,uint256,bytes)": {
        "details": "See {IERC721-safeTransferFrom}."
      },
      "setApprovalForAll(address,bool)": {
        "details": "See {IERC721-setApprovalForAll}."
      },
      "setClaimMerkleRoot(bytes32)": {
        "params": {
          "_claimMerkleRoot": "root of the merklelized claimlist"
        }
      },
      "setMintTime(uint256,uint256,uint256)": {
        "details": "this function can serve as an \"active\" and \"non-active\" sale statusset the values to uint256(-1) for \"non-active\" sale statusalso, pass contract ownership to address(0) to close sale forever",
        "params": {
          "_presaleTime": "time the presale starts",
          "_publicTime": "time the public sale starts"
        }
      },
      "setOwnersExplicit(uint256)": {
        "details": "eliminate loops in future calls of ownerOf()"
      },
      "setPresaleMerkleRoot(bytes32)": {
        "params": {
          "_presaleMerkleRoot": "root of the merklelized whitelist"
        }
      },
      "supportsInterface(bytes4)": {
        "details": "See {IERC165-supportsInterface}."
      },
      "symbol()": {
        "details": "See {IERC721Metadata-symbol}."
      },
      "tokenURI(uint256)": {
        "details": "See {IERC721Metadata-tokenURI}."
      },
      "totalSupply()": {
        "details": "Burned tokens are calculated here, use _totalMinted() if you want to count just minted tokens."
      },
      "transferFrom(address,address,uint256)": {
        "details": "See {IERC721-transferFrom}."
      },
      "transferOwnership(address)": {
        "details": "Transfers ownership of the contract to a new account (`newOwner`). Can only be called by the current owner."
      }
    },
    "stateVariables": {
      "version": {
        "details": "Semantic versioning for this contract"
      }
    },
    "version": 1
  },
  "userdoc": {
    "events": {
      "Created(address,uint256)": {
        "notice": "============ Events ============"
      }
    },
    "kind": "user",
    "methods": {
      "amountForPromotion()": {
        "notice": "promotional nfts count"
      },
      "baseURI()": {
        "notice": "core metadata baseURI used for tokens metadata"
      },
      "claimMerkleRoot()": {
        "notice": "ERC721-presale inclusion root"
      },
      "claimMint(uint256,bytes32[])": {
        "notice": "Allows claim of tokens if address is part of merkle tree"
      },
      "claimTime()": {
        "notice": "time the claim starts"
      },
      "collectionSize()": {
        "notice": "total number of tokens in the collection"
      },
      "constructor": {
        "notice": "Creates a new Creator contract"
      },
      "maxPublicBatchPerAddress()": {
        "notice": "max mintable tokens for each address in public"
      },
      "mintOf(address)": {
        "notice": "returns the number of mints of an address"
      },
      "mintPrice()": {
        "notice": "mint price of each nft; same for pre/public sale."
      },
      "presaleMerkleRoot()": {
        "notice": "ERC721-presale inclusion root"
      },
      "presaleMint(uint256,uint256,bytes32[])": {
        "notice": "Allows presale minting of tokens if address is part of merkle tree"
      },
      "presaleTime()": {
        "notice": "time the presale starts;"
      },
      "promotionMint(uint256)": {
        "notice": "used by owner to mint promotional nfts"
      },
      "publicMint(uint256)": {
        "notice": "Allows public minting of tokens"
      },
      "publicTime()": {
        "notice": "time the public starts;"
      },
      "setBaseURI(string)": {
        "notice": "set the new baseURI to change the tokens metadata"
      },
      "setClaimMerkleRoot(bytes32)": {
        "notice": "force override the merkle root used in presale mint"
      },
      "setMintTime(uint256,uint256,uint256)": {
        "notice": "Set the time for the mint"
      },
      "setOwnersExplicit(uint256)": {
        "notice": "sets the owners quantity explicity"
      },
      "setPresaleMerkleRoot(bytes32)": {
        "notice": "force override the merkle root used in presale mint"
      },
      "version()": {
        "notice": "============ Semantic Versioning ============"
      },
      "withdrawMoney()": {
        "notice": "withdraws the ether in the contract to owner"
      }
    },
    "version": 1
  },
  "storageLayout": {
    "storage": [
      {
        "astId": 5167,
        "contract": "contracts/RhapsodyCreatorBasic.sol:RhapsodyCreatorBasic",
        "label": "_currentIndex",
        "offset": 0,
        "slot": "0",
        "type": "t_uint256"
      },
      {
        "astId": 5169,
        "contract": "contracts/RhapsodyCreatorBasic.sol:RhapsodyCreatorBasic",
        "label": "_burnCounter",
        "offset": 0,
        "slot": "1",
        "type": "t_uint256"
      },
      {
        "astId": 5171,
        "contract": "contracts/RhapsodyCreatorBasic.sol:RhapsodyCreatorBasic",
        "label": "_name",
        "offset": 0,
        "slot": "2",
        "type": "t_string_storage"
      },
      {
        "astId": 5173,
        "contract": "contracts/RhapsodyCreatorBasic.sol:RhapsodyCreatorBasic",
        "label": "_symbol",
        "offset": 0,
        "slot": "3",
        "type": "t_string_storage"
      },
      {
        "astId": 5178,
        "contract": "contracts/RhapsodyCreatorBasic.sol:RhapsodyCreatorBasic",
        "label": "_ownerships",
        "offset": 0,
        "slot": "4",
        "type": "t_mapping(t_uint256,t_struct(TokenOwnership)5156_storage)"
      },
      {
        "astId": 5183,
        "contract": "contracts/RhapsodyCreatorBasic.sol:RhapsodyCreatorBasic",
        "label": "_addressData",
        "offset": 0,
        "slot": "5",
        "type": "t_mapping(t_address,t_struct(AddressData)5165_storage)"
      },
      {
        "astId": 5187,
        "contract": "contracts/RhapsodyCreatorBasic.sol:RhapsodyCreatorBasic",
        "label": "_tokenApprovals",
        "offset": 0,
        "slot": "6",
        "type": "t_mapping(t_uint256,t_address)"
      },
      {
        "astId": 5193,
        "contract": "contracts/RhapsodyCreatorBasic.sol:RhapsodyCreatorBasic",
        "label": "_operatorApprovals",
        "offset": 0,
        "slot": "7",
        "type": "t_mapping(t_address,t_mapping(t_address,t_bool))"
      },
      {
        "astId": 6433,
        "contract": "contracts/RhapsodyCreatorBasic.sol:RhapsodyCreatorBasic",
        "label": "nextOwnerToExplicitlySet",
        "offset": 0,
        "slot": "8",
        "type": "t_uint256"
      },
      {
        "astId": 7,
        "contract": "contracts/RhapsodyCreatorBasic.sol:RhapsodyCreatorBasic",
        "label": "_owner",
        "offset": 0,
        "slot": "9",
        "type": "t_address"
      },
      {
        "astId": 123,
        "contract": "contracts/RhapsodyCreatorBasic.sol:RhapsodyCreatorBasic",
        "label": "_status",
        "offset": 0,
        "slot": "10",
        "type": "t_uint256"
      },
      {
        "astId": 2619,
        "contract": "contracts/RhapsodyCreatorBasic.sol:RhapsodyCreatorBasic",
        "label": "claimMerkleRoot",
        "offset": 0,
        "slot": "11",
        "type": "t_bytes32"
      },
      {
        "astId": 2622,
        "contract": "contracts/RhapsodyCreatorBasic.sol:RhapsodyCreatorBasic",
        "label": "presaleMerkleRoot",
        "offset": 0,
        "slot": "12",
        "type": "t_bytes32"
      },
      {
        "astId": 2625,
        "contract": "contracts/RhapsodyCreatorBasic.sol:RhapsodyCreatorBasic",
        "label": "claimTime",
        "offset": 0,
        "slot": "13",
        "type": "t_uint256"
      },
      {
        "astId": 2628,
        "contract": "contracts/RhapsodyCreatorBasic.sol:RhapsodyCreatorBasic",
        "label": "presaleTime",
        "offset": 0,
        "slot": "14",
        "type": "t_uint256"
      },
      {
        "astId": 2631,
        "contract": "contracts/RhapsodyCreatorBasic.sol:RhapsodyCreatorBasic",
        "label": "publicTime",
        "offset": 0,
        "slot": "15",
        "type": "t_uint256"
      },
      {
        "astId": 2633,
        "contract": "contracts/RhapsodyCreatorBasic.sol:RhapsodyCreatorBasic",
        "label": "_baseTokenURI",
        "offset": 0,
        "slot": "16",
        "type": "t_string_storage"
      }
    ],
    "types": {
      "t_address": {
        "encoding": "inplace",
        "label": "address",
        "numberOfBytes": "20"
      },
      "t_bool": {
        "encoding": "inplace",
        "label": "bool",
        "numberOfBytes": "1"
      },
      "t_bytes32": {
        "encoding": "inplace",
        "label": "bytes32",
        "numberOfBytes": "32"
      },
      "t_mapping(t_address,t_bool)": {
        "encoding": "mapping",
        "key": "t_address",
        "label": "mapping(address => bool)",
        "numberOfBytes": "32",
        "value": "t_bool"
      },
      "t_mapping(t_address,t_mapping(t_address,t_bool))": {
        "encoding": "mapping",
        "key": "t_address",
        "label": "mapping(address => mapping(address => bool))",
        "numberOfBytes": "32",
        "value": "t_mapping(t_address,t_bool)"
      },
      "t_mapping(t_address,t_struct(AddressData)5165_storage)": {
        "encoding": "mapping",
        "key": "t_address",
        "label": "mapping(address => struct ERC721A.AddressData)",
        "numberOfBytes": "32",
        "value": "t_struct(AddressData)5165_storage"
      },
      "t_mapping(t_uint256,t_address)": {
        "encoding": "mapping",
        "key": "t_uint256",
        "label": "mapping(uint256 => address)",
        "numberOfBytes": "32",
        "value": "t_address"
      },
      "t_mapping(t_uint256,t_struct(TokenOwnership)5156_storage)": {
        "encoding": "mapping",
        "key": "t_uint256",
        "label": "mapping(uint256 => struct ERC721A.TokenOwnership)",
        "numberOfBytes": "32",
        "value": "t_struct(TokenOwnership)5156_storage"
      },
      "t_string_storage": {
        "encoding": "bytes",
        "label": "string",
        "numberOfBytes": "32"
      },
      "t_struct(AddressData)5165_storage": {
        "encoding": "inplace",
        "label": "struct ERC721A.AddressData",
        "members": [
          {
            "astId": 5158,
            "contract": "contracts/RhapsodyCreatorBasic.sol:RhapsodyCreatorBasic",
            "label": "balance",
            "offset": 0,
            "slot": "0",
            "type": "t_uint64"
          },
          {
            "astId": 5160,
            "contract": "contracts/RhapsodyCreatorBasic.sol:RhapsodyCreatorBasic",
            "label": "numberMinted",
            "offset": 8,
            "slot": "0",
            "type": "t_uint64"
          },
          {
            "astId": 5162,
            "contract": "contracts/RhapsodyCreatorBasic.sol:RhapsodyCreatorBasic",
            "label": "numberBurned",
            "offset": 16,
            "slot": "0",
            "type": "t_uint64"
          },
          {
            "astId": 5164,
            "contract": "contracts/RhapsodyCreatorBasic.sol:RhapsodyCreatorBasic",
            "label": "aux",
            "offset": 24,
            "slot": "0",
            "type": "t_uint64"
          }
        ],
        "numberOfBytes": "32"
      },
      "t_struct(TokenOwnership)5156_storage": {
        "encoding": "inplace",
        "label": "struct ERC721A.TokenOwnership",
        "members": [
          {
            "astId": 5151,
            "contract": "contracts/RhapsodyCreatorBasic.sol:RhapsodyCreatorBasic",
            "label": "addr",
            "offset": 0,
            "slot": "0",
            "type": "t_address"
          },
          {
            "astId": 5153,
            "contract": "contracts/RhapsodyCreatorBasic.sol:RhapsodyCreatorBasic",
            "label": "startTimestamp",
            "offset": 20,
            "slot": "0",
            "type": "t_uint64"
          },
          {
            "astId": 5155,
            "contract": "contracts/RhapsodyCreatorBasic.sol:RhapsodyCreatorBasic",
            "label": "burned",
            "offset": 28,
            "slot": "0",
            "type": "t_bool"
          }
        ],
        "numberOfBytes": "32"
      },
      "t_uint256": {
        "encoding": "inplace",
        "label": "uint256",
        "numberOfBytes": "32"
      },
      "t_uint64": {
        "encoding": "inplace",
        "label": "uint64",
        "numberOfBytes": "8"
      }
    }
  }
}